{
  "_format": "hh-sol-artifact-1",
  "contractName": "Zenith",
  "sourceName": "contracts/Zenith.sol",
  "abi": [
    {
      "inputs": [
        {
          "internalType": "contract ISxTRelayProxy",
          "name": "sxtRelayAddress",
          "type": "address"
        },
        {
          "internalType": "contract LinkTokenInterface",
          "name": "chainlinkTokenAddress",
          "type": "address"
        }
      ],
      "stateMutability": "nonpayable",
      "type": "constructor"
    },
    {
      "anonymous": false,
      "inputs": [
        {
          "indexed": false,
          "internalType": "uint256",
          "name": "_campaigns",
          "type": "uint256"
        },
        {
          "indexed": false,
          "internalType": "address",
          "name": "_advertiser",
          "type": "address"
        },
        {
          "indexed": false,
          "internalType": "uint256",
          "name": "_budget",
          "type": "uint256"
        }
      ],
      "name": "CampaignCreated",
      "type": "event"
    },
    {
      "anonymous": false,
      "inputs": [
        {
          "indexed": false,
          "internalType": "uint256",
          "name": "_campaignId",
          "type": "uint256"
        }
      ],
      "name": "CampaignDisabled",
      "type": "event"
    },
    {
      "anonymous": false,
      "inputs": [
        {
          "indexed": false,
          "internalType": "uint256",
          "name": "_campaignId",
          "type": "uint256"
        }
      ],
      "name": "CampaignEnabled",
      "type": "event"
    },
    {
      "anonymous": false,
      "inputs": [
        {
          "indexed": true,
          "internalType": "address",
          "name": "from",
          "type": "address"
        },
        {
          "indexed": true,
          "internalType": "address",
          "name": "to",
          "type": "address"
        }
      ],
      "name": "OwnershipTransferRequested",
      "type": "event"
    },
    {
      "anonymous": false,
      "inputs": [
        {
          "indexed": true,
          "internalType": "address",
          "name": "from",
          "type": "address"
        },
        {
          "indexed": true,
          "internalType": "address",
          "name": "to",
          "type": "address"
        }
      ],
      "name": "OwnershipTransferred",
      "type": "event"
    },
    {
      "inputs": [],
      "name": "acceptOwnership",
      "outputs": [],
      "stateMutability": "nonpayable",
      "type": "function"
    },
    {
      "inputs": [
        {
          "internalType": "uint256",
          "name": "_budget",
          "type": "uint256"
        },
        {
          "internalType": "uint256",
          "name": "_minCostPerClick",
          "type": "uint256"
        },
        {
          "internalType": "uint256",
          "name": "_endDatetime",
          "type": "uint256"
        },
        {
          "internalType": "string",
          "name": "_cid",
          "type": "string"
        }
      ],
      "name": "createCampaign",
      "outputs": [
        {
          "internalType": "uint256",
          "name": "",
          "type": "uint256"
        }
      ],
      "stateMutability": "payable",
      "type": "function"
    },
    {
      "inputs": [],
      "name": "currentRequestId",
      "outputs": [
        {
          "internalType": "bytes32",
          "name": "",
          "type": "bytes32"
        }
      ],
      "stateMutability": "view",
      "type": "function"
    },
    {
      "inputs": [
        {
          "internalType": "uint256",
          "name": "campaignId",
          "type": "uint256"
        }
      ],
      "name": "disableCampaign",
      "outputs": [],
      "stateMutability": "nonpayable",
      "type": "function"
    },
    {
      "inputs": [
        {
          "internalType": "uint256",
          "name": "campaignId",
          "type": "uint256"
        }
      ],
      "name": "enableCampaign",
      "outputs": [],
      "stateMutability": "nonpayable",
      "type": "function"
    },
    {
      "inputs": [],
      "name": "getAvailableCampaigns",
      "outputs": [
        {
          "components": [
            {
              "internalType": "uint256",
              "name": "id",
              "type": "uint256"
            },
            {
              "internalType": "address",
              "name": "advertiser",
              "type": "address"
            },
            {
              "internalType": "uint256",
              "name": "budget",
              "type": "uint256"
            },
            {
              "internalType": "uint256",
              "name": "remaining",
              "type": "uint256"
            },
            {
              "internalType": "uint256",
              "name": "minCostPerClick",
              "type": "uint256"
            },
            {
              "internalType": "uint256",
              "name": "endDatetime",
              "type": "uint256"
            },
            {
              "internalType": "string",
              "name": "cid",
              "type": "string"
            },
            {
              "internalType": "bool",
              "name": "active",
              "type": "bool"
            }
          ],
          "internalType": "struct Zenith.Campaign[]",
          "name": "",
          "type": "tuple[]"
        }
      ],
      "stateMutability": "view",
      "type": "function"
    },
    {
      "inputs": [],
      "name": "getCampaignsOfAdvertiser",
      "outputs": [
        {
          "components": [
            {
              "components": [
                {
                  "internalType": "uint256",
                  "name": "id",
                  "type": "uint256"
                },
                {
                  "internalType": "address",
                  "name": "advertiser",
                  "type": "address"
                },
                {
                  "internalType": "uint256",
                  "name": "budget",
                  "type": "uint256"
                },
                {
                  "internalType": "uint256",
                  "name": "remaining",
                  "type": "uint256"
                },
                {
                  "internalType": "uint256",
                  "name": "minCostPerClick",
                  "type": "uint256"
                },
                {
                  "internalType": "uint256",
                  "name": "endDatetime",
                  "type": "uint256"
                },
                {
                  "internalType": "string",
                  "name": "cid",
                  "type": "string"
                },
                {
                  "internalType": "bool",
                  "name": "active",
                  "type": "bool"
                }
              ],
              "internalType": "struct Zenith.Campaign",
              "name": "campaign",
              "type": "tuple"
            },
            {
              "components": [
                {
                  "internalType": "uint256",
                  "name": "clickedTime",
                  "type": "uint256"
                },
                {
                  "internalType": "uint256",
                  "name": "costPerClick",
                  "type": "uint256"
                },
                {
                  "internalType": "address",
                  "name": "user",
                  "type": "address"
                },
                {
                  "internalType": "string",
                  "name": "country",
                  "type": "string"
                }
              ],
              "internalType": "struct Zenith.AdClick[]",
              "name": "adClicks",
              "type": "tuple[]"
            }
          ],
          "internalType": "struct Zenith.CampaignWithAdClicks[]",
          "name": "",
          "type": "tuple[]"
        }
      ],
      "stateMutability": "view",
      "type": "function"
    },
    {
      "inputs": [],
      "name": "getChainlinkToken",
      "outputs": [
        {
          "internalType": "contract LinkTokenInterface",
          "name": "",
          "type": "address"
        }
      ],
      "stateMutability": "view",
      "type": "function"
    },
    {
      "inputs": [],
      "name": "getLastProcessed",
      "outputs": [
        {
          "internalType": "uint256",
          "name": "",
          "type": "uint256"
        }
      ],
      "stateMutability": "view",
      "type": "function"
    },
    {
      "inputs": [],
      "name": "getRewardsOfUser",
      "outputs": [
        {
          "components": [
            {
              "internalType": "uint256",
              "name": "reward",
              "type": "uint256"
            },
            {
              "internalType": "uint256",
              "name": "adClicks",
              "type": "uint256"
            }
          ],
          "internalType": "struct Zenith.RewardWithAdClicks",
          "name": "",
          "type": "tuple"
        }
      ],
      "stateMutability": "view",
      "type": "function"
    },
    {
      "inputs": [],
      "name": "getSxTRelayContract",
      "outputs": [
        {
          "internalType": "contract ISxTRelayProxy",
          "name": "",
          "type": "address"
        }
      ],
      "stateMutability": "view",
      "type": "function"
    },
    {
      "inputs": [],
      "name": "jobId",
      "outputs": [
        {
          "internalType": "string",
          "name": "",
          "type": "string"
        }
      ],
      "stateMutability": "view",
      "type": "function"
    },
    {
      "inputs": [],
      "name": "numAdClicks",
      "outputs": [
        {
          "internalType": "uint256",
          "name": "",
          "type": "uint256"
        }
      ],
      "stateMutability": "view",
      "type": "function"
    },
    {
      "inputs": [],
      "name": "numCampaigns",
      "outputs": [
        {
          "internalType": "uint256",
          "name": "",
          "type": "uint256"
        }
      ],
      "stateMutability": "view",
      "type": "function"
    },
    {
      "inputs": [],
      "name": "owner",
      "outputs": [
        {
          "internalType": "address",
          "name": "",
          "type": "address"
        }
      ],
      "stateMutability": "view",
      "type": "function"
    },
    {
      "inputs": [
        {
          "internalType": "bytes32",
          "name": "_requestId",
          "type": "bytes32"
        },
        {
          "internalType": "string[][]",
          "name": "_data",
          "type": "string[][]"
        }
      ],
      "name": "recordAdClicks",
      "outputs": [],
      "stateMutability": "payable",
      "type": "function"
    },
    {
      "inputs": [
        {
          "internalType": "bytes32",
          "name": "",
          "type": "bytes32"
        }
      ],
      "name": "requests",
      "outputs": [
        {
          "internalType": "address",
          "name": "",
          "type": "address"
        }
      ],
      "stateMutability": "view",
      "type": "function"
    },
    {
      "inputs": [],
      "name": "totalRewards",
      "outputs": [
        {
          "internalType": "uint256",
          "name": "",
          "type": "uint256"
        }
      ],
      "stateMutability": "view",
      "type": "function"
    },
    {
      "inputs": [
        {
          "internalType": "address",
          "name": "to",
          "type": "address"
        }
      ],
      "name": "transferOwnership",
      "outputs": [],
      "stateMutability": "nonpayable",
      "type": "function"
    },
    {
      "inputs": [
        {
          "internalType": "string",
          "name": "_resourceId",
          "type": "string"
        }
      ],
      "name": "triggerRetrieveRewards",
      "outputs": [
        {
          "internalType": "bytes32",
          "name": "requestId",
          "type": "bytes32"
        }
      ],
      "stateMutability": "nonpayable",
      "type": "function"
    },
    {
      "inputs": [
        {
          "internalType": "address",
          "name": "to",
          "type": "address"
        },
        {
          "internalType": "uint256",
          "name": "amount",
          "type": "uint256"
        }
      ],
      "name": "withdrawChainlink",
      "outputs": [],
      "stateMutability": "nonpayable",
      "type": "function"
    }
  ],
  "bytecode": "0x60c0604052602060809081527f626339376336383064323932346633316130353831643934373331346363363460a0526006906200003e90826200034d565b506000600d556000600e556000600f553480156200005b57600080fd5b5060405162003436380380620034368339810160408190526200007e9162000432565b600160009081558290829033908190819081620000e25760405162461bcd60e51b815260206004820152601860248201527f43616e6e6f7420736574206f776e657220746f207a65726f000000000000000060448201526064015b60405180910390fd5b600180546001600160a01b0319166001600160a01b038481169190911790915581161562000115576200011581620001fc565b5050506001600160a01b0383166200016f5760405162461bcd60e51b81526020600482015260276024820152600080516020620034168339815191526044820152664164647265737360c81b6064820152608401620000d9565b6001600160a01b038216620001c65760405162461bcd60e51b81526020600482015260276024820152600080516020620034168339815191526044820152664164647265737360c81b6064820152608401620000d9565b50600380546001600160a01b039384166001600160a01b0319918216179091556004805492909316911617905550620004719050565b336001600160a01b03821603620002565760405162461bcd60e51b815260206004820152601760248201527f43616e6e6f74207472616e7366657220746f2073656c660000000000000000006044820152606401620000d9565b600280546001600160a01b0319166001600160a01b03838116918217909255600154604051919216907fed8889f560326eb138920d842192f0eb3dd22b4f139c87a2c57538e05bae127890600090a350565b634e487b7160e01b600052604160045260246000fd5b600181811c90821680620002d357607f821691505b602082108103620002f457634e487b7160e01b600052602260045260246000fd5b50919050565b601f8211156200034857600081815260208120601f850160051c81016020861015620003235750805b601f850160051c820191505b8181101562000344578281556001016200032f565b5050505b505050565b81516001600160401b03811115620003695762000369620002a8565b62000381816200037a8454620002be565b84620002fa565b602080601f831160018114620003b95760008415620003a05750858301515b600019600386901b1c1916600185901b17855562000344565b600085815260208120601f198616915b82811015620003ea57888601518255948401946001909101908401620003c9565b5085821015620004095787850151600019600388901b60f8161c191681555b5050505050600190811b01905550565b6001600160a01b03811681146200042f57600080fd5b50565b600080604083850312156200044657600080fd5b8251620004538162000419565b6020840151909250620004668162000419565b809150509250929050565b612f9580620004816000396000f3fe60806040526004361061016a5760003560e01c80635ae2bfdb116100cb57806384962de71161007f5780639d866985116100595780639d8669851461039b578063c2939d97146103d1578063f2fde38b146103f357600080fd5b806384962de71461033b5780638cb1047a1461035b5780638da5cb5b1461037d57600080fd5b80636e5b46f5116100b05780636e5b46f5146102f157806379ba5097146103135780637ba774311461032857600080fd5b80635ae2bfdb146102b95780636cedeedd146102cf57600080fd5b8063369d5f3d1161012257806344afbb911161010757806344afbb9114610253578063516ef31c146102835780635968ec5f146102a357600080fd5b8063369d5f3d146102205780633c4f02da1461024057600080fd5b8063211c119811610153578063211c1198146101ca5780632c0f7b6f146101ec5780632ea6ef9e1461020257600080fd5b80630e15561a1461016f578063165d35e114610198575b600080fd5b34801561017b57600080fd5b50610185600f5481565b6040519081526020015b60405180910390f35b3480156101a457600080fd5b506004546001600160a01b03165b6040516001600160a01b03909116815260200161018f565b3480156101d657600080fd5b506101ea6101e53660046125aa565b610413565b005b3480156101f857600080fd5b50610185600d5481565b34801561020e57600080fd5b506003546001600160a01b03166101b2565b34801561022c57600080fd5b506101ea61023b3660046125d6565b610542565b6101ea61024e3660046125ef565b6105c1565b34801561025f57600080fd5b50610268610ab5565b6040805182518152602092830151928101929092520161018f565b34801561028f57600080fd5b5061018561029e366004612711565b610b3d565b3480156102af57600080fd5b50610185600e5481565b3480156102c557600080fd5b5061018560055481565b3480156102db57600080fd5b506102e4610e8b565b60405161018f9190612812565b3480156102fd57600080fd5b506103066111ad565b60405161018f9190612907565b34801561031f57600080fd5b506101ea6113ed565b610185610336366004612969565b6114a2565b34801561034757600080fd5b506101ea6103563660046125d6565b6117b9565b34801561036757600080fd5b50336000908152600b6020526040902054610185565b34801561038957600080fd5b506001546001600160a01b03166101b2565b3480156103a757600080fd5b506101b26103b63660046125d6565b600c602052600090815260409020546001600160a01b031681565b3480156103dd57600080fd5b506103e661182f565b60405161018f91906129c3565b3480156103ff57600080fd5b506101ea61040e3660046129d6565b6118bd565b61041b6118d1565b61042361192a565b600480546040517fa9059cbb0000000000000000000000000000000000000000000000000000000081526001600160a01b0385811693820193909352602481018490526000929091169063a9059cbb906044016020604051808303816000875af1158015610495573d6000803e3d6000fd5b505050506040513d601f19601f820116820180604052508101906104b991906129f3565b9050806105335760405162461bcd60e51b815260206004820152602c60248201527f55736572526571756573743a20436861696e6c696e6b20746f6b656e2074726160448201527f6e73666572206661696c6564000000000000000000000000000000000000000060648201526084015b60405180910390fd5b5061053e6001600055565b5050565b60008181526007602052604090206001015481906001600160a01b0316331461056a57600080fd5b60008281526007602081905260409182902001805460ff19169055517f9620e459d78787bd1a66e8aa7f06df3177404e39240c06c264f48ce40fee1415906105b59084815260200190565b60405180910390a15050565b6003546001600160a01b03166001600160a01b0316638abf60776040518163ffffffff1660e01b8152600401602060405180830381865afa15801561060a573d6000803e3d6000fd5b505050506040513d601f19601f8201168201806040525081019061062e9190612a15565b6001600160a01b0316336001600160a01b0316146106b45760405162461bcd60e51b815260206004820152603260248201527f55736572526571756573743a204f6e6c792063616c6c61626c6520627920537860448201527f54205265717565737420436f6e74726163740000000000000000000000000000606482015260840161052a565b6000838152600c60205260408120546001600160a01b0316815b83811015610a6f57600061075c8686848181106106ed576106ed612a32565b90506020028101906106ff9190612a48565b600081811061071057610710612a32565b90506020028101906107229190612a92565b8080601f01602080910402602001604051908101604052809392919081815260200183838082843760009201919091525061198692505050565b6001600160a01b0384166000908152600a6020908152604080832084845290915290205490915015158061079f5750600081815260076020526040902060030154155b156107aa5750610a5d565b60006107e48787858181106107c1576107c1612a32565b90506020028101906107d39190612a48565b600481811061071057610710612a32565b9050600061086c8888868181106107fd576107fd612a32565b905060200281019061080f9190612a48565b600381811061082057610820612a32565b90506020028101906108329190612a92565b8080601f016020809104026020016040519081016040528093929190818152602001838380828437600092019190915250611a0892505050565b9050600061087b848484611b13565b9050806001600160a01b0316866001600160a01b031603610a5857600084815260076020526040902060048101546003909101546108ba908290611b99565b905060006040518060800160405280868152602001838152602001896001600160a01b031681526020018c8c8a8181106108f6576108f6612a32565b90506020028101906109089190612a48565b600281811061091957610919612a32565b905060200281019061092b9190612a92565b8080601f016020809104026020016040519081016040528093929190818152602001838380828437600092018290525093909452505088815260086020908152604080832080546001808201835591855293839020865160049095020193845591850151918301919091558301516002820180546001600160a01b0319166001600160a01b039092169190911790556060830151929350839290915060038201906109d69082612b5e565b5050506001600160a01b0388166000908152600a602090815260408083208984528252808320859055600790915281206003018054849290610a19908490612c34565b9091555050600e8054600090610a2e90612c47565b90915550610a3c828a612c60565b985081600f6000828254610a509190612c60565b909155505050505b505050505b80610a6781612c47565b9150506106ce565b508115610aae576040516001600160a01b0382169083156108fc029084906000818181858888f19350505050158015610aac573d6000803e3d6000fd5b505b5050505050565b604080518082019091526000808252602082015260008060005b600d54811015610b2557336000908152600a602090815260408083208484529091529020548015610b1257610b048185612c60565b9350610b0f83612c47565b92505b5080610b1d81612c47565b915050610acf565b50604080518082019091529182526020820152919050565b6000610b476118d1565b6004546001600160a01b03166001600160a01b031663095ea7b3610b736003546001600160a01b031690565b6001600160a01b0316638abf60776040518163ffffffff1660e01b8152600401602060405180830381865afa158015610bb0573d6000803e3d6000fd5b505050506040513d601f19601f82011682018060405250810190610bd49190612a15565b6003546001600160a01b03166001600160a01b0316631f78b0906040518163ffffffff1660e01b8152600401602060405180830381865afa158015610c1d573d6000803e3d6000fd5b505050506040513d601f19601f82011682018060405250810190610c419190612c73565b6040517fffffffff0000000000000000000000000000000000000000000000000000000060e085901b1681526001600160a01b03909216600483015260248201526044016020604051808303816000875af1158015610ca4573d6000803e3d6000fd5b505050506040513d601f19601f82011682018060405250810190610cc891906129f3565b610d3a5760405162461bcd60e51b815260206004820152602860248201527f55736572526571756573743a20496e73756666696369656e74204c494e4b206160448201527f6c6c6f77616e6365000000000000000000000000000000000000000000000000606482015260840161052a565b336000908152600b60205260408120548390610d5590611bb3565b610d60336014611c53565b604051602001610d7293929190612c8c565b6040516020818303038152906040529050610d956003546001600160a01b031690565b6040517fe85b09970000000000000000000000000000000000000000000000000000000081526001600160a01b03919091169063e85b099790610e05908490879030907f3c4f02da0000000000000000000000000000000000000000000000000000000090600690600401612dc2565b6020604051808303816000875af1158015610e24573d6000803e3d6000fd5b505050506040513d601f19601f82011682018060405250810190610e489190612c73565b6000818152600c6020908152604080832080546001600160a01b031916339081179091558352600b90915290204290559150610e8690506001600055565b919050565b336000908152600960205260408120546060918167ffffffffffffffff811115610eb757610eb761266e565b604051908082528060200260200182016040528015610ef057816020015b610edd61252a565b815260200190600190039081610ed55790505b50905060005b828110156111a657336000908152600960205260408120805483908110610f1f57610f1f612a32565b6000918252602080832090910154808352600782526040928390208351610100810185528154815260018201546001600160a01b0316938101939093526002810154938301939093526003830154606083015260048301546080830152600583015460a083015260068301805491945091929160c0840191610fa090612ad9565b80601f0160208091040260200160405190810160405280929190818152602001828054610fcc90612ad9565b80156110195780601f10610fee57610100808354040283529160200191611019565b820191906000526020600020905b815481529060010190602001808311610ffc57829003601f168201915b50505091835250506007919091015460ff161515602090910152835184908490811061104757611047612a32565b6020908102919091018101519190915260008281526008825260408082208054825181860281018601909352808352919390929084015b8282101561116d57600084815260209081902060408051608081018252600486029092018054835260018101549383019390935260028301546001600160a01b0316908201526003820180549192916060840191906110dc90612ad9565b80601f016020809104026020016040519081016040528092919081815260200182805461110890612ad9565b80156111555780601f1061112a57610100808354040283529160200191611155565b820191906000526020600020905b81548152906001019060200180831161113857829003601f168201915b5050505050815250508152602001906001019061107e565b5050505083838151811061118357611183612a32565b60200260200101516020018190525050808061119e90612c47565b915050610ef6565b5092915050565b60606000805b600d548110156111eb576111c681611e18565b156111d957816111d581612c47565b9250505b806111e381612c47565b9150506111b3565b5060008167ffffffffffffffff8111156112075761120761266e565b60405190808252806020026020018201604052801561128b57816020015b6112786040518061010001604052806000815260200160006001600160a01b0316815260200160008152602001600081526020016000815260200160008152602001606081526020016000151581525090565b8152602001906001900390816112255790505b50905060005b600d548110156111a6576112a481611e18565b156113db576000818152600760209081526040918290208251610100810184528154815260018201546001600160a01b0316928101929092526002810154928201929092526003820154606082015260048201546080820152600582015460a082015260068201805491929160c08401919061131f90612ad9565b80601f016020809104026020016040519081016040528092919081815260200182805461134b90612ad9565b80156113985780601f1061136d57610100808354040283529160200191611398565b820191906000526020600020905b81548152906001019060200180831161137b57829003601f168201915b50505091835250506007919091015460ff161515602090910152826113bc85612eab565b945084815181106113cf576113cf612a32565b60200260200101819052505b806113e581612c47565b915050611291565b6002546001600160a01b031633146114475760405162461bcd60e51b815260206004820152601660248201527f4d7573742062652070726f706f736564206f776e657200000000000000000000604482015260640161052a565b600180546001600160a01b0319808216339081179093556002805490911690556040516001600160a01b03909116919082907f8be0079c531659141344cd1fd0a4f28419497f9722a3daafe3b4186f6b6457e090600090a350565b60008085116114f35760405162461bcd60e51b815260206004820152601d60248201527f427564676574206d7573742062652067726561746572207468616e2030000000604482015260640161052a565b8434146115425760405162461bcd60e51b815260206004820152601760248201527f496e73756666696369656e742066756e64732073656e74000000000000000000604482015260640161052a565b600084116115925760405162461bcd60e51b815260206004820152601a60248201527f426964206d7573742062652067726561746572207468616e2030000000000000604482015260640161052a565b61159f4262015180612c60565b8310156116145760405162461bcd60e51b815260206004820152602260248201527f456e64206461746574696d65206d75737420626520696e20746865206675747560448201527f7265000000000000000000000000000000000000000000000000000000000000606482015260840161052a565b60008251116116655760405162461bcd60e51b815260206004820152601360248201527f4369642063616e6e6f7420626520656d70747900000000000000000000000000604482015260640161052a565b6040805161010081018252600d548082523360208084019182528385018a8152606085018b8152608086018b815260a087018b815260c088018b8152600160e08a01819052600098895260079096529890962087518155945193850180546001600160a01b0319166001600160a01b03909516949094179093559051600284015551600383015551600482015590516005820155915190918291600682019061170e9082612b5e565b5060e091909101516007909101805460ff19169115159190911790556020818101516001600160a01b031660009081526009825260408120835181546001810183559183529282200191909155600d80549161176983612c47565b909155505080516040805191825233602083015281018790527f63e3678c8493a16f8ba43ae9e547231762ca04526dac2c388bd2c26d894018519060600160405180910390a15195945050505050565b60008181526007602052604090206001015481906001600160a01b031633146117e157600080fd5b60008281526007602081905260409182902001805460ff19166001179055517fba42f99793097dbf156767849735bfd27114e73a9cc1b4c264144cfd154cde00906105b59084815260200190565b6006805461183c90612ad9565b80601f016020809104026020016040519081016040528092919081815260200182805461186890612ad9565b80156118b55780601f1061188a576101008083540402835291602001916118b5565b820191906000526020600020905b81548152906001019060200180831161189857829003601f168201915b505050505081565b6118c561192a565b6118ce81611f62565b50565b6002600054036119235760405162461bcd60e51b815260206004820152601f60248201527f5265656e7472616e637947756172643a207265656e7472616e742063616c6c00604482015260640161052a565b6002600055565b6001546001600160a01b031633146119845760405162461bcd60e51b815260206004820152601660248201527f4f6e6c792063616c6c61626c65206279206f776e657200000000000000000000604482015260640161052a565b565b60008181805b8251811015611a005760008382815181106119a9576119a9612a32565b016020015160f81c9050603081108015906119c5575060398111155b156119ed576119d5603082612c34565b6119e084600a612ec2565b6119ea9190612c60565b92505b50806119f881612c47565b91505061198c565b509392505050565b60606000829050600060028251611a1f9190612ed9565b67ffffffffffffffff811115611a3757611a3761266e565b6040519080825280601f01601f191660200182016040528015611a61576020820181803683370190505b50905060005b60028351611a759190612ed9565b811015611a0057611ab383611a8b836002612ec2565b611a96906001612c60565b81518110611aa657611aa6612a32565b016020015160f81c61200c565b611ac284611a96846002612ec2565b611acd906010612efb565b611ad79190612f17565b60f81b828281518110611aec57611aec612a32565b60200101906001600160f81b031916908160001a905350611b0c81612c47565b9050611a67565b6000808484604051602001611b32929190918252602082015260400190565b6040516020818303038152906040528051906020012090506000611b83827f19457468657265756d205369676e6564204d6573736167653a0a3332000000006000908152601c91909152603c902090565b9050611b8f81856121be565b9695505050505050565b6000818310611ba85781611baa565b825b90505b92915050565b60606000611bc0836121da565b600101905060008167ffffffffffffffff811115611be057611be061266e565b6040519080825280601f01601f191660200182016040528015611c0a576020820181803683370190505b5090508181016020015b600019017f3031323334353637383961626364656600000000000000000000000000000000600a86061a8153600a8504945084611c1457509392505050565b60606000611c62836002612ec2565b611c6d906002612c60565b67ffffffffffffffff811115611c8557611c8561266e565b6040519080825280601f01601f191660200182016040528015611caf576020820181803683370190505b509050600360fc1b81600081518110611cca57611cca612a32565b60200101906001600160f81b031916908160001a9053507f780000000000000000000000000000000000000000000000000000000000000081600181518110611d1557611d15612a32565b60200101906001600160f81b031916908160001a9053506000611d39846002612ec2565b611d44906001612c60565b90505b6001811115611dc9577f303132333435363738396162636465660000000000000000000000000000000085600f1660108110611d8557611d85612a32565b1a60f81b828281518110611d9b57611d9b612a32565b60200101906001600160f81b031916908160001a90535060049490941c93611dc281612eab565b9050611d47565b508315611baa5760405162461bcd60e51b815260206004820181905260248201527f537472696e67733a20686578206c656e67746820696e73756666696369656e74604482015260640161052a565b60008181526007602090815260408083208151610100810183528154815260018201546001600160a01b0316938101939093526002810154918301919091526003810154606083015260048101546080830152600581015460a08301526006810180548493929160c0840191611e8d90612ad9565b80601f0160208091040260200160405190810160405280929190818152602001828054611eb990612ad9565b8015611f065780601f10611edb57610100808354040283529160200191611f06565b820191906000526020600020905b815481529060010190602001808311611ee957829003601f168201915b50505091835250506007919091015460ff16151560209091015260e08101519091508015611f375750428160a00151115b8015611f5b5750336000908152600a60209081526040808320868452909152902054155b9392505050565b336001600160a01b03821603611fba5760405162461bcd60e51b815260206004820152601760248201527f43616e6e6f74207472616e7366657220746f2073656c66000000000000000000604482015260640161052a565b600280546001600160a01b0319166001600160a01b03838116918217909255600154604051919216907fed8889f560326eb138920d842192f0eb3dd22b4f139c87a2c57538e05bae127890600090a350565b6000600360fc1b60f883901b6001600160f81b0319161080159061205e57507f390000000000000000000000000000000000000000000000000000000000000060f883901b6001600160f81b03191611155b1561206e57611bad603083612f30565b7f610000000000000000000000000000000000000000000000000000000000000060f883901b6001600160f81b031916108015906120da57507f660000000000000000000000000000000000000000000000000000000000000060f883901b6001600160f81b03191611155b156120f65760616120ec83600a612f17565b611bad9190612f30565b7f410000000000000000000000000000000000000000000000000000000000000060f883901b6001600160f81b0319161080159061216257507f460000000000000000000000000000000000000000000000000000000000000060f883901b6001600160f81b03191611155b156121745760416120ec83600a612f17565b60405162461bcd60e51b815260040161052a9060208082526004908201527f6661696c00000000000000000000000000000000000000000000000000000000604082015260600190565b60008060006121cd85856122bc565b91509150611a0081612301565b6000807a184f03e93ff9f4daa797ed6e38ed64bf6a1f0100000000000000008310612223577a184f03e93ff9f4daa797ed6e38ed64bf6a1f010000000000000000830492506040015b6d04ee2d6d415b85acef8100000000831061224f576d04ee2d6d415b85acef8100000000830492506020015b662386f26fc10000831061226d57662386f26fc10000830492506010015b6305f5e1008310612285576305f5e100830492506008015b612710831061229957612710830492506004015b606483106122ab576064830492506002015b600a8310611bad5760010192915050565b60008082516041036122f25760208301516040840151606085015160001a6122e687828585612466565b945094505050506122fa565b506000905060025b9250929050565b600081600481111561231557612315612f49565b0361231d5750565b600181600481111561233157612331612f49565b0361237e5760405162461bcd60e51b815260206004820152601860248201527f45434453413a20696e76616c6964207369676e61747572650000000000000000604482015260640161052a565b600281600481111561239257612392612f49565b036123df5760405162461bcd60e51b815260206004820152601f60248201527f45434453413a20696e76616c6964207369676e6174757265206c656e67746800604482015260640161052a565b60038160048111156123f3576123f3612f49565b036118ce5760405162461bcd60e51b815260206004820152602260248201527f45434453413a20696e76616c6964207369676e6174757265202773272076616c60448201527f7565000000000000000000000000000000000000000000000000000000000000606482015260840161052a565b6000807f7fffffffffffffffffffffffffffffff5d576e7357a4501ddfe92f46681b20a083111561249d5750600090506003612521565b6040805160008082526020820180845289905260ff881692820192909252606081018690526080810185905260019060a0016020604051602081039080840390855afa1580156124f1573d6000803e3d6000fd5b5050604051601f1901519150506001600160a01b03811661251a57600060019250925050612521565b9150600090505b94509492505050565b60405180604001604052806125886040518061010001604052806000815260200160006001600160a01b0316815260200160008152602001600081526020016000815260200160008152602001606081526020016000151581525090565b8152602001606081525090565b6001600160a01b03811681146118ce57600080fd5b600080604083850312156125bd57600080fd5b82356125c881612595565b946020939093013593505050565b6000602082840312156125e857600080fd5b5035919050565b60008060006040848603121561260457600080fd5b83359250602084013567ffffffffffffffff8082111561262357600080fd5b818601915086601f83011261263757600080fd5b81358181111561264657600080fd5b8760208260051b850101111561265b57600080fd5b6020830194508093505050509250925092565b634e487b7160e01b600052604160045260246000fd5b600082601f83011261269557600080fd5b813567ffffffffffffffff808211156126b0576126b061266e565b604051601f8301601f19908116603f011681019082821181831017156126d8576126d861266e565b816040528381528660208588010111156126f157600080fd5b836020870160208301376000602085830101528094505050505092915050565b60006020828403121561272357600080fd5b813567ffffffffffffffff81111561273a57600080fd5b61274684828501612684565b949350505050565b60005b83811015612769578181015183820152602001612751565b50506000910152565b6000815180845261278a81602086016020860161274e565b601f01601f19169290920160200192915050565b6000610100825184526001600160a01b03602084015116602085015260408301516040850152606083015160608501526080830151608085015260a083015160a085015260c08301518160c08601526127f982860182612772565b91505060e0830151151560e08501528091505092915050565b60006020808301818452808551808352604092508286019150828160051b87010184880160005b838110156128f957888303603f190185528151805187855261285d8886018261279e565b91890151858303868b01528051808452908a0192915089820190600581901b83018b0160005b828110156128e257848203601f190184528551805183528d8101518e8401528c8101516001600160a01b03168d8401526060908101516080918401829052906128ce81850183612772565b978f0197958f019593505050600101612883565b50988b019896505050928801925050600101612839565b509098975050505050505050565b6000602080830181845280855180835260408601915060408160051b870101925083870160005b8281101561295c57603f1988860301845261294a85835161279e565b9450928501929085019060010161292e565b5092979650505050505050565b6000806000806080858703121561297f57600080fd5b843593506020850135925060408501359150606085013567ffffffffffffffff8111156129ab57600080fd5b6129b787828801612684565b91505092959194509250565b602081526000611baa6020830184612772565b6000602082840312156129e857600080fd5b8135611baa81612595565b600060208284031215612a0557600080fd5b81518015158114611baa57600080fd5b600060208284031215612a2757600080fd5b8151611baa81612595565b634e487b7160e01b600052603260045260246000fd5b6000808335601e19843603018112612a5f57600080fd5b83018035915067ffffffffffffffff821115612a7a57600080fd5b6020019150600581901b36038213156122fa57600080fd5b6000808335601e19843603018112612aa957600080fd5b83018035915067ffffffffffffffff821115612ac457600080fd5b6020019150368190038213156122fa57600080fd5b600181811c90821680612aed57607f821691505b602082108103612b0d57634e487b7160e01b600052602260045260246000fd5b50919050565b601f821115612b5957600081815260208120601f850160051c81016020861015612b3a5750805b601f850160051c820191505b81811015610aac57828155600101612b46565b505050565b815167ffffffffffffffff811115612b7857612b7861266e565b612b8c81612b868454612ad9565b84612b13565b602080601f831160018114612bc15760008415612ba95750858301515b600019600386901b1c1916600185901b178555610aac565b600085815260208120601f198616915b82811015612bf057888601518255948401946001909101908401612bd1565b5085821015612c0e5787850151600019600388901b60f8161c191681555b5050505050600190811b01905550565b634e487b7160e01b600052601160045260246000fd5b81810381811115611bad57611bad612c1e565b600060018201612c5957612c59612c1e565b5060010190565b80820180821115611bad57611bad612c1e565b600060208284031215612c8557600080fd5b5051919050565b7f53454c4543542063616d706169676e5f69642c20636c69636b65722c20636f7581527f6e7472792c207369676e61747572652c207669657765645f74696d652046524f60208201527f4d20000000000000000000000000000000000000000000000000000000000000604082015260008451612d1081604285016020890161274e565b7f205748455245207669657765645f74696d65203e2027000000000000000000006042918401918201528451612d4d81605884016020890161274e565b7f2720414e4420636c69636b6572203d2027000000000000000000000000000000605892909101918201528351612d8b81606984016020880161274e565b7f270000000000000000000000000000000000000000000000000000000000000060699290910191820152606a0195945050505050565b60a081526000612dd560a0830188612772565b602083820381850152612de88289612772565b91506001600160a01b03871660408501527fffffffff0000000000000000000000000000000000000000000000000000000086166060850152838203608085015260008554612e3681612ad9565b80855260018281168015612e515760018114612e6b57612e99565b60ff1984168787015282151560051b870186019450612e99565b896000528560002060005b84811015612e91578154898201890152908301908701612e76565b880187019550505b50929c9b505050505050505050505050565b600081612eba57612eba612c1e565b506000190190565b8082028115828204841417611bad57611bad612c1e565b600082612ef657634e487b7160e01b600052601260045260246000fd5b500490565b60ff81811683821602908116908181146111a6576111a6612c1e565b60ff8181168382160190811115611bad57611bad612c1e565b60ff8281168282160390811115611bad57611bad612c1e565b634e487b7160e01b600052602160045260246000fdfea2646970667358221220e68826c17421702434886bead1b5061c18ab875e2cc50cf405297c95153d8cfc64736f6c6343000812003355736572526571756573743a2043616e6e6f742073657420746f205a65726f20",
  "linkReferences": {},
  "deployedLinkReferences": {}
}