{
  "_format": "hh-sol-artifact-1",
  "contractName": "Zenith",
  "sourceName": "contracts/Zenith.sol",
  "abi": [
    {
      "inputs": [
        {
          "internalType": "contract ISxTRelayProxy",
          "name": "sxtRelayAddress",
          "type": "address"
        },
        {
          "internalType": "contract LinkTokenInterface",
          "name": "chainlinkTokenAddress",
          "type": "address"
        },
        {
          "internalType": "address",
          "name": "truflationContractAddress",
          "type": "address"
        }
      ],
      "stateMutability": "nonpayable",
      "type": "constructor"
    },
    {
      "anonymous": false,
      "inputs": [
        {
          "indexed": false,
          "internalType": "uint256",
          "name": "_campaigns",
          "type": "uint256"
        },
        {
          "indexed": false,
          "internalType": "address",
          "name": "_advertiser",
          "type": "address"
        },
        {
          "indexed": false,
          "internalType": "uint256",
          "name": "_budget",
          "type": "uint256"
        }
      ],
      "name": "CampaignCreated",
      "type": "event"
    },
    {
      "anonymous": false,
      "inputs": [
        {
          "indexed": false,
          "internalType": "uint256",
          "name": "_campaignId",
          "type": "uint256"
        }
      ],
      "name": "CampaignDisabled",
      "type": "event"
    },
    {
      "anonymous": false,
      "inputs": [
        {
          "indexed": false,
          "internalType": "uint256",
          "name": "_campaignId",
          "type": "uint256"
        }
      ],
      "name": "CampaignEnabled",
      "type": "event"
    },
    {
      "anonymous": false,
      "inputs": [
        {
          "indexed": true,
          "internalType": "address",
          "name": "from",
          "type": "address"
        },
        {
          "indexed": true,
          "internalType": "address",
          "name": "to",
          "type": "address"
        }
      ],
      "name": "OwnershipTransferRequested",
      "type": "event"
    },
    {
      "anonymous": false,
      "inputs": [
        {
          "indexed": true,
          "internalType": "address",
          "name": "from",
          "type": "address"
        },
        {
          "indexed": true,
          "internalType": "address",
          "name": "to",
          "type": "address"
        }
      ],
      "name": "OwnershipTransferred",
      "type": "event"
    },
    {
      "inputs": [],
      "name": "acceptOwnership",
      "outputs": [],
      "stateMutability": "nonpayable",
      "type": "function"
    },
    {
      "inputs": [
        {
          "internalType": "uint256",
          "name": "_budget",
          "type": "uint256"
        },
        {
          "internalType": "uint256",
          "name": "_baseCostPerClick",
          "type": "uint256"
        },
        {
          "internalType": "uint256",
          "name": "_endDatetime",
          "type": "uint256"
        },
        {
          "internalType": "string",
          "name": "_cid",
          "type": "string"
        }
      ],
      "name": "createCampaign",
      "outputs": [
        {
          "internalType": "uint256",
          "name": "",
          "type": "uint256"
        }
      ],
      "stateMutability": "payable",
      "type": "function"
    },
    {
      "inputs": [],
      "name": "currentRequestId",
      "outputs": [
        {
          "internalType": "bytes32",
          "name": "",
          "type": "bytes32"
        }
      ],
      "stateMutability": "view",
      "type": "function"
    },
    {
      "inputs": [
        {
          "internalType": "uint256",
          "name": "_campaignId",
          "type": "uint256"
        }
      ],
      "name": "disableCampaign",
      "outputs": [],
      "stateMutability": "nonpayable",
      "type": "function"
    },
    {
      "inputs": [
        {
          "internalType": "uint256",
          "name": "_campaignId",
          "type": "uint256"
        }
      ],
      "name": "enableCampaign",
      "outputs": [],
      "stateMutability": "nonpayable",
      "type": "function"
    },
    {
      "inputs": [],
      "name": "getAvailableCampaigns",
      "outputs": [
        {
          "components": [
            {
              "internalType": "uint256",
              "name": "id",
              "type": "uint256"
            },
            {
              "internalType": "address",
              "name": "advertiser",
              "type": "address"
            },
            {
              "internalType": "uint256",
              "name": "budget",
              "type": "uint256"
            },
            {
              "internalType": "uint256",
              "name": "remaining",
              "type": "uint256"
            },
            {
              "internalType": "uint256",
              "name": "baseCostPerClick",
              "type": "uint256"
            },
            {
              "internalType": "uint256",
              "name": "endDatetime",
              "type": "uint256"
            },
            {
              "internalType": "string",
              "name": "cid",
              "type": "string"
            },
            {
              "internalType": "bool",
              "name": "active",
              "type": "bool"
            }
          ],
          "internalType": "struct Zenith.Campaign[]",
          "name": "",
          "type": "tuple[]"
        }
      ],
      "stateMutability": "view",
      "type": "function"
    },
    {
      "inputs": [],
      "name": "getCampaignsOfAdvertiser",
      "outputs": [
        {
          "components": [
            {
              "components": [
                {
                  "internalType": "uint256",
                  "name": "id",
                  "type": "uint256"
                },
                {
                  "internalType": "address",
                  "name": "advertiser",
                  "type": "address"
                },
                {
                  "internalType": "uint256",
                  "name": "budget",
                  "type": "uint256"
                },
                {
                  "internalType": "uint256",
                  "name": "remaining",
                  "type": "uint256"
                },
                {
                  "internalType": "uint256",
                  "name": "baseCostPerClick",
                  "type": "uint256"
                },
                {
                  "internalType": "uint256",
                  "name": "endDatetime",
                  "type": "uint256"
                },
                {
                  "internalType": "string",
                  "name": "cid",
                  "type": "string"
                },
                {
                  "internalType": "bool",
                  "name": "active",
                  "type": "bool"
                }
              ],
              "internalType": "struct Zenith.Campaign",
              "name": "campaign",
              "type": "tuple"
            },
            {
              "components": [
                {
                  "internalType": "uint256",
                  "name": "clickedTime",
                  "type": "uint256"
                },
                {
                  "internalType": "uint256",
                  "name": "costPerClick",
                  "type": "uint256"
                },
                {
                  "internalType": "address",
                  "name": "user",
                  "type": "address"
                },
                {
                  "internalType": "string",
                  "name": "country",
                  "type": "string"
                }
              ],
              "internalType": "struct Zenith.AdClick[]",
              "name": "adClicks",
              "type": "tuple[]"
            }
          ],
          "internalType": "struct Zenith.CampaignWithAdClicks[]",
          "name": "",
          "type": "tuple[]"
        }
      ],
      "stateMutability": "view",
      "type": "function"
    },
    {
      "inputs": [],
      "name": "getChainlinkToken",
      "outputs": [
        {
          "internalType": "contract LinkTokenInterface",
          "name": "",
          "type": "address"
        }
      ],
      "stateMutability": "view",
      "type": "function"
    },
    {
      "inputs": [],
      "name": "getLastProcessed",
      "outputs": [
        {
          "internalType": "uint256",
          "name": "",
          "type": "uint256"
        }
      ],
      "stateMutability": "view",
      "type": "function"
    },
    {
      "inputs": [],
      "name": "getRewardsOfUser",
      "outputs": [
        {
          "components": [
            {
              "internalType": "uint256",
              "name": "reward",
              "type": "uint256"
            },
            {
              "internalType": "uint256",
              "name": "adClicks",
              "type": "uint256"
            }
          ],
          "internalType": "struct Zenith.RewardWithAdClicks",
          "name": "",
          "type": "tuple"
        }
      ],
      "stateMutability": "view",
      "type": "function"
    },
    {
      "inputs": [],
      "name": "getSxTRelayContract",
      "outputs": [
        {
          "internalType": "contract ISxTRelayProxy",
          "name": "",
          "type": "address"
        }
      ],
      "stateMutability": "view",
      "type": "function"
    },
    {
      "inputs": [],
      "name": "jobId",
      "outputs": [
        {
          "internalType": "string",
          "name": "",
          "type": "string"
        }
      ],
      "stateMutability": "view",
      "type": "function"
    },
    {
      "inputs": [],
      "name": "numAdClicks",
      "outputs": [
        {
          "internalType": "uint256",
          "name": "",
          "type": "uint256"
        }
      ],
      "stateMutability": "view",
      "type": "function"
    },
    {
      "inputs": [],
      "name": "numCampaigns",
      "outputs": [
        {
          "internalType": "uint256",
          "name": "",
          "type": "uint256"
        }
      ],
      "stateMutability": "view",
      "type": "function"
    },
    {
      "inputs": [],
      "name": "owner",
      "outputs": [
        {
          "internalType": "address",
          "name": "",
          "type": "address"
        }
      ],
      "stateMutability": "view",
      "type": "function"
    },
    {
      "inputs": [
        {
          "internalType": "bytes32",
          "name": "_requestId",
          "type": "bytes32"
        },
        {
          "internalType": "string[][]",
          "name": "_data",
          "type": "string[][]"
        }
      ],
      "name": "recordAdClicks",
      "outputs": [],
      "stateMutability": "payable",
      "type": "function"
    },
    {
      "inputs": [
        {
          "internalType": "string",
          "name": "_country",
          "type": "string"
        }
      ],
      "name": "requestCPI",
      "outputs": [
        {
          "internalType": "bytes32",
          "name": "_requestId",
          "type": "bytes32"
        }
      ],
      "stateMutability": "nonpayable",
      "type": "function"
    },
    {
      "inputs": [
        {
          "internalType": "bytes32",
          "name": "",
          "type": "bytes32"
        }
      ],
      "name": "requests",
      "outputs": [
        {
          "internalType": "address",
          "name": "",
          "type": "address"
        }
      ],
      "stateMutability": "view",
      "type": "function"
    },
    {
      "inputs": [],
      "name": "totalRewards",
      "outputs": [
        {
          "internalType": "uint256",
          "name": "",
          "type": "uint256"
        }
      ],
      "stateMutability": "view",
      "type": "function"
    },
    {
      "inputs": [
        {
          "internalType": "address",
          "name": "to",
          "type": "address"
        }
      ],
      "name": "transferOwnership",
      "outputs": [],
      "stateMutability": "nonpayable",
      "type": "function"
    },
    {
      "inputs": [
        {
          "internalType": "string",
          "name": "_resourceId",
          "type": "string"
        }
      ],
      "name": "triggerRetrieveRewards",
      "outputs": [
        {
          "internalType": "bytes32",
          "name": "_requestId",
          "type": "bytes32"
        }
      ],
      "stateMutability": "nonpayable",
      "type": "function"
    },
    {
      "inputs": [
        {
          "internalType": "address",
          "name": "to",
          "type": "address"
        },
        {
          "internalType": "uint256",
          "name": "amount",
          "type": "uint256"
        }
      ],
      "name": "withdrawChainlink",
      "outputs": [],
      "stateMutability": "nonpayable",
      "type": "function"
    },
    {
      "inputs": [],
      "name": "withdrawLink",
      "outputs": [],
      "stateMutability": "nonpayable",
      "type": "function"
    }
  ],
  "bytecode": "0x60c0604052602060809081527f626339376336383064323932346633316130353831643934373331346363363460a0526006906200003e908262000361565b506000600e556000600f5560006010553480156200005b57600080fd5b50604051620037b8380380620037b88339810160408190526200007e9162000446565b600160009081558390839033908190819081620000e25760405162461bcd60e51b815260206004820152601860248201527f43616e6e6f7420736574206f776e657220746f207a65726f000000000000000060448201526064015b60405180910390fd5b600180546001600160a01b0319166001600160a01b03848116919091179091558116156200011557620001158162000210565b5050506001600160a01b0383166200016f5760405162461bcd60e51b81526020600482015260276024820152600080516020620037988339815191526044820152664164647265737360c81b6064820152608401620000d9565b6001600160a01b038216620001c65760405162461bcd60e51b81526020600482015260276024820152600080516020620037988339815191526044820152664164647265737360c81b6064820152608401620000d9565b50600380546001600160a01b039384166001600160a01b031991821617909155600480549284169282169290921790915560078054939092169216919091179055506200049a9050565b336001600160a01b038216036200026a5760405162461bcd60e51b815260206004820152601760248201527f43616e6e6f74207472616e7366657220746f2073656c660000000000000000006044820152606401620000d9565b600280546001600160a01b0319166001600160a01b03838116918217909255600154604051919216907fed8889f560326eb138920d842192f0eb3dd22b4f139c87a2c57538e05bae127890600090a350565b634e487b7160e01b600052604160045260246000fd5b600181811c90821680620002e757607f821691505b6020821081036200030857634e487b7160e01b600052602260045260246000fd5b50919050565b601f8211156200035c57600081815260208120601f850160051c81016020861015620003375750805b601f850160051c820191505b81811015620003585782815560010162000343565b5050505b505050565b81516001600160401b038111156200037d576200037d620002bc565b62000395816200038e8454620002d2565b846200030e565b602080601f831160018114620003cd5760008415620003b45750858301515b600019600386901b1c1916600185901b17855562000358565b600085815260208120601f198616915b82811015620003fe57888601518255948401946001909101908401620003dd565b50858210156200041d5787850151600019600388901b60f8161c191681555b5050505050600190811b01905550565b6001600160a01b03811681146200044357600080fd5b50565b6000806000606084860312156200045c57600080fd5b835162000469816200042d565b60208501519093506200047c816200042d565b60408501519092506200048f816200042d565b809150509250925092565b6132ee80620004aa6000396000f3fe6080604052600436106101805760003560e01c80636cedeedd116100d65780638da5cb5b1161007f578063c2939d9711610059578063c2939d97146103fc578063e1578fc31461041e578063f2fde38b1461043e57600080fd5b80638da5cb5b146103935780638dc654a2146103b15780639d866985146103c657600080fd5b80637ba77431116100b05780637ba774311461033e57806384962de7146103515780638cb1047a1461037157600080fd5b80636cedeedd146102e55780636e5b46f51461030757806379ba50971461032957600080fd5b8063369d5f3d11610138578063516ef31c11610112578063516ef31c146102995780635968ec5f146102b95780635ae2bfdb146102cf57600080fd5b8063369d5f3d146102365780633c4f02da1461025657806344afbb911461026957600080fd5b8063211c119811610169578063211c1198146101e05780632c0f7b6f146102025780632ea6ef9e1461021857600080fd5b80630e15561a14610185578063165d35e1146101ae575b600080fd5b34801561019157600080fd5b5061019b60105481565b6040519081526020015b60405180910390f35b3480156101ba57600080fd5b506004546001600160a01b03165b6040516001600160a01b0390911681526020016101a5565b3480156101ec57600080fd5b506102006101fb3660046128cd565b61045e565b005b34801561020e57600080fd5b5061019b600e5481565b34801561022457600080fd5b506003546001600160a01b03166101c8565b34801561024257600080fd5b506102006102513660046128f9565b61058d565b610200610264366004612912565b61060c565b34801561027557600080fd5b5061027e610bc9565b604080518251815260209283015192810192909252016101a5565b3480156102a557600080fd5b5061019b6102b4366004612a34565b610c51565b3480156102c557600080fd5b5061019b600f5481565b3480156102db57600080fd5b5061019b60055481565b3480156102f157600080fd5b506102fa610f9f565b6040516101a59190612b35565b34801561031357600080fd5b5061031c6112c1565b6040516101a59190612c2a565b34801561033557600080fd5b50610200611501565b61019b61034c366004612c8c565b6115b6565b34801561035d57600080fd5b5061020061036c3660046128f9565b6118cd565b34801561037d57600080fd5b50336000908152600c602052604090205461019b565b34801561039f57600080fd5b506001546001600160a01b03166101c8565b3480156103bd57600080fd5b50610200611943565b3480156103d257600080fd5b506101c86103e13660046128f9565b600d602052600090815260409020546001600160a01b031681565b34801561040857600080fd5b50610411611ac3565b6040516101a59190612ce6565b34801561042a57600080fd5b5061019b610439366004612a34565b611b51565b34801561044a57600080fd5b50610200610459366004612cf9565b611be4565b610466611bf5565b61046e611c4e565b600480546040517fa9059cbb0000000000000000000000000000000000000000000000000000000081526001600160a01b0385811693820193909352602481018490526000929091169063a9059cbb906044016020604051808303816000875af11580156104e0573d6000803e3d6000fd5b505050506040513d601f19601f820116820180604052508101906105049190612d16565b90508061057e5760405162461bcd60e51b815260206004820152602c60248201527f55736572526571756573743a20436861696e6c696e6b20746f6b656e2074726160448201527f6e73666572206661696c6564000000000000000000000000000000000000000060648201526084015b60405180910390fd5b506105896001600055565b5050565b60008181526008602052604090206001015481906001600160a01b031633146105b557600080fd5b60008281526008602052604090819020600701805460ff19169055517f9620e459d78787bd1a66e8aa7f06df3177404e39240c06c264f48ce40fee1415906106009084815260200190565b60405180910390a15050565b6003546001600160a01b03166001600160a01b0316638abf60776040518163ffffffff1660e01b8152600401602060405180830381865afa158015610655573d6000803e3d6000fd5b505050506040513d601f19601f820116820180604052508101906106799190612d38565b6001600160a01b0316336001600160a01b0316146106ff5760405162461bcd60e51b815260206004820152603260248201527f55736572526571756573743a204f6e6c792063616c6c61626c6520627920537860448201527f54205265717565737420436f6e747261637400000000000000000000000000006064820152608401610575565b6000838152600d60205260408120546001600160a01b0316815b83811015610b835760006107a786868481811061073857610738612d55565b905060200281019061074a9190612d6b565b600081811061075b5761075b612d55565b905060200281019061076d9190612db5565b8080601f016020809104026020016040519081016040528093929190818152602001838380828437600092019190915250611caa92505050565b6001600160a01b0384166000908152600b602090815260408083208484529091529020549091501515806107ea5750600081815260086020526040902060030154155b156107f55750610b71565b600061082f87878581811061080c5761080c612d55565b905060200281019061081e9190612d6b565b600481811061075b5761075b612d55565b905060006108b788888681811061084857610848612d55565b905060200281019061085a9190612d6b565b600381811061086b5761086b612d55565b905060200281019061087d9190612db5565b8080601f016020809104026020016040519081016040528093929190818152602001838380828437600092019190915250611d2c92505050565b905060006108c6848484611e39565b9050806001600160a01b0316866001600160a01b031603610b6c5760075460008581526008602052604081206004015490916001600160a01b0316906323eafa38908c8c8a81811061091a5761091a612d55565b905060200281019061092c9190612d6b565b600281811061093d5761093d612d55565b905060200281019061094f9190612db5565b6040518463ffffffff1660e01b815260040161096d93929190612dfc565b602060405180830381865afa15801561098a573d6000803e3d6000fd5b505050506040513d601f19601f820116820180604052508101906109ae9190612e32565b6000868152600860205260409020600301549091506109ce908290611ebf565b905060006040518060800160405280868152602001838152602001896001600160a01b031681526020018c8c8a818110610a0a57610a0a612d55565b9050602002810190610a1c9190612d6b565b6002818110610a2d57610a2d612d55565b9050602002810190610a3f9190612db5565b8080601f016020809104026020016040519081016040528093929190818152602001838380828437600092018290525093909452505088815260096020908152604080832080546001808201835591855293839020865160049095020193845591850151918301919091558301516002820180546001600160a01b0319166001600160a01b03909216919091179055606083015192935083929091506003820190610aea9082612ed0565b5050506001600160a01b0388166000908152600b602090815260408083208984528252808320859055600890915281206003018054849290610b2d908490612fa6565b9091555050600f8054600090610b4290612fb9565b90915550610b50828a612fd2565b98508160106000828254610b649190612fd2565b909155505050505b505050505b80610b7b81612fb9565b915050610719565b508115610bc2576040516001600160a01b0382169083156108fc029084906000818181858888f19350505050158015610bc0573d6000803e3d6000fd5b505b5050505050565b604080518082019091526000808252602082015260008060005b600e54811015610c3957336000908152600b602090815260408083208484529091529020548015610c2657610c188185612fd2565b9350610c2383612fb9565b92505b5080610c3181612fb9565b915050610be3565b50604080518082019091529182526020820152919050565b6000610c5b611bf5565b6004546001600160a01b03166001600160a01b031663095ea7b3610c876003546001600160a01b031690565b6001600160a01b0316638abf60776040518163ffffffff1660e01b8152600401602060405180830381865afa158015610cc4573d6000803e3d6000fd5b505050506040513d601f19601f82011682018060405250810190610ce89190612d38565b6003546001600160a01b03166001600160a01b0316631f78b0906040518163ffffffff1660e01b8152600401602060405180830381865afa158015610d31573d6000803e3d6000fd5b505050506040513d601f19601f82011682018060405250810190610d559190612e32565b6040517fffffffff0000000000000000000000000000000000000000000000000000000060e085901b1681526001600160a01b03909216600483015260248201526044016020604051808303816000875af1158015610db8573d6000803e3d6000fd5b505050506040513d601f19601f82011682018060405250810190610ddc9190612d16565b610e4e5760405162461bcd60e51b815260206004820152602860248201527f55736572526571756573743a20496e73756666696369656e74204c494e4b206160448201527f6c6c6f77616e63650000000000000000000000000000000000000000000000006064820152608401610575565b336000908152600c60205260408120548390610e6990611ed7565b610e74336014611f77565b604051602001610e8693929190612fe5565b6040516020818303038152906040529050610ea96003546001600160a01b031690565b6040517fe85b09970000000000000000000000000000000000000000000000000000000081526001600160a01b03919091169063e85b099790610f19908490879030907f3c4f02da000000000000000000000000000000000000000000000000000000009060069060040161311b565b6020604051808303816000875af1158015610f38573d6000803e3d6000fd5b505050506040513d601f19601f82011682018060405250810190610f5c9190612e32565b6000818152600d6020908152604080832080546001600160a01b031916339081179091558352600c90915290204290559150610f9a90506001600055565b919050565b336000908152600a60205260408120546060918167ffffffffffffffff811115610fcb57610fcb612991565b60405190808252806020026020018201604052801561100457816020015b610ff161284d565b815260200190600190039081610fe95790505b50905060005b828110156112ba57336000908152600a6020526040812080548390811061103357611033612d55565b6000918252602080832090910154808352600882526040928390208351610100810185528154815260018201546001600160a01b0316938101939093526002810154938301939093526003830154606083015260048301546080830152600583015460a083015260068301805491945091929160c08401916110b490612e4b565b80601f01602080910402602001604051908101604052809291908181526020018280546110e090612e4b565b801561112d5780601f106111025761010080835404028352916020019161112d565b820191906000526020600020905b81548152906001019060200180831161111057829003601f168201915b50505091835250506007919091015460ff161515602090910152835184908490811061115b5761115b612d55565b6020908102919091018101519190915260008281526009825260408082208054825181860281018601909352808352919390929084015b8282101561128157600084815260209081902060408051608081018252600486029092018054835260018101549383019390935260028301546001600160a01b0316908201526003820180549192916060840191906111f090612e4b565b80601f016020809104026020016040519081016040528092919081815260200182805461121c90612e4b565b80156112695780601f1061123e57610100808354040283529160200191611269565b820191906000526020600020905b81548152906001019060200180831161124c57829003601f168201915b50505050508152505081526020019060010190611192565b5050505083838151811061129757611297612d55565b6020026020010151602001819052505080806112b290612fb9565b91505061100a565b5092915050565b60606000805b600e548110156112ff576112da8161213c565b156112ed57816112e981612fb9565b9250505b806112f781612fb9565b9150506112c7565b5060008167ffffffffffffffff81111561131b5761131b612991565b60405190808252806020026020018201604052801561139f57816020015b61138c6040518061010001604052806000815260200160006001600160a01b0316815260200160008152602001600081526020016000815260200160008152602001606081526020016000151581525090565b8152602001906001900390816113395790505b50905060005b600e548110156112ba576113b88161213c565b156114ef576000818152600860209081526040918290208251610100810184528154815260018201546001600160a01b0316928101929092526002810154928201929092526003820154606082015260048201546080820152600582015460a082015260068201805491929160c08401919061143390612e4b565b80601f016020809104026020016040519081016040528092919081815260200182805461145f90612e4b565b80156114ac5780601f10611481576101008083540402835291602001916114ac565b820191906000526020600020905b81548152906001019060200180831161148f57829003601f168201915b50505091835250506007919091015460ff161515602090910152826114d085613204565b945084815181106114e3576114e3612d55565b60200260200101819052505b806114f981612fb9565b9150506113a5565b6002546001600160a01b0316331461155b5760405162461bcd60e51b815260206004820152601660248201527f4d7573742062652070726f706f736564206f776e6572000000000000000000006044820152606401610575565b600180546001600160a01b0319808216339081179093556002805490911690556040516001600160a01b03909116919082907f8be0079c531659141344cd1fd0a4f28419497f9722a3daafe3b4186f6b6457e090600090a350565b60008085116116075760405162461bcd60e51b815260206004820152601d60248201527f427564676574206d7573742062652067726561746572207468616e20300000006044820152606401610575565b8434146116565760405162461bcd60e51b815260206004820152601760248201527f496e73756666696369656e742066756e64732073656e740000000000000000006044820152606401610575565b600084116116a65760405162461bcd60e51b815260206004820152601a60248201527f426964206d7573742062652067726561746572207468616e20300000000000006044820152606401610575565b6116b34262015180612fd2565b8310156117285760405162461bcd60e51b815260206004820152602260248201527f456e64206461746574696d65206d75737420626520696e20746865206675747560448201527f72650000000000000000000000000000000000000000000000000000000000006064820152608401610575565b60008251116117795760405162461bcd60e51b815260206004820152601360248201527f4369642063616e6e6f7420626520656d707479000000000000000000000000006044820152606401610575565b6040805161010081018252600e548082523360208084019182528385018a8152606085018b8152608086018b815260a087018b815260c088018b8152600160e08a01819052600098895260089096529890962087518155945193850180546001600160a01b0319166001600160a01b0390951694909417909355905160028401555160038301555160048201559051600582015591519091829160068201906118229082612ed0565b5060e091909101516007909101805460ff19169115159190911790556020818101516001600160a01b03166000908152600a825260408120835181546001810183559183529282200191909155600e80549161187d83612fb9565b909155505080516040805191825233602083015281018790527f63e3678c8493a16f8ba43ae9e547231762ca04526dac2c388bd2c26d894018519060600160405180910390a15195945050505050565b60008181526008602052604090206001015481906001600160a01b031633146118f557600080fd5b60008281526008602052604090819020600701805460ff19166001179055517fba42f99793097dbf156767849735bfd27114e73a9cc1b4c264144cfd154cde00906106009084815260200190565b61194b611c4e565b600061195f6004546001600160a01b031690565b6040517f70a082310000000000000000000000000000000000000000000000000000000081523060048201529091506001600160a01b0382169063a9059cbb90339083906370a0823190602401602060405180830381865afa1580156119c9573d6000803e3d6000fd5b505050506040513d601f19601f820116820180604052508101906119ed9190612e32565b6040517fffffffff0000000000000000000000000000000000000000000000000000000060e085901b1681526001600160a01b03909216600483015260248201526044016020604051808303816000875af1158015611a50573d6000803e3d6000fd5b505050506040513d601f19601f82011682018060405250810190611a749190612d16565b611ac05760405162461bcd60e51b815260206004820152601260248201527f556e61626c6520746f207472616e7366657200000000000000000000000000006044820152606401610575565b50565b60068054611ad090612e4b565b80601f0160208091040260200160405190810160405280929190818152602001828054611afc90612e4b565b8015611b495780601f10611b1e57610100808354040283529160200191611b49565b820191906000526020600020905b815481529060010190602001808311611b2c57829003601f168201915b505050505081565b6007546040517fe1578fc30000000000000000000000000000000000000000000000000000000081526000916001600160a01b03169063e1578fc390611b9b908590600401612ce6565b6020604051808303816000875af1158015611bba573d6000803e3d6000fd5b505050506040513d601f19601f82011682018060405250810190611bde9190612e32565b92915050565b611bec611c4e565b611ac081612285565b600260005403611c475760405162461bcd60e51b815260206004820152601f60248201527f5265656e7472616e637947756172643a207265656e7472616e742063616c6c006044820152606401610575565b6002600055565b6001546001600160a01b03163314611ca85760405162461bcd60e51b815260206004820152601660248201527f4f6e6c792063616c6c61626c65206279206f776e6572000000000000000000006044820152606401610575565b565b60008181805b8251811015611d24576000838281518110611ccd57611ccd612d55565b016020015160f81c905060308110801590611ce9575060398111155b15611d1157611cf9603082612fa6565b611d0484600a61321b565b611d0e9190612fd2565b92505b5080611d1c81612fb9565b915050611cb0565b509392505050565b60606000829050600060028251611d439190613232565b67ffffffffffffffff811115611d5b57611d5b612991565b6040519080825280601f01601f191660200182016040528015611d85576020820181803683370190505b50905060005b60028351611d999190613232565b811015611d2457611dd783611daf83600261321b565b611dba906001612fd2565b81518110611dca57611dca612d55565b016020015160f81c61232f565b611de684611dba84600261321b565b611df1906010613254565b611dfb9190613270565b60f81b828281518110611e1057611e10612d55565b60200101906001600160f81b031916908160001a90535080611e3181612fb9565b915050611d8b565b6000808484604051602001611e58929190918252602082015260400190565b6040516020818303038152906040528051906020012090506000611ea9827f19457468657265756d205369676e6564204d6573736167653a0a3332000000006000908152601c91909152603c902090565b9050611eb581856124e1565b9695505050505050565b6000818310611ece5781611ed0565b825b9392505050565b60606000611ee4836124fd565b600101905060008167ffffffffffffffff811115611f0457611f04612991565b6040519080825280601f01601f191660200182016040528015611f2e576020820181803683370190505b5090508181016020015b600019017f3031323334353637383961626364656600000000000000000000000000000000600a86061a8153600a8504945084611f3857509392505050565b60606000611f8683600261321b565b611f91906002612fd2565b67ffffffffffffffff811115611fa957611fa9612991565b6040519080825280601f01601f191660200182016040528015611fd3576020820181803683370190505b509050600360fc1b81600081518110611fee57611fee612d55565b60200101906001600160f81b031916908160001a9053507f78000000000000000000000000000000000000000000000000000000000000008160018151811061203957612039612d55565b60200101906001600160f81b031916908160001a905350600061205d84600261321b565b612068906001612fd2565b90505b60018111156120ed577f303132333435363738396162636465660000000000000000000000000000000085600f16601081106120a9576120a9612d55565b1a60f81b8282815181106120bf576120bf612d55565b60200101906001600160f81b031916908160001a90535060049490941c936120e681613204565b905061206b565b508315611ed05760405162461bcd60e51b815260206004820181905260248201527f537472696e67733a20686578206c656e67746820696e73756666696369656e746044820152606401610575565b60008181526008602090815260408083208151610100810183528154815260018201546001600160a01b0316938101939093526002810154918301919091526003810154606083015260048101546080830152600581015460a08301526006810180548493929160c08401916121b190612e4b565b80601f01602080910402602001604051908101604052809291908181526020018280546121dd90612e4b565b801561222a5780601f106121ff5761010080835404028352916020019161222a565b820191906000526020600020905b81548152906001019060200180831161220d57829003601f168201915b50505091835250506007919091015460ff16151560209091015260e0810151909150801561225b5750428160a00151115b8015611ed05750336000908152600b60209081526040808320868452909152902054159392505050565b336001600160a01b038216036122dd5760405162461bcd60e51b815260206004820152601760248201527f43616e6e6f74207472616e7366657220746f2073656c660000000000000000006044820152606401610575565b600280546001600160a01b0319166001600160a01b03838116918217909255600154604051919216907fed8889f560326eb138920d842192f0eb3dd22b4f139c87a2c57538e05bae127890600090a350565b6000600360fc1b60f883901b6001600160f81b0319161080159061238157507f390000000000000000000000000000000000000000000000000000000000000060f883901b6001600160f81b03191611155b1561239157611bde603083613289565b7f610000000000000000000000000000000000000000000000000000000000000060f883901b6001600160f81b031916108015906123fd57507f660000000000000000000000000000000000000000000000000000000000000060f883901b6001600160f81b03191611155b1561241957606161240f83600a613270565b611bde9190613289565b7f410000000000000000000000000000000000000000000000000000000000000060f883901b6001600160f81b0319161080159061248557507f460000000000000000000000000000000000000000000000000000000000000060f883901b6001600160f81b03191611155b1561249757604161240f83600a613270565b60405162461bcd60e51b81526004016105759060208082526004908201527f6661696c00000000000000000000000000000000000000000000000000000000604082015260600190565b60008060006124f085856125df565b91509150611d2481612624565b6000807a184f03e93ff9f4daa797ed6e38ed64bf6a1f0100000000000000008310612546577a184f03e93ff9f4daa797ed6e38ed64bf6a1f010000000000000000830492506040015b6d04ee2d6d415b85acef81000000008310612572576d04ee2d6d415b85acef8100000000830492506020015b662386f26fc10000831061259057662386f26fc10000830492506010015b6305f5e10083106125a8576305f5e100830492506008015b61271083106125bc57612710830492506004015b606483106125ce576064830492506002015b600a8310611bde5760010192915050565b60008082516041036126155760208301516040840151606085015160001a61260987828585612789565b9450945050505061261d565b506000905060025b9250929050565b6000816004811115612638576126386132a2565b036126405750565b6001816004811115612654576126546132a2565b036126a15760405162461bcd60e51b815260206004820152601860248201527f45434453413a20696e76616c6964207369676e617475726500000000000000006044820152606401610575565b60028160048111156126b5576126b56132a2565b036127025760405162461bcd60e51b815260206004820152601f60248201527f45434453413a20696e76616c6964207369676e6174757265206c656e677468006044820152606401610575565b6003816004811115612716576127166132a2565b03611ac05760405162461bcd60e51b815260206004820152602260248201527f45434453413a20696e76616c6964207369676e6174757265202773272076616c60448201527f75650000000000000000000000000000000000000000000000000000000000006064820152608401610575565b6000807f7fffffffffffffffffffffffffffffff5d576e7357a4501ddfe92f46681b20a08311156127c05750600090506003612844565b6040805160008082526020820180845289905260ff881692820192909252606081018690526080810185905260019060a0016020604051602081039080840390855afa158015612814573d6000803e3d6000fd5b5050604051601f1901519150506001600160a01b03811661283d57600060019250925050612844565b9150600090505b94509492505050565b60405180604001604052806128ab6040518061010001604052806000815260200160006001600160a01b0316815260200160008152602001600081526020016000815260200160008152602001606081526020016000151581525090565b8152602001606081525090565b6001600160a01b0381168114611ac057600080fd5b600080604083850312156128e057600080fd5b82356128eb816128b8565b946020939093013593505050565b60006020828403121561290b57600080fd5b5035919050565b60008060006040848603121561292757600080fd5b83359250602084013567ffffffffffffffff8082111561294657600080fd5b818601915086601f83011261295a57600080fd5b81358181111561296957600080fd5b8760208260051b850101111561297e57600080fd5b6020830194508093505050509250925092565b634e487b7160e01b600052604160045260246000fd5b600082601f8301126129b857600080fd5b813567ffffffffffffffff808211156129d3576129d3612991565b604051601f8301601f19908116603f011681019082821181831017156129fb576129fb612991565b81604052838152866020858801011115612a1457600080fd5b836020870160208301376000602085830101528094505050505092915050565b600060208284031215612a4657600080fd5b813567ffffffffffffffff811115612a5d57600080fd5b612a69848285016129a7565b949350505050565b60005b83811015612a8c578181015183820152602001612a74565b50506000910152565b60008151808452612aad816020860160208601612a71565b601f01601f19169290920160200192915050565b6000610100825184526001600160a01b03602084015116602085015260408301516040850152606083015160608501526080830151608085015260a083015160a085015260c08301518160c0860152612b1c82860182612a95565b91505060e0830151151560e08501528091505092915050565b60006020808301818452808551808352604092508286019150828160051b87010184880160005b83811015612c1c57888303603f1901855281518051878552612b8088860182612ac1565b91890151858303868b01528051808452908a0192915089820190600581901b83018b0160005b82811015612c0557848203601f190184528551805183528d8101518e8401528c8101516001600160a01b03168d840152606090810151608091840182905290612bf181850183612a95565b978f0197958f019593505050600101612ba6565b50988b019896505050928801925050600101612b5c565b509098975050505050505050565b6000602080830181845280855180835260408601915060408160051b870101925083870160005b82811015612c7f57603f19888603018452612c6d858351612ac1565b94509285019290850190600101612c51565b5092979650505050505050565b60008060008060808587031215612ca257600080fd5b843593506020850135925060408501359150606085013567ffffffffffffffff811115612cce57600080fd5b612cda878288016129a7565b91505092959194509250565b602081526000611ed06020830184612a95565b600060208284031215612d0b57600080fd5b8135611ed0816128b8565b600060208284031215612d2857600080fd5b81518015158114611ed057600080fd5b600060208284031215612d4a57600080fd5b8151611ed0816128b8565b634e487b7160e01b600052603260045260246000fd5b6000808335601e19843603018112612d8257600080fd5b83018035915067ffffffffffffffff821115612d9d57600080fd5b6020019150600581901b360382131561261d57600080fd5b6000808335601e19843603018112612dcc57600080fd5b83018035915067ffffffffffffffff821115612de757600080fd5b60200191503681900382131561261d57600080fd5b83815260406020820152816040820152818360608301376000818301606090810191909152601f909201601f1916010192915050565b600060208284031215612e4457600080fd5b5051919050565b600181811c90821680612e5f57607f821691505b602082108103612e7f57634e487b7160e01b600052602260045260246000fd5b50919050565b601f821115612ecb57600081815260208120601f850160051c81016020861015612eac5750805b601f850160051c820191505b81811015610bc057828155600101612eb8565b505050565b815167ffffffffffffffff811115612eea57612eea612991565b612efe81612ef88454612e4b565b84612e85565b602080601f831160018114612f335760008415612f1b5750858301515b600019600386901b1c1916600185901b178555610bc0565b600085815260208120601f198616915b82811015612f6257888601518255948401946001909101908401612f43565b5085821015612f805787850151600019600388901b60f8161c191681555b5050505050600190811b01905550565b634e487b7160e01b600052601160045260246000fd5b81810381811115611bde57611bde612f90565b600060018201612fcb57612fcb612f90565b5060010190565b80820180821115611bde57611bde612f90565b7f53454c4543542063616d706169676e5f69642c20636c69636b65722c20636f7581527f6e7472792c207369676e61747572652c207669657765645f74696d652046524f60208201527f4d20000000000000000000000000000000000000000000000000000000000000604082015260008451613069816042850160208901612a71565b7f205748455245207669657765645f74696d65203e20270000000000000000000060429184019182015284516130a6816058840160208901612a71565b7f2720414e4420636c69636b6572203d20270000000000000000000000000000006058929091019182015283516130e4816069840160208801612a71565b7f270000000000000000000000000000000000000000000000000000000000000060699290910191820152606a0195945050505050565b60a08152600061312e60a0830188612a95565b6020838203818501526131418289612a95565b91506001600160a01b03871660408501527fffffffff000000000000000000000000000000000000000000000000000000008616606085015283820360808501526000855461318f81612e4b565b808552600182811680156131aa57600181146131c4576131f2565b60ff1984168787015282151560051b8701860194506131f2565b896000528560002060005b848110156131ea5781548982018901529083019087016131cf565b880187019550505b50929c9b505050505050505050505050565b60008161321357613213612f90565b506000190190565b8082028115828204841417611bde57611bde612f90565b60008261324f57634e487b7160e01b600052601260045260246000fd5b500490565b60ff81811683821602908116908181146112ba576112ba612f90565b60ff8181168382160190811115611bde57611bde612f90565b60ff8281168282160390811115611bde57611bde612f90565b634e487b7160e01b600052602160045260246000fdfea264697066735822122049ed0a4f55a962c73bd8630966d539721fee97a259276b90bb4ea16b3aac7c1364736f6c6343000812003355736572526571756573743a2043616e6e6f742073657420746f205a65726f20",
  "linkReferences": {},
  "deployedLinkReferences": {}
}