{
  "_format": "hh-sol-artifact-1",
  "contractName": "Zenith",
  "sourceName": "contracts/Zenith.sol",
  "abi": [
    {
      "inputs": [
        {
          "internalType": "address",
          "name": "_oracleId",
          "type": "address"
        },
        {
          "internalType": "string",
          "name": "_jobId",
          "type": "string"
        },
        {
          "internalType": "uint256",
          "name": "_fee",
          "type": "uint256"
        },
        {
          "internalType": "address",
          "name": "_token",
          "type": "address"
        }
      ],
      "stateMutability": "nonpayable",
      "type": "constructor"
    },
    {
      "anonymous": false,
      "inputs": [],
      "name": "CampaignClickDataUpdated",
      "type": "event"
    },
    {
      "anonymous": false,
      "inputs": [
        {
          "indexed": false,
          "internalType": "uint256",
          "name": "_campaigns",
          "type": "uint256"
        },
        {
          "indexed": false,
          "internalType": "address",
          "name": "_advertiser",
          "type": "address"
        },
        {
          "indexed": false,
          "internalType": "uint256",
          "name": "_budget",
          "type": "uint256"
        }
      ],
      "name": "CampaignCreated",
      "type": "event"
    },
    {
      "anonymous": false,
      "inputs": [
        {
          "indexed": false,
          "internalType": "uint256",
          "name": "_campaignId",
          "type": "uint256"
        }
      ],
      "name": "CampaignDisabled",
      "type": "event"
    },
    {
      "anonymous": false,
      "inputs": [
        {
          "indexed": false,
          "internalType": "uint256",
          "name": "_campaignId",
          "type": "uint256"
        }
      ],
      "name": "CampaignEnabled",
      "type": "event"
    },
    {
      "anonymous": false,
      "inputs": [
        {
          "indexed": true,
          "internalType": "bytes32",
          "name": "id",
          "type": "bytes32"
        }
      ],
      "name": "ChainlinkCancelled",
      "type": "event"
    },
    {
      "anonymous": false,
      "inputs": [
        {
          "indexed": true,
          "internalType": "bytes32",
          "name": "id",
          "type": "bytes32"
        }
      ],
      "name": "ChainlinkFulfilled",
      "type": "event"
    },
    {
      "anonymous": false,
      "inputs": [
        {
          "indexed": true,
          "internalType": "bytes32",
          "name": "id",
          "type": "bytes32"
        }
      ],
      "name": "ChainlinkRequested",
      "type": "event"
    },
    {
      "anonymous": false,
      "inputs": [
        {
          "indexed": true,
          "internalType": "address",
          "name": "from",
          "type": "address"
        },
        {
          "indexed": true,
          "internalType": "address",
          "name": "to",
          "type": "address"
        }
      ],
      "name": "OwnershipTransferRequested",
      "type": "event"
    },
    {
      "anonymous": false,
      "inputs": [
        {
          "indexed": true,
          "internalType": "address",
          "name": "from",
          "type": "address"
        },
        {
          "indexed": true,
          "internalType": "address",
          "name": "to",
          "type": "address"
        }
      ],
      "name": "OwnershipTransferred",
      "type": "event"
    },
    {
      "inputs": [],
      "name": "acceptOwnership",
      "outputs": [],
      "stateMutability": "nonpayable",
      "type": "function"
    },
    {
      "inputs": [
        {
          "internalType": "uint256",
          "name": "_budget",
          "type": "uint256"
        },
        {
          "internalType": "uint256",
          "name": "_minCostPerClick",
          "type": "uint256"
        },
        {
          "internalType": "uint256",
          "name": "_endDatetime",
          "type": "uint256"
        },
        {
          "internalType": "string",
          "name": "_cid",
          "type": "string"
        }
      ],
      "name": "createCampaign",
      "outputs": [
        {
          "internalType": "uint256",
          "name": "",
          "type": "uint256"
        }
      ],
      "stateMutability": "payable",
      "type": "function"
    },
    {
      "inputs": [
        {
          "internalType": "uint256",
          "name": "campaignId",
          "type": "uint256"
        }
      ],
      "name": "disableCampaign",
      "outputs": [],
      "stateMutability": "nonpayable",
      "type": "function"
    },
    {
      "inputs": [
        {
          "internalType": "uint256",
          "name": "campaignId",
          "type": "uint256"
        }
      ],
      "name": "enableCampaign",
      "outputs": [],
      "stateMutability": "nonpayable",
      "type": "function"
    },
    {
      "inputs": [],
      "name": "fee",
      "outputs": [
        {
          "internalType": "uint256",
          "name": "",
          "type": "uint256"
        }
      ],
      "stateMutability": "view",
      "type": "function"
    },
    {
      "inputs": [
        {
          "internalType": "bytes32",
          "name": "_requestId",
          "type": "bytes32"
        },
        {
          "internalType": "uint256",
          "name": "_data",
          "type": "uint256"
        }
      ],
      "name": "fulfillCPI",
      "outputs": [],
      "stateMutability": "nonpayable",
      "type": "function"
    },
    {
      "inputs": [],
      "name": "getAvailableCampaigns",
      "outputs": [
        {
          "components": [
            {
              "internalType": "uint256",
              "name": "id",
              "type": "uint256"
            },
            {
              "internalType": "address",
              "name": "advertiser",
              "type": "address"
            },
            {
              "internalType": "uint256",
              "name": "budget",
              "type": "uint256"
            },
            {
              "internalType": "uint256",
              "name": "remaining",
              "type": "uint256"
            },
            {
              "internalType": "uint256",
              "name": "minCostPerClick",
              "type": "uint256"
            },
            {
              "internalType": "uint256",
              "name": "endDatetime",
              "type": "uint256"
            },
            {
              "internalType": "string",
              "name": "cid",
              "type": "string"
            },
            {
              "internalType": "bool",
              "name": "active",
              "type": "bool"
            }
          ],
          "internalType": "struct Zenith.Campaign[]",
          "name": "",
          "type": "tuple[]"
        }
      ],
      "stateMutability": "view",
      "type": "function"
    },
    {
      "inputs": [],
      "name": "getCampaignsOfAdvertiser",
      "outputs": [
        {
          "components": [
            {
              "components": [
                {
                  "internalType": "uint256",
                  "name": "id",
                  "type": "uint256"
                },
                {
                  "internalType": "address",
                  "name": "advertiser",
                  "type": "address"
                },
                {
                  "internalType": "uint256",
                  "name": "budget",
                  "type": "uint256"
                },
                {
                  "internalType": "uint256",
                  "name": "remaining",
                  "type": "uint256"
                },
                {
                  "internalType": "uint256",
                  "name": "minCostPerClick",
                  "type": "uint256"
                },
                {
                  "internalType": "uint256",
                  "name": "endDatetime",
                  "type": "uint256"
                },
                {
                  "internalType": "string",
                  "name": "cid",
                  "type": "string"
                },
                {
                  "internalType": "bool",
                  "name": "active",
                  "type": "bool"
                }
              ],
              "internalType": "struct Zenith.Campaign",
              "name": "campaign",
              "type": "tuple"
            },
            {
              "components": [
                {
                  "internalType": "uint256",
                  "name": "id",
                  "type": "uint256"
                },
                {
                  "internalType": "uint256",
                  "name": "campaignId",
                  "type": "uint256"
                },
                {
                  "internalType": "uint256",
                  "name": "costPerClick",
                  "type": "uint256"
                },
                {
                  "internalType": "uint256",
                  "name": "displayTime",
                  "type": "uint256"
                },
                {
                  "internalType": "address",
                  "name": "user",
                  "type": "address"
                },
                {
                  "internalType": "bool",
                  "name": "paid",
                  "type": "bool"
                },
                {
                  "internalType": "string",
                  "name": "country",
                  "type": "string"
                },
                {
                  "internalType": "bytes",
                  "name": "signature",
                  "type": "bytes"
                }
              ],
              "internalType": "struct Zenith.AdClick[]",
              "name": "adClicks",
              "type": "tuple[]"
            }
          ],
          "internalType": "struct Zenith.CampaignWithAdClicks[]",
          "name": "",
          "type": "tuple[]"
        }
      ],
      "stateMutability": "view",
      "type": "function"
    },
    {
      "inputs": [],
      "name": "jobId",
      "outputs": [
        {
          "internalType": "string",
          "name": "",
          "type": "string"
        }
      ],
      "stateMutability": "view",
      "type": "function"
    },
    {
      "inputs": [],
      "name": "numAdClicks",
      "outputs": [
        {
          "internalType": "uint256",
          "name": "",
          "type": "uint256"
        }
      ],
      "stateMutability": "view",
      "type": "function"
    },
    {
      "inputs": [],
      "name": "numCampaigns",
      "outputs": [
        {
          "internalType": "uint256",
          "name": "",
          "type": "uint256"
        }
      ],
      "stateMutability": "view",
      "type": "function"
    },
    {
      "inputs": [],
      "name": "oracleId",
      "outputs": [
        {
          "internalType": "address",
          "name": "",
          "type": "address"
        }
      ],
      "stateMutability": "view",
      "type": "function"
    },
    {
      "inputs": [],
      "name": "owner",
      "outputs": [
        {
          "internalType": "address",
          "name": "",
          "type": "address"
        }
      ],
      "stateMutability": "view",
      "type": "function"
    },
    {
      "inputs": [
        {
          "components": [
            {
              "internalType": "uint256",
              "name": "id",
              "type": "uint256"
            },
            {
              "internalType": "uint256",
              "name": "campaignId",
              "type": "uint256"
            },
            {
              "internalType": "uint256",
              "name": "costPerClick",
              "type": "uint256"
            },
            {
              "internalType": "uint256",
              "name": "displayTime",
              "type": "uint256"
            },
            {
              "internalType": "address",
              "name": "user",
              "type": "address"
            },
            {
              "internalType": "bool",
              "name": "paid",
              "type": "bool"
            },
            {
              "internalType": "string",
              "name": "country",
              "type": "string"
            },
            {
              "internalType": "bytes",
              "name": "signature",
              "type": "bytes"
            }
          ],
          "internalType": "struct Zenith.AdClick[]",
          "name": "_adClicks",
          "type": "tuple[]"
        }
      ],
      "name": "recordAdClicks",
      "outputs": [],
      "stateMutability": "nonpayable",
      "type": "function"
    },
    {
      "inputs": [
        {
          "internalType": "string",
          "name": "_country",
          "type": "string"
        },
        {
          "internalType": "string",
          "name": "multiplier",
          "type": "string"
        }
      ],
      "name": "requestCPI",
      "outputs": [
        {
          "internalType": "bytes32",
          "name": "requestId",
          "type": "bytes32"
        }
      ],
      "stateMutability": "nonpayable",
      "type": "function"
    },
    {
      "inputs": [
        {
          "internalType": "bytes32",
          "name": "",
          "type": "bytes32"
        }
      ],
      "name": "requests",
      "outputs": [
        {
          "internalType": "string",
          "name": "",
          "type": "string"
        }
      ],
      "stateMutability": "view",
      "type": "function"
    },
    {
      "inputs": [],
      "name": "totalRewards",
      "outputs": [
        {
          "internalType": "uint256",
          "name": "",
          "type": "uint256"
        }
      ],
      "stateMutability": "view",
      "type": "function"
    },
    {
      "inputs": [
        {
          "internalType": "address",
          "name": "to",
          "type": "address"
        }
      ],
      "name": "transferOwnership",
      "outputs": [],
      "stateMutability": "nonpayable",
      "type": "function"
    }
  ],
  "bytecode": "0x608060405260016004556000600d556000600e556000600f553480156200002557600080fd5b50604051620037873803806200378783398101604081905262000048916200021e565b33806000816200009f5760405162461bcd60e51b815260206004820152601860248201527f43616e6e6f7420736574206f776e657220746f207a65726f000000000000000060448201526064015b60405180910390fd5b600680546001600160a01b0319166001600160a01b0384811691909117909155811615620000d257620000d2816200011d565b505050620000e681620001c960201b60201c565b601080546001600160a01b0319166001600160a01b03861617905560116200010f8482620003b2565b5050601255506200047e9050565b336001600160a01b03821603620001775760405162461bcd60e51b815260206004820152601760248201527f43616e6e6f74207472616e7366657220746f2073656c66000000000000000000604482015260640162000096565b600780546001600160a01b0319166001600160a01b03838116918217909255600654604051919216907fed8889f560326eb138920d842192f0eb3dd22b4f139c87a2c57538e05bae127890600090a350565b600280546001600160a01b0319166001600160a01b0392909216919091179055565b80516001600160a01b03811681146200020357600080fd5b919050565b634e487b7160e01b600052604160045260246000fd5b600080600080608085870312156200023557600080fd5b6200024085620001eb565b602086810151919550906001600160401b03808211156200026057600080fd5b818801915088601f8301126200027557600080fd5b8151818111156200028a576200028a62000208565b604051601f8201601f19908116603f01168101908382118183101715620002b557620002b562000208565b816040528281528b86848701011115620002ce57600080fd5b600093505b82841015620002f25784840186015181850187015292850192620002d3565b6000868483010152809850505050505050604085015191506200031860608601620001eb565b905092959194509250565b600181811c908216806200033857607f821691505b6020821081036200035957634e487b7160e01b600052602260045260246000fd5b50919050565b601f821115620003ad57600081815260208120601f850160051c81016020861015620003885750805b601f850160051c820191505b81811015620003a95782815560010162000394565b5050505b505050565b81516001600160401b03811115620003ce57620003ce62000208565b620003e681620003df845462000323565b846200035f565b602080601f8311600181146200041e5760008415620004055750858301515b600019600386901b1c1916600185901b178555620003a9565b600085815260208120601f198616915b828110156200044f578886015182559484019460019091019084016200042e565b50858210156200046e5787850151600019600388901b60f8161c191681555b5050505050600190811b01905550565b6132f9806200048e6000396000f3fe6080604052600436106101295760003560e01c806379ba5097116100a55780639d86698511610074578063ddca3f4311610059578063ddca3f4314610309578063f2fde38b1461031f578063ff14e1671461033f57600080fd5b80639d866985146102c7578063c2939d97146102f457600080fd5b806379ba5097146102615780637ba774311461027657806384962de7146102895780638da5cb5b146102a957600080fd5b8063369d5f3d116100fc5780636cedeedd116100e15780636cedeedd146101fd5780636e5b46f51461021f5780636fdce3c51461024157600080fd5b8063369d5f3d146101c55780635968ec5f146101e757600080fd5b80630e15561a1461012e578063176790ab146101575780632121778d146101775780632c0f7b6f146101af575b600080fd5b34801561013a57600080fd5b50610144600f5481565b6040519081526020015b60405180910390f35b34801561016357600080fd5b506101446101723660046128c4565b61035f565b34801561018357600080fd5b50601054610197906001600160a01b031681565b6040516001600160a01b03909116815260200161014e565b3480156101bb57600080fd5b50610144600d5481565b3480156101d157600080fd5b506101e56101e0366004612928565b6106bb565b005b3480156101f357600080fd5b50610144600e5481565b34801561020957600080fd5b506102126106ff565b60405161014e9190612a05565b34801561022b57600080fd5b5061023461090c565b60405161014e9190612b3a565b34801561024d57600080fd5b506101e561025c366004612b9c565b610b4c565b34801561026d57600080fd5b506101e5610cdd565b610144610284366004612bbe565b610d92565b34801561029557600080fd5b506101e56102a4366004612928565b6110ab565b3480156102b557600080fd5b506006546001600160a01b0316610197565b3480156102d357600080fd5b506102e76102e2366004612928565b6110f2565b60405161014e9190612c18565b34801561030057600080fd5b506102e761118c565b34801561031557600080fd5b5061014460125481565b34801561032b57600080fd5b506101e561033a366004612c47565b611199565b34801561034b57600080fd5b506101e561035a366004612c7b565b6111ad565b60006103736002546001600160a01b031690565b6012546040517f23b872dd00000000000000000000000000000000000000000000000000000000815233600482015230602482015260448101919091526001600160a01b0391909116906323b872dd906064016020604051808303816000875af11580156103e5573d6000803e3d6000fd5b505050506040513d601f19601f820116820180604052508101906104099190612de2565b61045a5760405162461bcd60e51b815260206004820152601460248201527f4c494e4b207472616e73666572206661696c656400000000000000000000000060448201526064015b60405180910390fd5b60006104906104696011612e33565b307f6fdce3c50000000000000000000000000000000000000000000000000000000061162e565b90506105116040518060400160405280600781526020017f73657276696365000000000000000000000000000000000000000000000000008152506040518060400160405280601281526020017f747275666c6174696f6e2f63757272656e740000000000000000000000000000815250836116bf9092919063ffffffff16565b6105736040518060400160405280600481526020017f64617461000000000000000000000000000000000000000000000000000000008152508560405160200161055b9190612e74565b60408051601f198184030181529190528391906116bf565b6105f26040518060400160405280600381526020017f61626900000000000000000000000000000000000000000000000000000000008152506040518060400160405280600781526020017f75696e7432353600000000000000000000000000000000000000000000000000815250836116bf9092919063ffffffff16565b60408051808201909152600a81527f6d756c7469706c696572000000000000000000000000000000000000000000006020820152610632908290856116bf565b60408051808201909152600881527f726566756e64546f000000000000000000000000000000000000000000000000602082015261067d906106753360146116e2565b8391906116bf565b60008281526013602052604090206106958582612f2e565b506010546012546106b1916001600160a01b03169083906118ca565b9150505b92915050565b60008181526008602052604090206001015481906001600160a01b031633146106e357600080fd5b506000908152600860205260409020600701805460ff19169055565b336000908152600b60205260408120546060918167ffffffffffffffff81111561072b5761072b6127e3565b60405190808252806020026020018201604052801561076457816020015b610751612778565b8152602001906001900390816107495790505b50905060005b8281101561090557336000908152600b6020526040812080548390811061079357610793612fee565b6000918252602080832090910154808352600882526040928390208351610100810185528154815260018201546001600160a01b0316938101939093526002810154938301939093526003830154606083015260048301546080830152600583015460a083015260068301805491945091929160c084019161081490612dff565b80601f016020809104026020016040519081016040528092919081815260200182805461084090612dff565b801561088d5780601f106108625761010080835404028352916020019161088d565b820191906000526020600020905b81548152906001019060200180831161087057829003601f168201915b50505091835250506007919091015460ff16151560209091015283518490849081106108bb576108bb612fee565b6020908102919091010151526108d0816119a3565b8383815181106108e2576108e2612fee565b6020026020010151602001819052505080806108fd9061301a565b91505061076a565b5092915050565b60606000805b600d5481101561094a5761092581611c5f565b1561093857816109348161301a565b9250505b806109428161301a565b915050610912565b5060008167ffffffffffffffff811115610966576109666127e3565b6040519080825280602002602001820160405280156109ea57816020015b6109d76040518061010001604052806000815260200160006001600160a01b0316815260200160008152602001600081526020016000815260200160008152602001606081526020016000151581525090565b8152602001906001900390816109845790505b50905060005b600d5481101561090557610a0381611c5f565b15610b3a576000818152600860209081526040918290208251610100810184528154815260018201546001600160a01b0316928101929092526002810154928201929092526003820154606082015260048201546080820152600582015460a082015260068201805491929160c084019190610a7e90612dff565b80601f0160208091040260200160405190810160405280929190818152602001828054610aaa90612dff565b8015610af75780601f10610acc57610100808354040283529160200191610af7565b820191906000526020600020905b815481529060010190602001808311610ada57829003601f168201915b50505091835250506007919091015460ff16151560209091015282610b1b85613033565b94508481518110610b2e57610b2e612fee565b60200260200101819052505b80610b448161301a565b9150506109f0565b60008281526005602052604090205482906001600160a01b03163314610bda5760405162461bcd60e51b815260206004820152602860248201527f536f75726365206d75737420626520746865206f7261636c65206f662074686560448201527f20726571756573740000000000000000000000000000000000000000000000006064820152608401610451565b60008181526005602052604080822080546001600160a01b03191690555182917f7cc135e0cebb02c3480ae5d74d377283180a2601f8f644edf7987b009316c63a91a260008381526013602052604081208054610c3690612dff565b80601f0160208091040260200160405190810160405280929190818152602001828054610c6290612dff565b8015610caf5780601f10610c8457610100808354040283529160200191610caf565b820191906000526020600020905b815481529060010190602001808311610c9257829003601f168201915b5050505050905082601482604051610cc7919061304a565b9081526040519081900360200190205550505050565b6007546001600160a01b03163314610d375760405162461bcd60e51b815260206004820152601660248201527f4d7573742062652070726f706f736564206f776e6572000000000000000000006044820152606401610451565b600680546001600160a01b0319808216339081179093556007805490911690556040516001600160a01b03909116919082907f8be0079c531659141344cd1fd0a4f28419497f9722a3daafe3b4186f6b6457e090600090a350565b6000808511610de35760405162461bcd60e51b815260206004820152601d60248201527f427564676574206d7573742062652067726561746572207468616e20300000006044820152606401610451565b843414610e325760405162461bcd60e51b815260206004820152601760248201527f496e73756666696369656e742066756e64732073656e740000000000000000006044820152606401610451565b60008411610e825760405162461bcd60e51b815260206004820152601a60248201527f426964206d7573742062652067726561746572207468616e20300000000000006044820152606401610451565b610e8f4262015180613066565b831015610f045760405162461bcd60e51b815260206004820152602260248201527f456e64206461746574696d65206d75737420626520696e20746865206675747560448201527f72650000000000000000000000000000000000000000000000000000000000006064820152608401610451565b6000825111610f555760405162461bcd60e51b815260206004820152601360248201527f4369642063616e6e6f7420626520656d707479000000000000000000000000006044820152606401610451565b6040805161010081018252600d548082523360208084019182528385018a8152606085018b8152608086018b815260a087018b815260c088018b8152600160e08a01819052600098895260089096529890962087518155945193850180546001600160a01b0319166001600160a01b039095169490941790935590516002840155516003830155516004820155905160058201559151909182916006820190610ffe9082612f2e565b5060e091909101516007909101805460ff19169115159190911790556020818101516001600160a01b03166000908152600b825260408120835181546001810183559183529282200191909155600d8054916110598361301a565b909155505080516040805191825233602083015281018790527f63e3678c8493a16f8ba43ae9e547231762ca04526dac2c388bd2c26d894018519060600160405180910390a15190505b949350505050565b60008181526008602052604090206001015481906001600160a01b031633146110d357600080fd5b506000908152600860205260409020600701805460ff19166001179055565b6013602052600090815260409020805461110b90612dff565b80601f016020809104026020016040519081016040528092919081815260200182805461113790612dff565b80156111845780601f1061115957610100808354040283529160200191611184565b820191906000526020600020905b81548152906001019060200180831161116757829003601f168201915b505050505081565b6011805461110b90612dff565b6111a1611db7565b6111aa81611e13565b50565b60005b815181101561162a576000308383815181106111ce576111ce612fee565b6020026020010151608001518484815181106111ec576111ec612fee565b60200260200101516020015185858151811061120a5761120a612fee565b60200260200101516060015186868151811061122857611228612fee565b602002602001015160c00151604051602001611248959493929190613079565b60405160208183030381529060405280519060200120905060006112e084848151811061127757611277612fee565b602002602001015160e001516112da846040517f19457468657265756d205369676e6564204d6573736167653a0a3332000000006020820152603c8101829052600090605c01604051602081830303815290604052805190602001209050919050565b90611ebd565b9050806001600160a01b03168484815181106112fe576112fe612fee565b6020026020010151608001516001600160a01b031603611615576000601485858151811061132e5761132e612fee565b602002602001015160c00151604051611347919061304a565b9081526020016040518091039020549050611395816008600088888151811061137257611372612fee565b602002602001015160200151815260200190815260200160002060030154611ee1565b905060008585815181106113ab576113ab612fee565b6020026020010151602001519050600e548686815181106113ce576113ce612fee565b60200260200101516000018181525050818686815181106113f1576113f1612fee565b60200260200101516040018181525050600086868151811061141557611415612fee565b602002602001015160a001901515908115158152505085858151811061143d5761143d612fee565b60200260200101516009600088888151811061145b5761145b612fee565b60209081029190910181015151825281810192909252604090810160002083518155918301516001830155820151600282015560608201516003820155608082015160048201805460a08501511515600160a01b027fffffffffffffffffffffff0000000000000000000000000000000000000000009091166001600160a01b039093169290921791909117905560c082015160058201906114fd9082612f2e565b5060e082015160068201906115129082612f2e565b5050506000818152600a60205260409020865187908790811061153757611537612fee565b6020908102919091018101515182546001810184556000938452919092200155855186908690811061156b5761156b612fee565b602002602001015160000151600c600088888151811061158d5761158d612fee565b602090810291909101810151608001516001600160a01b0316825281810192909252604090810160009081208582528352818120939093556008909152812060030180548492906115df9084906130cd565b9091555050600e80546000906115f49061301a565b9190508190555081600f600082825461160d9190613066565b909155505050505b505080806116229061301a565b9150506111b0565b5050565b61166c6040805160a0810182526000808252602080830182905282840182905260608084018390528451808601909552845283015290608082015290565b6116aa6040805160a0810182526000808252602080830182905282840182905260608084018390528451808601909552845283015290608082015290565b6116b681868686611ef7565b95945050505050565b60808301516116ce9083611f82565b60808301516116dd9082611f82565b505050565b606060006116f18360026130e0565b6116fc906002613066565b67ffffffffffffffff811115611714576117146127e3565b6040519080825280601f01601f19166020018201604052801561173e576020820181803683370190505b5090507f30000000000000000000000000000000000000000000000000000000000000008160008151811061177557611775612fee565b60200101906001600160f81b031916908160001a9053507f7800000000000000000000000000000000000000000000000000000000000000816001815181106117c0576117c0612fee565b60200101906001600160f81b031916908160001a90535060006117e48460026130e0565b6117ef906001613066565b90505b6001811115611874577f303132333435363738396162636465660000000000000000000000000000000085600f166010811061183057611830612fee565b1a60f81b82828151811061184657611846612fee565b60200101906001600160f81b031916908160001a90535060049490941c9361186d81613033565b90506117f2565b5083156118c35760405162461bcd60e51b815260206004820181905260248201527f537472696e67733a20686578206c656e67746820696e73756666696369656e746044820152606401610451565b9392505050565b6004546000906118db816001613066565b600455835160408086015160808701515191516000937f40429946000000000000000000000000000000000000000000000000000000009361192c9386938493923092918a916001916024016130f7565b60408051601f198184030181529190526020810180517bffffffffffffffffffffffffffffffffffffffffffffffffffffffff167fffffffff0000000000000000000000000000000000000000000000000000000090931692909217909152905061199986838684611f99565b9695505050505050565b6000818152600a60205260408120546060919067ffffffffffffffff8111156119ce576119ce6127e3565b604051908082528060200260200182016040528015611a5257816020015b611a3f6040518061010001604052806000815260200160008152602001600081526020016000815260200160006001600160a01b0316815260200160001515815260200160608152602001606081525090565b8152602001906001900390816119ec5790505b50905060005b6000848152600a6020526040902054811015610905576000848152600a602052604081208054600992919084908110611a9357611a93612fee565b600091825260208083209091015483528281019390935260409182019020815161010081018352815481526001820154938101939093526002810154918301919091526003810154606083015260048101546001600160a01b038116608084015260ff600160a01b90910416151560a083015260058101805460c084019190611b1b90612dff565b80601f0160208091040260200160405190810160405280929190818152602001828054611b4790612dff565b8015611b945780601f10611b6957610100808354040283529160200191611b94565b820191906000526020600020905b815481529060010190602001808311611b7757829003601f168201915b50505050508152602001600682018054611bad90612dff565b80601f0160208091040260200160405190810160405280929190818152602001828054611bd990612dff565b8015611c265780601f10611bfb57610100808354040283529160200191611c26565b820191906000526020600020905b815481529060010190602001808311611c0957829003601f168201915b505050505081525050828281518110611c4157611c41612fee565b60200260200101819052508080611c579061301a565b915050611a58565b60008181526008602090815260408083208151610100810183528154815260018201546001600160a01b0316938101939093526002810154918301919091526003810154606083015260048101546080830152600581015460a08301526006810180548493929160c0840191611cd490612dff565b80601f0160208091040260200160405190810160405280929190818152602001828054611d0090612dff565b8015611d4d5780601f10611d2257610100808354040283529160200191611d4d565b820191906000526020600020905b815481529060010190602001808311611d3057829003601f168201915b50505091835250506007919091015460ff161515602091820152336000908152600c82526040808220878352909252205460e0820151919250908015611d965750428260a00151115b80156110a35750600090815260096020526040902060030154159392505050565b6006546001600160a01b03163314611e115760405162461bcd60e51b815260206004820152601660248201527f4f6e6c792063616c6c61626c65206279206f776e6572000000000000000000006044820152606401610451565b565b336001600160a01b03821603611e6b5760405162461bcd60e51b815260206004820152601760248201527f43616e6e6f74207472616e7366657220746f2073656c660000000000000000006044820152606401610451565b600780546001600160a01b0319166001600160a01b03838116918217909255600654604051919216907fed8889f560326eb138920d842192f0eb3dd22b4f139c87a2c57538e05bae127890600090a350565b6000806000611ecc858561212a565b91509150611ed98161216f565b509392505050565b6000818310611ef057816118c3565b5090919050565b611f356040805160a0810182526000808252602080830182905282840182905260608084018390528451808601909552845283015290608082015290565b611f4585608001516101006122d4565b50509183526001600160a01b031660208301527fffffffff0000000000000000000000000000000000000000000000000000000016604082015290565b611f8f8260038351612339565b6116dd828261244e565b6040516bffffffffffffffffffffffff193060601b1660208201526034810184905260009060540160408051808303601f1901815282825280516020918201206000818152600590925291812080546001600160a01b0319166001600160a01b038a1617905590925082917fb5e6e01e79f91267dc17b4e6314d5d4d03593d2ceee0fbb452b750bd70ea5af99190a26002546040517f4000aea00000000000000000000000000000000000000000000000000000000081526001600160a01b0390911690634000aea09061207590889087908790600401613173565b6020604051808303816000875af1158015612094573d6000803e3d6000fd5b505050506040513d601f19601f820116820180604052508101906120b89190612de2565b6110a35760405162461bcd60e51b815260206004820152602360248201527f756e61626c6520746f207472616e73666572416e6443616c6c20746f206f726160448201527f636c6500000000000000000000000000000000000000000000000000000000006064820152608401610451565b60008082516041036121605760208301516040840151606085015160001a61215487828585612475565b94509450505050612168565b506000905060025b9250929050565b60008160048111156121835761218361319b565b0361218b5750565b600181600481111561219f5761219f61319b565b036121ec5760405162461bcd60e51b815260206004820152601860248201527f45434453413a20696e76616c6964207369676e617475726500000000000000006044820152606401610451565b60028160048111156122005761220061319b565b0361224d5760405162461bcd60e51b815260206004820152601f60248201527f45434453413a20696e76616c6964207369676e6174757265206c656e677468006044820152606401610451565b60038160048111156122615761226161319b565b036111aa5760405162461bcd60e51b815260206004820152602260248201527f45434453413a20696e76616c6964207369676e6174757265202773272076616c60448201527f75650000000000000000000000000000000000000000000000000000000000006064820152608401610451565b6040805180820190915260608152600060208201526122f46020836131b1565b1561231c576123046020836131b1565b61230f9060206130cd565b6123199083613066565b91505b506020828101829052604080518085526000815290920101905290565b60178167ffffffffffffffff16116123645761235e8360e0600585901b168317612539565b50505050565b60ff8167ffffffffffffffff16116123a25761238b836018611fe0600586901b1617612539565b5061235e8367ffffffffffffffff8316600161255e565b61ffff8167ffffffffffffffff16116123e1576123ca836019611fe0600586901b1617612539565b5061235e8367ffffffffffffffff8316600261255e565b63ffffffff8167ffffffffffffffff16116124225761240b83601a611fe0600586901b1617612539565b5061235e8367ffffffffffffffff8316600461255e565b61243783601b611fe0600586901b1617612539565b5061235e8367ffffffffffffffff8316600861255e565b6040805180820190915260608152600060208201526118c383846000015151848551612584565b6000807f7fffffffffffffffffffffffffffffff5d576e7357a4501ddfe92f46681b20a08311156124ac5750600090506003612530565b6040805160008082526020820180845289905260ff881692820192909252606081018690526080810185905260019060a0016020604051602081039080840390855afa158015612500573d6000803e3d6000fd5b5050604051601f1901519150506001600160a01b03811661252957600060019250925050612530565b9150600090505b94509492505050565b6040805180820190915260608152600060208201526118c3838460000151518461266e565b6040805180820190915260608152600060208201526110a38485600001515185856126c9565b60408051808201909152606081526000602082015282518211156125a757600080fd5b60208501516125b68386613066565b11156125e9576125e9856125d9876020015187866125d49190613066565b61274a565b6125e49060026130e0565b612761565b6000808651805187602083010193508088870111156126085787860182525b505050602084015b602084106126485780518252612627602083613066565b9150612634602082613066565b90506126416020856130cd565b9350612610565b51815160001960208690036101000a019081169019919091161790525083949350505050565b604080518082019091526060815260006020820152836020015183106126a3576126a384856020015160026125e491906130e0565b83518051602085830101848153508085036126bf576001810182525b5093949350505050565b60408051808201909152606081526000602082015260208501516126ed8584613066565b111561270157612701856125d98685613066565b60006001612711846101006132b7565b61271b91906130cd565b905085518386820101858319825116178152508051848701111561273f5783860181525b509495945050505050565b60008183111561275b5750816106b5565b50919050565b815161276d83836122d4565b5061235e838261244e565b60405180604001604052806127d66040518061010001604052806000815260200160006001600160a01b0316815260200160008152602001600081526020016000815260200160008152602001606081526020016000151581525090565b8152602001606081525090565b634e487b7160e01b600052604160045260246000fd5b604051610100810167ffffffffffffffff8111828210171561281d5761281d6127e3565b60405290565b604051601f8201601f1916810167ffffffffffffffff8111828210171561284c5761284c6127e3565b604052919050565b600082601f83011261286557600080fd5b813567ffffffffffffffff81111561287f5761287f6127e3565b612892601f8201601f1916602001612823565b8181528460208386010111156128a757600080fd5b816020850160208301376000918101602001919091529392505050565b600080604083850312156128d757600080fd5b823567ffffffffffffffff808211156128ef57600080fd5b6128fb86838701612854565b9350602085013591508082111561291157600080fd5b5061291e85828601612854565b9150509250929050565b60006020828403121561293a57600080fd5b5035919050565b60005b8381101561295c578181015183820152602001612944565b50506000910152565b6000815180845261297d816020860160208601612941565b601f01601f19169290920160200192915050565b6000610100825184526001600160a01b03602084015116602085015260408301516040850152606083015160608501526080830151608085015260a083015160a085015260c08301518160c08601526129ec82860182612965565b91505060e0830151151560e08501528091505092915050565b60006020808301818452808551808352604092508286019150828160051b87010184880160005b83811015612b2c57888303603f1901855281518051878552612a5088860182612991565b91890151858303868b01528051808452908a0192915089820190600581901b83018b0160005b82811015612b1557848203601f190184528551805183528d8101518e8401528c8101518d840152606080820151908401526080808201516001600160a01b03169084015260a08082015115159084015260c0808201516101008286018190529190612ae383870182612965565b9250505060e08083015192508482038186015250612b018183612965565b978f0197958f019593505050600101612a76565b50988b019896505050928801925050600101612a2c565b509098975050505050505050565b6000602080830181845280855180835260408601915060408160051b870101925083870160005b82811015612b8f57603f19888603018452612b7d858351612991565b94509285019290850190600101612b61565b5092979650505050505050565b60008060408385031215612baf57600080fd5b50508035926020909101359150565b60008060008060808587031215612bd457600080fd5b843593506020850135925060408501359150606085013567ffffffffffffffff811115612c0057600080fd5b612c0c87828801612854565b91505092959194509250565b6020815260006118c36020830184612965565b80356001600160a01b0381168114612c4257600080fd5b919050565b600060208284031215612c5957600080fd5b6118c382612c2b565b80151581146111aa57600080fd5b8035612c4281612c62565b60006020808385031215612c8e57600080fd5b823567ffffffffffffffff80821115612ca657600080fd5b818501915085601f830112612cba57600080fd5b813581811115612ccc57612ccc6127e3565b8060051b612cdb858201612823565b9182528381018501918581019089841115612cf557600080fd5b86860192505b83831015612dd557823585811115612d1257600080fd5b8601610100818c03601f1901811315612d2a57600080fd5b612d326127f9565b89830135815260408301358a8201526060830135604082015260808301356060820152612d6160a08401612c2b565b6080820152612d7260c08401612c70565b60a082015260e08084013589811115612d8b5760008081fd5b612d998f8d83880101612854565b60c084015250918301359188831115612db25760008081fd5b612dc08e8c85870101612854565b90820152845250509186019190860190612cfb565b9998505050505050505050565b600060208284031215612df457600080fd5b81516118c381612c62565b600181811c90821680612e1357607f821691505b60208210810361275b57634e487b7160e01b600052602260045260246000fd5b6000612e3f8254612dff565b82601f821115612e555783600052602060002090505b549150602081101561275b5760001960209190910360031b1b16919050565b7f7b226c6f636174696f6e223a2200000000000000000000000000000000000000815260008251612eac81600d850160208701612941565b7f227d000000000000000000000000000000000000000000000000000000000000600d939091019283015250600f01919050565b601f8211156116dd57600081815260208120601f850160051c81016020861015612f075750805b601f850160051c820191505b81811015612f2657828155600101612f13565b505050505050565b815167ffffffffffffffff811115612f4857612f486127e3565b612f5c81612f568454612dff565b84612ee0565b602080601f831160018114612f915760008415612f795750858301515b600019600386901b1c1916600185901b178555612f26565b600085815260208120601f198616915b82811015612fc057888601518255948401946001909101908401612fa1565b5085821015612fde5787850151600019600388901b60f8161c191681555b5050505050600190811b01905550565b634e487b7160e01b600052603260045260246000fd5b634e487b7160e01b600052601160045260246000fd5b60006001820161302c5761302c613004565b5060010190565b60008161304257613042613004565b506000190190565b6000825161305c818460208701612941565b9190910192915050565b808201808211156106b5576106b5613004565b60006bffffffffffffffffffffffff19808860601b168352808760601b1660148401525084602883015283604883015282516130bc816068850160208701612941565b919091016068019695505050505050565b818103818111156106b5576106b5613004565b80820281158282048414176106b5576106b5613004565b60006101006001600160a01b03808c1684528a60208501528960408501528089166060850152507fffffffff00000000000000000000000000000000000000000000000000000000871660808401528560a08401528460c08401528060e084015261316481840185612965565b9b9a5050505050505050505050565b6001600160a01b03841681528260208201526060604082015260006116b66060830184612965565b634e487b7160e01b600052602160045260246000fd5b6000826131ce57634e487b7160e01b600052601260045260246000fd5b500690565b600181815b8085111561320e5781600019048211156131f4576131f4613004565b8085161561320157918102915b93841c93908002906131d8565b509250929050565b600082613225575060016106b5565b81613232575060006106b5565b816001811461324857600281146132525761326e565b60019150506106b5565b60ff84111561326357613263613004565b50506001821b6106b5565b5060208310610133831016604e8410600b8410161715613291575081810a6106b5565b61329b83836131d3565b80600019048211156132af576132af613004565b029392505050565b60006118c3838361321656fea2646970667358221220b92b242c0cec78212fefa44114052547dd10a1d86ed9476e2686cbfaf5a2171764736f6c63430008120033",
  "linkReferences": {},
  "deployedLinkReferences": {}
}