{
  "_format": "hh-sol-artifact-1",
  "contractName": "Zenith",
  "sourceName": "contracts/Zenith.sol",
  "abi": [
    {
      "inputs": [
        {
          "internalType": "contract ISxTRelayProxy",
          "name": "sxtRelayAddress",
          "type": "address"
        },
        {
          "internalType": "contract LinkTokenInterface",
          "name": "chainlinkTokenAddress",
          "type": "address"
        }
      ],
      "stateMutability": "nonpayable",
      "type": "constructor"
    },
    {
      "anonymous": false,
      "inputs": [
        {
          "indexed": false,
          "internalType": "uint256",
          "name": "_campaigns",
          "type": "uint256"
        },
        {
          "indexed": false,
          "internalType": "address",
          "name": "_advertiser",
          "type": "address"
        },
        {
          "indexed": false,
          "internalType": "uint256",
          "name": "_budget",
          "type": "uint256"
        }
      ],
      "name": "CampaignCreated",
      "type": "event"
    },
    {
      "anonymous": false,
      "inputs": [
        {
          "indexed": false,
          "internalType": "uint256",
          "name": "_campaignId",
          "type": "uint256"
        }
      ],
      "name": "CampaignDisabled",
      "type": "event"
    },
    {
      "anonymous": false,
      "inputs": [
        {
          "indexed": false,
          "internalType": "uint256",
          "name": "_campaignId",
          "type": "uint256"
        }
      ],
      "name": "CampaignEnabled",
      "type": "event"
    },
    {
      "anonymous": false,
      "inputs": [
        {
          "indexed": true,
          "internalType": "address",
          "name": "from",
          "type": "address"
        },
        {
          "indexed": true,
          "internalType": "address",
          "name": "to",
          "type": "address"
        }
      ],
      "name": "OwnershipTransferRequested",
      "type": "event"
    },
    {
      "anonymous": false,
      "inputs": [
        {
          "indexed": true,
          "internalType": "address",
          "name": "from",
          "type": "address"
        },
        {
          "indexed": true,
          "internalType": "address",
          "name": "to",
          "type": "address"
        }
      ],
      "name": "OwnershipTransferred",
      "type": "event"
    },
    {
      "inputs": [],
      "name": "acceptOwnership",
      "outputs": [],
      "stateMutability": "nonpayable",
      "type": "function"
    },
    {
      "inputs": [
        {
          "internalType": "uint256",
          "name": "_budget",
          "type": "uint256"
        },
        {
          "internalType": "uint256",
          "name": "_minCostPerClick",
          "type": "uint256"
        },
        {
          "internalType": "uint256",
          "name": "_endDatetime",
          "type": "uint256"
        },
        {
          "internalType": "string",
          "name": "_cid",
          "type": "string"
        }
      ],
      "name": "createCampaign",
      "outputs": [
        {
          "internalType": "uint256",
          "name": "",
          "type": "uint256"
        }
      ],
      "stateMutability": "payable",
      "type": "function"
    },
    {
      "inputs": [],
      "name": "currentRequestId",
      "outputs": [
        {
          "internalType": "bytes32",
          "name": "",
          "type": "bytes32"
        }
      ],
      "stateMutability": "view",
      "type": "function"
    },
    {
      "inputs": [
        {
          "internalType": "uint256",
          "name": "campaignId",
          "type": "uint256"
        }
      ],
      "name": "disableCampaign",
      "outputs": [],
      "stateMutability": "nonpayable",
      "type": "function"
    },
    {
      "inputs": [
        {
          "internalType": "uint256",
          "name": "campaignId",
          "type": "uint256"
        }
      ],
      "name": "enableCampaign",
      "outputs": [],
      "stateMutability": "nonpayable",
      "type": "function"
    },
    {
      "inputs": [],
      "name": "getAvailableCampaigns",
      "outputs": [
        {
          "components": [
            {
              "internalType": "uint256",
              "name": "id",
              "type": "uint256"
            },
            {
              "internalType": "address",
              "name": "advertiser",
              "type": "address"
            },
            {
              "internalType": "uint256",
              "name": "budget",
              "type": "uint256"
            },
            {
              "internalType": "uint256",
              "name": "remaining",
              "type": "uint256"
            },
            {
              "internalType": "uint256",
              "name": "minCostPerClick",
              "type": "uint256"
            },
            {
              "internalType": "uint256",
              "name": "endDatetime",
              "type": "uint256"
            },
            {
              "internalType": "string",
              "name": "cid",
              "type": "string"
            },
            {
              "internalType": "bool",
              "name": "active",
              "type": "bool"
            }
          ],
          "internalType": "struct Zenith.Campaign[]",
          "name": "",
          "type": "tuple[]"
        }
      ],
      "stateMutability": "view",
      "type": "function"
    },
    {
      "inputs": [],
      "name": "getCampaignsOfAdvertiser",
      "outputs": [
        {
          "components": [
            {
              "components": [
                {
                  "internalType": "uint256",
                  "name": "id",
                  "type": "uint256"
                },
                {
                  "internalType": "address",
                  "name": "advertiser",
                  "type": "address"
                },
                {
                  "internalType": "uint256",
                  "name": "budget",
                  "type": "uint256"
                },
                {
                  "internalType": "uint256",
                  "name": "remaining",
                  "type": "uint256"
                },
                {
                  "internalType": "uint256",
                  "name": "minCostPerClick",
                  "type": "uint256"
                },
                {
                  "internalType": "uint256",
                  "name": "endDatetime",
                  "type": "uint256"
                },
                {
                  "internalType": "string",
                  "name": "cid",
                  "type": "string"
                },
                {
                  "internalType": "bool",
                  "name": "active",
                  "type": "bool"
                }
              ],
              "internalType": "struct Zenith.Campaign",
              "name": "campaign",
              "type": "tuple"
            },
            {
              "components": [
                {
                  "internalType": "uint256",
                  "name": "clickedTime",
                  "type": "uint256"
                },
                {
                  "internalType": "uint256",
                  "name": "costPerClick",
                  "type": "uint256"
                },
                {
                  "internalType": "address",
                  "name": "user",
                  "type": "address"
                },
                {
                  "internalType": "string",
                  "name": "country",
                  "type": "string"
                }
              ],
              "internalType": "struct Zenith.AdClick[]",
              "name": "adClicks",
              "type": "tuple[]"
            }
          ],
          "internalType": "struct Zenith.CampaignWithAdClicks[]",
          "name": "",
          "type": "tuple[]"
        }
      ],
      "stateMutability": "view",
      "type": "function"
    },
    {
      "inputs": [],
      "name": "getChainlinkToken",
      "outputs": [
        {
          "internalType": "contract LinkTokenInterface",
          "name": "",
          "type": "address"
        }
      ],
      "stateMutability": "view",
      "type": "function"
    },
    {
      "inputs": [],
      "name": "getSxTRelayContract",
      "outputs": [
        {
          "internalType": "contract ISxTRelayProxy",
          "name": "",
          "type": "address"
        }
      ],
      "stateMutability": "view",
      "type": "function"
    },
    {
      "inputs": [],
      "name": "jobId",
      "outputs": [
        {
          "internalType": "string",
          "name": "",
          "type": "string"
        }
      ],
      "stateMutability": "view",
      "type": "function"
    },
    {
      "inputs": [],
      "name": "numAdClicks",
      "outputs": [
        {
          "internalType": "uint256",
          "name": "",
          "type": "uint256"
        }
      ],
      "stateMutability": "view",
      "type": "function"
    },
    {
      "inputs": [],
      "name": "numCampaigns",
      "outputs": [
        {
          "internalType": "uint256",
          "name": "",
          "type": "uint256"
        }
      ],
      "stateMutability": "view",
      "type": "function"
    },
    {
      "inputs": [],
      "name": "owner",
      "outputs": [
        {
          "internalType": "address",
          "name": "",
          "type": "address"
        }
      ],
      "stateMutability": "view",
      "type": "function"
    },
    {
      "inputs": [
        {
          "internalType": "bytes32",
          "name": "_requestId",
          "type": "bytes32"
        },
        {
          "internalType": "string[][]",
          "name": "_data",
          "type": "string[][]"
        }
      ],
      "name": "recordAdClicks",
      "outputs": [],
      "stateMutability": "payable",
      "type": "function"
    },
    {
      "inputs": [
        {
          "internalType": "bytes32",
          "name": "",
          "type": "bytes32"
        }
      ],
      "name": "requests",
      "outputs": [
        {
          "internalType": "address",
          "name": "",
          "type": "address"
        }
      ],
      "stateMutability": "view",
      "type": "function"
    },
    {
      "inputs": [],
      "name": "totalRewards",
      "outputs": [
        {
          "internalType": "uint256",
          "name": "",
          "type": "uint256"
        }
      ],
      "stateMutability": "view",
      "type": "function"
    },
    {
      "inputs": [
        {
          "internalType": "address",
          "name": "to",
          "type": "address"
        }
      ],
      "name": "transferOwnership",
      "outputs": [],
      "stateMutability": "nonpayable",
      "type": "function"
    },
    {
      "inputs": [
        {
          "internalType": "string",
          "name": "_resourceId",
          "type": "string"
        }
      ],
      "name": "triggerRetrieveRewards",
      "outputs": [
        {
          "internalType": "bytes32",
          "name": "requestId",
          "type": "bytes32"
        }
      ],
      "stateMutability": "nonpayable",
      "type": "function"
    },
    {
      "inputs": [
        {
          "internalType": "address",
          "name": "to",
          "type": "address"
        },
        {
          "internalType": "uint256",
          "name": "amount",
          "type": "uint256"
        }
      ],
      "name": "withdrawChainlink",
      "outputs": [],
      "stateMutability": "nonpayable",
      "type": "function"
    }
  ],
  "bytecode": "0x60c0604052602060809081527f626339376336383064323932346633316130353831643934373331346363363460a0526006906200003e90826200034d565b506000600d556000600e556000600f553480156200005b57600080fd5b5060405162003336380380620033368339810160408190526200007e9162000432565b600160009081558290829033908190819081620000e25760405162461bcd60e51b815260206004820152601860248201527f43616e6e6f7420736574206f776e657220746f207a65726f000000000000000060448201526064015b60405180910390fd5b600180546001600160a01b0319166001600160a01b038481169190911790915581161562000115576200011581620001fc565b5050506001600160a01b0383166200016f5760405162461bcd60e51b81526020600482015260276024820152600080516020620033168339815191526044820152664164647265737360c81b6064820152608401620000d9565b6001600160a01b038216620001c65760405162461bcd60e51b81526020600482015260276024820152600080516020620033168339815191526044820152664164647265737360c81b6064820152608401620000d9565b50600380546001600160a01b039384166001600160a01b0319918216179091556004805492909316911617905550620004719050565b336001600160a01b03821603620002565760405162461bcd60e51b815260206004820152601760248201527f43616e6e6f74207472616e7366657220746f2073656c660000000000000000006044820152606401620000d9565b600280546001600160a01b0319166001600160a01b03838116918217909255600154604051919216907fed8889f560326eb138920d842192f0eb3dd22b4f139c87a2c57538e05bae127890600090a350565b634e487b7160e01b600052604160045260246000fd5b600181811c90821680620002d357607f821691505b602082108103620002f457634e487b7160e01b600052602260045260246000fd5b50919050565b601f8211156200034857600081815260208120601f850160051c81016020861015620003235750805b601f850160051c820191505b8181101562000344578281556001016200032f565b5050505b505050565b81516001600160401b03811115620003695762000369620002a8565b62000381816200037a8454620002be565b84620002fa565b602080601f831160018114620003b95760008415620003a05750858301515b600019600386901b1c1916600185901b17855562000344565b600085815260208120601f198616915b82811015620003ea57888601518255948401946001909101908401620003c9565b5085821015620004095787850151600019600388901b60f8161c191681555b5050505050600190811b01905550565b6001600160a01b03811681146200042f57600080fd5b50565b600080604083850312156200044657600080fd5b8251620004538162000419565b6020840151909250620004668162000419565b809150509250929050565b612e9580620004816000396000f3fe6080604052600436106101445760003560e01c80635ae2bfdb116100c057806384962de7116100745780639d866985116100595780639d86698514610323578063c2939d9714610359578063f2fde38b1461037b57600080fd5b806384962de7146102e55780638da5cb5b1461030557600080fd5b80636e5b46f5116100a55780636e5b46f51461029b57806379ba5097146102bd5780637ba77431146102d257600080fd5b80635ae2bfdb146102635780636cedeedd1461027957600080fd5b80632ea6ef9e116101175780633c4f02da116100fc5780633c4f02da1461021a578063516ef31c1461022d5780635968ec5f1461024d57600080fd5b80632ea6ef9e146101dc578063369d5f3d146101fa57600080fd5b80630e15561a14610149578063165d35e114610172578063211c1198146101a45780632c0f7b6f146101c6575b600080fd5b34801561015557600080fd5b5061015f600f5481565b6040519081526020015b60405180910390f35b34801561017e57600080fd5b506004546001600160a01b03165b6040516001600160a01b039091168152602001610169565b3480156101b057600080fd5b506101c46101bf3660046124aa565b61039b565b005b3480156101d257600080fd5b5061015f600d5481565b3480156101e857600080fd5b506003546001600160a01b031661018c565b34801561020657600080fd5b506101c46102153660046124d6565b6104ca565b6101c46102283660046124ef565b610549565b34801561023957600080fd5b5061015f610248366004612611565b610a3d565b34801561025957600080fd5b5061015f600e5481565b34801561026f57600080fd5b5061015f60055481565b34801561028557600080fd5b5061028e610d8b565b6040516101699190612712565b3480156102a757600080fd5b506102b06110ad565b6040516101699190612807565b3480156102c957600080fd5b506101c46112ed565b61015f6102e0366004612869565b6113a2565b3480156102f157600080fd5b506101c46103003660046124d6565b6116b9565b34801561031157600080fd5b506001546001600160a01b031661018c565b34801561032f57600080fd5b5061018c61033e3660046124d6565b600c602052600090815260409020546001600160a01b031681565b34801561036557600080fd5b5061036e61172f565b60405161016991906128c3565b34801561038757600080fd5b506101c46103963660046128d6565b6117bd565b6103a36117d1565b6103ab61182a565b600480546040517fa9059cbb0000000000000000000000000000000000000000000000000000000081526001600160a01b0385811693820193909352602481018490526000929091169063a9059cbb906044016020604051808303816000875af115801561041d573d6000803e3d6000fd5b505050506040513d601f19601f8201168201806040525081019061044191906128f3565b9050806104bb5760405162461bcd60e51b815260206004820152602c60248201527f55736572526571756573743a20436861696e6c696e6b20746f6b656e2074726160448201527f6e73666572206661696c6564000000000000000000000000000000000000000060648201526084015b60405180910390fd5b506104c66001600055565b5050565b60008181526007602052604090206001015481906001600160a01b031633146104f257600080fd5b60008281526007602081905260409182902001805460ff19169055517f9620e459d78787bd1a66e8aa7f06df3177404e39240c06c264f48ce40fee14159061053d9084815260200190565b60405180910390a15050565b6003546001600160a01b03166001600160a01b0316638abf60776040518163ffffffff1660e01b8152600401602060405180830381865afa158015610592573d6000803e3d6000fd5b505050506040513d601f19601f820116820180604052508101906105b69190612915565b6001600160a01b0316336001600160a01b03161461063c5760405162461bcd60e51b815260206004820152603260248201527f55736572526571756573743a204f6e6c792063616c6c61626c6520627920537860448201527f54205265717565737420436f6e7472616374000000000000000000000000000060648201526084016104b2565b6000838152600c60205260408120546001600160a01b0316815b838110156109f75760006106e486868481811061067557610675612932565b90506020028101906106879190612948565b600081811061069857610698612932565b90506020028101906106aa9190612992565b8080601f01602080910402602001604051908101604052809392919081815260200183838082843760009201919091525061188692505050565b6001600160a01b0384166000908152600a602090815260408083208484529091529020549091501515806107275750600081815260076020526040902060030154155b1561073257506109e5565b600061076c87878581811061074957610749612932565b905060200281019061075b9190612948565b600481811061069857610698612932565b905060006107f488888681811061078557610785612932565b90506020028101906107979190612948565b60038181106107a8576107a8612932565b90506020028101906107ba9190612992565b8080601f01602080910402602001604051908101604052809392919081815260200183838082843760009201919091525061190892505050565b90506000610803848484611a13565b9050806001600160a01b0316866001600160a01b0316036109e05760008481526007602052604090206004810154600390910154610842908290611a99565b905060006040518060800160405280868152602001838152602001896001600160a01b031681526020018c8c8a81811061087e5761087e612932565b90506020028101906108909190612948565b60028181106108a1576108a1612932565b90506020028101906108b39190612992565b8080601f016020809104026020016040519081016040528093929190818152602001838380828437600092018290525093909452505088815260086020908152604080832080546001808201835591855293839020865160049095020193845591850151918301919091558301516002820180546001600160a01b0319166001600160a01b0390921691909117905560608301519293508392909150600382019061095e9082612a5e565b5050506001600160a01b0388166000908152600a6020908152604080832089845282528083208590556007909152812060030180548492906109a1908490612b34565b9091555050600e80546000906109b690612b47565b909155506109c4828a612b60565b985081600f60008282546109d89190612b60565b909155505050505b505050505b806109ef81612b47565b915050610656565b508115610a36576040516001600160a01b0382169083156108fc029084906000818181858888f19350505050158015610a34573d6000803e3d6000fd5b505b5050505050565b6000610a476117d1565b6004546001600160a01b03166001600160a01b031663095ea7b3610a736003546001600160a01b031690565b6001600160a01b0316638abf60776040518163ffffffff1660e01b8152600401602060405180830381865afa158015610ab0573d6000803e3d6000fd5b505050506040513d601f19601f82011682018060405250810190610ad49190612915565b6003546001600160a01b03166001600160a01b0316631f78b0906040518163ffffffff1660e01b8152600401602060405180830381865afa158015610b1d573d6000803e3d6000fd5b505050506040513d601f19601f82011682018060405250810190610b419190612b73565b6040517fffffffff0000000000000000000000000000000000000000000000000000000060e085901b1681526001600160a01b03909216600483015260248201526044016020604051808303816000875af1158015610ba4573d6000803e3d6000fd5b505050506040513d601f19601f82011682018060405250810190610bc891906128f3565b610c3a5760405162461bcd60e51b815260206004820152602860248201527f55736572526571756573743a20496e73756666696369656e74204c494e4b206160448201527f6c6c6f77616e636500000000000000000000000000000000000000000000000060648201526084016104b2565b336000908152600b60205260408120548390610c5590611ab3565b610c60336014611b53565b604051602001610c7293929190612b8c565b6040516020818303038152906040529050610c956003546001600160a01b031690565b6040517fe85b09970000000000000000000000000000000000000000000000000000000081526001600160a01b03919091169063e85b099790610d05908490879030907f3c4f02da0000000000000000000000000000000000000000000000000000000090600690600401612cc2565b6020604051808303816000875af1158015610d24573d6000803e3d6000fd5b505050506040513d601f19601f82011682018060405250810190610d489190612b73565b6000818152600c6020908152604080832080546001600160a01b031916339081179091558352600b90915290204290559150610d8690506001600055565b919050565b336000908152600960205260408120546060918167ffffffffffffffff811115610db757610db761256e565b604051908082528060200260200182016040528015610df057816020015b610ddd61242a565b815260200190600190039081610dd55790505b50905060005b828110156110a657336000908152600960205260408120805483908110610e1f57610e1f612932565b6000918252602080832090910154808352600782526040928390208351610100810185528154815260018201546001600160a01b0316938101939093526002810154938301939093526003830154606083015260048301546080830152600583015460a083015260068301805491945091929160c0840191610ea0906129d9565b80601f0160208091040260200160405190810160405280929190818152602001828054610ecc906129d9565b8015610f195780601f10610eee57610100808354040283529160200191610f19565b820191906000526020600020905b815481529060010190602001808311610efc57829003601f168201915b50505091835250506007919091015460ff1615156020909101528351849084908110610f4757610f47612932565b6020908102919091018101519190915260008281526008825260408082208054825181860281018601909352808352919390929084015b8282101561106d57600084815260209081902060408051608081018252600486029092018054835260018101549383019390935260028301546001600160a01b031690820152600382018054919291606084019190610fdc906129d9565b80601f0160208091040260200160405190810160405280929190818152602001828054611008906129d9565b80156110555780601f1061102a57610100808354040283529160200191611055565b820191906000526020600020905b81548152906001019060200180831161103857829003601f168201915b50505050508152505081526020019060010190610f7e565b5050505083838151811061108357611083612932565b60200260200101516020018190525050808061109e90612b47565b915050610df6565b5092915050565b60606000805b600d548110156110eb576110c681611d18565b156110d957816110d581612b47565b9250505b806110e381612b47565b9150506110b3565b5060008167ffffffffffffffff8111156111075761110761256e565b60405190808252806020026020018201604052801561118b57816020015b6111786040518061010001604052806000815260200160006001600160a01b0316815260200160008152602001600081526020016000815260200160008152602001606081526020016000151581525090565b8152602001906001900390816111255790505b50905060005b600d548110156110a6576111a481611d18565b156112db576000818152600760209081526040918290208251610100810184528154815260018201546001600160a01b0316928101929092526002810154928201929092526003820154606082015260048201546080820152600582015460a082015260068201805491929160c08401919061121f906129d9565b80601f016020809104026020016040519081016040528092919081815260200182805461124b906129d9565b80156112985780601f1061126d57610100808354040283529160200191611298565b820191906000526020600020905b81548152906001019060200180831161127b57829003601f168201915b50505091835250506007919091015460ff161515602090910152826112bc85612dab565b945084815181106112cf576112cf612932565b60200260200101819052505b806112e581612b47565b915050611191565b6002546001600160a01b031633146113475760405162461bcd60e51b815260206004820152601660248201527f4d7573742062652070726f706f736564206f776e65720000000000000000000060448201526064016104b2565b600180546001600160a01b0319808216339081179093556002805490911690556040516001600160a01b03909116919082907f8be0079c531659141344cd1fd0a4f28419497f9722a3daafe3b4186f6b6457e090600090a350565b60008085116113f35760405162461bcd60e51b815260206004820152601d60248201527f427564676574206d7573742062652067726561746572207468616e203000000060448201526064016104b2565b8434146114425760405162461bcd60e51b815260206004820152601760248201527f496e73756666696369656e742066756e64732073656e7400000000000000000060448201526064016104b2565b600084116114925760405162461bcd60e51b815260206004820152601a60248201527f426964206d7573742062652067726561746572207468616e203000000000000060448201526064016104b2565b61149f4262015180612b60565b8310156115145760405162461bcd60e51b815260206004820152602260248201527f456e64206461746574696d65206d75737420626520696e20746865206675747560448201527f726500000000000000000000000000000000000000000000000000000000000060648201526084016104b2565b60008251116115655760405162461bcd60e51b815260206004820152601360248201527f4369642063616e6e6f7420626520656d7074790000000000000000000000000060448201526064016104b2565b6040805161010081018252600d548082523360208084019182528385018a8152606085018b8152608086018b815260a087018b815260c088018b8152600160e08a01819052600098895260079096529890962087518155945193850180546001600160a01b0319166001600160a01b03909516949094179093559051600284015551600383015551600482015590516005820155915190918291600682019061160e9082612a5e565b5060e091909101516007909101805460ff19169115159190911790556020818101516001600160a01b031660009081526009825260408120835181546001810183559183529282200191909155600d80549161166983612b47565b909155505080516040805191825233602083015281018790527f63e3678c8493a16f8ba43ae9e547231762ca04526dac2c388bd2c26d894018519060600160405180910390a15195945050505050565b60008181526007602052604090206001015481906001600160a01b031633146116e157600080fd5b60008281526007602081905260409182902001805460ff19166001179055517fba42f99793097dbf156767849735bfd27114e73a9cc1b4c264144cfd154cde009061053d9084815260200190565b6006805461173c906129d9565b80601f0160208091040260200160405190810160405280929190818152602001828054611768906129d9565b80156117b55780601f1061178a576101008083540402835291602001916117b5565b820191906000526020600020905b81548152906001019060200180831161179857829003601f168201915b505050505081565b6117c561182a565b6117ce81611e62565b50565b6002600054036118235760405162461bcd60e51b815260206004820152601f60248201527f5265656e7472616e637947756172643a207265656e7472616e742063616c6c0060448201526064016104b2565b6002600055565b6001546001600160a01b031633146118845760405162461bcd60e51b815260206004820152601660248201527f4f6e6c792063616c6c61626c65206279206f776e65720000000000000000000060448201526064016104b2565b565b60008181805b82518110156119005760008382815181106118a9576118a9612932565b016020015160f81c9050603081108015906118c5575060398111155b156118ed576118d5603082612b34565b6118e084600a612dc2565b6118ea9190612b60565b92505b50806118f881612b47565b91505061188c565b509392505050565b6060600082905060006002825161191f9190612dd9565b67ffffffffffffffff8111156119375761193761256e565b6040519080825280601f01601f191660200182016040528015611961576020820181803683370190505b50905060005b600283516119759190612dd9565b811015611900576119b38361198b836002612dc2565b611996906001612b60565b815181106119a6576119a6612932565b016020015160f81c611f0c565b6119c284611996846002612dc2565b6119cd906010612dfb565b6119d79190612e17565b60f81b8282815181106119ec576119ec612932565b60200101906001600160f81b031916908160001a905350611a0c81612b47565b9050611967565b6000808484604051602001611a32929190918252602082015260400190565b6040516020818303038152906040528051906020012090506000611a83827f19457468657265756d205369676e6564204d6573736167653a0a3332000000006000908152601c91909152603c902090565b9050611a8f81856120be565b9695505050505050565b6000818310611aa85781611aaa565b825b90505b92915050565b60606000611ac0836120da565b600101905060008167ffffffffffffffff811115611ae057611ae061256e565b6040519080825280601f01601f191660200182016040528015611b0a576020820181803683370190505b5090508181016020015b600019017f3031323334353637383961626364656600000000000000000000000000000000600a86061a8153600a8504945084611b1457509392505050565b60606000611b62836002612dc2565b611b6d906002612b60565b67ffffffffffffffff811115611b8557611b8561256e565b6040519080825280601f01601f191660200182016040528015611baf576020820181803683370190505b509050600360fc1b81600081518110611bca57611bca612932565b60200101906001600160f81b031916908160001a9053507f780000000000000000000000000000000000000000000000000000000000000081600181518110611c1557611c15612932565b60200101906001600160f81b031916908160001a9053506000611c39846002612dc2565b611c44906001612b60565b90505b6001811115611cc9577f303132333435363738396162636465660000000000000000000000000000000085600f1660108110611c8557611c85612932565b1a60f81b828281518110611c9b57611c9b612932565b60200101906001600160f81b031916908160001a90535060049490941c93611cc281612dab565b9050611c47565b508315611aaa5760405162461bcd60e51b815260206004820181905260248201527f537472696e67733a20686578206c656e67746820696e73756666696369656e7460448201526064016104b2565b60008181526007602090815260408083208151610100810183528154815260018201546001600160a01b0316938101939093526002810154918301919091526003810154606083015260048101546080830152600581015460a08301526006810180548493929160c0840191611d8d906129d9565b80601f0160208091040260200160405190810160405280929190818152602001828054611db9906129d9565b8015611e065780601f10611ddb57610100808354040283529160200191611e06565b820191906000526020600020905b815481529060010190602001808311611de957829003601f168201915b50505091835250506007919091015460ff16151560209091015260e08101519091508015611e375750428160a00151115b8015611e5b5750336000908152600a60209081526040808320868452909152902054155b9392505050565b336001600160a01b03821603611eba5760405162461bcd60e51b815260206004820152601760248201527f43616e6e6f74207472616e7366657220746f2073656c6600000000000000000060448201526064016104b2565b600280546001600160a01b0319166001600160a01b03838116918217909255600154604051919216907fed8889f560326eb138920d842192f0eb3dd22b4f139c87a2c57538e05bae127890600090a350565b6000600360fc1b60f883901b6001600160f81b03191610801590611f5e57507f390000000000000000000000000000000000000000000000000000000000000060f883901b6001600160f81b03191611155b15611f6e57611aad603083612e30565b7f610000000000000000000000000000000000000000000000000000000000000060f883901b6001600160f81b03191610801590611fda57507f660000000000000000000000000000000000000000000000000000000000000060f883901b6001600160f81b03191611155b15611ff6576061611fec83600a612e17565b611aad9190612e30565b7f410000000000000000000000000000000000000000000000000000000000000060f883901b6001600160f81b0319161080159061206257507f460000000000000000000000000000000000000000000000000000000000000060f883901b6001600160f81b03191611155b15612074576041611fec83600a612e17565b60405162461bcd60e51b81526004016104b29060208082526004908201527f6661696c00000000000000000000000000000000000000000000000000000000604082015260600190565b60008060006120cd85856121bc565b9150915061190081612201565b6000807a184f03e93ff9f4daa797ed6e38ed64bf6a1f0100000000000000008310612123577a184f03e93ff9f4daa797ed6e38ed64bf6a1f010000000000000000830492506040015b6d04ee2d6d415b85acef8100000000831061214f576d04ee2d6d415b85acef8100000000830492506020015b662386f26fc10000831061216d57662386f26fc10000830492506010015b6305f5e1008310612185576305f5e100830492506008015b612710831061219957612710830492506004015b606483106121ab576064830492506002015b600a8310611aad5760010192915050565b60008082516041036121f25760208301516040840151606085015160001a6121e687828585612366565b945094505050506121fa565b506000905060025b9250929050565b600081600481111561221557612215612e49565b0361221d5750565b600181600481111561223157612231612e49565b0361227e5760405162461bcd60e51b815260206004820152601860248201527f45434453413a20696e76616c6964207369676e6174757265000000000000000060448201526064016104b2565b600281600481111561229257612292612e49565b036122df5760405162461bcd60e51b815260206004820152601f60248201527f45434453413a20696e76616c6964207369676e6174757265206c656e6774680060448201526064016104b2565b60038160048111156122f3576122f3612e49565b036117ce5760405162461bcd60e51b815260206004820152602260248201527f45434453413a20696e76616c6964207369676e6174757265202773272076616c60448201527f756500000000000000000000000000000000000000000000000000000000000060648201526084016104b2565b6000807f7fffffffffffffffffffffffffffffff5d576e7357a4501ddfe92f46681b20a083111561239d5750600090506003612421565b6040805160008082526020820180845289905260ff881692820192909252606081018690526080810185905260019060a0016020604051602081039080840390855afa1580156123f1573d6000803e3d6000fd5b5050604051601f1901519150506001600160a01b03811661241a57600060019250925050612421565b9150600090505b94509492505050565b60405180604001604052806124886040518061010001604052806000815260200160006001600160a01b0316815260200160008152602001600081526020016000815260200160008152602001606081526020016000151581525090565b8152602001606081525090565b6001600160a01b03811681146117ce57600080fd5b600080604083850312156124bd57600080fd5b82356124c881612495565b946020939093013593505050565b6000602082840312156124e857600080fd5b5035919050565b60008060006040848603121561250457600080fd5b83359250602084013567ffffffffffffffff8082111561252357600080fd5b818601915086601f83011261253757600080fd5b81358181111561254657600080fd5b8760208260051b850101111561255b57600080fd5b6020830194508093505050509250925092565b634e487b7160e01b600052604160045260246000fd5b600082601f83011261259557600080fd5b813567ffffffffffffffff808211156125b0576125b061256e565b604051601f8301601f19908116603f011681019082821181831017156125d8576125d861256e565b816040528381528660208588010111156125f157600080fd5b836020870160208301376000602085830101528094505050505092915050565b60006020828403121561262357600080fd5b813567ffffffffffffffff81111561263a57600080fd5b61264684828501612584565b949350505050565b60005b83811015612669578181015183820152602001612651565b50506000910152565b6000815180845261268a81602086016020860161264e565b601f01601f19169290920160200192915050565b6000610100825184526001600160a01b03602084015116602085015260408301516040850152606083015160608501526080830151608085015260a083015160a085015260c08301518160c08601526126f982860182612672565b91505060e0830151151560e08501528091505092915050565b60006020808301818452808551808352604092508286019150828160051b87010184880160005b838110156127f957888303603f190185528151805187855261275d8886018261269e565b91890151858303868b01528051808452908a0192915089820190600581901b83018b0160005b828110156127e257848203601f190184528551805183528d8101518e8401528c8101516001600160a01b03168d8401526060908101516080918401829052906127ce81850183612672565b978f0197958f019593505050600101612783565b50988b019896505050928801925050600101612739565b509098975050505050505050565b6000602080830181845280855180835260408601915060408160051b870101925083870160005b8281101561285c57603f1988860301845261284a85835161269e565b9450928501929085019060010161282e565b5092979650505050505050565b6000806000806080858703121561287f57600080fd5b843593506020850135925060408501359150606085013567ffffffffffffffff8111156128ab57600080fd5b6128b787828801612584565b91505092959194509250565b602081526000611aaa6020830184612672565b6000602082840312156128e857600080fd5b8135611aaa81612495565b60006020828403121561290557600080fd5b81518015158114611aaa57600080fd5b60006020828403121561292757600080fd5b8151611aaa81612495565b634e487b7160e01b600052603260045260246000fd5b6000808335601e1984360301811261295f57600080fd5b83018035915067ffffffffffffffff82111561297a57600080fd5b6020019150600581901b36038213156121fa57600080fd5b6000808335601e198436030181126129a957600080fd5b83018035915067ffffffffffffffff8211156129c457600080fd5b6020019150368190038213156121fa57600080fd5b600181811c908216806129ed57607f821691505b602082108103612a0d57634e487b7160e01b600052602260045260246000fd5b50919050565b601f821115612a5957600081815260208120601f850160051c81016020861015612a3a5750805b601f850160051c820191505b81811015610a3457828155600101612a46565b505050565b815167ffffffffffffffff811115612a7857612a7861256e565b612a8c81612a8684546129d9565b84612a13565b602080601f831160018114612ac15760008415612aa95750858301515b600019600386901b1c1916600185901b178555610a34565b600085815260208120601f198616915b82811015612af057888601518255948401946001909101908401612ad1565b5085821015612b0e5787850151600019600388901b60f8161c191681555b5050505050600190811b01905550565b634e487b7160e01b600052601160045260246000fd5b81810381811115611aad57611aad612b1e565b600060018201612b5957612b59612b1e565b5060010190565b80820180821115611aad57611aad612b1e565b600060208284031215612b8557600080fd5b5051919050565b7f53454c4543542063616d706169676e5f69642c20636c69636b65722c20636f7581527f6e7472792c207369676e61747572652c207669657765645f74696d652046524f60208201527f4d20000000000000000000000000000000000000000000000000000000000000604082015260008451612c1081604285016020890161264e565b7f205748455245207669657765645f74696d65203e2027000000000000000000006042918401918201528451612c4d81605884016020890161264e565b7f2720414e4420636c69636b6572203d2027000000000000000000000000000000605892909101918201528351612c8b81606984016020880161264e565b7f270000000000000000000000000000000000000000000000000000000000000060699290910191820152606a0195945050505050565b60a081526000612cd560a0830188612672565b602083820381850152612ce88289612672565b91506001600160a01b03871660408501527fffffffff0000000000000000000000000000000000000000000000000000000086166060850152838203608085015260008554612d36816129d9565b80855260018281168015612d515760018114612d6b57612d99565b60ff1984168787015282151560051b870186019450612d99565b896000528560002060005b84811015612d91578154898201890152908301908701612d76565b880187019550505b50929c9b505050505050505050505050565b600081612dba57612dba612b1e565b506000190190565b8082028115828204841417611aad57611aad612b1e565b600082612df657634e487b7160e01b600052601260045260246000fd5b500490565b60ff81811683821602908116908181146110a6576110a6612b1e565b60ff8181168382160190811115611aad57611aad612b1e565b60ff8281168282160390811115611aad57611aad612b1e565b634e487b7160e01b600052602160045260246000fdfea2646970667358221220b688754268c7140ab15b0d9d559b368fb1bee92b09e5bd6ac347a86ea8e2df3d64736f6c6343000812003355736572526571756573743a2043616e6e6f742073657420746f205a65726f20",
  "linkReferences": {},
  "deployedLinkReferences": {}
}