{
  "_format": "hh-sol-artifact-1",
  "contractName": "Zenith",
  "sourceName": "contracts/Zenith.sol",
  "abi": [
    {
      "inputs": [
        {
          "internalType": "contract ISxTRelayProxy",
          "name": "sxtRelayAddress",
          "type": "address"
        },
        {
          "internalType": "contract LinkTokenInterface",
          "name": "chainlinkTokenAddress",
          "type": "address"
        },
        {
          "internalType": "address",
          "name": "truflationContractAddress",
          "type": "address"
        }
      ],
      "stateMutability": "nonpayable",
      "type": "constructor"
    },
    {
      "anonymous": false,
      "inputs": [
        {
          "indexed": false,
          "internalType": "uint256",
          "name": "_campaigns",
          "type": "uint256"
        },
        {
          "indexed": false,
          "internalType": "address",
          "name": "_advertiser",
          "type": "address"
        },
        {
          "indexed": false,
          "internalType": "uint256",
          "name": "_budget",
          "type": "uint256"
        }
      ],
      "name": "CampaignCreated",
      "type": "event"
    },
    {
      "anonymous": false,
      "inputs": [
        {
          "indexed": false,
          "internalType": "uint256",
          "name": "_campaignId",
          "type": "uint256"
        }
      ],
      "name": "CampaignDisabled",
      "type": "event"
    },
    {
      "anonymous": false,
      "inputs": [
        {
          "indexed": false,
          "internalType": "uint256",
          "name": "_campaignId",
          "type": "uint256"
        }
      ],
      "name": "CampaignEnabled",
      "type": "event"
    },
    {
      "anonymous": false,
      "inputs": [
        {
          "indexed": true,
          "internalType": "address",
          "name": "from",
          "type": "address"
        },
        {
          "indexed": true,
          "internalType": "address",
          "name": "to",
          "type": "address"
        }
      ],
      "name": "OwnershipTransferRequested",
      "type": "event"
    },
    {
      "anonymous": false,
      "inputs": [
        {
          "indexed": true,
          "internalType": "address",
          "name": "from",
          "type": "address"
        },
        {
          "indexed": true,
          "internalType": "address",
          "name": "to",
          "type": "address"
        }
      ],
      "name": "OwnershipTransferred",
      "type": "event"
    },
    {
      "inputs": [],
      "name": "acceptOwnership",
      "outputs": [],
      "stateMutability": "nonpayable",
      "type": "function"
    },
    {
      "inputs": [
        {
          "internalType": "uint256",
          "name": "_budget",
          "type": "uint256"
        },
        {
          "internalType": "uint256",
          "name": "_baseCostPerClick",
          "type": "uint256"
        },
        {
          "internalType": "uint256",
          "name": "_endDatetime",
          "type": "uint256"
        },
        {
          "internalType": "string",
          "name": "_cid",
          "type": "string"
        }
      ],
      "name": "createCampaign",
      "outputs": [
        {
          "internalType": "uint256",
          "name": "",
          "type": "uint256"
        }
      ],
      "stateMutability": "payable",
      "type": "function"
    },
    {
      "inputs": [],
      "name": "currentRequestId",
      "outputs": [
        {
          "internalType": "bytes32",
          "name": "",
          "type": "bytes32"
        }
      ],
      "stateMutability": "view",
      "type": "function"
    },
    {
      "inputs": [
        {
          "internalType": "uint256",
          "name": "campaignId",
          "type": "uint256"
        }
      ],
      "name": "disableCampaign",
      "outputs": [],
      "stateMutability": "nonpayable",
      "type": "function"
    },
    {
      "inputs": [
        {
          "internalType": "uint256",
          "name": "campaignId",
          "type": "uint256"
        }
      ],
      "name": "enableCampaign",
      "outputs": [],
      "stateMutability": "nonpayable",
      "type": "function"
    },
    {
      "inputs": [],
      "name": "getAvailableCampaigns",
      "outputs": [
        {
          "components": [
            {
              "internalType": "uint256",
              "name": "id",
              "type": "uint256"
            },
            {
              "internalType": "address",
              "name": "advertiser",
              "type": "address"
            },
            {
              "internalType": "uint256",
              "name": "budget",
              "type": "uint256"
            },
            {
              "internalType": "uint256",
              "name": "remaining",
              "type": "uint256"
            },
            {
              "internalType": "uint256",
              "name": "baseCostPerClick",
              "type": "uint256"
            },
            {
              "internalType": "uint256",
              "name": "endDatetime",
              "type": "uint256"
            },
            {
              "internalType": "string",
              "name": "cid",
              "type": "string"
            },
            {
              "internalType": "bool",
              "name": "active",
              "type": "bool"
            }
          ],
          "internalType": "struct Zenith.Campaign[]",
          "name": "",
          "type": "tuple[]"
        }
      ],
      "stateMutability": "view",
      "type": "function"
    },
    {
      "inputs": [
        {
          "internalType": "string",
          "name": "country_",
          "type": "string"
        }
      ],
      "name": "getCPI",
      "outputs": [
        {
          "internalType": "uint256",
          "name": "",
          "type": "uint256"
        }
      ],
      "stateMutability": "view",
      "type": "function"
    },
    {
      "inputs": [],
      "name": "getCampaignsOfAdvertiser",
      "outputs": [
        {
          "components": [
            {
              "components": [
                {
                  "internalType": "uint256",
                  "name": "id",
                  "type": "uint256"
                },
                {
                  "internalType": "address",
                  "name": "advertiser",
                  "type": "address"
                },
                {
                  "internalType": "uint256",
                  "name": "budget",
                  "type": "uint256"
                },
                {
                  "internalType": "uint256",
                  "name": "remaining",
                  "type": "uint256"
                },
                {
                  "internalType": "uint256",
                  "name": "baseCostPerClick",
                  "type": "uint256"
                },
                {
                  "internalType": "uint256",
                  "name": "endDatetime",
                  "type": "uint256"
                },
                {
                  "internalType": "string",
                  "name": "cid",
                  "type": "string"
                },
                {
                  "internalType": "bool",
                  "name": "active",
                  "type": "bool"
                }
              ],
              "internalType": "struct Zenith.Campaign",
              "name": "campaign",
              "type": "tuple"
            },
            {
              "components": [
                {
                  "internalType": "uint256",
                  "name": "clickedTime",
                  "type": "uint256"
                },
                {
                  "internalType": "uint256",
                  "name": "costPerClick",
                  "type": "uint256"
                },
                {
                  "internalType": "address",
                  "name": "user",
                  "type": "address"
                },
                {
                  "internalType": "string",
                  "name": "country",
                  "type": "string"
                }
              ],
              "internalType": "struct Zenith.AdClick[]",
              "name": "adClicks",
              "type": "tuple[]"
            }
          ],
          "internalType": "struct Zenith.CampaignWithAdClicks[]",
          "name": "",
          "type": "tuple[]"
        }
      ],
      "stateMutability": "view",
      "type": "function"
    },
    {
      "inputs": [],
      "name": "getChainlinkToken",
      "outputs": [
        {
          "internalType": "contract LinkTokenInterface",
          "name": "",
          "type": "address"
        }
      ],
      "stateMutability": "view",
      "type": "function"
    },
    {
      "inputs": [],
      "name": "getLastProcessed",
      "outputs": [
        {
          "internalType": "uint256",
          "name": "",
          "type": "uint256"
        }
      ],
      "stateMutability": "view",
      "type": "function"
    },
    {
      "inputs": [],
      "name": "getRewardsOfUser",
      "outputs": [
        {
          "components": [
            {
              "internalType": "uint256",
              "name": "reward",
              "type": "uint256"
            },
            {
              "internalType": "uint256",
              "name": "adClicks",
              "type": "uint256"
            }
          ],
          "internalType": "struct Zenith.RewardWithAdClicks",
          "name": "",
          "type": "tuple"
        }
      ],
      "stateMutability": "view",
      "type": "function"
    },
    {
      "inputs": [],
      "name": "getSxTRelayContract",
      "outputs": [
        {
          "internalType": "contract ISxTRelayProxy",
          "name": "",
          "type": "address"
        }
      ],
      "stateMutability": "view",
      "type": "function"
    },
    {
      "inputs": [],
      "name": "jobId",
      "outputs": [
        {
          "internalType": "string",
          "name": "",
          "type": "string"
        }
      ],
      "stateMutability": "view",
      "type": "function"
    },
    {
      "inputs": [],
      "name": "numAdClicks",
      "outputs": [
        {
          "internalType": "uint256",
          "name": "",
          "type": "uint256"
        }
      ],
      "stateMutability": "view",
      "type": "function"
    },
    {
      "inputs": [],
      "name": "numCampaigns",
      "outputs": [
        {
          "internalType": "uint256",
          "name": "",
          "type": "uint256"
        }
      ],
      "stateMutability": "view",
      "type": "function"
    },
    {
      "inputs": [],
      "name": "owner",
      "outputs": [
        {
          "internalType": "address",
          "name": "",
          "type": "address"
        }
      ],
      "stateMutability": "view",
      "type": "function"
    },
    {
      "inputs": [
        {
          "internalType": "bytes32",
          "name": "_requestId",
          "type": "bytes32"
        },
        {
          "internalType": "string[][]",
          "name": "_data",
          "type": "string[][]"
        }
      ],
      "name": "recordAdClicks",
      "outputs": [],
      "stateMutability": "payable",
      "type": "function"
    },
    {
      "inputs": [
        {
          "internalType": "string",
          "name": "country_",
          "type": "string"
        }
      ],
      "name": "requestCPI",
      "outputs": [
        {
          "internalType": "bytes32",
          "name": "requestId",
          "type": "bytes32"
        }
      ],
      "stateMutability": "nonpayable",
      "type": "function"
    },
    {
      "inputs": [
        {
          "internalType": "bytes32",
          "name": "",
          "type": "bytes32"
        }
      ],
      "name": "requests",
      "outputs": [
        {
          "internalType": "address",
          "name": "",
          "type": "address"
        }
      ],
      "stateMutability": "view",
      "type": "function"
    },
    {
      "inputs": [],
      "name": "totalRewards",
      "outputs": [
        {
          "internalType": "uint256",
          "name": "",
          "type": "uint256"
        }
      ],
      "stateMutability": "view",
      "type": "function"
    },
    {
      "inputs": [
        {
          "internalType": "address",
          "name": "to",
          "type": "address"
        }
      ],
      "name": "transferOwnership",
      "outputs": [],
      "stateMutability": "nonpayable",
      "type": "function"
    },
    {
      "inputs": [
        {
          "internalType": "string",
          "name": "_resourceId",
          "type": "string"
        }
      ],
      "name": "triggerRetrieveRewards",
      "outputs": [
        {
          "internalType": "bytes32",
          "name": "requestId",
          "type": "bytes32"
        }
      ],
      "stateMutability": "nonpayable",
      "type": "function"
    },
    {
      "inputs": [
        {
          "internalType": "address",
          "name": "to",
          "type": "address"
        },
        {
          "internalType": "uint256",
          "name": "amount",
          "type": "uint256"
        }
      ],
      "name": "withdrawChainlink",
      "outputs": [],
      "stateMutability": "nonpayable",
      "type": "function"
    },
    {
      "inputs": [],
      "name": "withdrawLink",
      "outputs": [],
      "stateMutability": "nonpayable",
      "type": "function"
    }
  ],
  "bytecode": "0x60c0604052602060809081527f626339376336383064323932346633316130353831643934373331346363363460a0526006906200003e908262000361565b506000600e556000600f5560006010553480156200005b57600080fd5b50604051620037e7380380620037e78339810160408190526200007e9162000446565b600160009081558390839033908190819081620000e25760405162461bcd60e51b815260206004820152601860248201527f43616e6e6f7420736574206f776e657220746f207a65726f000000000000000060448201526064015b60405180910390fd5b600180546001600160a01b0319166001600160a01b03848116919091179091558116156200011557620001158162000210565b5050506001600160a01b0383166200016f5760405162461bcd60e51b81526020600482015260276024820152600080516020620037c78339815191526044820152664164647265737360c81b6064820152608401620000d9565b6001600160a01b038216620001c65760405162461bcd60e51b81526020600482015260276024820152600080516020620037c78339815191526044820152664164647265737360c81b6064820152608401620000d9565b50600380546001600160a01b039384166001600160a01b031991821617909155600480549284169282169290921790915560078054939092169216919091179055506200049a9050565b336001600160a01b038216036200026a5760405162461bcd60e51b815260206004820152601760248201527f43616e6e6f74207472616e7366657220746f2073656c660000000000000000006044820152606401620000d9565b600280546001600160a01b0319166001600160a01b03838116918217909255600154604051919216907fed8889f560326eb138920d842192f0eb3dd22b4f139c87a2c57538e05bae127890600090a350565b634e487b7160e01b600052604160045260246000fd5b600181811c90821680620002e757607f821691505b6020821081036200030857634e487b7160e01b600052602260045260246000fd5b50919050565b601f8211156200035c57600081815260208120601f850160051c81016020861015620003375750805b601f850160051c820191505b81811015620003585782815560010162000343565b5050505b505050565b81516001600160401b038111156200037d576200037d620002bc565b62000395816200038e8454620002d2565b846200030e565b602080601f831160018114620003cd5760008415620003b45750858301515b600019600386901b1c1916600185901b17855562000358565b600085815260208120601f198616915b82811015620003fe57888601518255948401946001909101908401620003dd565b50858210156200041d5787850151600019600388901b60f8161c191681555b5050505050600190811b01905550565b6001600160a01b03811681146200044357600080fd5b50565b6000806000606084860312156200045c57600080fd5b835162000469816200042d565b60208501519093506200047c816200042d565b60408501519092506200048f816200042d565b809150509250925092565b61331d80620004aa6000396000f3fe60806040526004361061018b5760003560e01c80636e5b46f5116100d65780638da5cb5b1161007f578063c2939d9711610059578063c2939d9714610427578063e1578fc314610449578063f2fde38b1461046957600080fd5b80638da5cb5b146103be5780638dc654a2146103dc5780639d866985146103f157600080fd5b80637cc429e6116100b05780637cc429e61461035c57806384962de71461037c5780638cb1047a1461039c57600080fd5b80636e5b46f51461031257806379ba5097146103345780637ba774311461034957600080fd5b80633c4f02da116101385780635968ec5f116101125780635968ec5f146102c45780635ae2bfdb146102da5780636cedeedd146102f057600080fd5b80633c4f02da1461026157806344afbb9114610274578063516ef31c146102a457600080fd5b80632c0f7b6f116101695780632c0f7b6f1461020d5780632ea6ef9e14610223578063369d5f3d1461024157600080fd5b80630e15561a14610190578063165d35e1146101b9578063211c1198146101eb575b600080fd5b34801561019c57600080fd5b506101a660105481565b6040519081526020015b60405180910390f35b3480156101c557600080fd5b506004546001600160a01b03165b6040516001600160a01b0390911681526020016101b0565b3480156101f757600080fd5b5061020b610206366004612932565b610489565b005b34801561021957600080fd5b506101a6600e5481565b34801561022f57600080fd5b506003546001600160a01b03166101d3565b34801561024d57600080fd5b5061020b61025c36600461295e565b6105b8565b61020b61026f366004612977565b610637565b34801561028057600080fd5b50610289610bc9565b604080518251815260209283015192810192909252016101b0565b3480156102b057600080fd5b506101a66102bf366004612a99565b610c51565b3480156102d057600080fd5b506101a6600f5481565b3480156102e657600080fd5b506101a660055481565b3480156102fc57600080fd5b50610305610f9f565b6040516101b09190612b9a565b34801561031e57600080fd5b506103276112c1565b6040516101b09190612c8f565b34801561034057600080fd5b5061020b611501565b6101a6610357366004612cf1565b6115b6565b34801561036857600080fd5b506101a6610377366004612a99565b6118cd565b34801561038857600080fd5b5061020b61039736600461295e565b61195e565b3480156103a857600080fd5b50336000908152600c60205260409020546101a6565b3480156103ca57600080fd5b506001546001600160a01b03166101d3565b3480156103e857600080fd5b5061020b6119d4565b3480156103fd57600080fd5b506101d361040c36600461295e565b600d602052600090815260409020546001600160a01b031681565b34801561043357600080fd5b5061043c611b54565b6040516101b09190612d4b565b34801561045557600080fd5b506101a6610464366004612a99565b611be2565b34801561047557600080fd5b5061020b610484366004612d5e565b611c4b565b610491611c5c565b610499611cb5565b600480546040517fa9059cbb0000000000000000000000000000000000000000000000000000000081526001600160a01b0385811693820193909352602481018490526000929091169063a9059cbb906044016020604051808303816000875af115801561050b573d6000803e3d6000fd5b505050506040513d601f19601f8201168201806040525081019061052f9190612d7b565b9050806105a95760405162461bcd60e51b815260206004820152602c60248201527f55736572526571756573743a20436861696e6c696e6b20746f6b656e2074726160448201527f6e73666572206661696c6564000000000000000000000000000000000000000060648201526084015b60405180910390fd5b506105b46001600055565b5050565b60008181526008602052604090206001015481906001600160a01b031633146105e057600080fd5b60008281526008602052604090819020600701805460ff19169055517f9620e459d78787bd1a66e8aa7f06df3177404e39240c06c264f48ce40fee14159061062b9084815260200190565b60405180910390a15050565b6003546001600160a01b03166001600160a01b0316638abf60776040518163ffffffff1660e01b8152600401602060405180830381865afa158015610680573d6000803e3d6000fd5b505050506040513d601f19601f820116820180604052508101906106a49190612d9d565b6001600160a01b0316336001600160a01b03161461072a5760405162461bcd60e51b815260206004820152603260248201527f55736572526571756573743a204f6e6c792063616c6c61626c6520627920537860448201527f54205265717565737420436f6e7472616374000000000000000000000000000060648201526084016105a0565b6000838152600d60205260408120546001600160a01b0316815b83811015610b835760006107d286868481811061076357610763612dba565b90506020028101906107759190612dd0565b600081811061078657610786612dba565b90506020028101906107989190612e1a565b8080601f016020809104026020016040519081016040528093929190818152602001838380828437600092019190915250611d1192505050565b6001600160a01b0384166000908152600b602090815260408083208484529091529020549091501515806108155750600081815260086020526040902060030154155b156108205750610b71565b600061085a87878581811061083757610837612dba565b90506020028101906108499190612dd0565b600481811061078657610786612dba565b905060006108e288888681811061087357610873612dba565b90506020028101906108859190612dd0565b600381811061089657610896612dba565b90506020028101906108a89190612e1a565b8080601f016020809104026020016040519081016040528093929190818152602001838380828437600092019190915250611d9392505050565b905060006108f1848484611e9e565b9050806001600160a01b0316866001600160a01b031603610b6c5760006109928a8a8881811061092357610923612dba565b90506020028101906109359190612dd0565b600281811061094657610946612dba565b90506020028101906109589190612e1a565b8080601f0160208091040260200160405190810160405280939291908181526020018383808284376000920191909152506118cd92505050565b6000868152600860205260409020600401546109ae9190612e77565b6000868152600860205260409020600301549091506109ce908290611f24565b905060006040518060800160405280868152602001838152602001896001600160a01b031681526020018c8c8a818110610a0a57610a0a612dba565b9050602002810190610a1c9190612dd0565b6002818110610a2d57610a2d612dba565b9050602002810190610a3f9190612e1a565b8080601f016020809104026020016040519081016040528093929190818152602001838380828437600092018290525093909452505088815260096020908152604080832080546001808201835591855293839020865160049095020193845591850151918301919091558301516002820180546001600160a01b0319166001600160a01b03909216919091179055606083015192935083929091506003820190610aea9082612f13565b5050506001600160a01b0388166000908152600b602090815260408083208984528252808320859055600890915281206003018054849290610b2d908490612fd3565b9091555050600f8054600090610b4290612fe6565b90915550610b50828a612fff565b98508160106000828254610b649190612fff565b909155505050505b505050505b80610b7b81612fe6565b915050610744565b508115610bc2576040516001600160a01b0382169083156108fc029084906000818181858888f19350505050158015610bc0573d6000803e3d6000fd5b505b5050505050565b604080518082019091526000808252602082015260008060005b600e54811015610c3957336000908152600b602090815260408083208484529091529020548015610c2657610c188185612fff565b9350610c2383612fe6565b92505b5080610c3181612fe6565b915050610be3565b50604080518082019091529182526020820152919050565b6000610c5b611c5c565b6004546001600160a01b03166001600160a01b031663095ea7b3610c876003546001600160a01b031690565b6001600160a01b0316638abf60776040518163ffffffff1660e01b8152600401602060405180830381865afa158015610cc4573d6000803e3d6000fd5b505050506040513d601f19601f82011682018060405250810190610ce89190612d9d565b6003546001600160a01b03166001600160a01b0316631f78b0906040518163ffffffff1660e01b8152600401602060405180830381865afa158015610d31573d6000803e3d6000fd5b505050506040513d601f19601f82011682018060405250810190610d559190613012565b6040517fffffffff0000000000000000000000000000000000000000000000000000000060e085901b1681526001600160a01b03909216600483015260248201526044016020604051808303816000875af1158015610db8573d6000803e3d6000fd5b505050506040513d601f19601f82011682018060405250810190610ddc9190612d7b565b610e4e5760405162461bcd60e51b815260206004820152602860248201527f55736572526571756573743a20496e73756666696369656e74204c494e4b206160448201527f6c6c6f77616e636500000000000000000000000000000000000000000000000060648201526084016105a0565b336000908152600c60205260408120548390610e6990611f3c565b610e74336014611fdc565b604051602001610e869392919061302b565b6040516020818303038152906040529050610ea96003546001600160a01b031690565b6040517fe85b09970000000000000000000000000000000000000000000000000000000081526001600160a01b03919091169063e85b099790610f19908490879030907f3c4f02da0000000000000000000000000000000000000000000000000000000090600690600401613161565b6020604051808303816000875af1158015610f38573d6000803e3d6000fd5b505050506040513d601f19601f82011682018060405250810190610f5c9190613012565b6000818152600d6020908152604080832080546001600160a01b031916339081179091558352600c90915290204290559150610f9a90506001600055565b919050565b336000908152600a60205260408120546060918167ffffffffffffffff811115610fcb57610fcb6129f6565b60405190808252806020026020018201604052801561100457816020015b610ff16128b2565b815260200190600190039081610fe95790505b50905060005b828110156112ba57336000908152600a6020526040812080548390811061103357611033612dba565b6000918252602080832090910154808352600882526040928390208351610100810185528154815260018201546001600160a01b0316938101939093526002810154938301939093526003830154606083015260048301546080830152600583015460a083015260068301805491945091929160c08401916110b490612e8e565b80601f01602080910402602001604051908101604052809291908181526020018280546110e090612e8e565b801561112d5780601f106111025761010080835404028352916020019161112d565b820191906000526020600020905b81548152906001019060200180831161111057829003601f168201915b50505091835250506007919091015460ff161515602090910152835184908490811061115b5761115b612dba565b6020908102919091018101519190915260008281526009825260408082208054825181860281018601909352808352919390929084015b8282101561128157600084815260209081902060408051608081018252600486029092018054835260018101549383019390935260028301546001600160a01b0316908201526003820180549192916060840191906111f090612e8e565b80601f016020809104026020016040519081016040528092919081815260200182805461121c90612e8e565b80156112695780601f1061123e57610100808354040283529160200191611269565b820191906000526020600020905b81548152906001019060200180831161124c57829003601f168201915b50505050508152505081526020019060010190611192565b5050505083838151811061129757611297612dba565b6020026020010151602001819052505080806112b290612fe6565b91505061100a565b5092915050565b60606000805b600e548110156112ff576112da816121a1565b156112ed57816112e981612fe6565b9250505b806112f781612fe6565b9150506112c7565b5060008167ffffffffffffffff81111561131b5761131b6129f6565b60405190808252806020026020018201604052801561139f57816020015b61138c6040518061010001604052806000815260200160006001600160a01b0316815260200160008152602001600081526020016000815260200160008152602001606081526020016000151581525090565b8152602001906001900390816113395790505b50905060005b600e548110156112ba576113b8816121a1565b156114ef576000818152600860209081526040918290208251610100810184528154815260018201546001600160a01b0316928101929092526002810154928201929092526003820154606082015260048201546080820152600582015460a082015260068201805491929160c08401919061143390612e8e565b80601f016020809104026020016040519081016040528092919081815260200182805461145f90612e8e565b80156114ac5780601f10611481576101008083540402835291602001916114ac565b820191906000526020600020905b81548152906001019060200180831161148f57829003601f168201915b50505091835250506007919091015460ff161515602090910152826114d08561324a565b945084815181106114e3576114e3612dba565b60200260200101819052505b806114f981612fe6565b9150506113a5565b6002546001600160a01b0316331461155b5760405162461bcd60e51b815260206004820152601660248201527f4d7573742062652070726f706f736564206f776e65720000000000000000000060448201526064016105a0565b600180546001600160a01b0319808216339081179093556002805490911690556040516001600160a01b03909116919082907f8be0079c531659141344cd1fd0a4f28419497f9722a3daafe3b4186f6b6457e090600090a350565b60008085116116075760405162461bcd60e51b815260206004820152601d60248201527f427564676574206d7573742062652067726561746572207468616e203000000060448201526064016105a0565b8434146116565760405162461bcd60e51b815260206004820152601760248201527f496e73756666696369656e742066756e64732073656e7400000000000000000060448201526064016105a0565b600084116116a65760405162461bcd60e51b815260206004820152601a60248201527f426964206d7573742062652067726561746572207468616e203000000000000060448201526064016105a0565b6116b34262015180612fff565b8310156117285760405162461bcd60e51b815260206004820152602260248201527f456e64206461746574696d65206d75737420626520696e20746865206675747560448201527f726500000000000000000000000000000000000000000000000000000000000060648201526084016105a0565b60008251116117795760405162461bcd60e51b815260206004820152601360248201527f4369642063616e6e6f7420626520656d7074790000000000000000000000000060448201526064016105a0565b6040805161010081018252600e548082523360208084019182528385018a8152606085018b8152608086018b815260a087018b815260c088018b8152600160e08a01819052600098895260089096529890962087518155945193850180546001600160a01b0319166001600160a01b0390951694909417909355905160028401555160038301555160048201559051600582015591519091829160068201906118229082612f13565b5060e091909101516007909101805460ff19169115159190911790556020818101516001600160a01b03166000908152600a825260408120835181546001810183559183529282200191909155600e80549161187d83612fe6565b909155505080516040805191825233602083015281018790527f63e3678c8493a16f8ba43ae9e547231762ca04526dac2c388bd2c26d894018519060600160405180910390a15195945050505050565b6007546040517f7cc429e60000000000000000000000000000000000000000000000000000000081526000916001600160a01b031690637cc429e690611917908590600401612d4b565b602060405180830381865afa158015611934573d6000803e3d6000fd5b505050506040513d601f19601f820116820180604052508101906119589190613012565b92915050565b60008181526008602052604090206001015481906001600160a01b0316331461198657600080fd5b60008281526008602052604090819020600701805460ff19166001179055517fba42f99793097dbf156767849735bfd27114e73a9cc1b4c264144cfd154cde009061062b9084815260200190565b6119dc611cb5565b60006119f06004546001600160a01b031690565b6040517f70a082310000000000000000000000000000000000000000000000000000000081523060048201529091506001600160a01b0382169063a9059cbb90339083906370a0823190602401602060405180830381865afa158015611a5a573d6000803e3d6000fd5b505050506040513d601f19601f82011682018060405250810190611a7e9190613012565b6040517fffffffff0000000000000000000000000000000000000000000000000000000060e085901b1681526001600160a01b03909216600483015260248201526044016020604051808303816000875af1158015611ae1573d6000803e3d6000fd5b505050506040513d601f19601f82011682018060405250810190611b059190612d7b565b611b515760405162461bcd60e51b815260206004820152601260248201527f556e61626c6520746f207472616e73666572000000000000000000000000000060448201526064016105a0565b50565b60068054611b6190612e8e565b80601f0160208091040260200160405190810160405280929190818152602001828054611b8d90612e8e565b8015611bda5780601f10611baf57610100808354040283529160200191611bda565b820191906000526020600020905b815481529060010190602001808311611bbd57829003601f168201915b505050505081565b6007546040517fe1578fc30000000000000000000000000000000000000000000000000000000081526000916001600160a01b03169063e1578fc390611c2c908590600401612d4b565b6020604051808303816000875af1158015611934573d6000803e3d6000fd5b611c53611cb5565b611b51816122ea565b600260005403611cae5760405162461bcd60e51b815260206004820152601f60248201527f5265656e7472616e637947756172643a207265656e7472616e742063616c6c0060448201526064016105a0565b6002600055565b6001546001600160a01b03163314611d0f5760405162461bcd60e51b815260206004820152601660248201527f4f6e6c792063616c6c61626c65206279206f776e65720000000000000000000060448201526064016105a0565b565b60008181805b8251811015611d8b576000838281518110611d3457611d34612dba565b016020015160f81c905060308110801590611d50575060398111155b15611d7857611d60603082612fd3565b611d6b84600a612e77565b611d759190612fff565b92505b5080611d8381612fe6565b915050611d17565b509392505050565b60606000829050600060028251611daa9190613261565b67ffffffffffffffff811115611dc257611dc26129f6565b6040519080825280601f01601f191660200182016040528015611dec576020820181803683370190505b50905060005b60028351611e009190613261565b811015611d8b57611e3e83611e16836002612e77565b611e21906001612fff565b81518110611e3157611e31612dba565b016020015160f81c612394565b611e4d84611e21846002612e77565b611e58906010613283565b611e62919061329f565b60f81b828281518110611e7757611e77612dba565b60200101906001600160f81b031916908160001a905350611e9781612fe6565b9050611df2565b6000808484604051602001611ebd929190918252602082015260400190565b6040516020818303038152906040528051906020012090506000611f0e827f19457468657265756d205369676e6564204d6573736167653a0a3332000000006000908152601c91909152603c902090565b9050611f1a8185612546565b9695505050505050565b6000818310611f335781611f35565b825b9392505050565b60606000611f4983612562565b600101905060008167ffffffffffffffff811115611f6957611f696129f6565b6040519080825280601f01601f191660200182016040528015611f93576020820181803683370190505b5090508181016020015b600019017f3031323334353637383961626364656600000000000000000000000000000000600a86061a8153600a8504945084611f9d57509392505050565b60606000611feb836002612e77565b611ff6906002612fff565b67ffffffffffffffff81111561200e5761200e6129f6565b6040519080825280601f01601f191660200182016040528015612038576020820181803683370190505b509050600360fc1b8160008151811061205357612053612dba565b60200101906001600160f81b031916908160001a9053507f78000000000000000000000000000000000000000000000000000000000000008160018151811061209e5761209e612dba565b60200101906001600160f81b031916908160001a90535060006120c2846002612e77565b6120cd906001612fff565b90505b6001811115612152577f303132333435363738396162636465660000000000000000000000000000000085600f166010811061210e5761210e612dba565b1a60f81b82828151811061212457612124612dba565b60200101906001600160f81b031916908160001a90535060049490941c9361214b8161324a565b90506120d0565b508315611f355760405162461bcd60e51b815260206004820181905260248201527f537472696e67733a20686578206c656e67746820696e73756666696369656e7460448201526064016105a0565b60008181526008602090815260408083208151610100810183528154815260018201546001600160a01b0316938101939093526002810154918301919091526003810154606083015260048101546080830152600581015460a08301526006810180548493929160c084019161221690612e8e565b80601f016020809104026020016040519081016040528092919081815260200182805461224290612e8e565b801561228f5780601f106122645761010080835404028352916020019161228f565b820191906000526020600020905b81548152906001019060200180831161227257829003601f168201915b50505091835250506007919091015460ff16151560209091015260e081015190915080156122c05750428160a00151115b8015611f355750336000908152600b60209081526040808320868452909152902054159392505050565b336001600160a01b038216036123425760405162461bcd60e51b815260206004820152601760248201527f43616e6e6f74207472616e7366657220746f2073656c6600000000000000000060448201526064016105a0565b600280546001600160a01b0319166001600160a01b03838116918217909255600154604051919216907fed8889f560326eb138920d842192f0eb3dd22b4f139c87a2c57538e05bae127890600090a350565b6000600360fc1b60f883901b6001600160f81b031916108015906123e657507f390000000000000000000000000000000000000000000000000000000000000060f883901b6001600160f81b03191611155b156123f6576119586030836132b8565b7f610000000000000000000000000000000000000000000000000000000000000060f883901b6001600160f81b0319161080159061246257507f660000000000000000000000000000000000000000000000000000000000000060f883901b6001600160f81b03191611155b1561247e57606161247483600a61329f565b61195891906132b8565b7f410000000000000000000000000000000000000000000000000000000000000060f883901b6001600160f81b031916108015906124ea57507f460000000000000000000000000000000000000000000000000000000000000060f883901b6001600160f81b03191611155b156124fc57604161247483600a61329f565b60405162461bcd60e51b81526004016105a09060208082526004908201527f6661696c00000000000000000000000000000000000000000000000000000000604082015260600190565b60008060006125558585612644565b91509150611d8b81612689565b6000807a184f03e93ff9f4daa797ed6e38ed64bf6a1f01000000000000000083106125ab577a184f03e93ff9f4daa797ed6e38ed64bf6a1f010000000000000000830492506040015b6d04ee2d6d415b85acef810000000083106125d7576d04ee2d6d415b85acef8100000000830492506020015b662386f26fc1000083106125f557662386f26fc10000830492506010015b6305f5e100831061260d576305f5e100830492506008015b612710831061262157612710830492506004015b60648310612633576064830492506002015b600a83106119585760010192915050565b600080825160410361267a5760208301516040840151606085015160001a61266e878285856127ee565b94509450505050612682565b506000905060025b9250929050565b600081600481111561269d5761269d6132d1565b036126a55750565b60018160048111156126b9576126b96132d1565b036127065760405162461bcd60e51b815260206004820152601860248201527f45434453413a20696e76616c6964207369676e6174757265000000000000000060448201526064016105a0565b600281600481111561271a5761271a6132d1565b036127675760405162461bcd60e51b815260206004820152601f60248201527f45434453413a20696e76616c6964207369676e6174757265206c656e6774680060448201526064016105a0565b600381600481111561277b5761277b6132d1565b03611b515760405162461bcd60e51b815260206004820152602260248201527f45434453413a20696e76616c6964207369676e6174757265202773272076616c60448201527f756500000000000000000000000000000000000000000000000000000000000060648201526084016105a0565b6000807f7fffffffffffffffffffffffffffffff5d576e7357a4501ddfe92f46681b20a083111561282557506000905060036128a9565b6040805160008082526020820180845289905260ff881692820192909252606081018690526080810185905260019060a0016020604051602081039080840390855afa158015612879573d6000803e3d6000fd5b5050604051601f1901519150506001600160a01b0381166128a2576000600192509250506128a9565b9150600090505b94509492505050565b60405180604001604052806129106040518061010001604052806000815260200160006001600160a01b0316815260200160008152602001600081526020016000815260200160008152602001606081526020016000151581525090565b8152602001606081525090565b6001600160a01b0381168114611b5157600080fd5b6000806040838503121561294557600080fd5b82356129508161291d565b946020939093013593505050565b60006020828403121561297057600080fd5b5035919050565b60008060006040848603121561298c57600080fd5b83359250602084013567ffffffffffffffff808211156129ab57600080fd5b818601915086601f8301126129bf57600080fd5b8135818111156129ce57600080fd5b8760208260051b85010111156129e357600080fd5b6020830194508093505050509250925092565b634e487b7160e01b600052604160045260246000fd5b600082601f830112612a1d57600080fd5b813567ffffffffffffffff80821115612a3857612a386129f6565b604051601f8301601f19908116603f01168101908282118183101715612a6057612a606129f6565b81604052838152866020858801011115612a7957600080fd5b836020870160208301376000602085830101528094505050505092915050565b600060208284031215612aab57600080fd5b813567ffffffffffffffff811115612ac257600080fd5b612ace84828501612a0c565b949350505050565b60005b83811015612af1578181015183820152602001612ad9565b50506000910152565b60008151808452612b12816020860160208601612ad6565b601f01601f19169290920160200192915050565b6000610100825184526001600160a01b03602084015116602085015260408301516040850152606083015160608501526080830151608085015260a083015160a085015260c08301518160c0860152612b8182860182612afa565b91505060e0830151151560e08501528091505092915050565b60006020808301818452808551808352604092508286019150828160051b87010184880160005b83811015612c8157888303603f1901855281518051878552612be588860182612b26565b91890151858303868b01528051808452908a0192915089820190600581901b83018b0160005b82811015612c6a57848203601f190184528551805183528d8101518e8401528c8101516001600160a01b03168d840152606090810151608091840182905290612c5681850183612afa565b978f0197958f019593505050600101612c0b565b50988b019896505050928801925050600101612bc1565b509098975050505050505050565b6000602080830181845280855180835260408601915060408160051b870101925083870160005b82811015612ce457603f19888603018452612cd2858351612b26565b94509285019290850190600101612cb6565b5092979650505050505050565b60008060008060808587031215612d0757600080fd5b843593506020850135925060408501359150606085013567ffffffffffffffff811115612d3357600080fd5b612d3f87828801612a0c565b91505092959194509250565b602081526000611f356020830184612afa565b600060208284031215612d7057600080fd5b8135611f358161291d565b600060208284031215612d8d57600080fd5b81518015158114611f3557600080fd5b600060208284031215612daf57600080fd5b8151611f358161291d565b634e487b7160e01b600052603260045260246000fd5b6000808335601e19843603018112612de757600080fd5b83018035915067ffffffffffffffff821115612e0257600080fd5b6020019150600581901b360382131561268257600080fd5b6000808335601e19843603018112612e3157600080fd5b83018035915067ffffffffffffffff821115612e4c57600080fd5b60200191503681900382131561268257600080fd5b634e487b7160e01b600052601160045260246000fd5b808202811582820484141761195857611958612e61565b600181811c90821680612ea257607f821691505b602082108103612ec257634e487b7160e01b600052602260045260246000fd5b50919050565b601f821115612f0e57600081815260208120601f850160051c81016020861015612eef5750805b601f850160051c820191505b81811015610bc057828155600101612efb565b505050565b815167ffffffffffffffff811115612f2d57612f2d6129f6565b612f4181612f3b8454612e8e565b84612ec8565b602080601f831160018114612f765760008415612f5e5750858301515b600019600386901b1c1916600185901b178555610bc0565b600085815260208120601f198616915b82811015612fa557888601518255948401946001909101908401612f86565b5085821015612fc35787850151600019600388901b60f8161c191681555b5050505050600190811b01905550565b8181038181111561195857611958612e61565b600060018201612ff857612ff8612e61565b5060010190565b8082018082111561195857611958612e61565b60006020828403121561302457600080fd5b5051919050565b7f53454c4543542063616d706169676e5f69642c20636c69636b65722c20636f7581527f6e7472792c207369676e61747572652c207669657765645f74696d652046524f60208201527f4d200000000000000000000000000000000000000000000000000000000000006040820152600084516130af816042850160208901612ad6565b7f205748455245207669657765645f74696d65203e20270000000000000000000060429184019182015284516130ec816058840160208901612ad6565b7f2720414e4420636c69636b6572203d202700000000000000000000000000000060589290910191820152835161312a816069840160208801612ad6565b7f270000000000000000000000000000000000000000000000000000000000000060699290910191820152606a0195945050505050565b60a08152600061317460a0830188612afa565b6020838203818501526131878289612afa565b91506001600160a01b03871660408501527fffffffff00000000000000000000000000000000000000000000000000000000861660608501528382036080850152600085546131d581612e8e565b808552600182811680156131f0576001811461320a57613238565b60ff1984168787015282151560051b870186019450613238565b896000528560002060005b84811015613230578154898201890152908301908701613215565b880187019550505b50929c9b505050505050505050505050565b60008161325957613259612e61565b506000190190565b60008261327e57634e487b7160e01b600052601260045260246000fd5b500490565b60ff81811683821602908116908181146112ba576112ba612e61565b60ff818116838216019081111561195857611958612e61565b60ff828116828216039081111561195857611958612e61565b634e487b7160e01b600052602160045260246000fdfea26469706673582212208c24ad3391d49b8efbc6bafbf7189a4b1a79534062ab28c379935b14dbfa988664736f6c6343000812003355736572526571756573743a2043616e6e6f742073657420746f205a65726f20",
  "linkReferences": {},
  "deployedLinkReferences": {}
}