{
  "_format": "hh-sol-artifact-1",
  "contractName": "Zenith",
  "sourceName": "contracts/Zenith.sol",
  "abi": [
    {
      "inputs": [
        {
          "internalType": "address",
          "name": "_oracleId",
          "type": "address"
        },
        {
          "internalType": "string",
          "name": "_jobId",
          "type": "string"
        },
        {
          "internalType": "uint256",
          "name": "_fee",
          "type": "uint256"
        },
        {
          "internalType": "address",
          "name": "_token",
          "type": "address"
        }
      ],
      "stateMutability": "nonpayable",
      "type": "constructor"
    },
    {
      "anonymous": false,
      "inputs": [],
      "name": "CampaignClickDataUpdated",
      "type": "event"
    },
    {
      "anonymous": false,
      "inputs": [
        {
          "indexed": false,
          "internalType": "uint256",
          "name": "_campaigns",
          "type": "uint256"
        },
        {
          "indexed": false,
          "internalType": "address",
          "name": "_advertiser",
          "type": "address"
        },
        {
          "indexed": false,
          "internalType": "uint256",
          "name": "_budget",
          "type": "uint256"
        }
      ],
      "name": "CampaignCreated",
      "type": "event"
    },
    {
      "anonymous": false,
      "inputs": [
        {
          "indexed": false,
          "internalType": "uint256",
          "name": "_campaignId",
          "type": "uint256"
        }
      ],
      "name": "CampaignDisabled",
      "type": "event"
    },
    {
      "anonymous": false,
      "inputs": [
        {
          "indexed": false,
          "internalType": "uint256",
          "name": "_campaignId",
          "type": "uint256"
        }
      ],
      "name": "CampaignEnabled",
      "type": "event"
    },
    {
      "anonymous": false,
      "inputs": [
        {
          "indexed": true,
          "internalType": "bytes32",
          "name": "id",
          "type": "bytes32"
        }
      ],
      "name": "ChainlinkCancelled",
      "type": "event"
    },
    {
      "anonymous": false,
      "inputs": [
        {
          "indexed": true,
          "internalType": "bytes32",
          "name": "id",
          "type": "bytes32"
        }
      ],
      "name": "ChainlinkFulfilled",
      "type": "event"
    },
    {
      "anonymous": false,
      "inputs": [
        {
          "indexed": true,
          "internalType": "bytes32",
          "name": "id",
          "type": "bytes32"
        }
      ],
      "name": "ChainlinkRequested",
      "type": "event"
    },
    {
      "anonymous": false,
      "inputs": [
        {
          "indexed": true,
          "internalType": "address",
          "name": "from",
          "type": "address"
        },
        {
          "indexed": true,
          "internalType": "address",
          "name": "to",
          "type": "address"
        }
      ],
      "name": "OwnershipTransferRequested",
      "type": "event"
    },
    {
      "anonymous": false,
      "inputs": [
        {
          "indexed": true,
          "internalType": "address",
          "name": "from",
          "type": "address"
        },
        {
          "indexed": true,
          "internalType": "address",
          "name": "to",
          "type": "address"
        }
      ],
      "name": "OwnershipTransferred",
      "type": "event"
    },
    {
      "inputs": [],
      "name": "acceptOwnership",
      "outputs": [],
      "stateMutability": "nonpayable",
      "type": "function"
    },
    {
      "inputs": [
        {
          "internalType": "uint256",
          "name": "_budget",
          "type": "uint256"
        },
        {
          "internalType": "uint256",
          "name": "_minCostPerClick",
          "type": "uint256"
        },
        {
          "internalType": "uint256",
          "name": "_endDatetime",
          "type": "uint256"
        },
        {
          "internalType": "string",
          "name": "_name",
          "type": "string"
        },
        {
          "internalType": "string",
          "name": "_url",
          "type": "string"
        }
      ],
      "name": "createCampaign",
      "outputs": [
        {
          "internalType": "uint256",
          "name": "",
          "type": "uint256"
        }
      ],
      "stateMutability": "payable",
      "type": "function"
    },
    {
      "inputs": [
        {
          "internalType": "uint256",
          "name": "campaignId",
          "type": "uint256"
        }
      ],
      "name": "disableCampaign",
      "outputs": [],
      "stateMutability": "nonpayable",
      "type": "function"
    },
    {
      "inputs": [
        {
          "internalType": "uint256",
          "name": "campaignId",
          "type": "uint256"
        }
      ],
      "name": "enableCampaign",
      "outputs": [],
      "stateMutability": "nonpayable",
      "type": "function"
    },
    {
      "inputs": [],
      "name": "fee",
      "outputs": [
        {
          "internalType": "uint256",
          "name": "",
          "type": "uint256"
        }
      ],
      "stateMutability": "view",
      "type": "function"
    },
    {
      "inputs": [
        {
          "internalType": "bytes32",
          "name": "_requestId",
          "type": "bytes32"
        },
        {
          "internalType": "uint256",
          "name": "_data",
          "type": "uint256"
        }
      ],
      "name": "fulfillCPI",
      "outputs": [],
      "stateMutability": "nonpayable",
      "type": "function"
    },
    {
      "inputs": [],
      "name": "getAvailableCampaigns",
      "outputs": [
        {
          "components": [
            {
              "internalType": "uint256",
              "name": "id",
              "type": "uint256"
            },
            {
              "internalType": "address",
              "name": "advertiser",
              "type": "address"
            },
            {
              "internalType": "uint256",
              "name": "budget",
              "type": "uint256"
            },
            {
              "internalType": "uint256",
              "name": "remaining",
              "type": "uint256"
            },
            {
              "internalType": "uint256",
              "name": "minCostPerClick",
              "type": "uint256"
            },
            {
              "internalType": "string",
              "name": "name",
              "type": "string"
            },
            {
              "internalType": "string",
              "name": "url",
              "type": "string"
            },
            {
              "internalType": "bool",
              "name": "active",
              "type": "bool"
            },
            {
              "internalType": "uint256",
              "name": "startDatetime",
              "type": "uint256"
            },
            {
              "internalType": "uint256",
              "name": "endDatetime",
              "type": "uint256"
            }
          ],
          "internalType": "struct Zenith.Campaign[]",
          "name": "",
          "type": "tuple[]"
        }
      ],
      "stateMutability": "view",
      "type": "function"
    },
    {
      "inputs": [],
      "name": "getCampaignsOfAdvertiser",
      "outputs": [
        {
          "components": [
            {
              "components": [
                {
                  "internalType": "uint256",
                  "name": "id",
                  "type": "uint256"
                },
                {
                  "internalType": "address",
                  "name": "advertiser",
                  "type": "address"
                },
                {
                  "internalType": "uint256",
                  "name": "budget",
                  "type": "uint256"
                },
                {
                  "internalType": "uint256",
                  "name": "remaining",
                  "type": "uint256"
                },
                {
                  "internalType": "uint256",
                  "name": "minCostPerClick",
                  "type": "uint256"
                },
                {
                  "internalType": "string",
                  "name": "name",
                  "type": "string"
                },
                {
                  "internalType": "string",
                  "name": "url",
                  "type": "string"
                },
                {
                  "internalType": "bool",
                  "name": "active",
                  "type": "bool"
                },
                {
                  "internalType": "uint256",
                  "name": "startDatetime",
                  "type": "uint256"
                },
                {
                  "internalType": "uint256",
                  "name": "endDatetime",
                  "type": "uint256"
                }
              ],
              "internalType": "struct Zenith.Campaign",
              "name": "campaign",
              "type": "tuple"
            },
            {
              "components": [
                {
                  "internalType": "uint256",
                  "name": "id",
                  "type": "uint256"
                },
                {
                  "internalType": "uint256",
                  "name": "campaignId",
                  "type": "uint256"
                },
                {
                  "internalType": "uint256",
                  "name": "costPerClick",
                  "type": "uint256"
                },
                {
                  "internalType": "uint256",
                  "name": "displayTime",
                  "type": "uint256"
                },
                {
                  "internalType": "address",
                  "name": "user",
                  "type": "address"
                },
                {
                  "internalType": "bool",
                  "name": "paid",
                  "type": "bool"
                },
                {
                  "internalType": "string",
                  "name": "country",
                  "type": "string"
                },
                {
                  "internalType": "bytes",
                  "name": "signature",
                  "type": "bytes"
                }
              ],
              "internalType": "struct Zenith.AdClick[]",
              "name": "adClicks",
              "type": "tuple[]"
            }
          ],
          "internalType": "struct Zenith.CampaignWithAdClicks[]",
          "name": "",
          "type": "tuple[]"
        }
      ],
      "stateMutability": "view",
      "type": "function"
    },
    {
      "inputs": [],
      "name": "jobId",
      "outputs": [
        {
          "internalType": "string",
          "name": "",
          "type": "string"
        }
      ],
      "stateMutability": "view",
      "type": "function"
    },
    {
      "inputs": [],
      "name": "numAdClicks",
      "outputs": [
        {
          "internalType": "uint256",
          "name": "",
          "type": "uint256"
        }
      ],
      "stateMutability": "view",
      "type": "function"
    },
    {
      "inputs": [],
      "name": "numCampaigns",
      "outputs": [
        {
          "internalType": "uint256",
          "name": "",
          "type": "uint256"
        }
      ],
      "stateMutability": "view",
      "type": "function"
    },
    {
      "inputs": [],
      "name": "oracleId",
      "outputs": [
        {
          "internalType": "address",
          "name": "",
          "type": "address"
        }
      ],
      "stateMutability": "view",
      "type": "function"
    },
    {
      "inputs": [],
      "name": "owner",
      "outputs": [
        {
          "internalType": "address",
          "name": "",
          "type": "address"
        }
      ],
      "stateMutability": "view",
      "type": "function"
    },
    {
      "inputs": [
        {
          "components": [
            {
              "internalType": "uint256",
              "name": "id",
              "type": "uint256"
            },
            {
              "internalType": "uint256",
              "name": "campaignId",
              "type": "uint256"
            },
            {
              "internalType": "uint256",
              "name": "costPerClick",
              "type": "uint256"
            },
            {
              "internalType": "uint256",
              "name": "displayTime",
              "type": "uint256"
            },
            {
              "internalType": "address",
              "name": "user",
              "type": "address"
            },
            {
              "internalType": "bool",
              "name": "paid",
              "type": "bool"
            },
            {
              "internalType": "string",
              "name": "country",
              "type": "string"
            },
            {
              "internalType": "bytes",
              "name": "signature",
              "type": "bytes"
            }
          ],
          "internalType": "struct Zenith.AdClick[]",
          "name": "_adClicks",
          "type": "tuple[]"
        }
      ],
      "name": "recordAdClicks",
      "outputs": [],
      "stateMutability": "nonpayable",
      "type": "function"
    },
    {
      "inputs": [
        {
          "internalType": "string",
          "name": "_country",
          "type": "string"
        },
        {
          "internalType": "string",
          "name": "multiplier",
          "type": "string"
        }
      ],
      "name": "requestCPI",
      "outputs": [
        {
          "internalType": "bytes32",
          "name": "requestId",
          "type": "bytes32"
        }
      ],
      "stateMutability": "nonpayable",
      "type": "function"
    },
    {
      "inputs": [
        {
          "internalType": "bytes32",
          "name": "",
          "type": "bytes32"
        }
      ],
      "name": "requests",
      "outputs": [
        {
          "internalType": "string",
          "name": "",
          "type": "string"
        }
      ],
      "stateMutability": "view",
      "type": "function"
    },
    {
      "inputs": [],
      "name": "totalRewards",
      "outputs": [
        {
          "internalType": "uint256",
          "name": "",
          "type": "uint256"
        }
      ],
      "stateMutability": "view",
      "type": "function"
    },
    {
      "inputs": [
        {
          "internalType": "address",
          "name": "to",
          "type": "address"
        }
      ],
      "name": "transferOwnership",
      "outputs": [],
      "stateMutability": "nonpayable",
      "type": "function"
    }
  ],
  "bytecode": "0x608060405260016004556000600d556000600e556000600f553480156200002557600080fd5b5060405162003a5d38038062003a5d83398101604081905262000048916200021e565b33806000816200009f5760405162461bcd60e51b815260206004820152601860248201527f43616e6e6f7420736574206f776e657220746f207a65726f000000000000000060448201526064015b60405180910390fd5b600680546001600160a01b0319166001600160a01b0384811691909117909155811615620000d257620000d2816200011d565b505050620000e681620001c960201b60201c565b601080546001600160a01b0319166001600160a01b03861617905560116200010f8482620003b2565b5050601255506200047e9050565b336001600160a01b03821603620001775760405162461bcd60e51b815260206004820152601760248201527f43616e6e6f74207472616e7366657220746f2073656c66000000000000000000604482015260640162000096565b600780546001600160a01b0319166001600160a01b03838116918217909255600654604051919216907fed8889f560326eb138920d842192f0eb3dd22b4f139c87a2c57538e05bae127890600090a350565b600280546001600160a01b0319166001600160a01b0392909216919091179055565b80516001600160a01b03811681146200020357600080fd5b919050565b634e487b7160e01b600052604160045260246000fd5b600080600080608085870312156200023557600080fd5b6200024085620001eb565b602086810151919550906001600160401b03808211156200026057600080fd5b818801915088601f8301126200027557600080fd5b8151818111156200028a576200028a62000208565b604051601f8201601f19908116603f01168101908382118183101715620002b557620002b562000208565b816040528281528b86848701011115620002ce57600080fd5b600093505b82841015620002f25784840186015181850187015292850192620002d3565b6000868483010152809850505050505050604085015191506200031860608601620001eb565b905092959194509250565b600181811c908216806200033857607f821691505b6020821081036200035957634e487b7160e01b600052602260045260246000fd5b50919050565b601f821115620003ad57600081815260208120601f850160051c81016020861015620003885750805b601f850160051c820191505b81811015620003a95782815560010162000394565b5050505b505050565b81516001600160401b03811115620003ce57620003ce62000208565b620003e681620003df845462000323565b846200035f565b602080601f8311600181146200041e5760008415620004055750858301515b600019600386901b1c1916600185901b178555620003a9565b600085815260208120601f198616915b828110156200044f578886015182559484019460019091019084016200042e565b50858210156200046e5787850151600019600388901b60f8161c191681555b5050505050600190811b01905550565b6135cf806200048e6000396000f3fe6080604052600436106101295760003560e01c80636fdce3c5116100a55780639d86698511610074578063ddca3f4311610059578063ddca3f4314610309578063f2fde38b1461031f578063ff14e1671461033f57600080fd5b80639d866985146102c7578063c2939d97146102f457600080fd5b80636fdce3c51461025457806379ba50971461027457806384962de7146102895780638da5cb5b146102a957600080fd5b8063369d5f3d116100fc57806363757634116100e157806363757634146101fd5780636cedeedd146102105780636e5b46f51461023257600080fd5b8063369d5f3d146101c55780635968ec5f146101e757600080fd5b80630e15561a1461012e578063176790ab146101575780632121778d146101775780632c0f7b6f146101af575b600080fd5b34801561013a57600080fd5b50610144600f5481565b6040519081526020015b60405180910390f35b34801561016357600080fd5b50610144610172366004612b3f565b61035f565b34801561018357600080fd5b50601054610197906001600160a01b031681565b6040516001600160a01b03909116815260200161014e565b3480156101bb57600080fd5b50610144600d5481565b3480156101d157600080fd5b506101e56101e0366004612ba3565b6106bb565b005b3480156101f357600080fd5b50610144600e5481565b61014461020b366004612bbc565b6106ff565b34801561021c57600080fd5b50610225610a9a565b60405161014e9190612d35565b34801561023e57600080fd5b50610247610d42565b60405161014e9190612e6a565b34801561026057600080fd5b506101e561026f366004612ecc565b61102b565b34801561028057600080fd5b506101e56111bc565b34801561029557600080fd5b506101e56102a4366004612ba3565b611271565b3480156102b557600080fd5b506006546001600160a01b0316610197565b3480156102d357600080fd5b506102e76102e2366004612ba3565b6112b8565b60405161014e9190612eee565b34801561030057600080fd5b506102e7611352565b34801561031557600080fd5b5061014460125481565b34801561032b57600080fd5b506101e561033a366004612f1d565b61135f565b34801561034b57600080fd5b506101e561035a366004612f51565b611373565b60006103736002546001600160a01b031690565b6012546040517f23b872dd00000000000000000000000000000000000000000000000000000000815233600482015230602482015260448101919091526001600160a01b0391909116906323b872dd906064016020604051808303816000875af11580156103e5573d6000803e3d6000fd5b505050506040513d601f19601f8201168201806040525081019061040991906130b8565b61045a5760405162461bcd60e51b815260206004820152601460248201527f4c494e4b207472616e73666572206661696c656400000000000000000000000060448201526064015b60405180910390fd5b60006104906104696011613109565b307f6fdce3c5000000000000000000000000000000000000000000000000000000006117f4565b90506105116040518060400160405280600781526020017f73657276696365000000000000000000000000000000000000000000000000008152506040518060400160405280601281526020017f747275666c6174696f6e2f63757272656e740000000000000000000000000000815250836118859092919063ffffffff16565b6105736040518060400160405280600481526020017f64617461000000000000000000000000000000000000000000000000000000008152508560405160200161055b919061314a565b60408051601f19818403018152919052839190611885565b6105f26040518060400160405280600381526020017f61626900000000000000000000000000000000000000000000000000000000008152506040518060400160405280600781526020017f75696e7432353600000000000000000000000000000000000000000000000000815250836118859092919063ffffffff16565b60408051808201909152600a81527f6d756c7469706c69657200000000000000000000000000000000000000000000602082015261063290829085611885565b60408051808201909152600881527f726566756e64546f000000000000000000000000000000000000000000000000602082015261067d906106753360146118a8565b839190611885565b60008281526013602052604090206106958582613204565b506010546012546106b1916001600160a01b0316908390611a90565b9150505b92915050565b60008181526008602052604090206001015481906001600160a01b031633146106e357600080fd5b506000908152600860205260409020600701805460ff19169055565b60008086116107505760405162461bcd60e51b815260206004820152601d60248201527f427564676574206d7573742062652067726561746572207468616e20300000006044820152606401610451565b85341461079f5760405162461bcd60e51b815260206004820152601760248201527f496e73756666696369656e742066756e64732073656e740000000000000000006044820152606401610451565b600085116107ef5760405162461bcd60e51b815260206004820152601a60248201527f426964206d7573742062652067726561746572207468616e20300000000000006044820152606401610451565b6107fc42620151806132da565b8410156108715760405162461bcd60e51b815260206004820152602260248201527f456e64206461746574696d65206d75737420626520696e20746865206675747560448201527f72650000000000000000000000000000000000000000000000000000000000006064820152608401610451565b60008351116108c25760405162461bcd60e51b815260206004820152601460248201527f4e616d652063616e6e6f7420626520656d7074790000000000000000000000006044820152606401610451565b60008251116109135760405162461bcd60e51b815260206004820152601360248201527f55524c2063616e6e6f7420626520656d707479000000000000000000000000006044820152606401610451565b6040805161014081018252600d548082523360208084019182528385018b8152606085018c8152608086018c815260a087018b815260c088018b9052600160e08901819052426101008a015261012089018e9052600097885260089095529790952086518155935192840180546001600160a01b0319166001600160a01b03909416939093179092555160028301555160038201559051600482015591519091829160058201906109c49082613204565b5060c082015160068201906109d99082613204565b5060e082015160078201805460ff19169115159190911790556101008201516008820155610120909101516009909101556020818101516001600160a01b03166000908152600b825260408120835181546001810183559183529282200191909155600d805491610a49836132ed565b909155505080516040805191825233602083015281018890527f63e3678c8493a16f8ba43ae9e547231762ca04526dac2c388bd2c26d894018519060600160405180910390a1519695505050505050565b336000908152600b60205260408120546060918167ffffffffffffffff811115610ac657610ac6612a5e565b604051908082528060200260200182016040528015610aff57816020015b610aec6129e5565b815260200190600190039081610ae45790505b50905060005b82811015610d3b57336000908152600b60205260408120805483908110610b2e57610b2e613306565b6000918252602080832090910154808352600882526040928390208351610140810185528154815260018201546001600160a01b031693810193909352600281015493830193909352600383015460608301526004830154608083015260058301805491945091929160a0840191610ba5906130d5565b80601f0160208091040260200160405190810160405280929190818152602001828054610bd1906130d5565b8015610c1e5780601f10610bf357610100808354040283529160200191610c1e565b820191906000526020600020905b815481529060010190602001808311610c0157829003601f168201915b50505050508152602001600682018054610c37906130d5565b80601f0160208091040260200160405190810160405280929190818152602001828054610c63906130d5565b8015610cb05780601f10610c8557610100808354040283529160200191610cb0565b820191906000526020600020905b815481529060010190602001808311610c9357829003601f168201915b5050509183525050600782015460ff1615156020820152600882015460408201526009909101546060909101528351849084908110610cf157610cf1613306565b602090810291909101015152610d0681611b69565b838381518110610d1857610d18613306565b602002602001015160200181905250508080610d33906132ed565b915050610b05565b5092915050565b60606000805b600d54811015610d8057610d5b81611e25565b15610d6e5781610d6a816132ed565b9250505b80610d78816132ed565b915050610d48565b5060008167ffffffffffffffff811115610d9c57610d9c612a5e565b604051908082528060200260200182016040528015610e2e57816020015b610e1b6040518061014001604052806000815260200160006001600160a01b03168152602001600081526020016000815260200160008152602001606081526020016060815260200160001515815260200160008152602001600081525090565b815260200190600190039081610dba5790505b50905060005b600d54811015610d3b57610e4781611e25565b15611019576000818152600860209081526040918290208251610140810184528154815260018201546001600160a01b031692810192909252600281015492820192909252600382015460608201526004820154608082015260058201805491929160a084019190610eb8906130d5565b80601f0160208091040260200160405190810160405280929190818152602001828054610ee4906130d5565b8015610f315780601f10610f0657610100808354040283529160200191610f31565b820191906000526020600020905b815481529060010190602001808311610f1457829003601f168201915b50505050508152602001600682018054610f4a906130d5565b80601f0160208091040260200160405190810160405280929190818152602001828054610f76906130d5565b8015610fc35780601f10610f9857610100808354040283529160200191610fc3565b820191906000526020600020905b815481529060010190602001808311610fa657829003601f168201915b5050509183525050600782015460ff16151560208201526008820154604082015260099091015460609091015282610ffa8561331c565b9450848151811061100d5761100d613306565b60200260200101819052505b80611023816132ed565b915050610e34565b60008281526005602052604090205482906001600160a01b031633146110b95760405162461bcd60e51b815260206004820152602860248201527f536f75726365206d75737420626520746865206f7261636c65206f662074686560448201527f20726571756573740000000000000000000000000000000000000000000000006064820152608401610451565b60008181526005602052604080822080546001600160a01b03191690555182917f7cc135e0cebb02c3480ae5d74d377283180a2601f8f644edf7987b009316c63a91a260008381526013602052604081208054611115906130d5565b80601f0160208091040260200160405190810160405280929190818152602001828054611141906130d5565b801561118e5780601f106111635761010080835404028352916020019161118e565b820191906000526020600020905b81548152906001019060200180831161117157829003601f168201915b50505050509050826014826040516111a69190613333565b9081526040519081900360200190205550505050565b6007546001600160a01b031633146112165760405162461bcd60e51b815260206004820152601660248201527f4d7573742062652070726f706f736564206f776e6572000000000000000000006044820152606401610451565b600680546001600160a01b0319808216339081179093556007805490911690556040516001600160a01b03909116919082907f8be0079c531659141344cd1fd0a4f28419497f9722a3daafe3b4186f6b6457e090600090a350565b60008181526008602052604090206001015481906001600160a01b0316331461129957600080fd5b506000908152600860205260409020600701805460ff19166001179055565b601360205260009081526040902080546112d1906130d5565b80601f01602080910402602001604051908101604052809291908181526020018280546112fd906130d5565b801561134a5780601f1061131f5761010080835404028352916020019161134a565b820191906000526020600020905b81548152906001019060200180831161132d57829003601f168201915b505050505081565b601180546112d1906130d5565b611367612024565b61137081612080565b50565b60005b81518110156117f05760003083838151811061139457611394613306565b6020026020010151608001518484815181106113b2576113b2613306565b6020026020010151602001518585815181106113d0576113d0613306565b6020026020010151606001518686815181106113ee576113ee613306565b602002602001015160c0015160405160200161140e95949392919061334f565b60405160208183030381529060405280519060200120905060006114a684848151811061143d5761143d613306565b602002602001015160e001516114a0846040517f19457468657265756d205369676e6564204d6573736167653a0a3332000000006020820152603c8101829052600090605c01604051602081830303815290604052805190602001209050919050565b9061212a565b9050806001600160a01b03168484815181106114c4576114c4613306565b6020026020010151608001516001600160a01b0316036117db57600060148585815181106114f4576114f4613306565b602002602001015160c0015160405161150d9190613333565b908152602001604051809103902054905061155b816008600088888151811061153857611538613306565b60200260200101516020015181526020019081526020016000206003015461214e565b9050600085858151811061157157611571613306565b6020026020010151602001519050600e5486868151811061159457611594613306565b60200260200101516000018181525050818686815181106115b7576115b7613306565b6020026020010151604001818152505060008686815181106115db576115db613306565b602002602001015160a001901515908115158152505085858151811061160357611603613306565b60200260200101516009600088888151811061162157611621613306565b60209081029190910181015151825281810192909252604090810160002083518155918301516001830155820151600282015560608201516003820155608082015160048201805460a08501511515600160a01b027fffffffffffffffffffffff0000000000000000000000000000000000000000009091166001600160a01b039093169290921791909117905560c082015160058201906116c39082613204565b5060e082015160068201906116d89082613204565b5050506000818152600a6020526040902086518790879081106116fd576116fd613306565b6020908102919091018101515182546001810184556000938452919092200155855186908690811061173157611731613306565b602002602001015160000151600c600088888151811061175357611753613306565b602090810291909101810151608001516001600160a01b0316825281810192909252604090810160009081208582528352818120939093556008909152812060030180548492906117a59084906133a3565b9091555050600e80546000906117ba906132ed565b9190508190555081600f60008282546117d391906132da565b909155505050505b505080806117e8906132ed565b915050611376565b5050565b6118326040805160a0810182526000808252602080830182905282840182905260608084018390528451808601909552845283015290608082015290565b6118706040805160a0810182526000808252602080830182905282840182905260608084018390528451808601909552845283015290608082015290565b61187c81868686612164565b95945050505050565b608083015161189490836121ef565b60808301516118a390826121ef565b505050565b606060006118b78360026133b6565b6118c29060026132da565b67ffffffffffffffff8111156118da576118da612a5e565b6040519080825280601f01601f191660200182016040528015611904576020820181803683370190505b5090507f30000000000000000000000000000000000000000000000000000000000000008160008151811061193b5761193b613306565b60200101906001600160f81b031916908160001a9053507f78000000000000000000000000000000000000000000000000000000000000008160018151811061198657611986613306565b60200101906001600160f81b031916908160001a90535060006119aa8460026133b6565b6119b59060016132da565b90505b6001811115611a3a577f303132333435363738396162636465660000000000000000000000000000000085600f16601081106119f6576119f6613306565b1a60f81b828281518110611a0c57611a0c613306565b60200101906001600160f81b031916908160001a90535060049490941c93611a338161331c565b90506119b8565b508315611a895760405162461bcd60e51b815260206004820181905260248201527f537472696e67733a20686578206c656e67746820696e73756666696369656e746044820152606401610451565b9392505050565b600454600090611aa18160016132da565b600455835160408086015160808701515191516000937f404299460000000000000000000000000000000000000000000000000000000093611af29386938493923092918a916001916024016133cd565b60408051601f198184030181529190526020810180517bffffffffffffffffffffffffffffffffffffffffffffffffffffffff167fffffffff00000000000000000000000000000000000000000000000000000000909316929092179091529050611b5f86838684612206565b9695505050505050565b6000818152600a60205260408120546060919067ffffffffffffffff811115611b9457611b94612a5e565b604051908082528060200260200182016040528015611c1857816020015b611c056040518061010001604052806000815260200160008152602001600081526020016000815260200160006001600160a01b0316815260200160001515815260200160608152602001606081525090565b815260200190600190039081611bb25790505b50905060005b6000848152600a6020526040902054811015610d3b576000848152600a602052604081208054600992919084908110611c5957611c59613306565b600091825260208083209091015483528281019390935260409182019020815161010081018352815481526001820154938101939093526002810154918301919091526003810154606083015260048101546001600160a01b038116608084015260ff600160a01b90910416151560a083015260058101805460c084019190611ce1906130d5565b80601f0160208091040260200160405190810160405280929190818152602001828054611d0d906130d5565b8015611d5a5780601f10611d2f57610100808354040283529160200191611d5a565b820191906000526020600020905b815481529060010190602001808311611d3d57829003601f168201915b50505050508152602001600682018054611d73906130d5565b80601f0160208091040260200160405190810160405280929190818152602001828054611d9f906130d5565b8015611dec5780601f10611dc157610100808354040283529160200191611dec565b820191906000526020600020905b815481529060010190602001808311611dcf57829003601f168201915b505050505081525050828281518110611e0757611e07613306565b60200260200101819052508080611e1d906132ed565b915050611c1e565b60008181526008602090815260408083208151610140810183528154815260018201546001600160a01b03169381019390935260028101549183019190915260038101546060830152600481015460808301526005810180548493929160a0840191611e90906130d5565b80601f0160208091040260200160405190810160405280929190818152602001828054611ebc906130d5565b8015611f095780601f10611ede57610100808354040283529160200191611f09565b820191906000526020600020905b815481529060010190602001808311611eec57829003601f168201915b50505050508152602001600682018054611f22906130d5565b80601f0160208091040260200160405190810160405280929190818152602001828054611f4e906130d5565b8015611f9b5780601f10611f7057610100808354040283529160200191611f9b565b820191906000526020600020905b815481529060010190602001808311611f7e57829003601f168201915b5050509183525050600782015460ff1615156020808301919091526008830154604080840191909152600990930154606090920191909152336000908152600c8252828120878252909152205460e0820151919250908015612001575042826101200151115b801561201c5750600081815260096020526040902060030154155b949350505050565b6006546001600160a01b0316331461207e5760405162461bcd60e51b815260206004820152601660248201527f4f6e6c792063616c6c61626c65206279206f776e6572000000000000000000006044820152606401610451565b565b336001600160a01b038216036120d85760405162461bcd60e51b815260206004820152601760248201527f43616e6e6f74207472616e7366657220746f2073656c660000000000000000006044820152606401610451565b600780546001600160a01b0319166001600160a01b03838116918217909255600654604051919216907fed8889f560326eb138920d842192f0eb3dd22b4f139c87a2c57538e05bae127890600090a350565b60008060006121398585612397565b91509150612146816123dc565b509392505050565b600081831061215d5781611a89565b5090919050565b6121a26040805160a0810182526000808252602080830182905282840182905260608084018390528451808601909552845283015290608082015290565b6121b28560800151610100612541565b50509183526001600160a01b031660208301527fffffffff0000000000000000000000000000000000000000000000000000000016604082015290565b6121fc82600383516125a6565b6118a382826126bb565b6040516bffffffffffffffffffffffff193060601b1660208201526034810184905260009060540160408051808303601f1901815282825280516020918201206000818152600590925291812080546001600160a01b0319166001600160a01b038a1617905590925082917fb5e6e01e79f91267dc17b4e6314d5d4d03593d2ceee0fbb452b750bd70ea5af99190a26002546040517f4000aea00000000000000000000000000000000000000000000000000000000081526001600160a01b0390911690634000aea0906122e290889087908790600401613449565b6020604051808303816000875af1158015612301573d6000803e3d6000fd5b505050506040513d601f19601f8201168201806040525081019061232591906130b8565b61201c5760405162461bcd60e51b815260206004820152602360248201527f756e61626c6520746f207472616e73666572416e6443616c6c20746f206f726160448201527f636c6500000000000000000000000000000000000000000000000000000000006064820152608401610451565b60008082516041036123cd5760208301516040840151606085015160001a6123c1878285856126e2565b945094505050506123d5565b506000905060025b9250929050565b60008160048111156123f0576123f0613471565b036123f85750565b600181600481111561240c5761240c613471565b036124595760405162461bcd60e51b815260206004820152601860248201527f45434453413a20696e76616c6964207369676e617475726500000000000000006044820152606401610451565b600281600481111561246d5761246d613471565b036124ba5760405162461bcd60e51b815260206004820152601f60248201527f45434453413a20696e76616c6964207369676e6174757265206c656e677468006044820152606401610451565b60038160048111156124ce576124ce613471565b036113705760405162461bcd60e51b815260206004820152602260248201527f45434453413a20696e76616c6964207369676e6174757265202773272076616c60448201527f75650000000000000000000000000000000000000000000000000000000000006064820152608401610451565b604080518082019091526060815260006020820152612561602083613487565b1561258957612571602083613487565b61257c9060206133a3565b61258690836132da565b91505b506020828101829052604080518085526000815290920101905290565b60178167ffffffffffffffff16116125d1576125cb8360e0600585901b1683176127a6565b50505050565b60ff8167ffffffffffffffff161161260f576125f8836018611fe0600586901b16176127a6565b506125cb8367ffffffffffffffff831660016127cb565b61ffff8167ffffffffffffffff161161264e57612637836019611fe0600586901b16176127a6565b506125cb8367ffffffffffffffff831660026127cb565b63ffffffff8167ffffffffffffffff161161268f5761267883601a611fe0600586901b16176127a6565b506125cb8367ffffffffffffffff831660046127cb565b6126a483601b611fe0600586901b16176127a6565b506125cb8367ffffffffffffffff831660086127cb565b604080518082019091526060815260006020820152611a89838460000151518485516127f1565b6000807f7fffffffffffffffffffffffffffffff5d576e7357a4501ddfe92f46681b20a0831115612719575060009050600361279d565b6040805160008082526020820180845289905260ff881692820192909252606081018690526080810185905260019060a0016020604051602081039080840390855afa15801561276d573d6000803e3d6000fd5b5050604051601f1901519150506001600160a01b0381166127965760006001925092505061279d565b9150600090505b94509492505050565b604080518082019091526060815260006020820152611a8983846000015151846128db565b60408051808201909152606081526000602082015261201c848560000151518585612936565b604080518082019091526060815260006020820152825182111561281457600080fd5b602085015161282383866132da565b111561285657612856856128468760200151878661284191906132da565b6129b7565b6128519060026133b6565b6129ce565b6000808651805187602083010193508088870111156128755787860182525b505050602084015b602084106128b557805182526128946020836132da565b91506128a16020826132da565b90506128ae6020856133a3565b935061287d565b51815160001960208690036101000a019081169019919091161790525083949350505050565b6040805180820190915260608152600060208201528360200151831061291057612910848560200151600261285191906133b6565b835180516020858301018481535080850361292c576001810182525b5093949350505050565b604080518082019091526060815260006020820152602085015161295a85846132da565b111561296e5761296e8561284686856132da565b6000600161297e8461010061358d565b61298891906133a3565b90508551838682010185831982511617815250805184870111156129ac5783860181525b509495945050505050565b6000818311156129c85750816106b5565b50919050565b81516129da8383612541565b506125cb83826126bb565b6040518060400160405280612a516040518061014001604052806000815260200160006001600160a01b03168152602001600081526020016000815260200160008152602001606081526020016060815260200160001515815260200160008152602001600081525090565b8152602001606081525090565b634e487b7160e01b600052604160045260246000fd5b604051610100810167ffffffffffffffff81118282101715612a9857612a98612a5e565b60405290565b604051601f8201601f1916810167ffffffffffffffff81118282101715612ac757612ac7612a5e565b604052919050565b600082601f830112612ae057600080fd5b813567ffffffffffffffff811115612afa57612afa612a5e565b612b0d601f8201601f1916602001612a9e565b818152846020838601011115612b2257600080fd5b816020850160208301376000918101602001919091529392505050565b60008060408385031215612b5257600080fd5b823567ffffffffffffffff80821115612b6a57600080fd5b612b7686838701612acf565b93506020850135915080821115612b8c57600080fd5b50612b9985828601612acf565b9150509250929050565b600060208284031215612bb557600080fd5b5035919050565b600080600080600060a08688031215612bd457600080fd5b853594506020860135935060408601359250606086013567ffffffffffffffff80821115612c0157600080fd5b612c0d89838a01612acf565b93506080880135915080821115612c2357600080fd5b50612c3088828901612acf565b9150509295509295909350565b60005b83811015612c58578181015183820152602001612c40565b50506000910152565b60008151808452612c79816020860160208601612c3d565b601f01601f19169290920160200192915050565b6000610140825184526020830151612cb060208601826001600160a01b03169052565b5060408301516040850152606083015160608501526080830151608085015260a08301518160a0860152612ce682860182612c61565b91505060c083015184820360c0860152612d008282612c61565b91505060e0830151612d1660e086018215159052565b5061010083810151908501526101209283015192909301919091525090565b60006020808301818452808551808352604092508286019150828160051b87010184880160005b83811015612e5c57888303603f1901855281518051878552612d8088860182612c8d565b91890151858303868b01528051808452908a0192915089820190600581901b83018b0160005b82811015612e4557848203601f190184528551805183528d8101518e8401528c8101518d840152606080820151908401526080808201516001600160a01b03169084015260a08082015115159084015260c0808201516101008286018190529190612e1383870182612c61565b9250505060e08083015192508482038186015250612e318183612c61565b978f0197958f019593505050600101612da6565b50988b019896505050928801925050600101612d5c565b509098975050505050505050565b6000602080830181845280855180835260408601915060408160051b870101925083870160005b82811015612ebf57603f19888603018452612ead858351612c8d565b94509285019290850190600101612e91565b5092979650505050505050565b60008060408385031215612edf57600080fd5b50508035926020909101359150565b602081526000611a896020830184612c61565b80356001600160a01b0381168114612f1857600080fd5b919050565b600060208284031215612f2f57600080fd5b611a8982612f01565b801515811461137057600080fd5b8035612f1881612f38565b60006020808385031215612f6457600080fd5b823567ffffffffffffffff80821115612f7c57600080fd5b818501915085601f830112612f9057600080fd5b813581811115612fa257612fa2612a5e565b8060051b612fb1858201612a9e565b9182528381018501918581019089841115612fcb57600080fd5b86860192505b838310156130ab57823585811115612fe857600080fd5b8601610100818c03601f190181131561300057600080fd5b613008612a74565b89830135815260408301358a820152606083013560408201526080830135606082015261303760a08401612f01565b608082015261304860c08401612f46565b60a082015260e080840135898111156130615760008081fd5b61306f8f8d83880101612acf565b60c0840152509183013591888311156130885760008081fd5b6130968e8c85870101612acf565b90820152845250509186019190860190612fd1565b9998505050505050505050565b6000602082840312156130ca57600080fd5b8151611a8981612f38565b600181811c908216806130e957607f821691505b6020821081036129c857634e487b7160e01b600052602260045260246000fd5b600061311582546130d5565b82601f82111561312b5783600052602060002090505b54915060208110156129c85760001960209190910360031b1b16919050565b7f7b226c6f636174696f6e223a220000000000000000000000000000000000000081526000825161318281600d850160208701612c3d565b7f227d000000000000000000000000000000000000000000000000000000000000600d939091019283015250600f01919050565b601f8211156118a357600081815260208120601f850160051c810160208610156131dd5750805b601f850160051c820191505b818110156131fc578281556001016131e9565b505050505050565b815167ffffffffffffffff81111561321e5761321e612a5e565b6132328161322c84546130d5565b846131b6565b602080601f831160018114613267576000841561324f5750858301515b600019600386901b1c1916600185901b1785556131fc565b600085815260208120601f198616915b8281101561329657888601518255948401946001909101908401613277565b50858210156132b45787850151600019600388901b60f8161c191681555b5050505050600190811b01905550565b634e487b7160e01b600052601160045260246000fd5b808201808211156106b5576106b56132c4565b6000600182016132ff576132ff6132c4565b5060010190565b634e487b7160e01b600052603260045260246000fd5b60008161332b5761332b6132c4565b506000190190565b60008251613345818460208701612c3d565b9190910192915050565b60006bffffffffffffffffffffffff19808860601b168352808760601b166014840152508460288301528360488301528251613392816068850160208701612c3d565b919091016068019695505050505050565b818103818111156106b5576106b56132c4565b80820281158282048414176106b5576106b56132c4565b60006101006001600160a01b03808c1684528a60208501528960408501528089166060850152507fffffffff00000000000000000000000000000000000000000000000000000000871660808401528560a08401528460c08401528060e084015261343a81840185612c61565b9b9a5050505050505050505050565b6001600160a01b038416815282602082015260606040820152600061187c6060830184612c61565b634e487b7160e01b600052602160045260246000fd5b6000826134a457634e487b7160e01b600052601260045260246000fd5b500690565b600181815b808511156134e45781600019048211156134ca576134ca6132c4565b808516156134d757918102915b93841c93908002906134ae565b509250929050565b6000826134fb575060016106b5565b81613508575060006106b5565b816001811461351e576002811461352857613544565b60019150506106b5565b60ff841115613539576135396132c4565b50506001821b6106b5565b5060208310610133831016604e8410600b8410161715613567575081810a6106b5565b61357183836134a9565b8060001904821115613585576135856132c4565b029392505050565b6000611a8983836134ec56fea26469706673582212207d0da0ebc10d0388419b09774337545429f8415ef692a29d6130daea173341e764736f6c63430008120033",
  "linkReferences": {},
  "deployedLinkReferences": {}
}