{
  "_format": "hh-sol-artifact-1",
  "contractName": "Zenith",
  "sourceName": "contracts/Zenith.sol",
  "abi": [
    {
      "inputs": [
        {
          "internalType": "contract ISxTRelayProxy",
          "name": "sxtRelayAddress",
          "type": "address"
        },
        {
          "internalType": "contract LinkTokenInterface",
          "name": "chainlinkTokenAddress",
          "type": "address"
        },
        {
          "internalType": "address",
          "name": "truflationContractAddress",
          "type": "address"
        }
      ],
      "stateMutability": "nonpayable",
      "type": "constructor"
    },
    {
      "inputs": [
        {
          "internalType": "uint256",
          "name": "required",
          "type": "uint256"
        }
      ],
      "name": "CampaignBudgetMissing",
      "type": "error"
    },
    {
      "inputs": [
        {
          "internalType": "uint256",
          "name": "provided",
          "type": "uint256"
        },
        {
          "internalType": "uint256",
          "name": "required",
          "type": "uint256"
        }
      ],
      "name": "CampaignBudgetTooLow",
      "type": "error"
    },
    {
      "inputs": [],
      "name": "CampaignCidMissing",
      "type": "error"
    },
    {
      "inputs": [
        {
          "internalType": "uint256",
          "name": "provided",
          "type": "uint256"
        },
        {
          "internalType": "uint256",
          "name": "required",
          "type": "uint256"
        }
      ],
      "name": "CampaignCostPerClickTooLow",
      "type": "error"
    },
    {
      "inputs": [
        {
          "internalType": "uint256",
          "name": "provided",
          "type": "uint256"
        },
        {
          "internalType": "uint256",
          "name": "required",
          "type": "uint256"
        }
      ],
      "name": "CampaignEndDatetimeTooSoon",
      "type": "error"
    },
    {
      "inputs": [],
      "name": "LinkTransferFailed",
      "type": "error"
    },
    {
      "inputs": [],
      "name": "NotAuthorized",
      "type": "error"
    },
    {
      "anonymous": false,
      "inputs": [
        {
          "indexed": true,
          "internalType": "uint256",
          "name": "_campaigns",
          "type": "uint256"
        },
        {
          "indexed": true,
          "internalType": "address",
          "name": "_advertiser",
          "type": "address"
        },
        {
          "indexed": true,
          "internalType": "uint256",
          "name": "_budget",
          "type": "uint256"
        }
      ],
      "name": "CampaignCreated",
      "type": "event"
    },
    {
      "anonymous": false,
      "inputs": [
        {
          "indexed": true,
          "internalType": "uint256",
          "name": "_campaignId",
          "type": "uint256"
        }
      ],
      "name": "CampaignDisabled",
      "type": "event"
    },
    {
      "anonymous": false,
      "inputs": [
        {
          "indexed": true,
          "internalType": "uint256",
          "name": "_campaignId",
          "type": "uint256"
        }
      ],
      "name": "CampaignEnabled",
      "type": "event"
    },
    {
      "anonymous": false,
      "inputs": [
        {
          "indexed": true,
          "internalType": "address",
          "name": "from",
          "type": "address"
        },
        {
          "indexed": true,
          "internalType": "address",
          "name": "to",
          "type": "address"
        }
      ],
      "name": "OwnershipTransferRequested",
      "type": "event"
    },
    {
      "anonymous": false,
      "inputs": [
        {
          "indexed": true,
          "internalType": "address",
          "name": "from",
          "type": "address"
        },
        {
          "indexed": true,
          "internalType": "address",
          "name": "to",
          "type": "address"
        }
      ],
      "name": "OwnershipTransferred",
      "type": "event"
    },
    {
      "inputs": [],
      "name": "acceptOwnership",
      "outputs": [],
      "stateMutability": "nonpayable",
      "type": "function"
    },
    {
      "inputs": [
        {
          "internalType": "uint256",
          "name": "_budget",
          "type": "uint256"
        },
        {
          "internalType": "uint256",
          "name": "_baseCostPerClick",
          "type": "uint256"
        },
        {
          "internalType": "uint256",
          "name": "_endDatetime",
          "type": "uint256"
        },
        {
          "internalType": "string",
          "name": "_cid",
          "type": "string"
        }
      ],
      "name": "createCampaign",
      "outputs": [
        {
          "internalType": "uint256",
          "name": "",
          "type": "uint256"
        }
      ],
      "stateMutability": "payable",
      "type": "function"
    },
    {
      "inputs": [],
      "name": "currentRequestId",
      "outputs": [
        {
          "internalType": "bytes32",
          "name": "",
          "type": "bytes32"
        }
      ],
      "stateMutability": "view",
      "type": "function"
    },
    {
      "inputs": [
        {
          "internalType": "uint256",
          "name": "_campaignId",
          "type": "uint256"
        }
      ],
      "name": "disableCampaign",
      "outputs": [],
      "stateMutability": "nonpayable",
      "type": "function"
    },
    {
      "inputs": [
        {
          "internalType": "uint256",
          "name": "_campaignId",
          "type": "uint256"
        }
      ],
      "name": "enableCampaign",
      "outputs": [],
      "stateMutability": "nonpayable",
      "type": "function"
    },
    {
      "inputs": [],
      "name": "getAvailableCampaigns",
      "outputs": [
        {
          "components": [
            {
              "internalType": "uint256",
              "name": "id",
              "type": "uint256"
            },
            {
              "internalType": "uint256",
              "name": "budget",
              "type": "uint256"
            },
            {
              "internalType": "uint256",
              "name": "remaining",
              "type": "uint256"
            },
            {
              "internalType": "uint256",
              "name": "baseCostPerClick",
              "type": "uint256"
            },
            {
              "internalType": "uint256",
              "name": "endDatetime",
              "type": "uint256"
            },
            {
              "internalType": "address",
              "name": "advertiser",
              "type": "address"
            },
            {
              "internalType": "string",
              "name": "cid",
              "type": "string"
            },
            {
              "internalType": "bool",
              "name": "active",
              "type": "bool"
            }
          ],
          "internalType": "struct Zenith.Campaign[]",
          "name": "",
          "type": "tuple[]"
        }
      ],
      "stateMutability": "view",
      "type": "function"
    },
    {
      "inputs": [],
      "name": "getCampaignsOfAdvertiser",
      "outputs": [
        {
          "components": [
            {
              "components": [
                {
                  "internalType": "uint256",
                  "name": "id",
                  "type": "uint256"
                },
                {
                  "internalType": "uint256",
                  "name": "budget",
                  "type": "uint256"
                },
                {
                  "internalType": "uint256",
                  "name": "remaining",
                  "type": "uint256"
                },
                {
                  "internalType": "uint256",
                  "name": "baseCostPerClick",
                  "type": "uint256"
                },
                {
                  "internalType": "uint256",
                  "name": "endDatetime",
                  "type": "uint256"
                },
                {
                  "internalType": "address",
                  "name": "advertiser",
                  "type": "address"
                },
                {
                  "internalType": "string",
                  "name": "cid",
                  "type": "string"
                },
                {
                  "internalType": "bool",
                  "name": "active",
                  "type": "bool"
                }
              ],
              "internalType": "struct Zenith.Campaign",
              "name": "campaign",
              "type": "tuple"
            },
            {
              "components": [
                {
                  "internalType": "uint256",
                  "name": "clickedTime",
                  "type": "uint256"
                },
                {
                  "internalType": "uint256",
                  "name": "costPerClick",
                  "type": "uint256"
                },
                {
                  "internalType": "address",
                  "name": "user",
                  "type": "address"
                },
                {
                  "internalType": "string",
                  "name": "country",
                  "type": "string"
                }
              ],
              "internalType": "struct Zenith.AdClick[]",
              "name": "adClicks",
              "type": "tuple[]"
            }
          ],
          "internalType": "struct Zenith.CampaignWithAdClicks[]",
          "name": "",
          "type": "tuple[]"
        }
      ],
      "stateMutability": "view",
      "type": "function"
    },
    {
      "inputs": [],
      "name": "getChainlinkToken",
      "outputs": [
        {
          "internalType": "contract LinkTokenInterface",
          "name": "",
          "type": "address"
        }
      ],
      "stateMutability": "view",
      "type": "function"
    },
    {
      "inputs": [],
      "name": "getLastProcessed",
      "outputs": [
        {
          "internalType": "uint256",
          "name": "",
          "type": "uint256"
        }
      ],
      "stateMutability": "view",
      "type": "function"
    },
    {
      "inputs": [],
      "name": "getRewardsOfUser",
      "outputs": [
        {
          "components": [
            {
              "internalType": "uint256",
              "name": "reward",
              "type": "uint256"
            },
            {
              "internalType": "uint256",
              "name": "adClicks",
              "type": "uint256"
            }
          ],
          "internalType": "struct Zenith.RewardWithAdClicks",
          "name": "",
          "type": "tuple"
        }
      ],
      "stateMutability": "view",
      "type": "function"
    },
    {
      "inputs": [],
      "name": "getSxTRelayContract",
      "outputs": [
        {
          "internalType": "contract ISxTRelayProxy",
          "name": "",
          "type": "address"
        }
      ],
      "stateMutability": "view",
      "type": "function"
    },
    {
      "inputs": [],
      "name": "jobId",
      "outputs": [
        {
          "internalType": "string",
          "name": "",
          "type": "string"
        }
      ],
      "stateMutability": "view",
      "type": "function"
    },
    {
      "inputs": [],
      "name": "numAdClicks",
      "outputs": [
        {
          "internalType": "uint256",
          "name": "",
          "type": "uint256"
        }
      ],
      "stateMutability": "view",
      "type": "function"
    },
    {
      "inputs": [],
      "name": "numCampaigns",
      "outputs": [
        {
          "internalType": "uint256",
          "name": "",
          "type": "uint256"
        }
      ],
      "stateMutability": "view",
      "type": "function"
    },
    {
      "inputs": [],
      "name": "owner",
      "outputs": [
        {
          "internalType": "address",
          "name": "",
          "type": "address"
        }
      ],
      "stateMutability": "view",
      "type": "function"
    },
    {
      "inputs": [
        {
          "internalType": "bytes32",
          "name": "_requestId",
          "type": "bytes32"
        },
        {
          "internalType": "string[][]",
          "name": "_data",
          "type": "string[][]"
        }
      ],
      "name": "recordAdClicks",
      "outputs": [],
      "stateMutability": "payable",
      "type": "function"
    },
    {
      "inputs": [
        {
          "internalType": "string",
          "name": "_country",
          "type": "string"
        }
      ],
      "name": "requestCPI",
      "outputs": [
        {
          "internalType": "bytes32",
          "name": "_requestId",
          "type": "bytes32"
        }
      ],
      "stateMutability": "nonpayable",
      "type": "function"
    },
    {
      "inputs": [
        {
          "internalType": "bytes32",
          "name": "",
          "type": "bytes32"
        }
      ],
      "name": "requests",
      "outputs": [
        {
          "internalType": "address",
          "name": "",
          "type": "address"
        }
      ],
      "stateMutability": "view",
      "type": "function"
    },
    {
      "inputs": [],
      "name": "totalRewards",
      "outputs": [
        {
          "internalType": "uint256",
          "name": "",
          "type": "uint256"
        }
      ],
      "stateMutability": "view",
      "type": "function"
    },
    {
      "inputs": [
        {
          "internalType": "address",
          "name": "to",
          "type": "address"
        }
      ],
      "name": "transferOwnership",
      "outputs": [],
      "stateMutability": "nonpayable",
      "type": "function"
    },
    {
      "inputs": [
        {
          "internalType": "string",
          "name": "_resourceId",
          "type": "string"
        }
      ],
      "name": "triggerRetrieveRewards",
      "outputs": [
        {
          "internalType": "bytes32",
          "name": "_requestId",
          "type": "bytes32"
        }
      ],
      "stateMutability": "nonpayable",
      "type": "function"
    },
    {
      "inputs": [
        {
          "internalType": "address",
          "name": "to",
          "type": "address"
        },
        {
          "internalType": "uint256",
          "name": "amount",
          "type": "uint256"
        }
      ],
      "name": "withdrawChainlink",
      "outputs": [],
      "stateMutability": "nonpayable",
      "type": "function"
    },
    {
      "inputs": [],
      "name": "withdrawLink",
      "outputs": [],
      "stateMutability": "nonpayable",
      "type": "function"
    }
  ],
  "bytecode": "0x60a06040526000600c556000600d556000600e553480156200002057600080fd5b506040516200380a3803806200380a83398101604081905262000043916200028d565b600160009081558390839033908190819081620000a75760405162461bcd60e51b815260206004820152601860248201527f43616e6e6f7420736574206f776e657220746f207a65726f000000000000000060448201526064015b60405180910390fd5b600180546001600160a01b0319166001600160a01b0384811691909117909155811615620000da57620000da81620001c8565b5050506001600160a01b038316620001345760405162461bcd60e51b81526020600482015260276024820152600080516020620037ea8339815191526044820152664164647265737360c81b60648201526084016200009e565b6001600160a01b0382166200018b5760405162461bcd60e51b81526020600482015260276024820152600080516020620037ea8339815191526044820152664164647265737360c81b60648201526084016200009e565b50600380546001600160a01b03199081166001600160a01b0394851617909155600480549091169183169190911790551660805250620002e19050565b336001600160a01b03821603620002225760405162461bcd60e51b815260206004820152601760248201527f43616e6e6f74207472616e7366657220746f2073656c6600000000000000000060448201526064016200009e565b600280546001600160a01b0319166001600160a01b03838116918217909255600154604051919216907fed8889f560326eb138920d842192f0eb3dd22b4f139c87a2c57538e05bae127890600090a350565b6001600160a01b03811681146200028a57600080fd5b50565b600080600060608486031215620002a357600080fd5b8351620002b08162000274565b6020850151909350620002c38162000274565b6040850151909250620002d68162000274565b809150509250925092565b6080516134d162000319600039600081816109f801528181611b4801528181611c0f01528181611c300152611d6c01526134d16000f3fe6080604052600436106101805760003560e01c80636cedeedd116100d65780638da5cb5b1161007f578063c2939d9711610059578063c2939d97146103fc578063e1578fc314610452578063f2fde38b1461047257600080fd5b80638da5cb5b146103935780638dc654a2146103b15780639d866985146103c657600080fd5b80637ba77431116100b05780637ba774311461033e57806384962de7146103515780638cb1047a1461037157600080fd5b80636cedeedd146102e55780636e5b46f51461030757806379ba50971461032957600080fd5b8063369d5f3d11610138578063516ef31c11610112578063516ef31c146102995780635968ec5f146102b95780635ae2bfdb146102cf57600080fd5b8063369d5f3d146102365780633c4f02da1461025657806344afbb911461026957600080fd5b8063211c119811610169578063211c1198146101e05780632c0f7b6f146102025780632ea6ef9e1461021857600080fd5b80630e15561a14610185578063165d35e1146101ae575b600080fd5b34801561019157600080fd5b5061019b600e5481565b6040519081526020015b60405180910390f35b3480156101ba57600080fd5b506004546001600160a01b03165b6040516001600160a01b0390911681526020016101a5565b3480156101ec57600080fd5b506102006101fb366004612b54565b610492565b005b34801561020e57600080fd5b5061019b600c5481565b34801561022457600080fd5b506003546001600160a01b03166101c8565b34801561024257600080fd5b50610200610251366004612b80565b6105c1565b610200610264366004612b99565b61060f565b34801561027557600080fd5b5061027e610cfa565b604080518251815260209283015192810192909252016101a5565b3480156102a557600080fd5b5061019b6102b4366004612c5a565b610d82565b3480156102c557600080fd5b5061019b600d5481565b3480156102db57600080fd5b5061019b60055481565b3480156102f157600080fd5b506102fa611099565b6040516101a59190612d60565b34801561031357600080fd5b5061031c6113ba565b6040516101a59190612e55565b34801561033557600080fd5b506102006115f9565b61019b61034c366004612eb7565b6116ae565b34801561035d57600080fd5b5061020061036c366004612b80565b6119b9565b34801561037d57600080fd5b50336000908152600a602052604090205461019b565b34801561039f57600080fd5b506001546001600160a01b03166101c8565b3480156103bd57600080fd5b50610200611a0a565b3480156103d257600080fd5b506101c86103e1366004612b80565b600b602052600090815260409020546001600160a01b031681565b34801561040857600080fd5b506104456040518060400160405280602081526020017f626339376336383064323932346633316130353831643934373331346363363481525081565b6040516101a59190612f18565b34801561045e57600080fd5b5061019b61046d366004612c5a565b611b43565b34801561047e57600080fd5b5061020061048d366004612f2b565b611dee565b61049a611dff565b6104a2611e58565b600480546040517fa9059cbb0000000000000000000000000000000000000000000000000000000081526001600160a01b0385811693820193909352602481018490526000929091169063a9059cbb906044016020604051808303816000875af1158015610514573d6000803e3d6000fd5b505050506040513d601f19601f820116820180604052508101906105389190612f48565b9050806105b25760405162461bcd60e51b815260206004820152602c60248201527f55736572526571756573743a20436861696e6c696e6b20746f6b656e2074726160448201527f6e73666572206661696c6564000000000000000000000000000000000000000060648201526084015b60405180910390fd5b506105bd6001600055565b5050565b806105cb81611eb4565b600082815260066020526040808220600701805460ff191690555183917f9620e459d78787bd1a66e8aa7f06df3177404e39240c06c264f48ce40fee141591a25050565b6003546001600160a01b03166001600160a01b0316638abf60776040518163ffffffff1660e01b8152600401602060405180830381865afa158015610658573d6000803e3d6000fd5b505050506040513d601f19601f8201168201806040525081019061067c9190612f6a565b6001600160a01b0316336001600160a01b0316146107025760405162461bcd60e51b815260206004820152603260248201527f55736572526571756573743a204f6e6c792063616c6c61626c6520627920537860448201527f54205265717565737420436f6e7472616374000000000000000000000000000060648201526084016105a9565b6000838152600b60205260408120546001600160a01b0316815b83811015610cb45760006107aa86868481811061073b5761073b612f87565b905060200281019061074d9190612f9d565b600081811061075e5761075e612f87565b90506020028101906107709190612fe7565b8080601f016020809104026020016040519081016040528093929190818152602001838380828437600092019190915250611f0792505050565b6001600160a01b03841660009081526009602090815260408083208484529091529020549091501515806107ed5750600081815260066020526040902060020154155b156107f85750610ca2565b600061083287878581811061080f5761080f612f87565b90506020028101906108219190612f9d565b600781811061075e5761075e612f87565b905060006108ba88888681811061084b5761084b612f87565b905060200281019061085d9190612f9d565b600681811061086e5761086e612f87565b90506020028101906108809190612fe7565b8080601f016020809104026020016040519081016040528093929190818152602001838380828437600092019190915250611f8992505050565b905060006108c9848484612096565b905060006108d68261211c565b905061095d818b8b898181106108ee576108ee612f87565b90506020028101906109009190612f9d565b600281811061091157610911612f87565b90506020028101906109239190612fe7565b8080601f01602080910402602001604051908101604052809392919081815260200183838082843760009201919091525061213292505050565b15610c9c57600061099c8b8b8981811061097957610979612f87565b905060200281019061098b9190612f9d565b600481811061075e5761075e612f87565b905060006109d88c8c8a8181106109b5576109b5612f87565b90506020028101906109c79190612f9d565b600581811061075e5761075e612f87565b600088815260066020526040812060030154919250906001600160a01b037f000000000000000000000000000000000000000000000000000000000000000016906323eafa38908f8f8d818110610a3157610a31612f87565b9050602002810190610a439190612f9d565b6003818110610a5457610a54612f87565b9050602002810190610a669190612fe7565b6040518463ffffffff1660e01b8152600401610a8493929190613057565b602060405180830381865afa158015610aa1573d6000803e3d6000fd5b505050506040513d601f19601f82011682018060405250810190610ac5919061307a565b905081610ad284836130a9565b610adc91906130c0565b600089815260066020526040902060020154909150610afc908290612148565b9050600060405180608001604052808981526020018381526020018c6001600160a01b031681526020018f8f8d818110610b3857610b38612f87565b9050602002810190610b4a9190612f9d565b6003818110610b5b57610b5b612f87565b9050602002810190610b6d9190612fe7565b8080601f01602080910402602001604051908101604052809392919081815260200183838082843760009201829052509390945250508b815260076020908152604080832080546001808201835591855293839020865160049095020193845591850151918301919091558301516002820180546001600160a01b0319166001600160a01b03909216919091179055606083015192935083929091506003820190610c18908261317d565b5050506001600160a01b038b1660009081526009602090815260408083208c84528252808320859055600690915281206002018054849290610c5b90849061323d565b9091555050600d8054600090610c7090613250565b90915550610c7e828d613269565b9b5081600e6000828254610c929190613269565b9091555050505050505b50505050505b80610cac81613250565b91505061071c565b508115610cf3576040516001600160a01b0382169083156108fc029084906000818181858888f19350505050158015610cf1573d6000803e3d6000fd5b505b5050505050565b604080518082019091526000808252602082015260008060005b600c54811015610d6a573360009081526009602090815260408083208484529091529020548015610d5757610d498185613269565b9350610d5483613250565b92505b5080610d6281613250565b915050610d14565b50604080518082019091529182526020820152919050565b6000610d8c611dff565b6004546001600160a01b03166001600160a01b031663095ea7b3610db86003546001600160a01b031690565b6001600160a01b0316638abf60776040518163ffffffff1660e01b8152600401602060405180830381865afa158015610df5573d6000803e3d6000fd5b505050506040513d601f19601f82011682018060405250810190610e199190612f6a565b6003546001600160a01b03166001600160a01b0316631f78b0906040518163ffffffff1660e01b8152600401602060405180830381865afa158015610e62573d6000803e3d6000fd5b505050506040513d601f19601f82011682018060405250810190610e86919061307a565b6040516001600160e01b031960e085901b1681526001600160a01b03909216600483015260248201526044016020604051808303816000875af1158015610ed1573d6000803e3d6000fd5b505050506040513d601f19601f82011682018060405250810190610ef59190612f48565b610f1257604051636ce9035d60e01b815260040160405180910390fd5b336000908152600a602052604081205484908490610f2f90612160565b610f3a336014612200565b604051602001610f4d949392919061327c565b6040516020818303038152906040529050610f706003546001600160a01b031690565b60408051808201825260208082527f62633937633638306432393234663331613035383164393437333134636336349082015290517fe85b09970000000000000000000000000000000000000000000000000000000081526001600160a01b03929092169163e85b0997916110129185918991899130917f3c4f02da0000000000000000000000000000000000000000000000000000000091906004016133a6565b6020604051808303816000875af1158015611031573d6000803e3d6000fd5b505050506040513d601f19601f82011682018060405250810190611055919061307a565b6000818152600b6020908152604080832080546001600160a01b031916339081179091558352600a9091529020429055915061109390506001600055565b92915050565b336000908152600860205260408120546060918167ffffffffffffffff8111156110c5576110c56130e2565b6040519080825280602002602001820160405280156110fe57816020015b6110eb612ad4565b8152602001906001900390816110e35790505b50905060005b828110156113b35733600090815260086020526040812080548390811061112d5761112d612f87565b6000918252602080832090910154808352600680835260409384902084516101008101865281548152600182015494810194909452600281015494840194909452600384015460608401526004840154608084015260058401546001600160a01b031660a08401528301805491945091929160c08401916111ad906130f8565b80601f01602080910402602001604051908101604052809291908181526020018280546111d9906130f8565b80156112265780601f106111fb57610100808354040283529160200191611226565b820191906000526020600020905b81548152906001019060200180831161120957829003601f168201915b50505091835250506007919091015460ff161515602090910152835184908490811061125457611254612f87565b6020908102919091018101519190915260008281526007825260408082208054825181860281018601909352808352919390929084015b8282101561137a57600084815260209081902060408051608081018252600486029092018054835260018101549383019390935260028301546001600160a01b0316908201526003820180549192916060840191906112e9906130f8565b80601f0160208091040260200160405190810160405280929190818152602001828054611315906130f8565b80156113625780601f1061133757610100808354040283529160200191611362565b820191906000526020600020905b81548152906001019060200180831161134557829003601f168201915b5050505050815250508152602001906001019061128b565b5050505083838151811061139057611390612f87565b6020026020010151602001819052505080806113ab90613250565b915050611104565b5092915050565b60606000805b600c548110156113f8576113d3816123c5565b156113e657816113e281613250565b9250505b806113f081613250565b9150506113c0565b5060008167ffffffffffffffff811115611414576114146130e2565b60405190808252806020026020018201604052801561149857816020015b611485604051806101000160405280600081526020016000815260200160008152602001600081526020016000815260200160006001600160a01b03168152602001606081526020016000151581525090565b8152602001906001900390816114325790505b50905060005b600c548110156113b3576114b1816123c5565b156115e75760008181526006602081815260409283902083516101008101855281548152600182015492810192909252600281015493820193909352600383015460608201526004830154608082015260058301546001600160a01b031660a0820152908201805491929160c08401919061152b906130f8565b80601f0160208091040260200160405190810160405280929190818152602001828054611557906130f8565b80156115a45780601f10611579576101008083540402835291602001916115a4565b820191906000526020600020905b81548152906001019060200180831161158757829003601f168201915b50505091835250506007919091015460ff161515602090910152826115c88561340c565b945084815181106115db576115db612f87565b60200260200101819052505b806115f181613250565b91505061149e565b6002546001600160a01b031633146116535760405162461bcd60e51b815260206004820152601660248201527f4d7573742062652070726f706f736564206f776e65720000000000000000000060448201526064016105a9565b600180546001600160a01b0319808216339081179093556002805490911690556040516001600160a01b03909116919082907f8be0079c531659141344cd1fd0a4f28419497f9722a3daafe3b4186f6b6457e090600090a350565b600067016345785d8a0000861015611703576040517f9ab618ae0000000000000000000000000000000000000000000000000000000081526004810187905267016345785d8a000060248201526044016105a9565b85341461173f576040517fc85f304b000000000000000000000000000000000000000000000000000000008152600481018790526024016105a9565b66038d7ea4c68000851015611790576040517f8a1c37ee0000000000000000000000000000000000000000000000000000000081526004810186905266038d7ea4c6800060248201526044016105a9565b61179d4262015180613269565b8410156117ed57836117b24262015180613269565b6040517f51f846e6000000000000000000000000000000000000000000000000000000008152600481019290925260248201526044016105a9565b6000829003611828576040517f5a55c5d100000000000000000000000000000000000000000000000000000000815260040160405180910390fd5b6000604051806101000160405280600c548152602001888152602001888152602001878152602001868152602001336001600160a01b0316815260200185858080601f016020809104026020016040519081016040528093929190818152602001838380828437600092018290525093855250506001602093840181905284518352600680855260409384902086518155948601519185019190915591840151600284015550606083015160038301556080830151600483015560a08301516005830180546001600160a01b0319166001600160a01b0390921691909117905560c0830151929350839290820190611920908261317d565b5060e091909101516007909101805460ff191691151591909117905560a08101516001600160a01b031660009081526008602090815260408220835181546001810183559184529183200155600c80549161197a83613250565b90915550508051604051889133917f63e3678c8493a16f8ba43ae9e547231762ca04526dac2c388bd2c26d8940185190600090a4519695505050505050565b806119c381611eb4565b600082815260066020526040808220600701805460ff191660011790555183917fba42f99793097dbf156767849735bfd27114e73a9cc1b4c264144cfd154cde0091a25050565b611a12611e58565b6000611a266004546001600160a01b031690565b6040517f70a082310000000000000000000000000000000000000000000000000000000081523060048201529091506001600160a01b0382169063a9059cbb90339083906370a0823190602401602060405180830381865afa158015611a90573d6000803e3d6000fd5b505050506040513d601f19601f82011682018060405250810190611ab4919061307a565b6040516001600160e01b031960e085901b1681526001600160a01b03909216600483015260248201526044016020604051808303816000875af1158015611aff573d6000803e3d6000fd5b505050506040513d601f19601f82011682018060405250810190611b239190612f48565b611b4057604051636ce9035d60e01b815260040160405180910390fd5b50565b6000427f00000000000000000000000000000000000000000000000000000000000000006001600160a01b031663233af1b085856040518363ffffffff1660e01b8152600401611b94929190613423565b602060405180830381865afa158015611bb1573d6000803e3d6000fd5b505050506040513d601f19601f82011682018060405250810190611bd5919061307a565b611be29062015180613269565b1015611093576000611bfc6004546001600160a01b031690565b9050806001600160a01b031663a9059cbb7f00000000000000000000000000000000000000000000000000000000000000007f00000000000000000000000000000000000000000000000000000000000000006001600160a01b031663ddca3f436040518163ffffffff1660e01b8152600401602060405180830381865afa158015611c8c573d6000803e3d6000fd5b505050506040513d601f19601f82011682018060405250810190611cb0919061307a565b6040516001600160e01b031960e085901b1681526001600160a01b03909216600483015260248201526044016020604051808303816000875af1158015611cfb573d6000803e3d6000fd5b505050506040513d601f19601f82011682018060405250810190611d1f9190612f48565b611d3c57604051636ce9035d60e01b815260040160405180910390fd5b6040517fe1578fc30000000000000000000000000000000000000000000000000000000081526001600160a01b037f0000000000000000000000000000000000000000000000000000000000000000169063e1578fc390611da39087908790600401613423565b6020604051808303816000875af1158015611dc2573d6000803e3d6000fd5b505050506040513d601f19601f82011682018060405250810190611de6919061307a565b949350505050565b611df6611e58565b611b408161250c565b600260005403611e515760405162461bcd60e51b815260206004820152601f60248201527f5265656e7472616e637947756172643a207265656e7472616e742063616c6c0060448201526064016105a9565b6002600055565b6001546001600160a01b03163314611eb25760405162461bcd60e51b815260206004820152601660248201527f4f6e6c792063616c6c61626c65206279206f776e65720000000000000000000060448201526064016105a9565b565b6000818152600660205260409020600501546001600160a01b03163314611b40576040517fea8e4eb500000000000000000000000000000000000000000000000000000000815260040160405180910390fd5b60008181805b8251811015611f81576000838281518110611f2a57611f2a612f87565b016020015160f81c905060308110801590611f46575060398111155b15611f6e57611f5660308261323d565b611f6184600a6130a9565b611f6b9190613269565b92505b5080611f7981613250565b915050611f0d565b509392505050565b60606000829050600060028251611fa091906130c0565b67ffffffffffffffff811115611fb857611fb86130e2565b6040519080825280601f01601f191660200182016040528015611fe2576020820181803683370190505b50905060005b60028351611ff691906130c0565b811015611f81576120348361200c8360026130a9565b612017906001613269565b8151811061202757612027612f87565b016020015160f81c6125b6565b612043846120178460026130a9565b61204e906010613437565b6120589190613453565b60f81b82828151811061206d5761206d612f87565b60200101906001600160f81b031916908160001a9053508061208e81613250565b915050611fe8565b60008084846040516020016120b5929190918252602082015260400190565b6040516020818303038152906040528051906020012090506000612106827f19457468657265756d205369676e6564204d6573736167653a0a3332000000006000908152601c91909152603c902090565b90506121128185612768565b9695505050505050565b60606110936001600160a01b0383166014612200565b8051602091820120825192909101919091201490565b60008183106121575781612159565b825b9392505050565b6060600061216d83612784565b600101905060008167ffffffffffffffff81111561218d5761218d6130e2565b6040519080825280601f01601f1916602001820160405280156121b7576020820181803683370190505b5090508181016020015b600019017f3031323334353637383961626364656600000000000000000000000000000000600a86061a8153600a85049450846121c157509392505050565b6060600061220f8360026130a9565b61221a906002613269565b67ffffffffffffffff811115612232576122326130e2565b6040519080825280601f01601f19166020018201604052801561225c576020820181803683370190505b509050600360fc1b8160008151811061227757612277612f87565b60200101906001600160f81b031916908160001a9053507f7800000000000000000000000000000000000000000000000000000000000000816001815181106122c2576122c2612f87565b60200101906001600160f81b031916908160001a90535060006122e68460026130a9565b6122f1906001613269565b90505b6001811115612376577f303132333435363738396162636465660000000000000000000000000000000085600f166010811061233257612332612f87565b1a60f81b82828151811061234857612348612f87565b60200101906001600160f81b031916908160001a90535060049490941c9361236f8161340c565b90506122f4565b5083156121595760405162461bcd60e51b815260206004820181905260248201527f537472696e67733a20686578206c656e67746820696e73756666696369656e7460448201526064016105a9565b600081815260066020818152604080842081516101008101835281548152600182015493810193909352600281015491830191909152600381015460608301526004810154608083015260058101546001600160a01b031660a0830152918201805484939160c0840191612438906130f8565b80601f0160208091040260200160405190810160405280929190818152602001828054612464906130f8565b80156124b15780601f10612486576101008083540402835291602001916124b1565b820191906000526020600020905b81548152906001019060200180831161249457829003601f168201915b50505091835250506007919091015460ff16151560209091015260e081015190915080156124e25750428160800151115b80156121595750336000908152600960209081526040808320868452909152902054159392505050565b336001600160a01b038216036125645760405162461bcd60e51b815260206004820152601760248201527f43616e6e6f74207472616e7366657220746f2073656c6600000000000000000060448201526064016105a9565b600280546001600160a01b0319166001600160a01b03838116918217909255600154604051919216907fed8889f560326eb138920d842192f0eb3dd22b4f139c87a2c57538e05bae127890600090a350565b6000600360fc1b60f883901b6001600160f81b0319161080159061260857507f390000000000000000000000000000000000000000000000000000000000000060f883901b6001600160f81b03191611155b156126185761109360308361346c565b7f610000000000000000000000000000000000000000000000000000000000000060f883901b6001600160f81b0319161080159061268457507f660000000000000000000000000000000000000000000000000000000000000060f883901b6001600160f81b03191611155b156126a057606161269683600a613453565b611093919061346c565b7f410000000000000000000000000000000000000000000000000000000000000060f883901b6001600160f81b0319161080159061270c57507f460000000000000000000000000000000000000000000000000000000000000060f883901b6001600160f81b03191611155b1561271e57604161269683600a613453565b60405162461bcd60e51b81526004016105a99060208082526004908201527f6661696c00000000000000000000000000000000000000000000000000000000604082015260600190565b60008060006127778585612866565b91509150611f81816128ab565b6000807a184f03e93ff9f4daa797ed6e38ed64bf6a1f01000000000000000083106127cd577a184f03e93ff9f4daa797ed6e38ed64bf6a1f010000000000000000830492506040015b6d04ee2d6d415b85acef810000000083106127f9576d04ee2d6d415b85acef8100000000830492506020015b662386f26fc10000831061281757662386f26fc10000830492506010015b6305f5e100831061282f576305f5e100830492506008015b612710831061284357612710830492506004015b60648310612855576064830492506002015b600a83106110935760010192915050565b600080825160410361289c5760208301516040840151606085015160001a61289087828585612a10565b945094505050506128a4565b506000905060025b9250929050565b60008160048111156128bf576128bf613485565b036128c75750565b60018160048111156128db576128db613485565b036129285760405162461bcd60e51b815260206004820152601860248201527f45434453413a20696e76616c6964207369676e6174757265000000000000000060448201526064016105a9565b600281600481111561293c5761293c613485565b036129895760405162461bcd60e51b815260206004820152601f60248201527f45434453413a20696e76616c6964207369676e6174757265206c656e6774680060448201526064016105a9565b600381600481111561299d5761299d613485565b03611b405760405162461bcd60e51b815260206004820152602260248201527f45434453413a20696e76616c6964207369676e6174757265202773272076616c60448201527f756500000000000000000000000000000000000000000000000000000000000060648201526084016105a9565b6000807f7fffffffffffffffffffffffffffffff5d576e7357a4501ddfe92f46681b20a0831115612a475750600090506003612acb565b6040805160008082526020820180845289905260ff881692820192909252606081018690526080810185905260019060a0016020604051602081039080840390855afa158015612a9b573d6000803e3d6000fd5b5050604051601f1901519150506001600160a01b038116612ac457600060019250925050612acb565b9150600090505b94509492505050565b6040518060400160405280612b32604051806101000160405280600081526020016000815260200160008152602001600081526020016000815260200160006001600160a01b03168152602001606081526020016000151581525090565b8152602001606081525090565b6001600160a01b0381168114611b4057600080fd5b60008060408385031215612b6757600080fd5b8235612b7281612b3f565b946020939093013593505050565b600060208284031215612b9257600080fd5b5035919050565b600080600060408486031215612bae57600080fd5b83359250602084013567ffffffffffffffff80821115612bcd57600080fd5b818601915086601f830112612be157600080fd5b813581811115612bf057600080fd5b8760208260051b8501011115612c0557600080fd5b6020830194508093505050509250925092565b60008083601f840112612c2a57600080fd5b50813567ffffffffffffffff811115612c4257600080fd5b6020830191508360208285010111156128a457600080fd5b60008060208385031215612c6d57600080fd5b823567ffffffffffffffff811115612c8457600080fd5b612c9085828601612c18565b90969095509350505050565b60005b83811015612cb7578181015183820152602001612c9f565b50506000910152565b60008151808452612cd8816020860160208601612c9c565b601f01601f19169290920160200192915050565b600061010082518452602083015160208501526040830151604085015260608301516060850152608083015160808501526001600160a01b0360a08401511660a085015260c08301518160c0860152612d4782860182612cc0565b91505060e0830151151560e08501528091505092915050565b60006020808301818452808551808352604092508286019150828160051b87010184880160005b83811015612e4757888303603f1901855281518051878552612dab88860182612cec565b91890151858303868b01528051808452908a0192915089820190600581901b83018b0160005b82811015612e3057848203601f190184528551805183528d8101518e8401528c8101516001600160a01b03168d840152606090810151608091840182905290612e1c81850183612cc0565b978f0197958f019593505050600101612dd1565b50988b019896505050928801925050600101612d87565b509098975050505050505050565b6000602080830181845280855180835260408601915060408160051b870101925083870160005b82811015612eaa57603f19888603018452612e98858351612cec565b94509285019290850190600101612e7c565b5092979650505050505050565b600080600080600060808688031215612ecf57600080fd5b853594506020860135935060408601359250606086013567ffffffffffffffff811115612efb57600080fd5b612f0788828901612c18565b969995985093965092949392505050565b6020815260006121596020830184612cc0565b600060208284031215612f3d57600080fd5b813561215981612b3f565b600060208284031215612f5a57600080fd5b8151801515811461215957600080fd5b600060208284031215612f7c57600080fd5b815161215981612b3f565b634e487b7160e01b600052603260045260246000fd5b6000808335601e19843603018112612fb457600080fd5b83018035915067ffffffffffffffff821115612fcf57600080fd5b6020019150600581901b36038213156128a457600080fd5b6000808335601e19843603018112612ffe57600080fd5b83018035915067ffffffffffffffff82111561301957600080fd5b6020019150368190038213156128a457600080fd5b81835281816020850137506000828201602090810191909152601f909101601f19169091010190565b83815260406020820152600061307160408301848661302e565b95945050505050565b60006020828403121561308c57600080fd5b5051919050565b634e487b7160e01b600052601160045260246000fd5b808202811582820484141761109357611093613093565b6000826130dd57634e487b7160e01b600052601260045260246000fd5b500490565b634e487b7160e01b600052604160045260246000fd5b600181811c9082168061310c57607f821691505b60208210810361312c57634e487b7160e01b600052602260045260246000fd5b50919050565b601f82111561317857600081815260208120601f850160051c810160208610156131595750805b601f850160051c820191505b81811015610cf157828155600101613165565b505050565b815167ffffffffffffffff811115613197576131976130e2565b6131ab816131a584546130f8565b84613132565b602080601f8311600181146131e057600084156131c85750858301515b600019600386901b1c1916600185901b178555610cf1565b600085815260208120601f198616915b8281101561320f578886015182559484019460019091019084016131f0565b508582101561322d5787850151600019600388901b60f8161c191681555b5050505050600190811b01905550565b8181038181111561109357611093613093565b60006001820161326257613262613093565b5060010190565b8082018082111561109357611093613093565b7f53454c4543542063616d706169676e5f69642c7075626c69736865722c636c6981527f636b65722c636f756e7472792c6370632c6370635f646976696465645f62792c60208201527f7369676e61747572652c7669657765645f74696d652046524f4d20000000000060408201528385605b83013760008482017f205748455245207669657765645f74696d65203e202700000000000000000000605b8201528451613330816071840160208901612c9c565b7f2720414e4420636c69636b6572203d202700000000000000000000000000000060719290910191820152835161336e816082840160208801612c9c565b7f2700000000000000000000000000000000000000000000000000000000000000608292909101918201526083019695505050505050565b60a0815260006133b960a0830189612cc0565b82810360208401526133cc81888a61302e565b90506001600160a01b03861660408401526001600160e01b03198516606084015282810360808401526133ff8185612cc0565b9998505050505050505050565b60008161341b5761341b613093565b506000190190565b602081526000611de660208301848661302e565b60ff81811683821602908116908181146113b3576113b3613093565b60ff818116838216019081111561109357611093613093565b60ff828116828216039081111561109357611093613093565b634e487b7160e01b600052602160045260246000fdfea2646970667358221220a7d6a017a665d818fbdcb57d02d77a4d2b253825ddf5c54c3906ad9f3d0cc87064736f6c6343000812003355736572526571756573743a2043616e6e6f742073657420746f205a65726f20",
  "linkReferences": {},
  "deployedLinkReferences": {}
}