{
  "_format": "hh-sol-artifact-1",
  "contractName": "Zenith",
  "sourceName": "contracts/Zenith.sol",
  "abi": [
    {
      "inputs": [
        {
          "internalType": "address",
          "name": "_oracleId",
          "type": "address"
        },
        {
          "internalType": "string",
          "name": "_jobId",
          "type": "string"
        },
        {
          "internalType": "uint256",
          "name": "_fee",
          "type": "uint256"
        },
        {
          "internalType": "address",
          "name": "_token",
          "type": "address"
        }
      ],
      "stateMutability": "nonpayable",
      "type": "constructor"
    },
    {
      "anonymous": false,
      "inputs": [],
      "name": "CampaignClickDataUpdated",
      "type": "event"
    },
    {
      "anonymous": false,
      "inputs": [
        {
          "indexed": false,
          "internalType": "uint256",
          "name": "_campaigns",
          "type": "uint256"
        },
        {
          "indexed": false,
          "internalType": "address",
          "name": "_advertiser",
          "type": "address"
        },
        {
          "indexed": false,
          "internalType": "uint256",
          "name": "_budget",
          "type": "uint256"
        }
      ],
      "name": "CampaignCreated",
      "type": "event"
    },
    {
      "anonymous": false,
      "inputs": [
        {
          "indexed": false,
          "internalType": "uint256",
          "name": "_campaignId",
          "type": "uint256"
        }
      ],
      "name": "CampaignDisabled",
      "type": "event"
    },
    {
      "anonymous": false,
      "inputs": [
        {
          "indexed": false,
          "internalType": "uint256",
          "name": "_campaignId",
          "type": "uint256"
        }
      ],
      "name": "CampaignEnabled",
      "type": "event"
    },
    {
      "anonymous": false,
      "inputs": [
        {
          "indexed": true,
          "internalType": "bytes32",
          "name": "id",
          "type": "bytes32"
        }
      ],
      "name": "ChainlinkCancelled",
      "type": "event"
    },
    {
      "anonymous": false,
      "inputs": [
        {
          "indexed": true,
          "internalType": "bytes32",
          "name": "id",
          "type": "bytes32"
        }
      ],
      "name": "ChainlinkFulfilled",
      "type": "event"
    },
    {
      "anonymous": false,
      "inputs": [
        {
          "indexed": true,
          "internalType": "bytes32",
          "name": "id",
          "type": "bytes32"
        }
      ],
      "name": "ChainlinkRequested",
      "type": "event"
    },
    {
      "anonymous": false,
      "inputs": [
        {
          "indexed": true,
          "internalType": "address",
          "name": "from",
          "type": "address"
        },
        {
          "indexed": true,
          "internalType": "address",
          "name": "to",
          "type": "address"
        }
      ],
      "name": "OwnershipTransferRequested",
      "type": "event"
    },
    {
      "anonymous": false,
      "inputs": [
        {
          "indexed": true,
          "internalType": "address",
          "name": "from",
          "type": "address"
        },
        {
          "indexed": true,
          "internalType": "address",
          "name": "to",
          "type": "address"
        }
      ],
      "name": "OwnershipTransferred",
      "type": "event"
    },
    {
      "inputs": [],
      "name": "acceptOwnership",
      "outputs": [],
      "stateMutability": "nonpayable",
      "type": "function"
    },
    {
      "inputs": [
        {
          "internalType": "uint256",
          "name": "_budget",
          "type": "uint256"
        },
        {
          "internalType": "uint256",
          "name": "_minCostPerClick",
          "type": "uint256"
        },
        {
          "internalType": "uint256",
          "name": "_endDatetime",
          "type": "uint256"
        },
        {
          "internalType": "string",
          "name": "_cid",
          "type": "string"
        }
      ],
      "name": "createCampaign",
      "outputs": [
        {
          "internalType": "uint256",
          "name": "",
          "type": "uint256"
        }
      ],
      "stateMutability": "payable",
      "type": "function"
    },
    {
      "inputs": [
        {
          "internalType": "uint256",
          "name": "campaignId",
          "type": "uint256"
        }
      ],
      "name": "disableCampaign",
      "outputs": [],
      "stateMutability": "nonpayable",
      "type": "function"
    },
    {
      "inputs": [
        {
          "internalType": "uint256",
          "name": "campaignId",
          "type": "uint256"
        }
      ],
      "name": "enableCampaign",
      "outputs": [],
      "stateMutability": "nonpayable",
      "type": "function"
    },
    {
      "inputs": [],
      "name": "fee",
      "outputs": [
        {
          "internalType": "uint256",
          "name": "",
          "type": "uint256"
        }
      ],
      "stateMutability": "view",
      "type": "function"
    },
    {
      "inputs": [
        {
          "internalType": "bytes32",
          "name": "_requestId",
          "type": "bytes32"
        },
        {
          "internalType": "uint256",
          "name": "_data",
          "type": "uint256"
        }
      ],
      "name": "fulfillCPI",
      "outputs": [],
      "stateMutability": "nonpayable",
      "type": "function"
    },
    {
      "inputs": [],
      "name": "getAvailableCampaigns",
      "outputs": [
        {
          "components": [
            {
              "internalType": "uint256",
              "name": "id",
              "type": "uint256"
            },
            {
              "internalType": "address",
              "name": "advertiser",
              "type": "address"
            },
            {
              "internalType": "uint256",
              "name": "budget",
              "type": "uint256"
            },
            {
              "internalType": "uint256",
              "name": "remaining",
              "type": "uint256"
            },
            {
              "internalType": "uint256",
              "name": "minCostPerClick",
              "type": "uint256"
            },
            {
              "internalType": "uint256",
              "name": "endDatetime",
              "type": "uint256"
            },
            {
              "internalType": "string",
              "name": "cid",
              "type": "string"
            },
            {
              "internalType": "bool",
              "name": "active",
              "type": "bool"
            }
          ],
          "internalType": "struct Zenith.Campaign[]",
          "name": "",
          "type": "tuple[]"
        }
      ],
      "stateMutability": "view",
      "type": "function"
    },
    {
      "inputs": [],
      "name": "getCampaignsOfAdvertiser",
      "outputs": [
        {
          "components": [
            {
              "components": [
                {
                  "internalType": "uint256",
                  "name": "id",
                  "type": "uint256"
                },
                {
                  "internalType": "address",
                  "name": "advertiser",
                  "type": "address"
                },
                {
                  "internalType": "uint256",
                  "name": "budget",
                  "type": "uint256"
                },
                {
                  "internalType": "uint256",
                  "name": "remaining",
                  "type": "uint256"
                },
                {
                  "internalType": "uint256",
                  "name": "minCostPerClick",
                  "type": "uint256"
                },
                {
                  "internalType": "uint256",
                  "name": "endDatetime",
                  "type": "uint256"
                },
                {
                  "internalType": "string",
                  "name": "cid",
                  "type": "string"
                },
                {
                  "internalType": "bool",
                  "name": "active",
                  "type": "bool"
                }
              ],
              "internalType": "struct Zenith.Campaign",
              "name": "campaign",
              "type": "tuple"
            },
            {
              "components": [
                {
                  "internalType": "uint256",
                  "name": "id",
                  "type": "uint256"
                },
                {
                  "internalType": "uint256",
                  "name": "campaignId",
                  "type": "uint256"
                },
                {
                  "internalType": "uint256",
                  "name": "costPerClick",
                  "type": "uint256"
                },
                {
                  "internalType": "uint256",
                  "name": "displayTime",
                  "type": "uint256"
                },
                {
                  "internalType": "address",
                  "name": "user",
                  "type": "address"
                },
                {
                  "internalType": "bool",
                  "name": "paid",
                  "type": "bool"
                },
                {
                  "internalType": "string",
                  "name": "country",
                  "type": "string"
                },
                {
                  "internalType": "bytes",
                  "name": "signature",
                  "type": "bytes"
                }
              ],
              "internalType": "struct Zenith.AdClick[]",
              "name": "adClicks",
              "type": "tuple[]"
            }
          ],
          "internalType": "struct Zenith.CampaignWithAdClicks[]",
          "name": "",
          "type": "tuple[]"
        }
      ],
      "stateMutability": "view",
      "type": "function"
    },
    {
      "inputs": [],
      "name": "jobId",
      "outputs": [
        {
          "internalType": "string",
          "name": "",
          "type": "string"
        }
      ],
      "stateMutability": "view",
      "type": "function"
    },
    {
      "inputs": [],
      "name": "numAdClicks",
      "outputs": [
        {
          "internalType": "uint256",
          "name": "",
          "type": "uint256"
        }
      ],
      "stateMutability": "view",
      "type": "function"
    },
    {
      "inputs": [],
      "name": "numCampaigns",
      "outputs": [
        {
          "internalType": "uint256",
          "name": "",
          "type": "uint256"
        }
      ],
      "stateMutability": "view",
      "type": "function"
    },
    {
      "inputs": [],
      "name": "oracleId",
      "outputs": [
        {
          "internalType": "address",
          "name": "",
          "type": "address"
        }
      ],
      "stateMutability": "view",
      "type": "function"
    },
    {
      "inputs": [],
      "name": "owner",
      "outputs": [
        {
          "internalType": "address",
          "name": "",
          "type": "address"
        }
      ],
      "stateMutability": "view",
      "type": "function"
    },
    {
      "inputs": [
        {
          "components": [
            {
              "internalType": "uint256",
              "name": "id",
              "type": "uint256"
            },
            {
              "internalType": "uint256",
              "name": "campaignId",
              "type": "uint256"
            },
            {
              "internalType": "uint256",
              "name": "costPerClick",
              "type": "uint256"
            },
            {
              "internalType": "uint256",
              "name": "displayTime",
              "type": "uint256"
            },
            {
              "internalType": "address",
              "name": "user",
              "type": "address"
            },
            {
              "internalType": "bool",
              "name": "paid",
              "type": "bool"
            },
            {
              "internalType": "string",
              "name": "country",
              "type": "string"
            },
            {
              "internalType": "bytes",
              "name": "signature",
              "type": "bytes"
            }
          ],
          "internalType": "struct Zenith.AdClick[]",
          "name": "_adClicks",
          "type": "tuple[]"
        }
      ],
      "name": "recordAdClicks",
      "outputs": [],
      "stateMutability": "nonpayable",
      "type": "function"
    },
    {
      "inputs": [
        {
          "internalType": "string",
          "name": "_country",
          "type": "string"
        },
        {
          "internalType": "string",
          "name": "multiplier",
          "type": "string"
        }
      ],
      "name": "requestCPI",
      "outputs": [
        {
          "internalType": "bytes32",
          "name": "requestId",
          "type": "bytes32"
        }
      ],
      "stateMutability": "nonpayable",
      "type": "function"
    },
    {
      "inputs": [
        {
          "internalType": "bytes32",
          "name": "",
          "type": "bytes32"
        }
      ],
      "name": "requests",
      "outputs": [
        {
          "internalType": "string",
          "name": "",
          "type": "string"
        }
      ],
      "stateMutability": "view",
      "type": "function"
    },
    {
      "inputs": [],
      "name": "totalRewards",
      "outputs": [
        {
          "internalType": "uint256",
          "name": "",
          "type": "uint256"
        }
      ],
      "stateMutability": "view",
      "type": "function"
    },
    {
      "inputs": [
        {
          "internalType": "address",
          "name": "to",
          "type": "address"
        }
      ],
      "name": "transferOwnership",
      "outputs": [],
      "stateMutability": "nonpayable",
      "type": "function"
    }
  ],
  "bytecode": "0x608060405260016004556000600d556000600e556000600f553480156200002557600080fd5b50604051620036d2380380620036d283398101604081905262000048916200021e565b33806000816200009f5760405162461bcd60e51b815260206004820152601860248201527f43616e6e6f7420736574206f776e657220746f207a65726f000000000000000060448201526064015b60405180910390fd5b600680546001600160a01b0319166001600160a01b0384811691909117909155811615620000d257620000d2816200011d565b505050620000e681620001c960201b60201c565b601080546001600160a01b0319166001600160a01b03861617905560116200010f8482620003b2565b5050601255506200047e9050565b336001600160a01b03821603620001775760405162461bcd60e51b815260206004820152601760248201527f43616e6e6f74207472616e7366657220746f2073656c66000000000000000000604482015260640162000096565b600780546001600160a01b0319166001600160a01b03838116918217909255600654604051919216907fed8889f560326eb138920d842192f0eb3dd22b4f139c87a2c57538e05bae127890600090a350565b600280546001600160a01b0319166001600160a01b0392909216919091179055565b80516001600160a01b03811681146200020357600080fd5b919050565b634e487b7160e01b600052604160045260246000fd5b600080600080608085870312156200023557600080fd5b6200024085620001eb565b602086810151919550906001600160401b03808211156200026057600080fd5b818801915088601f8301126200027557600080fd5b8151818111156200028a576200028a62000208565b604051601f8201601f19908116603f01168101908382118183101715620002b557620002b562000208565b816040528281528b86848701011115620002ce57600080fd5b600093505b82841015620002f25784840186015181850187015292850192620002d3565b6000868483010152809850505050505050604085015191506200031860608601620001eb565b905092959194509250565b600181811c908216806200033857607f821691505b6020821081036200035957634e487b7160e01b600052602260045260246000fd5b50919050565b601f821115620003ad57600081815260208120601f850160051c81016020861015620003885750805b601f850160051c820191505b81811015620003a95782815560010162000394565b5050505b505050565b81516001600160401b03811115620003ce57620003ce62000208565b620003e681620003df845462000323565b846200035f565b602080601f8311600181146200041e5760008415620004055750858301515b600019600386901b1c1916600185901b178555620003a9565b600085815260208120601f198616915b828110156200044f578886015182559484019460019091019084016200042e565b50858210156200046e5787850151600019600388901b60f8161c191681555b5050505050600190811b01905550565b613244806200048e6000396000f3fe6080604052600436106101295760003560e01c806379ba5097116100a55780639d86698511610074578063ddca3f4311610059578063ddca3f4314610309578063f2fde38b1461031f578063ff14e1671461033f57600080fd5b80639d866985146102c7578063c2939d97146102f457600080fd5b806379ba5097146102615780637ba774311461027657806384962de7146102895780638da5cb5b146102a957600080fd5b8063369d5f3d116100fc5780636cedeedd116100e15780636cedeedd146101fd5780636e5b46f51461021f5780636fdce3c51461024157600080fd5b8063369d5f3d146101c55780635968ec5f146101e757600080fd5b80630e15561a1461012e578063176790ab146101575780632121778d146101775780632c0f7b6f146101af575b600080fd5b34801561013a57600080fd5b50610144600f5481565b6040519081526020015b60405180910390f35b34801561016357600080fd5b50610144610172366004612863565b61035f565b34801561018357600080fd5b50601054610197906001600160a01b031681565b6040516001600160a01b03909116815260200161014e565b3480156101bb57600080fd5b50610144600d5481565b3480156101d157600080fd5b506101e56101e03660046128c7565b6106bb565b005b3480156101f357600080fd5b50610144600e5481565b34801561020957600080fd5b506102126106ff565b60405161014e91906129a4565b34801561022b57600080fd5b5061023461090c565b60405161014e9190612ad9565b34801561024d57600080fd5b506101e561025c366004612b3b565b610b4c565b34801561026d57600080fd5b506101e5610cdd565b610144610284366004612b5d565b610d92565b34801561029557600080fd5b506101e56102a43660046128c7565b6110ab565b3480156102b557600080fd5b506006546001600160a01b0316610197565b3480156102d357600080fd5b506102e76102e23660046128c7565b6110f2565b60405161014e9190612bb7565b34801561030057600080fd5b506102e761118c565b34801561031557600080fd5b5061014460125481565b34801561032b57600080fd5b506101e561033a366004612be6565b611199565b34801561034b57600080fd5b506101e561035a366004612c1a565b6111ad565b60006103736002546001600160a01b031690565b6012546040517f23b872dd00000000000000000000000000000000000000000000000000000000815233600482015230602482015260448101919091526001600160a01b0391909116906323b872dd906064016020604051808303816000875af11580156103e5573d6000803e3d6000fd5b505050506040513d601f19601f820116820180604052508101906104099190612d81565b61045a5760405162461bcd60e51b815260206004820152601460248201527f4c494e4b207472616e73666572206661696c656400000000000000000000000060448201526064015b60405180910390fd5b60006104906104696011612dd2565b307f6fdce3c500000000000000000000000000000000000000000000000000000000611551565b90506105116040518060400160405280600781526020017f73657276696365000000000000000000000000000000000000000000000000008152506040518060400160405280601281526020017f747275666c6174696f6e2f63757272656e740000000000000000000000000000815250836115e29092919063ffffffff16565b6105736040518060400160405280600481526020017f64617461000000000000000000000000000000000000000000000000000000008152508560405160200161055b9190612e13565b60408051601f198184030181529190528391906115e2565b6105f26040518060400160405280600381526020017f61626900000000000000000000000000000000000000000000000000000000008152506040518060400160405280600781526020017f75696e7432353600000000000000000000000000000000000000000000000000815250836115e29092919063ffffffff16565b60408051808201909152600a81527f6d756c7469706c696572000000000000000000000000000000000000000000006020820152610632908290856115e2565b60408051808201909152600881527f726566756e64546f000000000000000000000000000000000000000000000000602082015261067d90610675336014611605565b8391906115e2565b60008281526013602052604090206106958582612ecd565b506010546012546106b1916001600160a01b03169083906117ed565b9150505b92915050565b60008181526008602052604090206001015481906001600160a01b031633146106e357600080fd5b506000908152600860205260409020600701805460ff19169055565b336000908152600b60205260408120546060918167ffffffffffffffff81111561072b5761072b612782565b60405190808252806020026020018201604052801561076457816020015b610751612717565b8152602001906001900390816107495790505b50905060005b8281101561090557336000908152600b6020526040812080548390811061079357610793612f8d565b6000918252602080832090910154808352600882526040928390208351610100810185528154815260018201546001600160a01b0316938101939093526002810154938301939093526003830154606083015260048301546080830152600583015460a083015260068301805491945091929160c084019161081490612d9e565b80601f016020809104026020016040519081016040528092919081815260200182805461084090612d9e565b801561088d5780601f106108625761010080835404028352916020019161088d565b820191906000526020600020905b81548152906001019060200180831161087057829003601f168201915b50505091835250506007919091015460ff16151560209091015283518490849081106108bb576108bb612f8d565b6020908102919091010151526108d0816118c6565b8383815181106108e2576108e2612f8d565b6020026020010151602001819052505080806108fd90612fb9565b91505061076a565b5092915050565b60606000805b600d5481101561094a5761092581611b82565b15610938578161093481612fb9565b9250505b8061094281612fb9565b915050610912565b5060008167ffffffffffffffff81111561096657610966612782565b6040519080825280602002602001820160405280156109ea57816020015b6109d76040518061010001604052806000815260200160006001600160a01b0316815260200160008152602001600081526020016000815260200160008152602001606081526020016000151581525090565b8152602001906001900390816109845790505b50905060005b600d5481101561090557610a0381611b82565b15610b3a576000818152600860209081526040918290208251610100810184528154815260018201546001600160a01b0316928101929092526002810154928201929092526003820154606082015260048201546080820152600582015460a082015260068201805491929160c084019190610a7e90612d9e565b80601f0160208091040260200160405190810160405280929190818152602001828054610aaa90612d9e565b8015610af75780601f10610acc57610100808354040283529160200191610af7565b820191906000526020600020905b815481529060010190602001808311610ada57829003601f168201915b50505091835250506007919091015460ff16151560209091015282610b1b85612fd2565b94508481518110610b2e57610b2e612f8d565b60200260200101819052505b80610b4481612fb9565b9150506109f0565b60008281526005602052604090205482906001600160a01b03163314610bda5760405162461bcd60e51b815260206004820152602860248201527f536f75726365206d75737420626520746865206f7261636c65206f662074686560448201527f20726571756573740000000000000000000000000000000000000000000000006064820152608401610451565b60008181526005602052604080822080546001600160a01b03191690555182917f7cc135e0cebb02c3480ae5d74d377283180a2601f8f644edf7987b009316c63a91a260008381526013602052604081208054610c3690612d9e565b80601f0160208091040260200160405190810160405280929190818152602001828054610c6290612d9e565b8015610caf5780601f10610c8457610100808354040283529160200191610caf565b820191906000526020600020905b815481529060010190602001808311610c9257829003601f168201915b5050505050905082601482604051610cc79190612fe9565b9081526040519081900360200190205550505050565b6007546001600160a01b03163314610d375760405162461bcd60e51b815260206004820152601660248201527f4d7573742062652070726f706f736564206f776e6572000000000000000000006044820152606401610451565b600680546001600160a01b0319808216339081179093556007805490911690556040516001600160a01b03909116919082907f8be0079c531659141344cd1fd0a4f28419497f9722a3daafe3b4186f6b6457e090600090a350565b6000808511610de35760405162461bcd60e51b815260206004820152601d60248201527f427564676574206d7573742062652067726561746572207468616e20300000006044820152606401610451565b843414610e325760405162461bcd60e51b815260206004820152601760248201527f496e73756666696369656e742066756e64732073656e740000000000000000006044820152606401610451565b60008411610e825760405162461bcd60e51b815260206004820152601a60248201527f426964206d7573742062652067726561746572207468616e20300000000000006044820152606401610451565b610e8f4262015180613005565b831015610f045760405162461bcd60e51b815260206004820152602260248201527f456e64206461746574696d65206d75737420626520696e20746865206675747560448201527f72650000000000000000000000000000000000000000000000000000000000006064820152608401610451565b6000825111610f555760405162461bcd60e51b815260206004820152601360248201527f4369642063616e6e6f7420626520656d707479000000000000000000000000006044820152606401610451565b6040805161010081018252600d548082523360208084019182528385018a8152606085018b8152608086018b815260a087018b815260c088018b8152600160e08a01819052600098895260089096529890962087518155945193850180546001600160a01b0319166001600160a01b039095169490941790935590516002840155516003830155516004820155905160058201559151909182916006820190610ffe9082612ecd565b5060e091909101516007909101805460ff19169115159190911790556020818101516001600160a01b03166000908152600b825260408120835181546001810183559183529282200191909155600d80549161105983612fb9565b909155505080516040805191825233602083015281018790527f63e3678c8493a16f8ba43ae9e547231762ca04526dac2c388bd2c26d894018519060600160405180910390a15190505b949350505050565b60008181526008602052604090206001015481906001600160a01b031633146110d357600080fd5b506000908152600860205260409020600701805460ff19166001179055565b6013602052600090815260409020805461110b90612d9e565b80601f016020809104026020016040519081016040528092919081815260200182805461113790612d9e565b80156111845780601f1061115957610100808354040283529160200191611184565b820191906000526020600020905b81548152906001019060200180831161116757829003601f168201915b505050505081565b6011805461110b90612d9e565b6111a1611cda565b6111aa81611d36565b50565b60005b815181101561154d57600061121d8383815181106111d0576111d0612f8d565b6020026020010151602001518484815181106111ee576111ee612f8d565b60200260200101516060015185858151811061120c5761120c612f8d565b602002602001015160e00151611de0565b9050806001600160a01b031683838151811061123b5761123b612f8d565b6020026020010151608001516001600160a01b031603611539576000600e549050600084848151811061127057611270612f8d565b6020026020010151602001519050600085858151811061129257611292612f8d565b602090810291909101810151608001516001600160a01b0381166000908152600c835260408082208683529093529190912054909150156112d6575050505061153b565b600060148787815181106112ec576112ec612f8d565b602002602001015160c001516040516113059190612fe9565b9081526020016040518091039020549050611336816008600086815260200190815260200160002060030154611e5c565b90508387878151811061134b5761134b612f8d565b602002602001015160000181815250508087878151811061136e5761136e612f8d565b60200260200101516040018181525050600087878151811061139257611392612f8d565b602002602001015160a00190151590811515815250508686815181106113ba576113ba612f8d565b60209081029190910181015160008681526009835260409081902082518155928201516001840155810151600283015560608101516003830155608081015160048301805460a08401511515600160a01b027fffffffffffffffffffffff0000000000000000000000000000000000000000009091166001600160a01b039093169290921791909117905560c0810151909190600582019061145c9082612ecd565b5060e082015160068201906114719082612ecd565b5050506000838152600a60209081526040822080546001810182559083529082200185905587518591600c918a908a9081106114af576114af612f8d565b602090810291909101810151608001516001600160a01b031682528181019290925260409081016000908120878252835281812093909355600890915281206003018054839290611501908490613018565b9091555050600e805460009061151690612fb9565b9190508190555080600f600082825461152f9190613005565b9091555050505050505b505b8061154581612fb9565b9150506111b0565b5050565b61158f6040805160a0810182526000808252602080830182905282840182905260608084018390528451808601909552845283015290608082015290565b6115cd6040805160a0810182526000808252602080830182905282840182905260608084018390528451808601909552845283015290608082015290565b6115d981868686611e72565b95945050505050565b60808301516115f19083611efd565b60808301516116009082611efd565b505050565b6060600061161483600261302b565b61161f906002613005565b67ffffffffffffffff81111561163757611637612782565b6040519080825280601f01601f191660200182016040528015611661576020820181803683370190505b5090507f30000000000000000000000000000000000000000000000000000000000000008160008151811061169857611698612f8d565b60200101906001600160f81b031916908160001a9053507f7800000000000000000000000000000000000000000000000000000000000000816001815181106116e3576116e3612f8d565b60200101906001600160f81b031916908160001a905350600061170784600261302b565b611712906001613005565b90505b6001811115611797577f303132333435363738396162636465660000000000000000000000000000000085600f166010811061175357611753612f8d565b1a60f81b82828151811061176957611769612f8d565b60200101906001600160f81b031916908160001a90535060049490941c9361179081612fd2565b9050611715565b5083156117e65760405162461bcd60e51b815260206004820181905260248201527f537472696e67733a20686578206c656e67746820696e73756666696369656e746044820152606401610451565b9392505050565b6004546000906117fe816001613005565b600455835160408086015160808701515191516000937f40429946000000000000000000000000000000000000000000000000000000009361184f9386938493923092918a91600191602401613042565b60408051601f198184030181529190526020810180517bffffffffffffffffffffffffffffffffffffffffffffffffffffffff167fffffffff000000000000000000000000000000000000000000000000000000009093169290921790915290506118bc86838684611f14565b9695505050505050565b6000818152600a60205260408120546060919067ffffffffffffffff8111156118f1576118f1612782565b60405190808252806020026020018201604052801561197557816020015b6119626040518061010001604052806000815260200160008152602001600081526020016000815260200160006001600160a01b0316815260200160001515815260200160608152602001606081525090565b81526020019060019003908161190f5790505b50905060005b6000848152600a6020526040902054811015610905576000848152600a6020526040812080546009929190849081106119b6576119b6612f8d565b600091825260208083209091015483528281019390935260409182019020815161010081018352815481526001820154938101939093526002810154918301919091526003810154606083015260048101546001600160a01b038116608084015260ff600160a01b90910416151560a083015260058101805460c084019190611a3e90612d9e565b80601f0160208091040260200160405190810160405280929190818152602001828054611a6a90612d9e565b8015611ab75780601f10611a8c57610100808354040283529160200191611ab7565b820191906000526020600020905b815481529060010190602001808311611a9a57829003601f168201915b50505050508152602001600682018054611ad090612d9e565b80601f0160208091040260200160405190810160405280929190818152602001828054611afc90612d9e565b8015611b495780601f10611b1e57610100808354040283529160200191611b49565b820191906000526020600020905b815481529060010190602001808311611b2c57829003601f168201915b505050505081525050828281518110611b6457611b64612f8d565b60200260200101819052508080611b7a90612fb9565b91505061197b565b60008181526008602090815260408083208151610100810183528154815260018201546001600160a01b0316938101939093526002810154918301919091526003810154606083015260048101546080830152600581015460a08301526006810180548493929160c0840191611bf790612d9e565b80601f0160208091040260200160405190810160405280929190818152602001828054611c2390612d9e565b8015611c705780601f10611c4557610100808354040283529160200191611c70565b820191906000526020600020905b815481529060010190602001808311611c5357829003601f168201915b50505091835250506007919091015460ff161515602091820152336000908152600c82526040808220878352909252205460e0820151919250908015611cb95750428260a00151115b80156110a35750600090815260096020526040902060030154159392505050565b6006546001600160a01b03163314611d345760405162461bcd60e51b815260206004820152601660248201527f4f6e6c792063616c6c61626c65206279206f776e6572000000000000000000006044820152606401610451565b565b336001600160a01b03821603611d8e5760405162461bcd60e51b815260206004820152601760248201527f43616e6e6f74207472616e7366657220746f2073656c660000000000000000006044820152606401610451565b600780546001600160a01b0319166001600160a01b03838116918217909255600654604051919216907fed8889f560326eb138920d842192f0eb3dd22b4f139c87a2c57538e05bae127890600090a350565b6000808484604051602001611dff929190918252602082015260400190565b6040516020818303038152906040528051906020012090506000611e50827f19457468657265756d205369676e6564204d6573736167653a0a3332000000006000908152601c91909152603c902090565b90506118bc81856120a5565b6000818310611e6b57816117e6565b5090919050565b611eb06040805160a0810182526000808252602080830182905282840182905260608084018390528451808601909552845283015290608082015290565b611ec085608001516101006120c9565b50509183526001600160a01b031660208301527fffffffff0000000000000000000000000000000000000000000000000000000016604082015290565b611f0a826003835161212e565b6116008282612243565b6040516bffffffffffffffffffffffff193060601b1660208201526034810184905260009060540160408051808303601f1901815282825280516020918201206000818152600590925291812080546001600160a01b0319166001600160a01b038a1617905590925082917fb5e6e01e79f91267dc17b4e6314d5d4d03593d2ceee0fbb452b750bd70ea5af99190a26002546040517f4000aea00000000000000000000000000000000000000000000000000000000081526001600160a01b0390911690634000aea090611ff0908890879087906004016130be565b6020604051808303816000875af115801561200f573d6000803e3d6000fd5b505050506040513d601f19601f820116820180604052508101906120339190612d81565b6110a35760405162461bcd60e51b815260206004820152602360248201527f756e61626c6520746f207472616e73666572416e6443616c6c20746f206f726160448201527f636c6500000000000000000000000000000000000000000000000000000000006064820152608401610451565b60008060006120b4858561226a565b915091506120c1816122af565b509392505050565b6040805180820190915260608152600060208201526120e96020836130e6565b15612111576120f96020836130e6565b612104906020613018565b61210e9083613005565b91505b506020828101829052604080518085526000815290920101905290565b60178167ffffffffffffffff1611612159576121538360e0600585901b168317612414565b50505050565b60ff8167ffffffffffffffff161161219757612180836018611fe0600586901b1617612414565b506121538367ffffffffffffffff83166001612439565b61ffff8167ffffffffffffffff16116121d6576121bf836019611fe0600586901b1617612414565b506121538367ffffffffffffffff83166002612439565b63ffffffff8167ffffffffffffffff16116122175761220083601a611fe0600586901b1617612414565b506121538367ffffffffffffffff83166004612439565b61222c83601b611fe0600586901b1617612414565b506121538367ffffffffffffffff83166008612439565b6040805180820190915260608152600060208201526117e68384600001515184855161245f565b60008082516041036122a05760208301516040840151606085015160001a61229487828585612549565b945094505050506122a8565b506000905060025b9250929050565b60008160048111156122c3576122c3613108565b036122cb5750565b60018160048111156122df576122df613108565b0361232c5760405162461bcd60e51b815260206004820152601860248201527f45434453413a20696e76616c6964207369676e617475726500000000000000006044820152606401610451565b600281600481111561234057612340613108565b0361238d5760405162461bcd60e51b815260206004820152601f60248201527f45434453413a20696e76616c6964207369676e6174757265206c656e677468006044820152606401610451565b60038160048111156123a1576123a1613108565b036111aa5760405162461bcd60e51b815260206004820152602260248201527f45434453413a20696e76616c6964207369676e6174757265202773272076616c60448201527f75650000000000000000000000000000000000000000000000000000000000006064820152608401610451565b6040805180820190915260608152600060208201526117e6838460000151518461260d565b6040805180820190915260608152600060208201526110a3848560000151518585612668565b604080518082019091526060815260006020820152825182111561248257600080fd5b60208501516124918386613005565b11156124c4576124c4856124b4876020015187866124af9190613005565b6126e9565b6124bf90600261302b565b612700565b6000808651805187602083010193508088870111156124e35787860182525b505050602084015b602084106125235780518252612502602083613005565b915061250f602082613005565b905061251c602085613018565b93506124eb565b51815160001960208690036101000a019081169019919091161790525083949350505050565b6000807f7fffffffffffffffffffffffffffffff5d576e7357a4501ddfe92f46681b20a08311156125805750600090506003612604565b6040805160008082526020820180845289905260ff881692820192909252606081018690526080810185905260019060a0016020604051602081039080840390855afa1580156125d4573d6000803e3d6000fd5b5050604051601f1901519150506001600160a01b0381166125fd57600060019250925050612604565b9150600090505b94509492505050565b604080518082019091526060815260006020820152836020015183106126425761264284856020015160026124bf919061302b565b835180516020858301018481535080850361265e576001810182525b5093949350505050565b604080518082019091526060815260006020820152602085015161268c8584613005565b11156126a0576126a0856124b48685613005565b600060016126b084610100613202565b6126ba9190613018565b90508551838682010185831982511617815250805184870111156126de5783860181525b509495945050505050565b6000818311156126fa5750816106b5565b50919050565b815161270c83836120c9565b506121538382612243565b60405180604001604052806127756040518061010001604052806000815260200160006001600160a01b0316815260200160008152602001600081526020016000815260200160008152602001606081526020016000151581525090565b8152602001606081525090565b634e487b7160e01b600052604160045260246000fd5b604051610100810167ffffffffffffffff811182821017156127bc576127bc612782565b60405290565b604051601f8201601f1916810167ffffffffffffffff811182821017156127eb576127eb612782565b604052919050565b600082601f83011261280457600080fd5b813567ffffffffffffffff81111561281e5761281e612782565b612831601f8201601f19166020016127c2565b81815284602083860101111561284657600080fd5b816020850160208301376000918101602001919091529392505050565b6000806040838503121561287657600080fd5b823567ffffffffffffffff8082111561288e57600080fd5b61289a868387016127f3565b935060208501359150808211156128b057600080fd5b506128bd858286016127f3565b9150509250929050565b6000602082840312156128d957600080fd5b5035919050565b60005b838110156128fb5781810151838201526020016128e3565b50506000910152565b6000815180845261291c8160208601602086016128e0565b601f01601f19169290920160200192915050565b6000610100825184526001600160a01b03602084015116602085015260408301516040850152606083015160608501526080830151608085015260a083015160a085015260c08301518160c086015261298b82860182612904565b91505060e0830151151560e08501528091505092915050565b60006020808301818452808551808352604092508286019150828160051b87010184880160005b83811015612acb57888303603f19018552815180518785526129ef88860182612930565b91890151858303868b01528051808452908a0192915089820190600581901b83018b0160005b82811015612ab457848203601f190184528551805183528d8101518e8401528c8101518d840152606080820151908401526080808201516001600160a01b03169084015260a08082015115159084015260c0808201516101008286018190529190612a8283870182612904565b9250505060e08083015192508482038186015250612aa08183612904565b978f0197958f019593505050600101612a15565b50988b0198965050509288019250506001016129cb565b509098975050505050505050565b6000602080830181845280855180835260408601915060408160051b870101925083870160005b82811015612b2e57603f19888603018452612b1c858351612930565b94509285019290850190600101612b00565b5092979650505050505050565b60008060408385031215612b4e57600080fd5b50508035926020909101359150565b60008060008060808587031215612b7357600080fd5b843593506020850135925060408501359150606085013567ffffffffffffffff811115612b9f57600080fd5b612bab878288016127f3565b91505092959194509250565b6020815260006117e66020830184612904565b80356001600160a01b0381168114612be157600080fd5b919050565b600060208284031215612bf857600080fd5b6117e682612bca565b80151581146111aa57600080fd5b8035612be181612c01565b60006020808385031215612c2d57600080fd5b823567ffffffffffffffff80821115612c4557600080fd5b818501915085601f830112612c5957600080fd5b813581811115612c6b57612c6b612782565b8060051b612c7a8582016127c2565b9182528381018501918581019089841115612c9457600080fd5b86860192505b83831015612d7457823585811115612cb157600080fd5b8601610100818c03601f1901811315612cc957600080fd5b612cd1612798565b89830135815260408301358a8201526060830135604082015260808301356060820152612d0060a08401612bca565b6080820152612d1160c08401612c0f565b60a082015260e08084013589811115612d2a5760008081fd5b612d388f8d838801016127f3565b60c084015250918301359188831115612d515760008081fd5b612d5f8e8c858701016127f3565b90820152845250509186019190860190612c9a565b9998505050505050505050565b600060208284031215612d9357600080fd5b81516117e681612c01565b600181811c90821680612db257607f821691505b6020821081036126fa57634e487b7160e01b600052602260045260246000fd5b6000612dde8254612d9e565b82601f821115612df45783600052602060002090505b54915060208110156126fa5760001960209190910360031b1b16919050565b7f7b226c6f636174696f6e223a2200000000000000000000000000000000000000815260008251612e4b81600d8501602087016128e0565b7f227d000000000000000000000000000000000000000000000000000000000000600d939091019283015250600f01919050565b601f82111561160057600081815260208120601f850160051c81016020861015612ea65750805b601f850160051c820191505b81811015612ec557828155600101612eb2565b505050505050565b815167ffffffffffffffff811115612ee757612ee7612782565b612efb81612ef58454612d9e565b84612e7f565b602080601f831160018114612f305760008415612f185750858301515b600019600386901b1c1916600185901b178555612ec5565b600085815260208120601f198616915b82811015612f5f57888601518255948401946001909101908401612f40565b5085821015612f7d5787850151600019600388901b60f8161c191681555b5050505050600190811b01905550565b634e487b7160e01b600052603260045260246000fd5b634e487b7160e01b600052601160045260246000fd5b600060018201612fcb57612fcb612fa3565b5060010190565b600081612fe157612fe1612fa3565b506000190190565b60008251612ffb8184602087016128e0565b9190910192915050565b808201808211156106b5576106b5612fa3565b818103818111156106b5576106b5612fa3565b80820281158282048414176106b5576106b5612fa3565b60006101006001600160a01b03808c1684528a60208501528960408501528089166060850152507fffffffff00000000000000000000000000000000000000000000000000000000871660808401528560a08401528460c08401528060e08401526130af81840185612904565b9b9a5050505050505050505050565b6001600160a01b03841681528260208201526060604082015260006115d96060830184612904565b60008261310357634e487b7160e01b600052601260045260246000fd5b500690565b634e487b7160e01b600052602160045260246000fd5b600181815b8085111561315957816000190482111561313f5761313f612fa3565b8085161561314c57918102915b93841c9390800290613123565b509250929050565b600082613170575060016106b5565b8161317d575060006106b5565b8160018114613193576002811461319d576131b9565b60019150506106b5565b60ff8411156131ae576131ae612fa3565b50506001821b6106b5565b5060208310610133831016604e8410600b84101617156131dc575081810a6106b5565b6131e6838361311e565b80600019048211156131fa576131fa612fa3565b029392505050565b60006117e6838361316156fea26469706673582212207136abe058a9503cc05b5408dcb0aa8d51b5f20cea1421ef32f6458ed840099664736f6c63430008120033",
  "linkReferences": {},
  "deployedLinkReferences": {}
}