{
  "_format": "hh-sol-artifact-1",
  "contractName": "Zenith",
  "sourceName": "contracts/Zenith.sol",
  "abi": [
    {
      "inputs": [
        {
          "internalType": "contract ISxTRelayProxy",
          "name": "sxtRelayAddress",
          "type": "address"
        },
        {
          "internalType": "contract LinkTokenInterface",
          "name": "chainlinkTokenAddress",
          "type": "address"
        }
      ],
      "stateMutability": "nonpayable",
      "type": "constructor"
    },
    {
      "anonymous": false,
      "inputs": [
        {
          "indexed": false,
          "internalType": "uint256",
          "name": "_campaigns",
          "type": "uint256"
        },
        {
          "indexed": false,
          "internalType": "address",
          "name": "_advertiser",
          "type": "address"
        },
        {
          "indexed": false,
          "internalType": "uint256",
          "name": "_budget",
          "type": "uint256"
        }
      ],
      "name": "CampaignCreated",
      "type": "event"
    },
    {
      "anonymous": false,
      "inputs": [
        {
          "indexed": false,
          "internalType": "uint256",
          "name": "_campaignId",
          "type": "uint256"
        }
      ],
      "name": "CampaignDisabled",
      "type": "event"
    },
    {
      "anonymous": false,
      "inputs": [
        {
          "indexed": false,
          "internalType": "uint256",
          "name": "_campaignId",
          "type": "uint256"
        }
      ],
      "name": "CampaignEnabled",
      "type": "event"
    },
    {
      "anonymous": false,
      "inputs": [
        {
          "indexed": true,
          "internalType": "address",
          "name": "from",
          "type": "address"
        },
        {
          "indexed": true,
          "internalType": "address",
          "name": "to",
          "type": "address"
        }
      ],
      "name": "OwnershipTransferRequested",
      "type": "event"
    },
    {
      "anonymous": false,
      "inputs": [
        {
          "indexed": true,
          "internalType": "address",
          "name": "from",
          "type": "address"
        },
        {
          "indexed": true,
          "internalType": "address",
          "name": "to",
          "type": "address"
        }
      ],
      "name": "OwnershipTransferred",
      "type": "event"
    },
    {
      "inputs": [],
      "name": "acceptOwnership",
      "outputs": [],
      "stateMutability": "nonpayable",
      "type": "function"
    },
    {
      "inputs": [
        {
          "internalType": "uint256",
          "name": "_budget",
          "type": "uint256"
        },
        {
          "internalType": "uint256",
          "name": "_minCostPerClick",
          "type": "uint256"
        },
        {
          "internalType": "uint256",
          "name": "_endDatetime",
          "type": "uint256"
        },
        {
          "internalType": "string",
          "name": "_cid",
          "type": "string"
        }
      ],
      "name": "createCampaign",
      "outputs": [
        {
          "internalType": "uint256",
          "name": "",
          "type": "uint256"
        }
      ],
      "stateMutability": "payable",
      "type": "function"
    },
    {
      "inputs": [],
      "name": "currentRequestId",
      "outputs": [
        {
          "internalType": "bytes32",
          "name": "",
          "type": "bytes32"
        }
      ],
      "stateMutability": "view",
      "type": "function"
    },
    {
      "inputs": [
        {
          "internalType": "uint256",
          "name": "campaignId",
          "type": "uint256"
        }
      ],
      "name": "disableCampaign",
      "outputs": [],
      "stateMutability": "nonpayable",
      "type": "function"
    },
    {
      "inputs": [
        {
          "internalType": "uint256",
          "name": "campaignId",
          "type": "uint256"
        }
      ],
      "name": "enableCampaign",
      "outputs": [],
      "stateMutability": "nonpayable",
      "type": "function"
    },
    {
      "inputs": [],
      "name": "getAvailableCampaigns",
      "outputs": [
        {
          "components": [
            {
              "internalType": "uint256",
              "name": "id",
              "type": "uint256"
            },
            {
              "internalType": "address",
              "name": "advertiser",
              "type": "address"
            },
            {
              "internalType": "uint256",
              "name": "budget",
              "type": "uint256"
            },
            {
              "internalType": "uint256",
              "name": "remaining",
              "type": "uint256"
            },
            {
              "internalType": "uint256",
              "name": "minCostPerClick",
              "type": "uint256"
            },
            {
              "internalType": "uint256",
              "name": "endDatetime",
              "type": "uint256"
            },
            {
              "internalType": "string",
              "name": "cid",
              "type": "string"
            },
            {
              "internalType": "bool",
              "name": "active",
              "type": "bool"
            }
          ],
          "internalType": "struct Zenith.Campaign[]",
          "name": "",
          "type": "tuple[]"
        }
      ],
      "stateMutability": "view",
      "type": "function"
    },
    {
      "inputs": [],
      "name": "getCampaignsOfAdvertiser",
      "outputs": [
        {
          "components": [
            {
              "components": [
                {
                  "internalType": "uint256",
                  "name": "id",
                  "type": "uint256"
                },
                {
                  "internalType": "address",
                  "name": "advertiser",
                  "type": "address"
                },
                {
                  "internalType": "uint256",
                  "name": "budget",
                  "type": "uint256"
                },
                {
                  "internalType": "uint256",
                  "name": "remaining",
                  "type": "uint256"
                },
                {
                  "internalType": "uint256",
                  "name": "minCostPerClick",
                  "type": "uint256"
                },
                {
                  "internalType": "uint256",
                  "name": "endDatetime",
                  "type": "uint256"
                },
                {
                  "internalType": "string",
                  "name": "cid",
                  "type": "string"
                },
                {
                  "internalType": "bool",
                  "name": "active",
                  "type": "bool"
                }
              ],
              "internalType": "struct Zenith.Campaign",
              "name": "campaign",
              "type": "tuple"
            },
            {
              "components": [
                {
                  "internalType": "uint256",
                  "name": "clickedTime",
                  "type": "uint256"
                },
                {
                  "internalType": "uint256",
                  "name": "costPerClick",
                  "type": "uint256"
                },
                {
                  "internalType": "address",
                  "name": "user",
                  "type": "address"
                },
                {
                  "internalType": "string",
                  "name": "country",
                  "type": "string"
                }
              ],
              "internalType": "struct Zenith.AdClick[]",
              "name": "adClicks",
              "type": "tuple[]"
            }
          ],
          "internalType": "struct Zenith.CampaignWithAdClicks[]",
          "name": "",
          "type": "tuple[]"
        }
      ],
      "stateMutability": "view",
      "type": "function"
    },
    {
      "inputs": [],
      "name": "getChainlinkToken",
      "outputs": [
        {
          "internalType": "contract LinkTokenInterface",
          "name": "",
          "type": "address"
        }
      ],
      "stateMutability": "view",
      "type": "function"
    },
    {
      "inputs": [],
      "name": "getLastProcessed",
      "outputs": [
        {
          "internalType": "uint256",
          "name": "",
          "type": "uint256"
        }
      ],
      "stateMutability": "view",
      "type": "function"
    },
    {
      "inputs": [],
      "name": "getRewardsOfUser",
      "outputs": [
        {
          "components": [
            {
              "internalType": "uint256",
              "name": "reward",
              "type": "uint256"
            },
            {
              "internalType": "uint256",
              "name": "adClicks",
              "type": "uint256"
            }
          ],
          "internalType": "struct Zenith.RewardWithAdClicks",
          "name": "",
          "type": "tuple"
        }
      ],
      "stateMutability": "view",
      "type": "function"
    },
    {
      "inputs": [],
      "name": "getSxTRelayContract",
      "outputs": [
        {
          "internalType": "contract ISxTRelayProxy",
          "name": "",
          "type": "address"
        }
      ],
      "stateMutability": "view",
      "type": "function"
    },
    {
      "inputs": [],
      "name": "jobId",
      "outputs": [
        {
          "internalType": "string",
          "name": "",
          "type": "string"
        }
      ],
      "stateMutability": "view",
      "type": "function"
    },
    {
      "inputs": [],
      "name": "numAdClicks",
      "outputs": [
        {
          "internalType": "uint256",
          "name": "",
          "type": "uint256"
        }
      ],
      "stateMutability": "view",
      "type": "function"
    },
    {
      "inputs": [],
      "name": "numCampaigns",
      "outputs": [
        {
          "internalType": "uint256",
          "name": "",
          "type": "uint256"
        }
      ],
      "stateMutability": "view",
      "type": "function"
    },
    {
      "inputs": [],
      "name": "owner",
      "outputs": [
        {
          "internalType": "address",
          "name": "",
          "type": "address"
        }
      ],
      "stateMutability": "view",
      "type": "function"
    },
    {
      "inputs": [
        {
          "internalType": "bytes32",
          "name": "_requestId",
          "type": "bytes32"
        },
        {
          "internalType": "string[][]",
          "name": "_data",
          "type": "string[][]"
        }
      ],
      "name": "recordAdClicks",
      "outputs": [],
      "stateMutability": "payable",
      "type": "function"
    },
    {
      "inputs": [
        {
          "internalType": "bytes32",
          "name": "",
          "type": "bytes32"
        }
      ],
      "name": "requests",
      "outputs": [
        {
          "internalType": "address",
          "name": "",
          "type": "address"
        }
      ],
      "stateMutability": "view",
      "type": "function"
    },
    {
      "inputs": [],
      "name": "totalRewards",
      "outputs": [
        {
          "internalType": "uint256",
          "name": "",
          "type": "uint256"
        }
      ],
      "stateMutability": "view",
      "type": "function"
    },
    {
      "inputs": [
        {
          "internalType": "address",
          "name": "to",
          "type": "address"
        }
      ],
      "name": "transferOwnership",
      "outputs": [],
      "stateMutability": "nonpayable",
      "type": "function"
    },
    {
      "inputs": [
        {
          "internalType": "string",
          "name": "_resourceId",
          "type": "string"
        }
      ],
      "name": "triggerRetrieveRewards",
      "outputs": [
        {
          "internalType": "bytes32",
          "name": "requestId",
          "type": "bytes32"
        }
      ],
      "stateMutability": "nonpayable",
      "type": "function"
    },
    {
      "inputs": [
        {
          "internalType": "address",
          "name": "to",
          "type": "address"
        },
        {
          "internalType": "uint256",
          "name": "amount",
          "type": "uint256"
        }
      ],
      "name": "withdrawChainlink",
      "outputs": [],
      "stateMutability": "nonpayable",
      "type": "function"
    }
  ],
  "bytecode": "0x60c0604052602060809081527f626339376336383064323932346633316130353831643934373331346363363460a0526006906200003e90826200034d565b506000600d556000600e556000600f553480156200005b57600080fd5b506040516200342e3803806200342e8339810160408190526200007e9162000432565b600160009081558290829033908190819081620000e25760405162461bcd60e51b815260206004820152601860248201527f43616e6e6f7420736574206f776e657220746f207a65726f000000000000000060448201526064015b60405180910390fd5b600180546001600160a01b0319166001600160a01b038481169190911790915581161562000115576200011581620001fc565b5050506001600160a01b0383166200016f5760405162461bcd60e51b815260206004820152602760248201526000805160206200340e8339815191526044820152664164647265737360c81b6064820152608401620000d9565b6001600160a01b038216620001c65760405162461bcd60e51b815260206004820152602760248201526000805160206200340e8339815191526044820152664164647265737360c81b6064820152608401620000d9565b50600380546001600160a01b039384166001600160a01b0319918216179091556004805492909316911617905550620004719050565b336001600160a01b03821603620002565760405162461bcd60e51b815260206004820152601760248201527f43616e6e6f74207472616e7366657220746f2073656c660000000000000000006044820152606401620000d9565b600280546001600160a01b0319166001600160a01b03838116918217909255600154604051919216907fed8889f560326eb138920d842192f0eb3dd22b4f139c87a2c57538e05bae127890600090a350565b634e487b7160e01b600052604160045260246000fd5b600181811c90821680620002d357607f821691505b602082108103620002f457634e487b7160e01b600052602260045260246000fd5b50919050565b601f8211156200034857600081815260208120601f850160051c81016020861015620003235750805b601f850160051c820191505b8181101562000344578281556001016200032f565b5050505b505050565b81516001600160401b03811115620003695762000369620002a8565b62000381816200037a8454620002be565b84620002fa565b602080601f831160018114620003b95760008415620003a05750858301515b600019600386901b1c1916600185901b17855562000344565b600085815260208120601f198616915b82811015620003ea57888601518255948401946001909101908401620003c9565b5085821015620004095787850151600019600388901b60f8161c191681555b5050505050600190811b01905550565b6001600160a01b03811681146200042f57600080fd5b50565b600080604083850312156200044657600080fd5b8251620004538162000419565b6020840151909250620004668162000419565b809150509250929050565b612f8d80620004816000396000f3fe60806040526004361061016a5760003560e01c80635ae2bfdb116100cb57806384962de71161007f5780639d866985116100595780639d8669851461039b578063c2939d97146103d1578063f2fde38b146103f357600080fd5b806384962de71461033b5780638cb1047a1461035b5780638da5cb5b1461037d57600080fd5b80636e5b46f5116100b05780636e5b46f5146102f157806379ba5097146103135780637ba774311461032857600080fd5b80635ae2bfdb146102b95780636cedeedd146102cf57600080fd5b8063369d5f3d1161012257806344afbb911161010757806344afbb9114610253578063516ef31c146102835780635968ec5f146102a357600080fd5b8063369d5f3d146102205780633c4f02da1461024057600080fd5b8063211c119811610153578063211c1198146101ca5780632c0f7b6f146101ec5780632ea6ef9e1461020257600080fd5b80630e15561a1461016f578063165d35e114610198575b600080fd5b34801561017b57600080fd5b50610185600f5481565b6040519081526020015b60405180910390f35b3480156101a457600080fd5b506004546001600160a01b03165b6040516001600160a01b03909116815260200161018f565b3480156101d657600080fd5b506101ea6101e53660046125a2565b610413565b005b3480156101f857600080fd5b50610185600d5481565b34801561020e57600080fd5b506003546001600160a01b03166101b2565b34801561022c57600080fd5b506101ea61023b3660046125ce565b610542565b6101ea61024e3660046125e7565b6105c1565b34801561025f57600080fd5b50610268610ab5565b6040805182518152602092830151928101929092520161018f565b34801561028f57600080fd5b5061018561029e366004612709565b610b35565b3480156102af57600080fd5b50610185600e5481565b3480156102c557600080fd5b5061018560055481565b3480156102db57600080fd5b506102e4610e83565b60405161018f919061280a565b3480156102fd57600080fd5b506103066111a5565b60405161018f91906128ff565b34801561031f57600080fd5b506101ea6113e5565b610185610336366004612961565b61149a565b34801561034757600080fd5b506101ea6103563660046125ce565b6117b1565b34801561036757600080fd5b50336000908152600b6020526040902054610185565b34801561038957600080fd5b506001546001600160a01b03166101b2565b3480156103a757600080fd5b506101b26103b63660046125ce565b600c602052600090815260409020546001600160a01b031681565b3480156103dd57600080fd5b506103e6611827565b60405161018f91906129bb565b3480156103ff57600080fd5b506101ea61040e3660046129ce565b6118b5565b61041b6118c9565b610423611922565b600480546040517fa9059cbb0000000000000000000000000000000000000000000000000000000081526001600160a01b0385811693820193909352602481018490526000929091169063a9059cbb906044016020604051808303816000875af1158015610495573d6000803e3d6000fd5b505050506040513d601f19601f820116820180604052508101906104b991906129eb565b9050806105335760405162461bcd60e51b815260206004820152602c60248201527f55736572526571756573743a20436861696e6c696e6b20746f6b656e2074726160448201527f6e73666572206661696c6564000000000000000000000000000000000000000060648201526084015b60405180910390fd5b5061053e6001600055565b5050565b60008181526007602052604090206001015481906001600160a01b0316331461056a57600080fd5b60008281526007602081905260409182902001805460ff19169055517f9620e459d78787bd1a66e8aa7f06df3177404e39240c06c264f48ce40fee1415906105b59084815260200190565b60405180910390a15050565b6003546001600160a01b03166001600160a01b0316638abf60776040518163ffffffff1660e01b8152600401602060405180830381865afa15801561060a573d6000803e3d6000fd5b505050506040513d601f19601f8201168201806040525081019061062e9190612a0d565b6001600160a01b0316336001600160a01b0316146106b45760405162461bcd60e51b815260206004820152603260248201527f55736572526571756573743a204f6e6c792063616c6c61626c6520627920537860448201527f54205265717565737420436f6e74726163740000000000000000000000000000606482015260840161052a565b6000838152600c60205260408120546001600160a01b0316815b83811015610a6f57600061075c8686848181106106ed576106ed612a2a565b90506020028101906106ff9190612a40565b600081811061071057610710612a2a565b90506020028101906107229190612a8a565b8080601f01602080910402602001604051908101604052809392919081815260200183838082843760009201919091525061197e92505050565b6001600160a01b0384166000908152600a6020908152604080832084845290915290205490915015158061079f5750600081815260076020526040902060030154155b156107aa5750610a5d565b60006107e48787858181106107c1576107c1612a2a565b90506020028101906107d39190612a40565b600481811061071057610710612a2a565b9050600061086c8888868181106107fd576107fd612a2a565b905060200281019061080f9190612a40565b600381811061082057610820612a2a565b90506020028101906108329190612a8a565b8080601f016020809104026020016040519081016040528093929190818152602001838380828437600092019190915250611a0092505050565b9050600061087b848484611b0b565b9050806001600160a01b0316866001600160a01b031603610a5857600084815260076020526040902060048101546003909101546108ba908290611b91565b905060006040518060800160405280868152602001838152602001896001600160a01b031681526020018c8c8a8181106108f6576108f6612a2a565b90506020028101906109089190612a40565b600281811061091957610919612a2a565b905060200281019061092b9190612a8a565b8080601f016020809104026020016040519081016040528093929190818152602001838380828437600092018290525093909452505088815260086020908152604080832080546001808201835591855293839020865160049095020193845591850151918301919091558301516002820180546001600160a01b0319166001600160a01b039092169190911790556060830151929350839290915060038201906109d69082612b56565b5050506001600160a01b0388166000908152600a602090815260408083208984528252808320859055600790915281206003018054849290610a19908490612c2c565b9091555050600e8054600090610a2e90612c3f565b90915550610a3c828a612c58565b985081600f6000828254610a509190612c58565b909155505050505b505050505b80610a6781612c3f565b9150506106ce565b508115610aae576040516001600160a01b0382169083156108fc029084906000818181858888f19350505050158015610aac573d6000803e3d6000fd5b505b5050505050565b604080518082019091526000808252602082015260008060005b600d54811015610b1d57336000908152600a60209081526040808320848452909152902054610afe9084612c58565b9250610b0982612c3f565b915080610b1581612c3f565b915050610acf565b50604080518082019091529182526020820152919050565b6000610b3f6118c9565b6004546001600160a01b03166001600160a01b031663095ea7b3610b6b6003546001600160a01b031690565b6001600160a01b0316638abf60776040518163ffffffff1660e01b8152600401602060405180830381865afa158015610ba8573d6000803e3d6000fd5b505050506040513d601f19601f82011682018060405250810190610bcc9190612a0d565b6003546001600160a01b03166001600160a01b0316631f78b0906040518163ffffffff1660e01b8152600401602060405180830381865afa158015610c15573d6000803e3d6000fd5b505050506040513d601f19601f82011682018060405250810190610c399190612c6b565b6040517fffffffff0000000000000000000000000000000000000000000000000000000060e085901b1681526001600160a01b03909216600483015260248201526044016020604051808303816000875af1158015610c9c573d6000803e3d6000fd5b505050506040513d601f19601f82011682018060405250810190610cc091906129eb565b610d325760405162461bcd60e51b815260206004820152602860248201527f55736572526571756573743a20496e73756666696369656e74204c494e4b206160448201527f6c6c6f77616e6365000000000000000000000000000000000000000000000000606482015260840161052a565b336000908152600b60205260408120548390610d4d90611bab565b610d58336014611c4b565b604051602001610d6a93929190612c84565b6040516020818303038152906040529050610d8d6003546001600160a01b031690565b6040517fe85b09970000000000000000000000000000000000000000000000000000000081526001600160a01b03919091169063e85b099790610dfd908490879030907f3c4f02da0000000000000000000000000000000000000000000000000000000090600690600401612dba565b6020604051808303816000875af1158015610e1c573d6000803e3d6000fd5b505050506040513d601f19601f82011682018060405250810190610e409190612c6b565b6000818152600c6020908152604080832080546001600160a01b031916339081179091558352600b90915290204290559150610e7e90506001600055565b919050565b336000908152600960205260408120546060918167ffffffffffffffff811115610eaf57610eaf612666565b604051908082528060200260200182016040528015610ee857816020015b610ed5612522565b815260200190600190039081610ecd5790505b50905060005b8281101561119e57336000908152600960205260408120805483908110610f1757610f17612a2a565b6000918252602080832090910154808352600782526040928390208351610100810185528154815260018201546001600160a01b0316938101939093526002810154938301939093526003830154606083015260048301546080830152600583015460a083015260068301805491945091929160c0840191610f9890612ad1565b80601f0160208091040260200160405190810160405280929190818152602001828054610fc490612ad1565b80156110115780601f10610fe657610100808354040283529160200191611011565b820191906000526020600020905b815481529060010190602001808311610ff457829003601f168201915b50505091835250506007919091015460ff161515602090910152835184908490811061103f5761103f612a2a565b6020908102919091018101519190915260008281526008825260408082208054825181860281018601909352808352919390929084015b8282101561116557600084815260209081902060408051608081018252600486029092018054835260018101549383019390935260028301546001600160a01b0316908201526003820180549192916060840191906110d490612ad1565b80601f016020809104026020016040519081016040528092919081815260200182805461110090612ad1565b801561114d5780601f106111225761010080835404028352916020019161114d565b820191906000526020600020905b81548152906001019060200180831161113057829003601f168201915b50505050508152505081526020019060010190611076565b5050505083838151811061117b5761117b612a2a565b60200260200101516020018190525050808061119690612c3f565b915050610eee565b5092915050565b60606000805b600d548110156111e3576111be81611e10565b156111d157816111cd81612c3f565b9250505b806111db81612c3f565b9150506111ab565b5060008167ffffffffffffffff8111156111ff576111ff612666565b60405190808252806020026020018201604052801561128357816020015b6112706040518061010001604052806000815260200160006001600160a01b0316815260200160008152602001600081526020016000815260200160008152602001606081526020016000151581525090565b81526020019060019003908161121d5790505b50905060005b600d5481101561119e5761129c81611e10565b156113d3576000818152600760209081526040918290208251610100810184528154815260018201546001600160a01b0316928101929092526002810154928201929092526003820154606082015260048201546080820152600582015460a082015260068201805491929160c08401919061131790612ad1565b80601f016020809104026020016040519081016040528092919081815260200182805461134390612ad1565b80156113905780601f1061136557610100808354040283529160200191611390565b820191906000526020600020905b81548152906001019060200180831161137357829003601f168201915b50505091835250506007919091015460ff161515602090910152826113b485612ea3565b945084815181106113c7576113c7612a2a565b60200260200101819052505b806113dd81612c3f565b915050611289565b6002546001600160a01b0316331461143f5760405162461bcd60e51b815260206004820152601660248201527f4d7573742062652070726f706f736564206f776e657200000000000000000000604482015260640161052a565b600180546001600160a01b0319808216339081179093556002805490911690556040516001600160a01b03909116919082907f8be0079c531659141344cd1fd0a4f28419497f9722a3daafe3b4186f6b6457e090600090a350565b60008085116114eb5760405162461bcd60e51b815260206004820152601d60248201527f427564676574206d7573742062652067726561746572207468616e2030000000604482015260640161052a565b84341461153a5760405162461bcd60e51b815260206004820152601760248201527f496e73756666696369656e742066756e64732073656e74000000000000000000604482015260640161052a565b6000841161158a5760405162461bcd60e51b815260206004820152601a60248201527f426964206d7573742062652067726561746572207468616e2030000000000000604482015260640161052a565b6115974262015180612c58565b83101561160c5760405162461bcd60e51b815260206004820152602260248201527f456e64206461746574696d65206d75737420626520696e20746865206675747560448201527f7265000000000000000000000000000000000000000000000000000000000000606482015260840161052a565b600082511161165d5760405162461bcd60e51b815260206004820152601360248201527f4369642063616e6e6f7420626520656d70747900000000000000000000000000604482015260640161052a565b6040805161010081018252600d548082523360208084019182528385018a8152606085018b8152608086018b815260a087018b815260c088018b8152600160e08a01819052600098895260079096529890962087518155945193850180546001600160a01b0319166001600160a01b0390951694909417909355905160028401555160038301555160048201559051600582015591519091829160068201906117069082612b56565b5060e091909101516007909101805460ff19169115159190911790556020818101516001600160a01b031660009081526009825260408120835181546001810183559183529282200191909155600d80549161176183612c3f565b909155505080516040805191825233602083015281018790527f63e3678c8493a16f8ba43ae9e547231762ca04526dac2c388bd2c26d894018519060600160405180910390a15195945050505050565b60008181526007602052604090206001015481906001600160a01b031633146117d957600080fd5b60008281526007602081905260409182902001805460ff19166001179055517fba42f99793097dbf156767849735bfd27114e73a9cc1b4c264144cfd154cde00906105b59084815260200190565b6006805461183490612ad1565b80601f016020809104026020016040519081016040528092919081815260200182805461186090612ad1565b80156118ad5780601f10611882576101008083540402835291602001916118ad565b820191906000526020600020905b81548152906001019060200180831161189057829003601f168201915b505050505081565b6118bd611922565b6118c681611f5a565b50565b60026000540361191b5760405162461bcd60e51b815260206004820152601f60248201527f5265656e7472616e637947756172643a207265656e7472616e742063616c6c00604482015260640161052a565b6002600055565b6001546001600160a01b0316331461197c5760405162461bcd60e51b815260206004820152601660248201527f4f6e6c792063616c6c61626c65206279206f776e657200000000000000000000604482015260640161052a565b565b60008181805b82518110156119f85760008382815181106119a1576119a1612a2a565b016020015160f81c9050603081108015906119bd575060398111155b156119e5576119cd603082612c2c565b6119d884600a612eba565b6119e29190612c58565b92505b50806119f081612c3f565b915050611984565b509392505050565b60606000829050600060028251611a179190612ed1565b67ffffffffffffffff811115611a2f57611a2f612666565b6040519080825280601f01601f191660200182016040528015611a59576020820181803683370190505b50905060005b60028351611a6d9190612ed1565b8110156119f857611aab83611a83836002612eba565b611a8e906001612c58565b81518110611a9e57611a9e612a2a565b016020015160f81c612004565b611aba84611a8e846002612eba565b611ac5906010612ef3565b611acf9190612f0f565b60f81b828281518110611ae457611ae4612a2a565b60200101906001600160f81b031916908160001a905350611b0481612c3f565b9050611a5f565b6000808484604051602001611b2a929190918252602082015260400190565b6040516020818303038152906040528051906020012090506000611b7b827f19457468657265756d205369676e6564204d6573736167653a0a3332000000006000908152601c91909152603c902090565b9050611b8781856121b6565b9695505050505050565b6000818310611ba05781611ba2565b825b90505b92915050565b60606000611bb8836121d2565b600101905060008167ffffffffffffffff811115611bd857611bd8612666565b6040519080825280601f01601f191660200182016040528015611c02576020820181803683370190505b5090508181016020015b600019017f3031323334353637383961626364656600000000000000000000000000000000600a86061a8153600a8504945084611c0c57509392505050565b60606000611c5a836002612eba565b611c65906002612c58565b67ffffffffffffffff811115611c7d57611c7d612666565b6040519080825280601f01601f191660200182016040528015611ca7576020820181803683370190505b509050600360fc1b81600081518110611cc257611cc2612a2a565b60200101906001600160f81b031916908160001a9053507f780000000000000000000000000000000000000000000000000000000000000081600181518110611d0d57611d0d612a2a565b60200101906001600160f81b031916908160001a9053506000611d31846002612eba565b611d3c906001612c58565b90505b6001811115611dc1577f303132333435363738396162636465660000000000000000000000000000000085600f1660108110611d7d57611d7d612a2a565b1a60f81b828281518110611d9357611d93612a2a565b60200101906001600160f81b031916908160001a90535060049490941c93611dba81612ea3565b9050611d3f565b508315611ba25760405162461bcd60e51b815260206004820181905260248201527f537472696e67733a20686578206c656e67746820696e73756666696369656e74604482015260640161052a565b60008181526007602090815260408083208151610100810183528154815260018201546001600160a01b0316938101939093526002810154918301919091526003810154606083015260048101546080830152600581015460a08301526006810180548493929160c0840191611e8590612ad1565b80601f0160208091040260200160405190810160405280929190818152602001828054611eb190612ad1565b8015611efe5780601f10611ed357610100808354040283529160200191611efe565b820191906000526020600020905b815481529060010190602001808311611ee157829003601f168201915b50505091835250506007919091015460ff16151560209091015260e08101519091508015611f2f5750428160a00151115b8015611f535750336000908152600a60209081526040808320868452909152902054155b9392505050565b336001600160a01b03821603611fb25760405162461bcd60e51b815260206004820152601760248201527f43616e6e6f74207472616e7366657220746f2073656c66000000000000000000604482015260640161052a565b600280546001600160a01b0319166001600160a01b03838116918217909255600154604051919216907fed8889f560326eb138920d842192f0eb3dd22b4f139c87a2c57538e05bae127890600090a350565b6000600360fc1b60f883901b6001600160f81b0319161080159061205657507f390000000000000000000000000000000000000000000000000000000000000060f883901b6001600160f81b03191611155b1561206657611ba5603083612f28565b7f610000000000000000000000000000000000000000000000000000000000000060f883901b6001600160f81b031916108015906120d257507f660000000000000000000000000000000000000000000000000000000000000060f883901b6001600160f81b03191611155b156120ee5760616120e483600a612f0f565b611ba59190612f28565b7f410000000000000000000000000000000000000000000000000000000000000060f883901b6001600160f81b0319161080159061215a57507f460000000000000000000000000000000000000000000000000000000000000060f883901b6001600160f81b03191611155b1561216c5760416120e483600a612f0f565b60405162461bcd60e51b815260040161052a9060208082526004908201527f6661696c00000000000000000000000000000000000000000000000000000000604082015260600190565b60008060006121c585856122b4565b915091506119f8816122f9565b6000807a184f03e93ff9f4daa797ed6e38ed64bf6a1f010000000000000000831061221b577a184f03e93ff9f4daa797ed6e38ed64bf6a1f010000000000000000830492506040015b6d04ee2d6d415b85acef81000000008310612247576d04ee2d6d415b85acef8100000000830492506020015b662386f26fc10000831061226557662386f26fc10000830492506010015b6305f5e100831061227d576305f5e100830492506008015b612710831061229157612710830492506004015b606483106122a3576064830492506002015b600a8310611ba55760010192915050565b60008082516041036122ea5760208301516040840151606085015160001a6122de8782858561245e565b945094505050506122f2565b506000905060025b9250929050565b600081600481111561230d5761230d612f41565b036123155750565b600181600481111561232957612329612f41565b036123765760405162461bcd60e51b815260206004820152601860248201527f45434453413a20696e76616c6964207369676e61747572650000000000000000604482015260640161052a565b600281600481111561238a5761238a612f41565b036123d75760405162461bcd60e51b815260206004820152601f60248201527f45434453413a20696e76616c6964207369676e6174757265206c656e67746800604482015260640161052a565b60038160048111156123eb576123eb612f41565b036118c65760405162461bcd60e51b815260206004820152602260248201527f45434453413a20696e76616c6964207369676e6174757265202773272076616c60448201527f7565000000000000000000000000000000000000000000000000000000000000606482015260840161052a565b6000807f7fffffffffffffffffffffffffffffff5d576e7357a4501ddfe92f46681b20a08311156124955750600090506003612519565b6040805160008082526020820180845289905260ff881692820192909252606081018690526080810185905260019060a0016020604051602081039080840390855afa1580156124e9573d6000803e3d6000fd5b5050604051601f1901519150506001600160a01b03811661251257600060019250925050612519565b9150600090505b94509492505050565b60405180604001604052806125806040518061010001604052806000815260200160006001600160a01b0316815260200160008152602001600081526020016000815260200160008152602001606081526020016000151581525090565b8152602001606081525090565b6001600160a01b03811681146118c657600080fd5b600080604083850312156125b557600080fd5b82356125c08161258d565b946020939093013593505050565b6000602082840312156125e057600080fd5b5035919050565b6000806000604084860312156125fc57600080fd5b83359250602084013567ffffffffffffffff8082111561261b57600080fd5b818601915086601f83011261262f57600080fd5b81358181111561263e57600080fd5b8760208260051b850101111561265357600080fd5b6020830194508093505050509250925092565b634e487b7160e01b600052604160045260246000fd5b600082601f83011261268d57600080fd5b813567ffffffffffffffff808211156126a8576126a8612666565b604051601f8301601f19908116603f011681019082821181831017156126d0576126d0612666565b816040528381528660208588010111156126e957600080fd5b836020870160208301376000602085830101528094505050505092915050565b60006020828403121561271b57600080fd5b813567ffffffffffffffff81111561273257600080fd5b61273e8482850161267c565b949350505050565b60005b83811015612761578181015183820152602001612749565b50506000910152565b60008151808452612782816020860160208601612746565b601f01601f19169290920160200192915050565b6000610100825184526001600160a01b03602084015116602085015260408301516040850152606083015160608501526080830151608085015260a083015160a085015260c08301518160c08601526127f18286018261276a565b91505060e0830151151560e08501528091505092915050565b60006020808301818452808551808352604092508286019150828160051b87010184880160005b838110156128f157888303603f190185528151805187855261285588860182612796565b91890151858303868b01528051808452908a0192915089820190600581901b83018b0160005b828110156128da57848203601f190184528551805183528d8101518e8401528c8101516001600160a01b03168d8401526060908101516080918401829052906128c68185018361276a565b978f0197958f01959350505060010161287b565b50988b019896505050928801925050600101612831565b509098975050505050505050565b6000602080830181845280855180835260408601915060408160051b870101925083870160005b8281101561295457603f19888603018452612942858351612796565b94509285019290850190600101612926565b5092979650505050505050565b6000806000806080858703121561297757600080fd5b843593506020850135925060408501359150606085013567ffffffffffffffff8111156129a357600080fd5b6129af8782880161267c565b91505092959194509250565b602081526000611ba2602083018461276a565b6000602082840312156129e057600080fd5b8135611ba28161258d565b6000602082840312156129fd57600080fd5b81518015158114611ba257600080fd5b600060208284031215612a1f57600080fd5b8151611ba28161258d565b634e487b7160e01b600052603260045260246000fd5b6000808335601e19843603018112612a5757600080fd5b83018035915067ffffffffffffffff821115612a7257600080fd5b6020019150600581901b36038213156122f257600080fd5b6000808335601e19843603018112612aa157600080fd5b83018035915067ffffffffffffffff821115612abc57600080fd5b6020019150368190038213156122f257600080fd5b600181811c90821680612ae557607f821691505b602082108103612b0557634e487b7160e01b600052602260045260246000fd5b50919050565b601f821115612b5157600081815260208120601f850160051c81016020861015612b325750805b601f850160051c820191505b81811015610aac57828155600101612b3e565b505050565b815167ffffffffffffffff811115612b7057612b70612666565b612b8481612b7e8454612ad1565b84612b0b565b602080601f831160018114612bb95760008415612ba15750858301515b600019600386901b1c1916600185901b178555610aac565b600085815260208120601f198616915b82811015612be857888601518255948401946001909101908401612bc9565b5085821015612c065787850151600019600388901b60f8161c191681555b5050505050600190811b01905550565b634e487b7160e01b600052601160045260246000fd5b81810381811115611ba557611ba5612c16565b600060018201612c5157612c51612c16565b5060010190565b80820180821115611ba557611ba5612c16565b600060208284031215612c7d57600080fd5b5051919050565b7f53454c4543542063616d706169676e5f69642c20636c69636b65722c20636f7581527f6e7472792c207369676e61747572652c207669657765645f74696d652046524f60208201527f4d20000000000000000000000000000000000000000000000000000000000000604082015260008451612d08816042850160208901612746565b7f205748455245207669657765645f74696d65203e2027000000000000000000006042918401918201528451612d45816058840160208901612746565b7f2720414e4420636c69636b6572203d2027000000000000000000000000000000605892909101918201528351612d83816069840160208801612746565b7f270000000000000000000000000000000000000000000000000000000000000060699290910191820152606a0195945050505050565b60a081526000612dcd60a083018861276a565b602083820381850152612de0828961276a565b91506001600160a01b03871660408501527fffffffff0000000000000000000000000000000000000000000000000000000086166060850152838203608085015260008554612e2e81612ad1565b80855260018281168015612e495760018114612e6357612e91565b60ff1984168787015282151560051b870186019450612e91565b896000528560002060005b84811015612e89578154898201890152908301908701612e6e565b880187019550505b50929c9b505050505050505050505050565b600081612eb257612eb2612c16565b506000190190565b8082028115828204841417611ba557611ba5612c16565b600082612eee57634e487b7160e01b600052601260045260246000fd5b500490565b60ff818116838216029081169081811461119e5761119e612c16565b60ff8181168382160190811115611ba557611ba5612c16565b60ff8281168282160390811115611ba557611ba5612c16565b634e487b7160e01b600052602160045260246000fdfea2646970667358221220d6f19e56640e99b1406812e881dc38a4f5f29160490416b2404a8a66925bb22364736f6c6343000812003355736572526571756573743a2043616e6e6f742073657420746f205a65726f20",
  "linkReferences": {},
  "deployedLinkReferences": {}
}