{
  "_format": "hh-sol-artifact-1",
  "contractName": "Zenith",
  "sourceName": "contracts/Zenith.sol",
  "abi": [
    {
      "inputs": [
        {
          "internalType": "address",
          "name": "_oracleId",
          "type": "address"
        },
        {
          "internalType": "string",
          "name": "_jobId",
          "type": "string"
        },
        {
          "internalType": "uint256",
          "name": "_fee",
          "type": "uint256"
        },
        {
          "internalType": "address",
          "name": "_token",
          "type": "address"
        }
      ],
      "stateMutability": "nonpayable",
      "type": "constructor"
    },
    {
      "anonymous": false,
      "inputs": [],
      "name": "CampaignClickDataUpdated",
      "type": "event"
    },
    {
      "anonymous": false,
      "inputs": [
        {
          "indexed": false,
          "internalType": "uint256",
          "name": "_campaigns",
          "type": "uint256"
        },
        {
          "indexed": false,
          "internalType": "address",
          "name": "_advertiser",
          "type": "address"
        },
        {
          "indexed": false,
          "internalType": "uint256",
          "name": "_budget",
          "type": "uint256"
        }
      ],
      "name": "CampaignCreated",
      "type": "event"
    },
    {
      "anonymous": false,
      "inputs": [
        {
          "indexed": false,
          "internalType": "uint256",
          "name": "_campaignId",
          "type": "uint256"
        }
      ],
      "name": "CampaignDisabled",
      "type": "event"
    },
    {
      "anonymous": false,
      "inputs": [
        {
          "indexed": false,
          "internalType": "uint256",
          "name": "_campaignId",
          "type": "uint256"
        }
      ],
      "name": "CampaignEnabled",
      "type": "event"
    },
    {
      "anonymous": false,
      "inputs": [
        {
          "indexed": true,
          "internalType": "bytes32",
          "name": "id",
          "type": "bytes32"
        }
      ],
      "name": "ChainlinkCancelled",
      "type": "event"
    },
    {
      "anonymous": false,
      "inputs": [
        {
          "indexed": true,
          "internalType": "bytes32",
          "name": "id",
          "type": "bytes32"
        }
      ],
      "name": "ChainlinkFulfilled",
      "type": "event"
    },
    {
      "anonymous": false,
      "inputs": [
        {
          "indexed": true,
          "internalType": "bytes32",
          "name": "id",
          "type": "bytes32"
        }
      ],
      "name": "ChainlinkRequested",
      "type": "event"
    },
    {
      "anonymous": false,
      "inputs": [
        {
          "indexed": true,
          "internalType": "address",
          "name": "from",
          "type": "address"
        },
        {
          "indexed": true,
          "internalType": "address",
          "name": "to",
          "type": "address"
        }
      ],
      "name": "OwnershipTransferRequested",
      "type": "event"
    },
    {
      "anonymous": false,
      "inputs": [
        {
          "indexed": true,
          "internalType": "address",
          "name": "from",
          "type": "address"
        },
        {
          "indexed": true,
          "internalType": "address",
          "name": "to",
          "type": "address"
        }
      ],
      "name": "OwnershipTransferred",
      "type": "event"
    },
    {
      "inputs": [],
      "name": "acceptOwnership",
      "outputs": [],
      "stateMutability": "nonpayable",
      "type": "function"
    },
    {
      "inputs": [
        {
          "internalType": "uint256",
          "name": "_budget",
          "type": "uint256"
        },
        {
          "internalType": "uint256",
          "name": "_minCostPerClick",
          "type": "uint256"
        },
        {
          "internalType": "uint256",
          "name": "_endDatetime",
          "type": "uint256"
        },
        {
          "internalType": "string",
          "name": "_name",
          "type": "string"
        },
        {
          "internalType": "string",
          "name": "_adURL",
          "type": "string"
        },
        {
          "internalType": "string",
          "name": "_imgURL",
          "type": "string"
        }
      ],
      "name": "createCampaign",
      "outputs": [
        {
          "internalType": "uint256",
          "name": "",
          "type": "uint256"
        }
      ],
      "stateMutability": "payable",
      "type": "function"
    },
    {
      "inputs": [
        {
          "internalType": "uint256",
          "name": "campaignId",
          "type": "uint256"
        }
      ],
      "name": "disableCampaign",
      "outputs": [],
      "stateMutability": "nonpayable",
      "type": "function"
    },
    {
      "inputs": [
        {
          "internalType": "uint256",
          "name": "campaignId",
          "type": "uint256"
        }
      ],
      "name": "enableCampaign",
      "outputs": [],
      "stateMutability": "nonpayable",
      "type": "function"
    },
    {
      "inputs": [],
      "name": "fee",
      "outputs": [
        {
          "internalType": "uint256",
          "name": "",
          "type": "uint256"
        }
      ],
      "stateMutability": "view",
      "type": "function"
    },
    {
      "inputs": [
        {
          "internalType": "bytes32",
          "name": "_requestId",
          "type": "bytes32"
        },
        {
          "internalType": "uint256",
          "name": "_data",
          "type": "uint256"
        }
      ],
      "name": "fulfillCPI",
      "outputs": [],
      "stateMutability": "nonpayable",
      "type": "function"
    },
    {
      "inputs": [],
      "name": "getAvailableCampaigns",
      "outputs": [
        {
          "components": [
            {
              "internalType": "uint256",
              "name": "id",
              "type": "uint256"
            },
            {
              "internalType": "address",
              "name": "advertiser",
              "type": "address"
            },
            {
              "internalType": "uint256",
              "name": "budget",
              "type": "uint256"
            },
            {
              "internalType": "uint256",
              "name": "remaining",
              "type": "uint256"
            },
            {
              "internalType": "uint256",
              "name": "minCostPerClick",
              "type": "uint256"
            },
            {
              "internalType": "string",
              "name": "name",
              "type": "string"
            },
            {
              "internalType": "string",
              "name": "adURL",
              "type": "string"
            },
            {
              "internalType": "string",
              "name": "imgURL",
              "type": "string"
            },
            {
              "internalType": "bool",
              "name": "active",
              "type": "bool"
            },
            {
              "internalType": "uint256",
              "name": "startDatetime",
              "type": "uint256"
            },
            {
              "internalType": "uint256",
              "name": "endDatetime",
              "type": "uint256"
            }
          ],
          "internalType": "struct Zenith.Campaign[]",
          "name": "",
          "type": "tuple[]"
        }
      ],
      "stateMutability": "view",
      "type": "function"
    },
    {
      "inputs": [],
      "name": "getCampaignsOfAdvertiser",
      "outputs": [
        {
          "components": [
            {
              "internalType": "uint256",
              "name": "id",
              "type": "uint256"
            },
            {
              "internalType": "address",
              "name": "advertiser",
              "type": "address"
            },
            {
              "internalType": "uint256",
              "name": "budget",
              "type": "uint256"
            },
            {
              "internalType": "uint256",
              "name": "remaining",
              "type": "uint256"
            },
            {
              "internalType": "uint256",
              "name": "minCostPerClick",
              "type": "uint256"
            },
            {
              "internalType": "string",
              "name": "name",
              "type": "string"
            },
            {
              "internalType": "string",
              "name": "adURL",
              "type": "string"
            },
            {
              "internalType": "string",
              "name": "imgURL",
              "type": "string"
            },
            {
              "internalType": "bool",
              "name": "active",
              "type": "bool"
            },
            {
              "internalType": "uint256",
              "name": "startDatetime",
              "type": "uint256"
            },
            {
              "internalType": "uint256",
              "name": "endDatetime",
              "type": "uint256"
            }
          ],
          "internalType": "struct Zenith.Campaign[]",
          "name": "",
          "type": "tuple[]"
        }
      ],
      "stateMutability": "view",
      "type": "function"
    },
    {
      "inputs": [],
      "name": "jobId",
      "outputs": [
        {
          "internalType": "string",
          "name": "",
          "type": "string"
        }
      ],
      "stateMutability": "view",
      "type": "function"
    },
    {
      "inputs": [],
      "name": "numAdClicks",
      "outputs": [
        {
          "internalType": "uint256",
          "name": "",
          "type": "uint256"
        }
      ],
      "stateMutability": "view",
      "type": "function"
    },
    {
      "inputs": [],
      "name": "numCampaigns",
      "outputs": [
        {
          "internalType": "uint256",
          "name": "",
          "type": "uint256"
        }
      ],
      "stateMutability": "view",
      "type": "function"
    },
    {
      "inputs": [],
      "name": "oracleId",
      "outputs": [
        {
          "internalType": "address",
          "name": "",
          "type": "address"
        }
      ],
      "stateMutability": "view",
      "type": "function"
    },
    {
      "inputs": [],
      "name": "owner",
      "outputs": [
        {
          "internalType": "address",
          "name": "",
          "type": "address"
        }
      ],
      "stateMutability": "view",
      "type": "function"
    },
    {
      "inputs": [
        {
          "components": [
            {
              "internalType": "uint256",
              "name": "id",
              "type": "uint256"
            },
            {
              "internalType": "uint256",
              "name": "campaignId",
              "type": "uint256"
            },
            {
              "internalType": "uint256",
              "name": "costPerClick",
              "type": "uint256"
            },
            {
              "internalType": "uint256",
              "name": "displayTime",
              "type": "uint256"
            },
            {
              "internalType": "address",
              "name": "user",
              "type": "address"
            },
            {
              "internalType": "bool",
              "name": "paid",
              "type": "bool"
            },
            {
              "internalType": "string",
              "name": "country",
              "type": "string"
            },
            {
              "internalType": "bytes",
              "name": "signature",
              "type": "bytes"
            }
          ],
          "internalType": "struct Zenith.AdClick[]",
          "name": "_adClicks",
          "type": "tuple[]"
        }
      ],
      "name": "recordAdClicks",
      "outputs": [],
      "stateMutability": "nonpayable",
      "type": "function"
    },
    {
      "inputs": [
        {
          "internalType": "string",
          "name": "_country",
          "type": "string"
        },
        {
          "internalType": "string",
          "name": "multiplier",
          "type": "string"
        }
      ],
      "name": "requestCPI",
      "outputs": [
        {
          "internalType": "bytes32",
          "name": "requestId",
          "type": "bytes32"
        }
      ],
      "stateMutability": "nonpayable",
      "type": "function"
    },
    {
      "inputs": [
        {
          "internalType": "bytes32",
          "name": "",
          "type": "bytes32"
        }
      ],
      "name": "requests",
      "outputs": [
        {
          "internalType": "string",
          "name": "",
          "type": "string"
        }
      ],
      "stateMutability": "view",
      "type": "function"
    },
    {
      "inputs": [
        {
          "internalType": "address",
          "name": "to",
          "type": "address"
        }
      ],
      "name": "transferOwnership",
      "outputs": [],
      "stateMutability": "nonpayable",
      "type": "function"
    }
  ],
  "bytecode": "0x608060405260016004556000600d556000600e553480156200002057600080fd5b5060405162005bb138038062005bb1833981810160405281019062000046919062000563565b338060008073ffffffffffffffffffffffffffffffffffffffff168273ffffffffffffffffffffffffffffffffffffffff1603620000bb576040517f08c379a0000000000000000000000000000000000000000000000000000000008152600401620000b29062000655565b60405180910390fd5b81600660006101000a81548173ffffffffffffffffffffffffffffffffffffffff021916908373ffffffffffffffffffffffffffffffffffffffff160217905550600073ffffffffffffffffffffffffffffffffffffffff168173ffffffffffffffffffffffffffffffffffffffff161462000143576200014281620001bb60201b60201c565b5b5050506200015781620002ec60201b60201c565b83600f60006101000a81548173ffffffffffffffffffffffffffffffffffffffff021916908373ffffffffffffffffffffffffffffffffffffffff1602179055508260109081620001a99190620008b8565b50816011819055505050505062000a11565b3373ffffffffffffffffffffffffffffffffffffffff168173ffffffffffffffffffffffffffffffffffffffff16036200022c576040517f08c379a00000000000000000000000000000000000000000000000000000000081526004016200022390620009ef565b60405180910390fd5b80600760006101000a81548173ffffffffffffffffffffffffffffffffffffffff021916908373ffffffffffffffffffffffffffffffffffffffff1602179055508073ffffffffffffffffffffffffffffffffffffffff16600660009054906101000a900473ffffffffffffffffffffffffffffffffffffffff1673ffffffffffffffffffffffffffffffffffffffff167fed8889f560326eb138920d842192f0eb3dd22b4f139c87a2c57538e05bae127860405160405180910390a350565b80600260006101000a81548173ffffffffffffffffffffffffffffffffffffffff021916908373ffffffffffffffffffffffffffffffffffffffff16021790555050565b6000604051905090565b600080fd5b600080fd5b600073ffffffffffffffffffffffffffffffffffffffff82169050919050565b6000620003718262000344565b9050919050565b620003838162000364565b81146200038f57600080fd5b50565b600081519050620003a38162000378565b92915050565b600080fd5b600080fd5b6000601f19601f8301169050919050565b7f4e487b7100000000000000000000000000000000000000000000000000000000600052604160045260246000fd5b620003fe82620003b3565b810181811067ffffffffffffffff8211171562000420576200041f620003c4565b5b80604052505050565b60006200043562000330565b9050620004438282620003f3565b919050565b600067ffffffffffffffff821115620004665762000465620003c4565b5b6200047182620003b3565b9050602081019050919050565b60005b838110156200049e57808201518184015260208101905062000481565b60008484015250505050565b6000620004c1620004bb8462000448565b62000429565b905082815260208101848484011115620004e057620004df620003ae565b5b620004ed8482856200047e565b509392505050565b600082601f8301126200050d576200050c620003a9565b5b81516200051f848260208601620004aa565b91505092915050565b6000819050919050565b6200053d8162000528565b81146200054957600080fd5b50565b6000815190506200055d8162000532565b92915050565b6000806000806080858703121562000580576200057f6200033a565b5b6000620005908782880162000392565b945050602085015167ffffffffffffffff811115620005b457620005b36200033f565b5b620005c287828801620004f5565b9350506040620005d5878288016200054c565b9250506060620005e88782880162000392565b91505092959194509250565b600082825260208201905092915050565b7f43616e6e6f7420736574206f776e657220746f207a65726f0000000000000000600082015250565b60006200063d601883620005f4565b91506200064a8262000605565b602082019050919050565b6000602082019050818103600083015262000670816200062e565b9050919050565b600081519050919050565b7f4e487b7100000000000000000000000000000000000000000000000000000000600052602260045260246000fd5b60006002820490506001821680620006ca57607f821691505b602082108103620006e057620006df62000682565b5b50919050565b60008190508160005260206000209050919050565b60006020601f8301049050919050565b600082821b905092915050565b6000600883026200074a7fffffffffffffffffffffffffffffffffffffffffffffffffffffffffffffffff826200070b565b6200075686836200070b565b95508019841693508086168417925050509392505050565b6000819050919050565b600062000799620007936200078d8462000528565b6200076e565b62000528565b9050919050565b6000819050919050565b620007b58362000778565b620007cd620007c482620007a0565b84845462000718565b825550505050565b600090565b620007e4620007d5565b620007f1818484620007aa565b505050565b5b8181101562000819576200080d600082620007da565b600181019050620007f7565b5050565b601f82111562000868576200083281620006e6565b6200083d84620006fb565b810160208510156200084d578190505b620008656200085c85620006fb565b830182620007f6565b50505b505050565b600082821c905092915050565b60006200088d600019846008026200086d565b1980831691505092915050565b6000620008a883836200087a565b9150826002028217905092915050565b620008c38262000677565b67ffffffffffffffff811115620008df57620008de620003c4565b5b620008eb8254620006b1565b620008f88282856200081d565b600060209050601f8311600181146200093057600084156200091b578287015190505b6200092785826200089a565b86555062000997565b601f1984166200094086620006e6565b60005b828110156200096a5784890151825560018201915060208501945060208101905062000943565b868310156200098a578489015162000986601f8916826200087a565b8355505b6001600288020188555050505b505050505050565b7f43616e6e6f74207472616e7366657220746f2073656c66000000000000000000600082015250565b6000620009d7601783620005f4565b9150620009e4826200099f565b602082019050919050565b6000602082019050818103600083015262000a0a81620009c8565b9050919050565b6151908062000a216000396000f3fe6080604052600436106100fe5760003560e01c80636fdce3c5116100955780639d866985116100645780639d86698514610304578063c2939d9714610341578063ddca3f431461036c578063f2fde38b14610397578063ff14e167146103c0576100fe565b80636fdce3c51461027057806379ba50971461029957806384962de7146102b05780638da5cb5b146102d9576100fe565b8063369d5f3d116100d1578063369d5f3d146101c65780635968ec5f146101ef5780636cedeedd1461021a5780636e5b46f514610245576100fe565b8063176790ab146101035780631ad417bf146101405780632121778d146101705780632c0f7b6f1461019b575b600080fd5b34801561010f57600080fd5b5061012a60048036038101906101259190613254565b6103e9565b60405161013791906132e5565b60405180910390f35b61015a60048036038101906101559190613336565b610747565b6040516101679190613426565b60405180910390f35b34801561017c57600080fd5b50610185610b72565b6040516101929190613482565b60405180910390f35b3480156101a757600080fd5b506101b0610b98565b6040516101bd9190613426565b60405180910390f35b3480156101d257600080fd5b506101ed60048036038101906101e8919061349d565b610b9e565b005b3480156101fb57600080fd5b50610204610c40565b6040516102119190613426565b60405180910390f35b34801561022657600080fd5b5061022f610c46565b60405161023c9190613741565b60405180910390f35b34801561025157600080fd5b5061025a61100f565b6040516102679190613741565b60405180910390f35b34801561027c57600080fd5b506102976004803603810190610292919061378f565b61138c565b005b3480156102a557600080fd5b506102ae61155a565b005b3480156102bc57600080fd5b506102d760048036038101906102d2919061349d565b6116f1565b005b3480156102e557600080fd5b506102ee611793565b6040516102fb9190613482565b60405180910390f35b34801561031057600080fd5b5061032b600480360381019061032691906137cf565b6117bd565b6040516103389190613846565b60405180910390f35b34801561034d57600080fd5b5061035661185d565b6040516103639190613846565b60405180910390f35b34801561037857600080fd5b506103816118eb565b60405161038e9190613426565b60405180910390f35b3480156103a357600080fd5b506103be60048036038101906103b99190613894565b6118f1565b005b3480156103cc57600080fd5b506103e760048036038101906103e29190613b80565b611905565b005b60006103f3611db5565b73ffffffffffffffffffffffffffffffffffffffff166323b872dd33306011546040518463ffffffff1660e01b815260040161043193929190613bc9565b6020604051808303816000875af1158015610450573d6000803e3d6000fd5b505050506040513d601f19601f820116820180604052508101906104749190613c15565b6104b3576040517f08c379a00000000000000000000000000000000000000000000000000000000081526004016104aa90613c8e565b60405180910390fd5b60006104d160106104c390613d8a565b30636fdce3c560e01b611ddf565b90506105526040518060400160405280600781526020017f73657276696365000000000000000000000000000000000000000000000000008152506040518060400160405280601281526020017f747275666c6174696f6e2f63757272656e74000000000000000000000000000081525083611e109092919063ffffffff16565b6105bb6040518060400160405280600481526020017f64617461000000000000000000000000000000000000000000000000000000008152508560405160200161059c9190613ecf565b60405160208183030381529060405283611e109092919063ffffffff16565b61063a6040518060400160405280600381526020017f61626900000000000000000000000000000000000000000000000000000000008152506040518060400160405280600781526020017f75696e743235360000000000000000000000000000000000000000000000000081525083611e109092919063ffffffff16565b6106846040518060400160405280600a81526020017f6d756c7469706c696572000000000000000000000000000000000000000000008152508483611e109092919063ffffffff16565b6106ee6040518060400160405280600881526020017f726566756e64546f0000000000000000000000000000000000000000000000008152506106de3373ffffffffffffffffffffffffffffffffffffffff166014611e43565b83611e109092919063ffffffff16565b8360126000848152602001908152602001600020908161070e919061409b565b5061073e600f60009054906101000a900473ffffffffffffffffffffffffffffffffffffffff168260115461207f565b91505092915050565b600080871161078b576040517f08c379a0000000000000000000000000000000000000000000000000000000008152600401610782906141b9565b60405180910390fd5b8634146107cd576040517f08c379a00000000000000000000000000000000000000000000000000000000081526004016107c490614225565b60405180910390fd5b60008611610810576040517f08c379a000000000000000000000000000000000000000000000000000000000815260040161080790614291565b60405180910390fd5b620151804261081f91906142e0565b851015610861576040517f08c379a000000000000000000000000000000000000000000000000000000000815260040161085890614386565b60405180910390fd5b60008451116108a5576040517f08c379a000000000000000000000000000000000000000000000000000000000815260040161089c906143f2565b60405180910390fd5b60008351116108e9576040517f08c379a00000000000000000000000000000000000000000000000000000000081526004016108e09061445e565b60405180910390fd5b600082511161092d576040517f08c379a0000000000000000000000000000000000000000000000000000000008152600401610924906144ca565b60405180910390fd5b6000604051806101600160405280600d5481526020013373ffffffffffffffffffffffffffffffffffffffff1681526020018981526020018981526020018881526020018681526020018581526020018481526020016001151581526020014281526020018781525090508060086000836000015181526020019081526020016000206000820151816000015560208201518160010160006101000a81548173ffffffffffffffffffffffffffffffffffffffff021916908373ffffffffffffffffffffffffffffffffffffffff16021790555060408201518160020155606082015181600301556080820151816004015560a0820151816005019081610a34919061409b565b5060c0820151816006019081610a4a919061409b565b5060e0820151816007019081610a60919061409b565b506101008201518160080160006101000a81548160ff021916908315150217905550610120820151816009015561014082015181600a0155905050600b6000826020015173ffffffffffffffffffffffffffffffffffffffff1673ffffffffffffffffffffffffffffffffffffffff16815260200190815260200160002081600001519080600181540180825580915050600190039060005260206000200160009091909190915055600d6000815480929190610b1c906144ea565b91905055507f63e3678c8493a16f8ba43ae9e547231762ca04526dac2c388bd2c26d894018518160000151338a604051610b5893929190614532565b60405180910390a180600001519150509695505050505050565b600f60009054906101000a900473ffffffffffffffffffffffffffffffffffffffff1681565b600d5481565b806008600082815260200190815260200160002060010160009054906101000a900473ffffffffffffffffffffffffffffffffffffffff1673ffffffffffffffffffffffffffffffffffffffff163373ffffffffffffffffffffffffffffffffffffffff1614610c0d57600080fd5b60006008600084815260200190815260200160002060080160006101000a81548160ff0219169083151502179055505050565b600e5481565b60606000600b60003373ffffffffffffffffffffffffffffffffffffffff1673ffffffffffffffffffffffffffffffffffffffff16815260200190815260200160002080549050905060008167ffffffffffffffff811115610cab57610caa613129565b5b604051908082528060200260200182016040528015610ce457816020015b610cd1613001565b815260200190600190039081610cc95790505b50905060005b82811015611006576000600b60003373ffffffffffffffffffffffffffffffffffffffff1673ffffffffffffffffffffffffffffffffffffffff1681526020019081526020016000208281548110610d4557610d44614569565b5b906000526020600020015490506008600082815260200190815260200160002060405180610160016040529081600082015481526020016001820160009054906101000a900473ffffffffffffffffffffffffffffffffffffffff1673ffffffffffffffffffffffffffffffffffffffff1673ffffffffffffffffffffffffffffffffffffffff168152602001600282015481526020016003820154815260200160048201548152602001600582018054610dff90613cdd565b80601f0160208091040260200160405190810160405280929190818152602001828054610e2b90613cdd565b8015610e785780601f10610e4d57610100808354040283529160200191610e78565b820191906000526020600020905b815481529060010190602001808311610e5b57829003601f168201915b50505050508152602001600682018054610e9190613cdd565b80601f0160208091040260200160405190810160405280929190818152602001828054610ebd90613cdd565b8015610f0a5780601f10610edf57610100808354040283529160200191610f0a565b820191906000526020600020905b815481529060010190602001808311610eed57829003601f168201915b50505050508152602001600782018054610f2390613cdd565b80601f0160208091040260200160405190810160405280929190818152602001828054610f4f90613cdd565b8015610f9c5780601f10610f7157610100808354040283529160200191610f9c565b820191906000526020600020905b815481529060010190602001808311610f7f57829003601f168201915b505050505081526020016008820160009054906101000a900460ff1615151515815260200160098201548152602001600a82015481525050838381518110610fe757610fe6614569565b5b6020026020010181905250508080610ffe906144ea565b915050610cea565b50809250505090565b60606000805b600d5481101561104f576110288161214b565b1561103c578180611038906144ea565b9250505b8080611047906144ea565b915050611015565b5060008167ffffffffffffffff81111561106c5761106b613129565b5b6040519080825280602002602001820160405280156110a557816020015b611092613001565b81526020019060019003908161108a5790505b50905060005b600d54811015611383576110be8161214b565b15611370576008600082815260200190815260200160002060405180610160016040529081600082015481526020016001820160009054906101000a900473ffffffffffffffffffffffffffffffffffffffff1673ffffffffffffffffffffffffffffffffffffffff1673ffffffffffffffffffffffffffffffffffffffff16815260200160028201548152602001600382015481526020016004820154815260200160058201805461117090613cdd565b80601f016020809104026020016040519081016040528092919081815260200182805461119c90613cdd565b80156111e95780601f106111be576101008083540402835291602001916111e9565b820191906000526020600020905b8154815290600101906020018083116111cc57829003601f168201915b5050505050815260200160068201805461120290613cdd565b80601f016020809104026020016040519081016040528092919081815260200182805461122e90613cdd565b801561127b5780601f106112505761010080835404028352916020019161127b565b820191906000526020600020905b81548152906001019060200180831161125e57829003601f168201915b5050505050815260200160078201805461129490613cdd565b80601f01602080910402602001604051908101604052809291908181526020018280546112c090613cdd565b801561130d5780601f106112e25761010080835404028352916020019161130d565b820191906000526020600020905b8154815290600101906020018083116112f057829003601f168201915b505050505081526020016008820160009054906101000a900460ff1615151515815260200160098201548152602001600a82015481525050828461135090614598565b9450848151811061136457611363614569565b5b60200260200101819052505b808061137b906144ea565b9150506110ab565b50809250505090565b816005600082815260200190815260200160002060009054906101000a900473ffffffffffffffffffffffffffffffffffffffff1673ffffffffffffffffffffffffffffffffffffffff163373ffffffffffffffffffffffffffffffffffffffff161461142e576040517f08c379a000000000000000000000000000000000000000000000000000000000815260040161142590614633565b60405180910390fd5b6005600082815260200190815260200160002060006101000a81549073ffffffffffffffffffffffffffffffffffffffff0219169055807f7cc135e0cebb02c3480ae5d74d377283180a2601f8f644edf7987b009316c63a60405160405180910390a260006012600085815260200190815260200160002080546114b190613cdd565b80601f01602080910402602001604051908101604052809291908181526020018280546114dd90613cdd565b801561152a5780601f106114ff5761010080835404028352916020019161152a565b820191906000526020600020905b81548152906001019060200180831161150d57829003601f168201915b50505050509050826013826040516115429190614653565b90815260200160405180910390208190555050505050565b600760009054906101000a900473ffffffffffffffffffffffffffffffffffffffff1673ffffffffffffffffffffffffffffffffffffffff163373ffffffffffffffffffffffffffffffffffffffff16146115ea576040517f08c379a00000000000000000000000000000000000000000000000000000000081526004016115e1906146b6565b60405180910390fd5b6000600660009054906101000a900473ffffffffffffffffffffffffffffffffffffffff16905033600660006101000a81548173ffffffffffffffffffffffffffffffffffffffff021916908373ffffffffffffffffffffffffffffffffffffffff1602179055506000600760006101000a81548173ffffffffffffffffffffffffffffffffffffffff021916908373ffffffffffffffffffffffffffffffffffffffff1602179055503373ffffffffffffffffffffffffffffffffffffffff168173ffffffffffffffffffffffffffffffffffffffff167f8be0079c531659141344cd1fd0a4f28419497f9722a3daafe3b4186f6b6457e060405160405180910390a350565b806008600082815260200190815260200160002060010160009054906101000a900473ffffffffffffffffffffffffffffffffffffffff1673ffffffffffffffffffffffffffffffffffffffff163373ffffffffffffffffffffffffffffffffffffffff161461176057600080fd5b60016008600084815260200190815260200160002060080160006101000a81548160ff0219169083151502179055505050565b6000600660009054906101000a900473ffffffffffffffffffffffffffffffffffffffff16905090565b601260205280600052604060002060009150905080546117dc90613cdd565b80601f016020809104026020016040519081016040528092919081815260200182805461180890613cdd565b80156118555780601f1061182a57610100808354040283529160200191611855565b820191906000526020600020905b81548152906001019060200180831161183857829003601f168201915b505050505081565b6010805461186a90613cdd565b80601f016020809104026020016040519081016040528092919081815260200182805461189690613cdd565b80156118e35780601f106118b8576101008083540402835291602001916118e3565b820191906000526020600020905b8154815290600101906020018083116118c657829003601f168201915b505050505081565b60115481565b6118f9612468565b611902816124fa565b50565b60005b8151811015611db15760003083838151811061192757611926614569565b5b60200260200101516080015184848151811061194657611945614569565b5b60200260200101516020015185858151811061196557611964614569565b5b60200260200101516060015186868151811061198457611983614569565b5b602002602001015160c001516040516020016119a495949392919061473f565b60405160208183030381529060405280519060200120905060006119f78484815181106119d4576119d3614569565b5b602002602001015160e001516119e984612628565b61265890919063ffffffff16565b90508073ffffffffffffffffffffffffffffffffffffffff16848481518110611a2357611a22614569565b5b60200260200101516080015173ffffffffffffffffffffffffffffffffffffffff1603611d9c5760006013858581518110611a6157611a60614569565b5b602002602001015160c00151604051611a7a9190614653565b9081526020016040518091039020549050611ac98160086000888881518110611aa657611aa5614569565b5b60200260200101516020015181526020019081526020016000206003015461267f565b90506000858581518110611ae057611adf614569565b5b6020026020010151602001519050600e54868681518110611b0457611b03614569565b5b6020026020010151600001818152505081868681518110611b2857611b27614569565b5b602002602001015160400181815250506000868681518110611b4d57611b4c614569565b5b602002602001015160a0019015159081151581525050858581518110611b7657611b75614569565b5b602002602001015160096000888881518110611b9557611b94614569565b5b60200260200101516000015181526020019081526020016000206000820151816000015560208201518160010155604082015181600201556060820151816003015560808201518160040160006101000a81548173ffffffffffffffffffffffffffffffffffffffff021916908373ffffffffffffffffffffffffffffffffffffffff16021790555060a08201518160040160146101000a81548160ff02191690831515021790555060c0820151816005019081611c53919061409b565b5060e0820151816006019081611c699190614800565b50905050600a6000828152602001908152602001600020868681518110611c9357611c92614569565b5b6020026020010151600001519080600181540180825580915050600190039060005260206000200160009091909190915055858581518110611cd857611cd7614569565b5b602002602001015160000151600c6000888881518110611cfb57611cfa614569565b5b60200260200101516080015173ffffffffffffffffffffffffffffffffffffffff1673ffffffffffffffffffffffffffffffffffffffff16815260200190815260200160002060008381526020019081526020016000208190555081600860008381526020019081526020016000206003016000828254611d7c91906148d2565b92505081905550600e60008154611d92906144ea565b9190508190555050505b50508080611da9906144ea565b915050611908565b5050565b6000600260009054906101000a900473ffffffffffffffffffffffffffffffffffffffff16905090565b611de7613073565b611def613073565b611e0685858584612698909392919063ffffffff16565b9150509392505050565b611e2782846080015161274890919063ffffffff16565b611e3e81846080015161274890919063ffffffff16565b505050565b606060006002836002611e569190614906565b611e6091906142e0565b67ffffffffffffffff811115611e7957611e78613129565b5b6040519080825280601f01601f191660200182016040528015611eab5781602001600182028036833780820191505090505b5090507f300000000000000000000000000000000000000000000000000000000000000081600081518110611ee357611ee2614569565b5b60200101907effffffffffffffffffffffffffffffffffffffffffffffffffffffffffffff1916908160001a9053507f780000000000000000000000000000000000000000000000000000000000000081600181518110611f4757611f46614569565b5b60200101907effffffffffffffffffffffffffffffffffffffffffffffffffffffffffffff1916908160001a90535060006001846002611f879190614906565b611f9191906142e0565b90505b6001811115612031577f3031323334353637383961626364656600000000000000000000000000000000600f861660108110611fd357611fd2614569565b5b1a60f81b828281518110611fea57611fe9614569565b5b60200101907effffffffffffffffffffffffffffffffffffffffffffffffffffffffffffff1916908160001a905350600485901c94508061202a90614598565b9050611f94565b5060008414612075576040517f08c379a000000000000000000000000000000000000000000000000000000000815260040161206c90614994565b60405180910390fd5b8091505092915050565b600080600454905060018161209491906142e0565b6004819055506000634042994660e01b60008087600001513089604001518760018c60800151600001516040516024016120d5989796959493929190614a39565b604051602081830303815290604052907bffffffffffffffffffffffffffffffffffffffffffffffffffffffff19166020820180517bffffffffffffffffffffffffffffffffffffffffffffffffffffffff838183161783525050505090506121408683868461276d565b925050509392505050565b6000806008600084815260200190815260200160002060405180610160016040529081600082015481526020016001820160009054906101000a900473ffffffffffffffffffffffffffffffffffffffff1673ffffffffffffffffffffffffffffffffffffffff1673ffffffffffffffffffffffffffffffffffffffff1681526020016002820154815260200160038201548152602001600482015481526020016005820180546121fb90613cdd565b80601f016020809104026020016040519081016040528092919081815260200182805461222790613cdd565b80156122745780601f1061224957610100808354040283529160200191612274565b820191906000526020600020905b81548152906001019060200180831161225757829003601f168201915b5050505050815260200160068201805461228d90613cdd565b80601f01602080910402602001604051908101604052809291908181526020018280546122b990613cdd565b80156123065780601f106122db57610100808354040283529160200191612306565b820191906000526020600020905b8154815290600101906020018083116122e957829003601f168201915b5050505050815260200160078201805461231f90613cdd565b80601f016020809104026020016040519081016040528092919081815260200182805461234b90613cdd565b80156123985780601f1061236d57610100808354040283529160200191612398565b820191906000526020600020905b81548152906001019060200180831161237b57829003601f168201915b505050505081526020016008820160009054906101000a900460ff1615151515815260200160098201548152602001600a8201548152505090506000600c60003373ffffffffffffffffffffffffffffffffffffffff1673ffffffffffffffffffffffffffffffffffffffff1681526020019081526020016000206000858152602001908152602001600020549050816101000151801561243d575042826101400151115b801561245f575060006009600083815260200190815260200160002060030154145b92505050919050565b600660009054906101000a900473ffffffffffffffffffffffffffffffffffffffff1673ffffffffffffffffffffffffffffffffffffffff163373ffffffffffffffffffffffffffffffffffffffff16146124f8576040517f08c379a00000000000000000000000000000000000000000000000000000000081526004016124ef90614b0a565b60405180910390fd5b565b3373ffffffffffffffffffffffffffffffffffffffff168173ffffffffffffffffffffffffffffffffffffffff1603612568576040517f08c379a000000000000000000000000000000000000000000000000000000000815260040161255f90614b76565b60405180910390fd5b80600760006101000a81548173ffffffffffffffffffffffffffffffffffffffff021916908373ffffffffffffffffffffffffffffffffffffffff1602179055508073ffffffffffffffffffffffffffffffffffffffff16600660009054906101000a900473ffffffffffffffffffffffffffffffffffffffff1673ffffffffffffffffffffffffffffffffffffffff167fed8889f560326eb138920d842192f0eb3dd22b4f139c87a2c57538e05bae127860405160405180910390a350565b60008160405160200161263b9190614c03565b604051602081830303815290604052805190602001209050919050565b60008060006126678585612902565b9150915061267481612953565b819250505092915050565b600081831061268e5781612690565b825b905092915050565b6126a0613073565b6126b08560800151610100612ab9565b508385600001818152505082856020019073ffffffffffffffffffffffffffffffffffffffff16908173ffffffffffffffffffffffffffffffffffffffff16815250508185604001907bffffffffffffffffffffffffffffffffffffffffffffffffffffffff191690817bffffffffffffffffffffffffffffffffffffffffffffffffffffffff191681525050849050949350505050565b6127558260038351612b23565b6127688183612ca890919063ffffffff16565b505050565b60003084604051602001612782929190614c86565b604051602081830303815290604052805190602001209050846005600083815260200190815260200160002060006101000a81548173ffffffffffffffffffffffffffffffffffffffff021916908373ffffffffffffffffffffffffffffffffffffffff160217905550807fb5e6e01e79f91267dc17b4e6314d5d4d03593d2ceee0fbb452b750bd70ea5af960405160405180910390a2600260009054906101000a900473ffffffffffffffffffffffffffffffffffffffff1673ffffffffffffffffffffffffffffffffffffffff16634000aea08685856040518463ffffffff1660e01b815260040161287893929190614cb2565b6020604051808303816000875af1158015612897573d6000803e3d6000fd5b505050506040513d601f19601f820116820180604052508101906128bb9190613c15565b6128fa576040517f08c379a00000000000000000000000000000000000000000000000000000000081526004016128f190614d62565b60405180910390fd5b949350505050565b60008060418351036129435760008060006020860151925060408601519150606086015160001a905061293787828585612cca565b9450945050505061294c565b60006002915091505b9250929050565b6000600481111561296757612966614d82565b5b81600481111561297a57612979614d82565b5b0315612ab6576001600481111561299457612993614d82565b5b8160048111156129a7576129a6614d82565b5b036129e7576040517f08c379a00000000000000000000000000000000000000000000000000000000081526004016129de90614dfd565b60405180910390fd5b600260048111156129fb576129fa614d82565b5b816004811115612a0e57612a0d614d82565b5b03612a4e576040517f08c379a0000000000000000000000000000000000000000000000000000000008152600401612a4590614e69565b60405180910390fd5b60036004811115612a6257612a61614d82565b5b816004811115612a7557612a74614d82565b5b03612ab5576040517f08c379a0000000000000000000000000000000000000000000000000000000008152600401612aac90614efb565b60405180910390fd5b5b50565b612ac16130e0565b6000602083612ad09190614f4a565b14612afc57602082612ae29190614f4a565b6020612aee91906148d2565b82612af991906142e0565b91505b81836020018181525050604051808452600081528281016020016040525082905092915050565b60178167ffffffffffffffff1611612b5a57612b548160058460ff16901b60ff161784612dac90919063ffffffff16565b50612ca3565b60ff8167ffffffffffffffff1611612bb057612b89601860058460ff16901b1784612dac90919063ffffffff16565b50612baa8167ffffffffffffffff16600185612dcc9092919063ffffffff16565b50612ca2565b61ffff8167ffffffffffffffff1611612c0757612be0601960058460ff16901b1784612dac90919063ffffffff16565b50612c018167ffffffffffffffff16600285612dcc9092919063ffffffff16565b50612ca1565b63ffffffff8167ffffffffffffffff1611612c6057612c39601a60058460ff16901b1784612dac90919063ffffffff16565b50612c5a8167ffffffffffffffff16600485612dcc9092919063ffffffff16565b50612ca0565b612c7d601b60058460ff16901b1784612dac90919063ffffffff16565b50612c9e8167ffffffffffffffff16600885612dcc9092919063ffffffff16565b505b5b5b5b505050565b612cb06130e0565b612cc283846000015151848551612dee565b905092915050565b6000807f7fffffffffffffffffffffffffffffff5d576e7357a4501ddfe92f46681b20a08360001c1115612d05576000600391509150612da3565b600060018787878760405160008152602001604052604051612d2a9493929190614f97565b6020604051602081039080840390855afa158015612d4c573d6000803e3d6000fd5b505050602060405103519050600073ffffffffffffffffffffffffffffffffffffffff168173ffffffffffffffffffffffffffffffffffffffff1603612d9a57600060019250925050612da3565b80600092509250505b94509492505050565b612db46130e0565b612dc48384600001515184612edd565b905092915050565b612dd46130e0565b612de5848560000151518585612f33565b90509392505050565b612df66130e0565b8251821115612e0457600080fd5b84602001518285612e1591906142e0565b1115612e4a57612e49856002612e3a88602001518887612e3591906142e0565b612fc1565b612e449190614906565b612fdd565b5b600080865180518760208301019350808887011115612e695787860182525b60208701925050505b60208410612eb05780518252602082612e8b91906142e0565b9150602081612e9a91906142e0565b9050602084612ea991906148d2565b9350612e72565b60006001856020036101000a03905080198251168184511681811785525050508692505050949350505050565b612ee56130e0565b83602001518310612f0b57612f0a8460028660200151612f059190614906565b612fdd565b5b83518051602085830101848153818603612f26576001820183525b5050508390509392505050565b612f3b6130e0565b84602001518483612f4c91906142e0565b1115612f7457612f738560028685612f6491906142e0565b612f6e9190614906565b612fdd565b5b6000600183610100612f86919061510f565b612f9091906148d2565b90508551838682010185831982511617815281518588011115612fb35784870182525b505085915050949350505050565b600081831115612fd357829050612fd7565b8190505b92915050565b600082600001519050612ff08383612ab9565b50612ffb8382612ca8565b50505050565b60405180610160016040528060008152602001600073ffffffffffffffffffffffffffffffffffffffff16815260200160008152602001600081526020016000815260200160608152602001606081526020016060815260200160001515815260200160008152602001600081525090565b6040518060a0016040528060008019168152602001600073ffffffffffffffffffffffffffffffffffffffff16815260200160007bffffffffffffffffffffffffffffffffffffffffffffffffffffffff19168152602001600081526020016130da6130e0565b81525090565b604051806040016040528060608152602001600081525090565b6000604051905090565b600080fd5b600080fd5b600080fd5b600080fd5b6000601f19601f8301169050919050565b7f4e487b7100000000000000000000000000000000000000000000000000000000600052604160045260246000fd5b61316182613118565b810181811067ffffffffffffffff821117156131805761317f613129565b5b80604052505050565b60006131936130fa565b905061319f8282613158565b919050565b600067ffffffffffffffff8211156131bf576131be613129565b5b6131c882613118565b9050602081019050919050565b82818337600083830152505050565b60006131f76131f2846131a4565b613189565b90508281526020810184848401111561321357613212613113565b5b61321e8482856131d5565b509392505050565b600082601f83011261323b5761323a61310e565b5b813561324b8482602086016131e4565b91505092915050565b6000806040838503121561326b5761326a613104565b5b600083013567ffffffffffffffff81111561328957613288613109565b5b61329585828601613226565b925050602083013567ffffffffffffffff8111156132b6576132b5613109565b5b6132c285828601613226565b9150509250929050565b6000819050919050565b6132df816132cc565b82525050565b60006020820190506132fa60008301846132d6565b92915050565b6000819050919050565b61331381613300565b811461331e57600080fd5b50565b6000813590506133308161330a565b92915050565b60008060008060008060c0878903121561335357613352613104565b5b600061336189828a01613321565b965050602061337289828a01613321565b955050604061338389828a01613321565b945050606087013567ffffffffffffffff8111156133a4576133a3613109565b5b6133b089828a01613226565b935050608087013567ffffffffffffffff8111156133d1576133d0613109565b5b6133dd89828a01613226565b92505060a087013567ffffffffffffffff8111156133fe576133fd613109565b5b61340a89828a01613226565b9150509295509295509295565b61342081613300565b82525050565b600060208201905061343b6000830184613417565b92915050565b600073ffffffffffffffffffffffffffffffffffffffff82169050919050565b600061346c82613441565b9050919050565b61347c81613461565b82525050565b60006020820190506134976000830184613473565b92915050565b6000602082840312156134b3576134b2613104565b5b60006134c184828501613321565b91505092915050565b600081519050919050565b600082825260208201905092915050565b6000819050602082019050919050565b6134ff81613300565b82525050565b61350e81613461565b82525050565b600081519050919050565b600082825260208201905092915050565b60005b8381101561354e578082015181840152602081019050613533565b60008484015250505050565b600061356582613514565b61356f818561351f565b935061357f818560208601613530565b61358881613118565b840191505092915050565b60008115159050919050565b6135a881613593565b82525050565b6000610160830160008301516135c760008601826134f6565b5060208301516135da6020860182613505565b5060408301516135ed60408601826134f6565b50606083015161360060608601826134f6565b50608083015161361360808601826134f6565b5060a083015184820360a086015261362b828261355a565b91505060c083015184820360c0860152613645828261355a565b91505060e083015184820360e086015261365f828261355a565b91505061010083015161367661010086018261359f565b5061012083015161368b6101208601826134f6565b506101408301516136a06101408601826134f6565b508091505092915050565b60006136b783836135ae565b905092915050565b6000602082019050919050565b60006136d7826134ca565b6136e181856134d5565b9350836020820285016136f3856134e6565b8060005b8581101561372f578484038952815161371085826136ab565b945061371b836136bf565b925060208a019950506001810190506136f7565b50829750879550505050505092915050565b6000602082019050818103600083015261375b81846136cc565b905092915050565b61376c816132cc565b811461377757600080fd5b50565b60008135905061378981613763565b92915050565b600080604083850312156137a6576137a5613104565b5b60006137b48582860161377a565b92505060206137c585828601613321565b9150509250929050565b6000602082840312156137e5576137e4613104565b5b60006137f38482850161377a565b91505092915050565b600082825260208201905092915050565b600061381882613514565b61382281856137fc565b9350613832818560208601613530565b61383b81613118565b840191505092915050565b60006020820190508181036000830152613860818461380d565b905092915050565b61387181613461565b811461387c57600080fd5b50565b60008135905061388e81613868565b92915050565b6000602082840312156138aa576138a9613104565b5b60006138b88482850161387f565b91505092915050565b600067ffffffffffffffff8211156138dc576138db613129565b5b602082029050602081019050919050565b600080fd5b600080fd5b600080fd5b61390581613593565b811461391057600080fd5b50565b600081359050613922816138fc565b92915050565b600067ffffffffffffffff82111561394357613942613129565b5b61394c82613118565b9050602081019050919050565b600061396c61396784613928565b613189565b90508281526020810184848401111561398857613987613113565b5b6139938482856131d5565b509392505050565b600082601f8301126139b0576139af61310e565b5b81356139c0848260208601613959565b91505092915050565b600061010082840312156139e0576139df6138f2565b5b6139eb610100613189565b905060006139fb84828501613321565b6000830152506020613a0f84828501613321565b6020830152506040613a2384828501613321565b6040830152506060613a3784828501613321565b6060830152506080613a4b8482850161387f565b60808301525060a0613a5f84828501613913565b60a08301525060c082013567ffffffffffffffff811115613a8357613a826138f7565b5b613a8f84828501613226565b60c08301525060e082013567ffffffffffffffff811115613ab357613ab26138f7565b5b613abf8482850161399b565b60e08301525092915050565b6000613ade613ad9846138c1565b613189565b90508083825260208201905060208402830185811115613b0157613b006138ed565b5b835b81811015613b4857803567ffffffffffffffff811115613b2657613b2561310e565b5b808601613b3389826139c9565b85526020850194505050602081019050613b03565b5050509392505050565b600082601f830112613b6757613b6661310e565b5b8135613b77848260208601613acb565b91505092915050565b600060208284031215613b9657613b95613104565b5b600082013567ffffffffffffffff811115613bb457613bb3613109565b5b613bc084828501613b52565b91505092915050565b6000606082019050613bde6000830186613473565b613beb6020830185613473565b613bf86040830184613417565b949350505050565b600081519050613c0f816138fc565b92915050565b600060208284031215613c2b57613c2a613104565b5b6000613c3984828501613c00565b91505092915050565b7f4c494e4b207472616e73666572206661696c6564000000000000000000000000600082015250565b6000613c786014836137fc565b9150613c8382613c42565b602082019050919050565b60006020820190508181036000830152613ca781613c6b565b9050919050565b7f4e487b7100000000000000000000000000000000000000000000000000000000600052602260045260246000fd5b60006002820490506001821680613cf557607f821691505b602082108103613d0857613d07613cae565b5b50919050565b600081549050613d1d81613cdd565b9050919050565b60008190508160005260206000209050919050565b60008160001c9050919050565b6000819050919050565b6000613d63613d5e83613d39565b613d46565b9050919050565b6000613d768254613d50565b9050919050565b600082821b905092915050565b6000613d9582613d0e565b82601f821115613dab57613da884613d24565b90505b613db481613d6a565b92506020821015613df457613def7fffffffffffffffffffffffffffffffffffffffffffffffffffffffffffffffff83602003600802613d7d565b831692505b5050919050565b600081905092915050565b7f7b226c6f636174696f6e223a2200000000000000000000000000000000000000600082015250565b6000613e3c600d83613dfb565b9150613e4782613e06565b600d82019050919050565b6000613e5d82613514565b613e678185613dfb565b9350613e77818560208601613530565b80840191505092915050565b7f227d000000000000000000000000000000000000000000000000000000000000600082015250565b6000613eb9600283613dfb565b9150613ec482613e83565b600282019050919050565b6000613eda82613e2f565b9150613ee68284613e52565b9150613ef182613eac565b915081905092915050565b60008190508160005260206000209050919050565b60006020601f8301049050919050565b600060088302613f517fffffffffffffffffffffffffffffffffffffffffffffffffffffffffffffffff82613d7d565b613f5b8683613d7d565b95508019841693508086168417925050509392505050565b6000819050919050565b6000613f98613f93613f8e84613300565b613f73565b613300565b9050919050565b6000819050919050565b613fb283613f7d565b613fc6613fbe82613f9f565b848454613f21565b825550505050565b600090565b613fdb613fce565b613fe6818484613fa9565b505050565b5b8181101561400a57613fff600082613fd3565b600181019050613fec565b5050565b601f82111561404f5761402081613efc565b61402984613f11565b81016020851015614038578190505b61404c61404485613f11565b830182613feb565b50505b505050565b600082821c905092915050565b600061407260001984600802614054565b1980831691505092915050565b600061408b8383614061565b9150826002028217905092915050565b6140a482613514565b67ffffffffffffffff8111156140bd576140bc613129565b5b6140c78254613cdd565b6140d282828561400e565b600060209050601f83116001811461410557600084156140f3578287015190505b6140fd858261407f565b865550614165565b601f19841661411386613efc565b60005b8281101561413b57848901518255600182019150602085019450602081019050614116565b868310156141585784890151614154601f891682614061565b8355505b6001600288020188555050505b505050505050565b7f427564676574206d7573742062652067726561746572207468616e2030000000600082015250565b60006141a3601d836137fc565b91506141ae8261416d565b602082019050919050565b600060208201905081810360008301526141d281614196565b9050919050565b7f496e73756666696369656e742066756e64732073656e74000000000000000000600082015250565b600061420f6017836137fc565b915061421a826141d9565b602082019050919050565b6000602082019050818103600083015261423e81614202565b9050919050565b7f426964206d7573742062652067726561746572207468616e2030000000000000600082015250565b600061427b601a836137fc565b915061428682614245565b602082019050919050565b600060208201905081810360008301526142aa8161426e565b9050919050565b7f4e487b7100000000000000000000000000000000000000000000000000000000600052601160045260246000fd5b60006142eb82613300565b91506142f683613300565b925082820190508082111561430e5761430d6142b1565b5b92915050565b7f456e64206461746574696d65206d75737420626520696e20746865206675747560008201527f7265000000000000000000000000000000000000000000000000000000000000602082015250565b60006143706022836137fc565b915061437b82614314565b604082019050919050565b6000602082019050818103600083015261439f81614363565b9050919050565b7f4e616d652063616e6e6f7420626520656d707479000000000000000000000000600082015250565b60006143dc6014836137fc565b91506143e7826143a6565b602082019050919050565b6000602082019050818103600083015261440b816143cf565b9050919050565b7f41642055524c2063616e6e6f7420626520656d70747900000000000000000000600082015250565b60006144486016836137fc565b915061445382614412565b602082019050919050565b600060208201905081810360008301526144778161443b565b9050919050565b7f496d6167652055524c2063616e6e6f7420626520656d70747900000000000000600082015250565b60006144b46019836137fc565b91506144bf8261447e565b602082019050919050565b600060208201905081810360008301526144e3816144a7565b9050919050565b60006144f582613300565b91507fffffffffffffffffffffffffffffffffffffffffffffffffffffffffffffffff8203614527576145266142b1565b5b600182019050919050565b60006060820190506145476000830186613417565b6145546020830185613473565b6145616040830184613417565b949350505050565b7f4e487b7100000000000000000000000000000000000000000000000000000000600052603260045260246000fd5b60006145a382613300565b9150600082036145b6576145b56142b1565b5b600182039050919050565b7f536f75726365206d75737420626520746865206f7261636c65206f662074686560008201527f2072657175657374000000000000000000000000000000000000000000000000602082015250565b600061461d6028836137fc565b9150614628826145c1565b604082019050919050565b6000602082019050818103600083015261464c81614610565b9050919050565b600061465f8284613e52565b915081905092915050565b7f4d7573742062652070726f706f736564206f776e657200000000000000000000600082015250565b60006146a06016836137fc565b91506146ab8261466a565b602082019050919050565b600060208201905081810360008301526146cf81614693565b9050919050565b60008160601b9050919050565b60006146ee826146d6565b9050919050565b6000614700826146e3565b9050919050565b61471861471382613461565b6146f5565b82525050565b6000819050919050565b61473961473482613300565b61471e565b82525050565b600061474b8288614707565b60148201915061475b8287614707565b60148201915061476b8286614728565b60208201915061477b8285614728565b60208201915061478b8284613e52565b91508190509695505050505050565b600081519050919050565b60008190508160005260206000209050919050565b601f8211156147fb576147cc816147a5565b6147d584613f11565b810160208510156147e4578190505b6147f86147f085613f11565b830182613feb565b50505b505050565b6148098261479a565b67ffffffffffffffff81111561482257614821613129565b5b61482c8254613cdd565b6148378282856147ba565b600060209050601f83116001811461486a5760008415614858578287015190505b614862858261407f565b8655506148ca565b601f198416614878866147a5565b60005b828110156148a05784890151825560018201915060208501945060208101905061487b565b868310156148bd57848901516148b9601f891682614061565b8355505b6001600288020188555050505b505050505050565b60006148dd82613300565b91506148e883613300565b9250828203905081811115614900576148ff6142b1565b5b92915050565b600061491182613300565b915061491c83613300565b925082820261492a81613300565b91508282048414831517614941576149406142b1565b5b5092915050565b7f537472696e67733a20686578206c656e67746820696e73756666696369656e74600082015250565b600061497e6020836137fc565b915061498982614948565b602082019050919050565b600060208201905081810360008301526149ad81614971565b9050919050565b60007fffffffff0000000000000000000000000000000000000000000000000000000082169050919050565b6149e9816149b4565b82525050565b600082825260208201905092915050565b6000614a0b8261479a565b614a1581856149ef565b9350614a25818560208601613530565b614a2e81613118565b840191505092915050565b600061010082019050614a4f600083018b613473565b614a5c602083018a613417565b614a6960408301896132d6565b614a766060830188613473565b614a8360808301876149e0565b614a9060a0830186613417565b614a9d60c0830185613417565b81810360e0830152614aaf8184614a00565b90509998505050505050505050565b7f4f6e6c792063616c6c61626c65206279206f776e657200000000000000000000600082015250565b6000614af46016836137fc565b9150614aff82614abe565b602082019050919050565b60006020820190508181036000830152614b2381614ae7565b9050919050565b7f43616e6e6f74207472616e7366657220746f2073656c66000000000000000000600082015250565b6000614b606017836137fc565b9150614b6b82614b2a565b602082019050919050565b60006020820190508181036000830152614b8f81614b53565b9050919050565b7f19457468657265756d205369676e6564204d6573736167653a0a333200000000600082015250565b6000614bcc601c83613dfb565b9150614bd782614b96565b601c82019050919050565b6000819050919050565b614bfd614bf8826132cc565b614be2565b82525050565b6000614c0e82614bbf565b9150614c1a8284614bec565b60208201915081905092915050565b6000614c44614c3f614c3a84613441565b613f73565b613441565b9050919050565b6000614c5682614c29565b9050919050565b6000614c6882614c4b565b9050919050565b614c80614c7b82614c5d565b6146f5565b82525050565b6000614c928285614c6f565b601482019150614ca28284614728565b6020820191508190509392505050565b6000606082019050614cc76000830186613473565b614cd46020830185613417565b8181036040830152614ce68184614a00565b9050949350505050565b7f756e61626c6520746f207472616e73666572416e6443616c6c20746f206f726160008201527f636c650000000000000000000000000000000000000000000000000000000000602082015250565b6000614d4c6023836137fc565b9150614d5782614cf0565b604082019050919050565b60006020820190508181036000830152614d7b81614d3f565b9050919050565b7f4e487b7100000000000000000000000000000000000000000000000000000000600052602160045260246000fd5b7f45434453413a20696e76616c6964207369676e61747572650000000000000000600082015250565b6000614de76018836137fc565b9150614df282614db1565b602082019050919050565b60006020820190508181036000830152614e1681614dda565b9050919050565b7f45434453413a20696e76616c6964207369676e6174757265206c656e67746800600082015250565b6000614e53601f836137fc565b9150614e5e82614e1d565b602082019050919050565b60006020820190508181036000830152614e8281614e46565b9050919050565b7f45434453413a20696e76616c6964207369676e6174757265202773272076616c60008201527f7565000000000000000000000000000000000000000000000000000000000000602082015250565b6000614ee56022836137fc565b9150614ef082614e89565b604082019050919050565b60006020820190508181036000830152614f1481614ed8565b9050919050565b7f4e487b7100000000000000000000000000000000000000000000000000000000600052601260045260246000fd5b6000614f5582613300565b9150614f6083613300565b925082614f7057614f6f614f1b565b5b828206905092915050565b600060ff82169050919050565b614f9181614f7b565b82525050565b6000608082019050614fac60008301876132d6565b614fb96020830186614f88565b614fc660408301856132d6565b614fd360608301846132d6565b95945050505050565b60008160011c9050919050565b6000808291508390505b60018511156150335780860481111561500f5761500e6142b1565b5b600185161561501e5780820291505b808102905061502c85614fdc565b9450614ff3565b94509492505050565b60008261504c5760019050615108565b8161505a5760009050615108565b8160018114615070576002811461507a576150a9565b6001915050615108565b60ff84111561508c5761508b6142b1565b5b8360020a9150848211156150a3576150a26142b1565b5b50615108565b5060208310610133831016604e8410600b84101617156150de5782820a9050838111156150d9576150d86142b1565b5b615108565b6150eb8484846001614fe9565b92509050818404811115615102576151016142b1565b5b81810290505b9392505050565b600061511a82613300565b915061512583613300565b92506151527fffffffffffffffffffffffffffffffffffffffffffffffffffffffffffffffff848461503c565b90509291505056fea2646970667358221220bd20d9e8f6c1ba9a859dec8fdcfd6df9c23bc4c46c1f1178ecc59f738e3f660264736f6c63430008120033",
  "linkReferences": {},
  "deployedLinkReferences": {}
}